{
  "abi": [
    {
      "inputs": [
        {
          "internalType": "address",
          "name": "_registryAddress",
          "type": "address"
        },
        {
          "internalType": "address",
          "name": "_notificationManagerAddress",
          "type": "address"
        }
      ],
      "stateMutability": "nonpayable",
      "type": "constructor"
    },
    {
      "inputs": [
        {
          "internalType": "bytes32",
          "name": "",
          "type": "bytes32"
        },
        {
          "internalType": "uint256",
          "name": "",
          "type": "uint256"
        }
      ],
      "name": "Data",
      "outputs": [
        {
          "internalType": "string",
          "name": "dataType",
          "type": "string"
        },
        {
          "internalType": "string",
          "name": "HI",
          "type": "string"
        },
        {
          "internalType": "bytes",
          "name": "encKey",
          "type": "bytes"
        }
      ],
      "stateMutability": "view",
      "type": "function"
    },
    {
      "inputs": [
        {
          "internalType": "bytes32",
          "name": "ownerKey",
          "type": "bytes32"
        },
        {
          "internalType": "string",
          "name": "dataType",
          "type": "string"
        },
        {
          "internalType": "string",
          "name": "HI",
          "type": "string"
        },
        {
          "internalType": "bytes",
          "name": "encKey",
          "type": "bytes"
        }
      ],
      "name": "addEHRdata",
      "outputs": [],
      "stateMutability": "nonpayable",
      "type": "function"
    },
    {
      "inputs": [],
      "name": "notificationManager",
      "outputs": [
        {
          "internalType": "contract NotificationManager",
          "name": "",
          "type": "address"
        }
      ],
      "stateMutability": "view",
      "type": "function"
    },
    {
      "inputs": [],
      "name": "registry",
      "outputs": [
        {
          "internalType": "contract Registry",
          "name": "",
          "type": "address"
        }
      ],
      "stateMutability": "view",
      "type": "function"
    },
    {
      "inputs": [
        {
          "internalType": "bytes32",
          "name": "userKey",
          "type": "bytes32"
        }
      ],
      "name": "searchData",
      "outputs": [
        {
          "internalType": "string[]",
          "name": "",
          "type": "string[]"
        },
        {
          "internalType": "string[]",
          "name": "",
          "type": "string[]"
        },
        {
          "internalType": "bytes[]",
          "name": "",
          "type": "bytes[]"
        }
      ],
      "stateMutability": "view",
      "type": "function"
    }
  ],
  "devdoc": {
    "kind": "dev",
    "methods": {},
    "version": 1
  },
  "evm": {
    "assembly": "    /* \"metadata.sol\":125:1763  contract Metadata {... */\n  mstore(0x40, 0x80)\n    /* \"metadata.sol\":439:676  constructor(... */\n  callvalue\n  dup1\n  iszero\n  tag_1\n  jumpi\n  0x00\n  dup1\n  revert\ntag_1:\n  pop\n  mload(0x40)\n  sub(codesize, bytecodeSize)\n  dup1\n  bytecodeSize\n  dup4\n  codecopy\n  dup2\n  dup2\n  add\n  0x40\n  mstore\n  dup2\n  add\n  swap1\n  tag_2\n  swap2\n  swap1\n  tag_3\n  jump\t// in\ntag_2:\n    /* \"metadata.sol\":570:586  _registryAddress */\n  dup2\n    /* \"metadata.sol\":550:558  registry */\n  0x00\n  dup1\n    /* \"metadata.sol\":550:587  registry = Registry(_registryAddress) */\n  0x0100\n  exp\n  dup2\n  sload\n  dup2\n  0xffffffffffffffffffffffffffffffffffffffff\n  mul\n  not\n  and\n  swap1\n  dup4\n  0xffffffffffffffffffffffffffffffffffffffff\n  and\n  mul\n  or\n  swap1\n  sstore\n  pop\n    /* \"metadata.sol\":640:667  _notificationManagerAddress */\n  dup1\n    /* \"metadata.sol\":598:617  notificationManager */\n  0x01\n  0x00\n    /* \"metadata.sol\":598:668  notificationManager = NotificationManager(_notificationManagerAddress) */\n  0x0100\n  exp\n  dup2\n  sload\n  dup2\n  0xffffffffffffffffffffffffffffffffffffffff\n  mul\n  not\n  and\n  swap1\n  dup4\n  0xffffffffffffffffffffffffffffffffffffffff\n  and\n  mul\n  or\n  swap1\n  sstore\n  pop\n    /* \"metadata.sol\":439:676  constructor(... */\n  pop\n  pop\n    /* \"metadata.sol\":125:1763  contract Metadata {... */\n  jump(tag_6)\n    /* \"#utility.yul\":88:205   */\ntag_8:\n    /* \"#utility.yul\":197:198   */\n  0x00\n    /* \"#utility.yul\":194:195   */\n  dup1\n    /* \"#utility.yul\":187:199   */\n  revert\n    /* \"#utility.yul\":334:460   */\ntag_10:\n    /* \"#utility.yul\":371:378   */\n  0x00\n    /* \"#utility.yul\":411:453   */\n  0xffffffffffffffffffffffffffffffffffffffff\n    /* \"#utility.yul\":404:409   */\n  dup3\n    /* \"#utility.yul\":400:454   */\n  and\n    /* \"#utility.yul\":389:454   */\n  swap1\n  pop\n    /* \"#utility.yul\":334:460   */\n  swap2\n  swap1\n  pop\n  jump\t// out\n    /* \"#utility.yul\":466:562   */\ntag_11:\n    /* \"#utility.yul\":503:510   */\n  0x00\n    /* \"#utility.yul\":532:556   */\n  tag_20\n    /* \"#utility.yul\":550:555   */\n  dup3\n    /* \"#utility.yul\":532:556   */\n  tag_10\n  jump\t// in\ntag_20:\n    /* \"#utility.yul\":521:556   */\n  swap1\n  pop\n    /* \"#utility.yul\":466:562   */\n  swap2\n  swap1\n  pop\n  jump\t// out\n    /* \"#utility.yul\":568:690   */\ntag_12:\n    /* \"#utility.yul\":641:665   */\n  tag_22\n    /* \"#utility.yul\":659:664   */\n  dup2\n    /* \"#utility.yul\":641:665   */\n  tag_11\n  jump\t// in\ntag_22:\n    /* \"#utility.yul\":634:639   */\n  dup2\n    /* \"#utility.yul\":631:666   */\n  eq\n    /* \"#utility.yul\":621:684   */\n  tag_23\n  jumpi\n    /* \"#utility.yul\":680:681   */\n  0x00\n    /* \"#utility.yul\":677:678   */\n  dup1\n    /* \"#utility.yul\":670:682   */\n  revert\n    /* \"#utility.yul\":621:684   */\ntag_23:\n    /* \"#utility.yul\":568:690   */\n  pop\n  jump\t// out\n    /* \"#utility.yul\":696:839   */\ntag_13:\n    /* \"#utility.yul\":753:758   */\n  0x00\n    /* \"#utility.yul\":784:790   */\n  dup2\n    /* \"#utility.yul\":778:791   */\n  mload\n    /* \"#utility.yul\":769:791   */\n  swap1\n  pop\n    /* \"#utility.yul\":800:833   */\n  tag_25\n    /* \"#utility.yul\":827:832   */\n  dup2\n    /* \"#utility.yul\":800:833   */\n  tag_12\n  jump\t// in\ntag_25:\n    /* \"#utility.yul\":696:839   */\n  swap3\n  swap2\n  pop\n  pop\n  jump\t// out\n    /* \"#utility.yul\":845:1352   */\ntag_3:\n    /* \"#utility.yul\":924:930   */\n  0x00\n    /* \"#utility.yul\":932:938   */\n  dup1\n    /* \"#utility.yul\":981:983   */\n  0x40\n    /* \"#utility.yul\":969:978   */\n  dup4\n    /* \"#utility.yul\":960:967   */\n  dup6\n    /* \"#utility.yul\":956:979   */\n  sub\n    /* \"#utility.yul\":952:984   */\n  slt\n    /* \"#utility.yul\":949:1068   */\n  iszero\n  tag_27\n  jumpi\n    /* \"#utility.yul\":987:1066   */\n  tag_28\n  tag_8\n  jump\t// in\ntag_28:\n    /* \"#utility.yul\":949:1068   */\ntag_27:\n    /* \"#utility.yul\":1107:1108   */\n  0x00\n    /* \"#utility.yul\":1132:1196   */\n  tag_29\n    /* \"#utility.yul\":1188:1195   */\n  dup6\n    /* \"#utility.yul\":1179:1185   */\n  dup3\n    /* \"#utility.yul\":1168:1177   */\n  dup7\n    /* \"#utility.yul\":1164:1186   */\n  add\n    /* \"#utility.yul\":1132:1196   */\n  tag_13\n  jump\t// in\ntag_29:\n    /* \"#utility.yul\":1122:1196   */\n  swap3\n  pop\n    /* \"#utility.yul\":1078:1206   */\n  pop\n    /* \"#utility.yul\":1245:1247   */\n  0x20\n    /* \"#utility.yul\":1271:1335   */\n  tag_30\n    /* \"#utility.yul\":1327:1334   */\n  dup6\n    /* \"#utility.yul\":1318:1324   */\n  dup3\n    /* \"#utility.yul\":1307:1316   */\n  dup7\n    /* \"#utility.yul\":1303:1325   */\n  add\n    /* \"#utility.yul\":1271:1335   */\n  tag_13\n  jump\t// in\ntag_30:\n    /* \"#utility.yul\":1261:1335   */\n  swap2\n  pop\n    /* \"#utility.yul\":1216:1345   */\n  pop\n    /* \"#utility.yul\":845:1352   */\n  swap3\n  pop\n  swap3\n  swap1\n  pop\n  jump\t// out\n    /* \"metadata.sol\":125:1763  contract Metadata {... */\ntag_6:\n  dataSize(sub_0)\n  dup1\n  dataOffset(sub_0)\n  0x00\n  codecopy\n  0x00\n  return\nstop\n\nsub_0: assembly {\n        /* \"metadata.sol\":125:1763  contract Metadata {... */\n      mstore(0x40, 0x80)\n      callvalue\n      dup1\n      iszero\n      tag_1\n      jumpi\n      0x00\n      dup1\n      revert\n    tag_1:\n      pop\n      jumpi(tag_2, lt(calldatasize, 0x04))\n      shr(0xe0, calldataload(0x00))\n      dup1\n      0x1d755579\n      eq\n      tag_3\n      jumpi\n      dup1\n      0x2cb73406\n      eq\n      tag_4\n      jumpi\n      dup1\n      0x65375a04\n      eq\n      tag_5\n      jumpi\n      dup1\n      0x7b103999\n      eq\n      tag_6\n      jumpi\n      dup1\n      0xba0c93cb\n      eq\n      tag_7\n      jumpi\n    tag_2:\n      0x00\n      dup1\n      revert\n        /* \"metadata.sol\":181:227  NotificationManager public notificationManager */\n    tag_3:\n      tag_8\n      tag_9\n      jump\t// in\n    tag_8:\n      mload(0x40)\n      tag_10\n      swap2\n      swap1\n      tag_11\n      jump\t// in\n    tag_10:\n      mload(0x40)\n      dup1\n      swap2\n      sub\n      swap1\n      return\n        /* \"metadata.sol\":389:430  mapping(bytes32 => EHRData[]) public Data */\n    tag_4:\n      tag_12\n      0x04\n      dup1\n      calldatasize\n      sub\n      dup2\n      add\n      swap1\n      tag_13\n      swap2\n      swap1\n      tag_14\n      jump\t// in\n    tag_13:\n      tag_15\n      jump\t// in\n    tag_12:\n      mload(0x40)\n      tag_16\n      swap4\n      swap3\n      swap2\n      swap1\n      tag_17\n      jump\t// in\n    tag_16:\n      mload(0x40)\n      dup1\n      swap2\n      sub\n      swap1\n      return\n        /* \"metadata.sol\":1082:1760  function searchData(bytes32 userKey) public view returns (string[] memory, string[] memory, bytes[] memory) {... */\n    tag_5:\n      tag_18\n      0x04\n      dup1\n      calldatasize\n      sub\n      dup2\n      add\n      swap1\n      tag_19\n      swap2\n      swap1\n      tag_20\n      jump\t// in\n    tag_19:\n      tag_21\n      jump\t// in\n    tag_18:\n      mload(0x40)\n      tag_22\n      swap4\n      swap3\n      swap2\n      swap1\n      tag_23\n      jump\t// in\n    tag_22:\n      mload(0x40)\n      dup1\n      swap2\n      sub\n      swap1\n      return\n        /* \"metadata.sol\":150:174  Registry public registry */\n    tag_6:\n      tag_24\n      tag_25\n      jump\t// in\n    tag_24:\n      mload(0x40)\n      tag_26\n      swap2\n      swap1\n      tag_27\n      jump\t// in\n    tag_26:\n      mload(0x40)\n      dup1\n      swap2\n      sub\n      swap1\n      return\n        /* \"metadata.sol\":684:1074  function addEHRdata(... */\n    tag_7:\n      tag_28\n      0x04\n      dup1\n      calldatasize\n      sub\n      dup2\n      add\n      swap1\n      tag_29\n      swap2\n      swap1\n      tag_30\n      jump\t// in\n    tag_29:\n      tag_31\n      jump\t// in\n    tag_28:\n      stop\n        /* \"metadata.sol\":181:227  NotificationManager public notificationManager */\n    tag_9:\n      0x01\n      0x00\n      swap1\n      sload\n      swap1\n      0x0100\n      exp\n      swap1\n      div\n      0xffffffffffffffffffffffffffffffffffffffff\n      and\n      dup2\n      jump\t// out\n        /* \"metadata.sol\":389:430  mapping(bytes32 => EHRData[]) public Data */\n    tag_15:\n      mstore(0x20, 0x02)\n      dup2\n      0x00\n      mstore\n      keccak256(0x00, 0x40)\n      dup2\n      dup2\n      sload\n      dup2\n      lt\n      tag_32\n      jumpi\n      0x00\n      dup1\n      revert\n    tag_32:\n      swap1\n      0x00\n      mstore\n      keccak256(0x00, 0x20)\n      swap1\n      0x03\n      mul\n      add\n      0x00\n      swap2\n      pop\n      swap2\n      pop\n      pop\n      dup1\n      0x00\n      add\n      dup1\n      sload\n      tag_34\n      swap1\n      tag_35\n      jump\t// in\n    tag_34:\n      dup1\n      0x1f\n      add\n      0x20\n      dup1\n      swap2\n      div\n      mul\n      0x20\n      add\n      mload(0x40)\n      swap1\n      dup2\n      add\n      0x40\n      mstore\n      dup1\n      swap3\n      swap2\n      swap1\n      dup2\n      dup2\n      mstore\n      0x20\n      add\n      dup3\n      dup1\n      sload\n      tag_36\n      swap1\n      tag_35\n      jump\t// in\n    tag_36:\n      dup1\n      iszero\n      tag_37\n      jumpi\n      dup1\n      0x1f\n      lt\n      tag_38\n      jumpi\n      0x0100\n      dup1\n      dup4\n      sload\n      div\n      mul\n      dup4\n      mstore\n      swap2\n      0x20\n      add\n      swap2\n      jump(tag_37)\n    tag_38:\n      dup3\n      add\n      swap2\n      swap1\n      0x00\n      mstore\n      keccak256(0x00, 0x20)\n      swap1\n    tag_39:\n      dup2\n      sload\n      dup2\n      mstore\n      swap1\n      0x01\n      add\n      swap1\n      0x20\n      add\n      dup1\n      dup4\n      gt\n      tag_39\n      jumpi\n      dup3\n      swap1\n      sub\n      0x1f\n      and\n      dup3\n      add\n      swap2\n    tag_37:\n      pop\n      pop\n      pop\n      pop\n      pop\n      swap1\n      dup1\n      0x01\n      add\n      dup1\n      sload\n      tag_40\n      swap1\n      tag_35\n      jump\t// in\n    tag_40:\n      dup1\n      0x1f\n      add\n      0x20\n      dup1\n      swap2\n      div\n      mul\n      0x20\n      add\n      mload(0x40)\n      swap1\n      dup2\n      add\n      0x40\n      mstore\n      dup1\n      swap3\n      swap2\n      swap1\n      dup2\n      dup2\n      mstore\n      0x20\n      add\n      dup3\n      dup1\n      sload\n      tag_41\n      swap1\n      tag_35\n      jump\t// in\n    tag_41:\n      dup1\n      iszero\n      tag_42\n      jumpi\n      dup1\n      0x1f\n      lt\n      tag_43\n      jumpi\n      0x0100\n      dup1\n      dup4\n      sload\n      div\n      mul\n      dup4\n      mstore\n      swap2\n      0x20\n      add\n      swap2\n      jump(tag_42)\n    tag_43:\n      dup3\n      add\n      swap2\n      swap1\n      0x00\n      mstore\n      keccak256(0x00, 0x20)\n      swap1\n    tag_44:\n      dup2\n      sload\n      dup2\n      mstore\n      swap1\n      0x01\n      add\n      swap1\n      0x20\n      add\n      dup1\n      dup4\n      gt\n      tag_44\n      jumpi\n      dup3\n      swap1\n      sub\n      0x1f\n      and\n      dup3\n      add\n      swap2\n    tag_42:\n      pop\n      pop\n      pop\n      pop\n      pop\n      swap1\n      dup1\n      0x02\n      add\n      dup1\n      sload\n      tag_45\n      swap1\n      tag_35\n      jump\t// in\n    tag_45:\n      dup1\n      0x1f\n      add\n      0x20\n      dup1\n      swap2\n      div\n      mul\n      0x20\n      add\n      mload(0x40)\n      swap1\n      dup2\n      add\n      0x40\n      mstore\n      dup1\n      swap3\n      swap2\n      swap1\n      dup2\n      dup2\n      mstore\n      0x20\n      add\n      dup3\n      dup1\n      sload\n      tag_46\n      swap1\n      tag_35\n      jump\t// in\n    tag_46:\n      dup1\n      iszero\n      tag_47\n      jumpi\n      dup1\n      0x1f\n      lt\n      tag_48\n      jumpi\n      0x0100\n      dup1\n      dup4\n      sload\n      div\n      mul\n      dup4\n      mstore\n      swap2\n      0x20\n      add\n      swap2\n      jump(tag_47)\n    tag_48:\n      dup3\n      add\n      swap2\n      swap1\n      0x00\n      mstore\n      keccak256(0x00, 0x20)\n      swap1\n    tag_49:\n      dup2\n      sload\n      dup2\n      mstore\n      swap1\n      0x01\n      add\n      swap1\n      0x20\n      add\n      dup1\n      dup4\n      gt\n      tag_49\n      jumpi\n      dup3\n      swap1\n      sub\n      0x1f\n      and\n      dup3\n      add\n      swap2\n    tag_47:\n      pop\n      pop\n      pop\n      pop\n      pop\n      swap1\n      pop\n      dup4\n      jump\t// out\n        /* \"metadata.sol\":1082:1760  function searchData(bytes32 userKey) public view returns (string[] memory, string[] memory, bytes[] memory) {... */\n    tag_21:\n        /* \"metadata.sol\":1140:1155  string[] memory */\n      0x60\n        /* \"metadata.sol\":1157:1172  string[] memory */\n      dup1\n        /* \"metadata.sol\":1174:1188  bytes[] memory */\n      0x60\n        /* \"metadata.sol\":1209:1217  registry */\n      0x00\n      dup1\n      sload\n      swap1\n      0x0100\n      exp\n      swap1\n      div\n      0xffffffffffffffffffffffffffffffffffffffff\n      and\n        /* \"metadata.sol\":1209:1227  registry.checkUser */\n      0xffffffffffffffffffffffffffffffffffffffff\n      and\n      0x0b2551c2\n        /* \"metadata.sol\":1228:1235  userKey */\n      dup6\n        /* \"metadata.sol\":1209:1236  registry.checkUser(userKey) */\n      mload(0x40)\n      dup3\n      0xffffffff\n      and\n      0xe0\n      shl\n      dup2\n      mstore\n      0x04\n      add\n      tag_51\n      swap2\n      swap1\n      tag_52\n      jump\t// in\n    tag_51:\n      0x20\n      mload(0x40)\n      dup1\n      dup4\n      sub\n      dup2\n      dup7\n      gas\n      staticcall\n      iszero\n      dup1\n      iszero\n      tag_54\n      jumpi\n      returndatasize\n      0x00\n      dup1\n      returndatacopy\n      revert(0x00, returndatasize)\n    tag_54:\n      pop\n      pop\n      pop\n      pop\n      mload(0x40)\n      returndatasize\n      not(0x1f)\n      0x1f\n      dup3\n      add\n      and\n      dup3\n      add\n      dup1\n      0x40\n      mstore\n      pop\n      dup2\n      add\n      swap1\n      tag_55\n      swap2\n      swap1\n      tag_56\n      jump\t// in\n    tag_55:\n        /* \"metadata.sol\":1201:1271  require(registry.checkUser(userKey), \"User not registered to system!\") */\n      tag_57\n      jumpi\n      mload(0x40)\n      0x08c379a000000000000000000000000000000000000000000000000000000000\n      dup2\n      mstore\n      0x04\n      add\n      tag_58\n      swap1\n      tag_59\n      jump\t// in\n    tag_58:\n      mload(0x40)\n      dup1\n      swap2\n      sub\n      swap1\n      revert\n    tag_57:\n        /* \"metadata.sol\":1284:1298  uint256 length */\n      0x00\n        /* \"metadata.sol\":1301:1305  Data */\n      0x02\n        /* \"metadata.sol\":1301:1314  Data[userKey] */\n      0x00\n        /* \"metadata.sol\":1306:1313  userKey */\n      dup7\n        /* \"metadata.sol\":1301:1314  Data[userKey] */\n      dup2\n      mstore\n      0x20\n      add\n      swap1\n      dup2\n      mstore\n      0x20\n      add\n      0x00\n      keccak256\n        /* \"metadata.sol\":1301:1321  Data[userKey].length */\n      dup1\n      sload\n      swap1\n      pop\n        /* \"metadata.sol\":1284:1321  uint256 length = Data[userKey].length */\n      swap1\n      pop\n        /* \"metadata.sol\":1332:1357  string[] memory dataTypes */\n      0x00\n        /* \"metadata.sol\":1373:1379  length */\n      dup2\n        /* \"metadata.sol\":1360:1380  new string[](length) */\n      0xffffffffffffffff\n      dup2\n      gt\n      iszero\n      tag_60\n      jumpi\n      tag_61\n      tag_62\n      jump\t// in\n    tag_61:\n    tag_60:\n      mload(0x40)\n      swap1\n      dup1\n      dup3\n      mstore\n      dup1\n      0x20\n      mul\n      0x20\n      add\n      dup3\n      add\n      0x40\n      mstore\n      dup1\n      iszero\n      tag_63\n      jumpi\n      dup2\n      0x20\n      add\n    tag_64:\n      0x60\n      dup2\n      mstore\n      0x20\n      add\n      swap1\n      0x01\n      swap1\n      sub\n      swap1\n      dup2\n      tag_64\n      jumpi\n      swap1\n      pop\n    tag_63:\n      pop\n        /* \"metadata.sol\":1332:1380  string[] memory dataTypes = new string[](length) */\n      swap1\n      pop\n        /* \"metadata.sol\":1391:1413  string[] memory HIList */\n      0x00\n        /* \"metadata.sol\":1429:1435  length */\n      dup3\n        /* \"metadata.sol\":1416:1436  new string[](length) */\n      0xffffffffffffffff\n      dup2\n      gt\n      iszero\n      tag_65\n      jumpi\n      tag_66\n      tag_62\n      jump\t// in\n    tag_66:\n    tag_65:\n      mload(0x40)\n      swap1\n      dup1\n      dup3\n      mstore\n      dup1\n      0x20\n      mul\n      0x20\n      add\n      dup3\n      add\n      0x40\n      mstore\n      dup1\n      iszero\n      tag_67\n      jumpi\n      dup2\n      0x20\n      add\n    tag_68:\n      0x60\n      dup2\n      mstore\n      0x20\n      add\n      swap1\n      0x01\n      swap1\n      sub\n      swap1\n      dup2\n      tag_68\n      jumpi\n      swap1\n      pop\n    tag_67:\n      pop\n        /* \"metadata.sol\":1391:1436  string[] memory HIList = new string[](length) */\n      swap1\n      pop\n        /* \"metadata.sol\":1447:1469  bytes[] memory encKeys */\n      0x00\n        /* \"metadata.sol\":1484:1490  length */\n      dup4\n        /* \"metadata.sol\":1472:1491  new bytes[](length) */\n      0xffffffffffffffff\n      dup2\n      gt\n      iszero\n      tag_69\n      jumpi\n      tag_70\n      tag_62\n      jump\t// in\n    tag_70:\n    tag_69:\n      mload(0x40)\n      swap1\n      dup1\n      dup3\n      mstore\n      dup1\n      0x20\n      mul\n      0x20\n      add\n      dup3\n      add\n      0x40\n      mstore\n      dup1\n      iszero\n      tag_71\n      jumpi\n      dup2\n      0x20\n      add\n    tag_72:\n      0x60\n      dup2\n      mstore\n      0x20\n      add\n      swap1\n      0x01\n      swap1\n      sub\n      swap1\n      dup2\n      tag_72\n      jumpi\n      swap1\n      pop\n    tag_71:\n      pop\n        /* \"metadata.sol\":1447:1491  bytes[] memory encKeys = new bytes[](length) */\n      swap1\n      pop\n        /* \"metadata.sol\":1509:1518  uint256 i */\n      0x00\n        /* \"metadata.sol\":1504:1705  for (uint256 i = 0; i < length; i++) {... */\n    tag_73:\n        /* \"metadata.sol\":1528:1534  length */\n      dup5\n        /* \"metadata.sol\":1524:1525  i */\n      dup2\n        /* \"metadata.sol\":1524:1534  i < length */\n      lt\n        /* \"metadata.sol\":1504:1705  for (uint256 i = 0; i < length; i++) {... */\n      iszero\n      tag_74\n      jumpi\n        /* \"metadata.sol\":1571:1575  Data */\n      0x02\n        /* \"metadata.sol\":1571:1584  Data[userKey] */\n      0x00\n        /* \"metadata.sol\":1576:1583  userKey */\n      dup11\n        /* \"metadata.sol\":1571:1584  Data[userKey] */\n      dup2\n      mstore\n      0x20\n      add\n      swap1\n      dup2\n      mstore\n      0x20\n      add\n      0x00\n      keccak256\n        /* \"metadata.sol\":1585:1586  i */\n      dup2\n        /* \"metadata.sol\":1571:1587  Data[userKey][i] */\n      dup2\n      sload\n      dup2\n      lt\n      tag_76\n      jumpi\n      tag_77\n      tag_78\n      jump\t// in\n    tag_77:\n    tag_76:\n      swap1\n      0x00\n      mstore\n      keccak256(0x00, 0x20)\n      swap1\n      0x03\n      mul\n      add\n        /* \"metadata.sol\":1571:1596  Data[userKey][i].dataType */\n      0x00\n      add\n        /* \"metadata.sol\":1556:1596  dataTypes[i] = Data[userKey][i].dataType */\n      dup1\n      sload\n      tag_80\n      swap1\n      tag_35\n      jump\t// in\n    tag_80:\n      dup1\n      0x1f\n      add\n      0x20\n      dup1\n      swap2\n      div\n      mul\n      0x20\n      add\n      mload(0x40)\n      swap1\n      dup2\n      add\n      0x40\n      mstore\n      dup1\n      swap3\n      swap2\n      swap1\n      dup2\n      dup2\n      mstore\n      0x20\n      add\n      dup3\n      dup1\n      sload\n      tag_81\n      swap1\n      tag_35\n      jump\t// in\n    tag_81:\n      dup1\n      iszero\n      tag_82\n      jumpi\n      dup1\n      0x1f\n      lt\n      tag_83\n      jumpi\n      0x0100\n      dup1\n      dup4\n      sload\n      div\n      mul\n      dup4\n      mstore\n      swap2\n      0x20\n      add\n      swap2\n      jump(tag_82)\n    tag_83:\n      dup3\n      add\n      swap2\n      swap1\n      0x00\n      mstore\n      keccak256(0x00, 0x20)\n      swap1\n    tag_84:\n      dup2\n      sload\n      dup2\n      mstore\n      swap1\n      0x01\n      add\n      swap1\n      0x20\n      add\n      dup1\n      dup4\n      gt\n      tag_84\n      jumpi\n      dup3\n      swap1\n      sub\n      0x1f\n      and\n      dup3\n      add\n      swap2\n    tag_82:\n      pop\n      pop\n      pop\n      pop\n      pop\n        /* \"metadata.sol\":1556:1565  dataTypes */\n      dup5\n        /* \"metadata.sol\":1566:1567  i */\n      dup3\n        /* \"metadata.sol\":1556:1568  dataTypes[i] */\n      dup2\n      mload\n      dup2\n      lt\n      tag_85\n      jumpi\n      tag_86\n      tag_78\n      jump\t// in\n    tag_86:\n    tag_85:\n      0x20\n      mul\n      0x20\n      add\n      add\n        /* \"metadata.sol\":1556:1596  dataTypes[i] = Data[userKey][i].dataType */\n      dup2\n      swap1\n      mstore\n      pop\n        /* \"metadata.sol\":1623:1627  Data */\n      0x02\n        /* \"metadata.sol\":1623:1636  Data[userKey] */\n      0x00\n        /* \"metadata.sol\":1628:1635  userKey */\n      dup11\n        /* \"metadata.sol\":1623:1636  Data[userKey] */\n      dup2\n      mstore\n      0x20\n      add\n      swap1\n      dup2\n      mstore\n      0x20\n      add\n      0x00\n      keccak256\n        /* \"metadata.sol\":1637:1638  i */\n      dup2\n        /* \"metadata.sol\":1623:1639  Data[userKey][i] */\n      dup2\n      sload\n      dup2\n      lt\n      tag_87\n      jumpi\n      tag_88\n      tag_78\n      jump\t// in\n    tag_88:\n    tag_87:\n      swap1\n      0x00\n      mstore\n      keccak256(0x00, 0x20)\n      swap1\n      0x03\n      mul\n      add\n        /* \"metadata.sol\":1623:1642  Data[userKey][i].HI */\n      0x01\n      add\n        /* \"metadata.sol\":1611:1642  HIList[i] = Data[userKey][i].HI */\n      dup1\n      sload\n      tag_90\n      swap1\n      tag_35\n      jump\t// in\n    tag_90:\n      dup1\n      0x1f\n      add\n      0x20\n      dup1\n      swap2\n      div\n      mul\n      0x20\n      add\n      mload(0x40)\n      swap1\n      dup2\n      add\n      0x40\n      mstore\n      dup1\n      swap3\n      swap2\n      swap1\n      dup2\n      dup2\n      mstore\n      0x20\n      add\n      dup3\n      dup1\n      sload\n      tag_91\n      swap1\n      tag_35\n      jump\t// in\n    tag_91:\n      dup1\n      iszero\n      tag_92\n      jumpi\n      dup1\n      0x1f\n      lt\n      tag_93\n      jumpi\n      0x0100\n      dup1\n      dup4\n      sload\n      div\n      mul\n      dup4\n      mstore\n      swap2\n      0x20\n      add\n      swap2\n      jump(tag_92)\n    tag_93:\n      dup3\n      add\n      swap2\n      swap1\n      0x00\n      mstore\n      keccak256(0x00, 0x20)\n      swap1\n    tag_94:\n      dup2\n      sload\n      dup2\n      mstore\n      swap1\n      0x01\n      add\n      swap1\n      0x20\n      add\n      dup1\n      dup4\n      gt\n      tag_94\n      jumpi\n      dup3\n      swap1\n      sub\n      0x1f\n      and\n      dup3\n      add\n      swap2\n    tag_92:\n      pop\n      pop\n      pop\n      pop\n      pop\n        /* \"metadata.sol\":1611:1617  HIList */\n      dup4\n        /* \"metadata.sol\":1618:1619  i */\n      dup3\n        /* \"metadata.sol\":1611:1620  HIList[i] */\n      dup2\n      mload\n      dup2\n      lt\n      tag_95\n      jumpi\n      tag_96\n      tag_78\n      jump\t// in\n    tag_96:\n    tag_95:\n      0x20\n      mul\n      0x20\n      add\n      add\n        /* \"metadata.sol\":1611:1642  HIList[i] = Data[userKey][i].HI */\n      dup2\n      swap1\n      mstore\n      pop\n        /* \"metadata.sol\":1670:1674  Data */\n      0x02\n        /* \"metadata.sol\":1670:1683  Data[userKey] */\n      0x00\n        /* \"metadata.sol\":1675:1682  userKey */\n      dup11\n        /* \"metadata.sol\":1670:1683  Data[userKey] */\n      dup2\n      mstore\n      0x20\n      add\n      swap1\n      dup2\n      mstore\n      0x20\n      add\n      0x00\n      keccak256\n        /* \"metadata.sol\":1684:1685  i */\n      dup2\n        /* \"metadata.sol\":1670:1686  Data[userKey][i] */\n      dup2\n      sload\n      dup2\n      lt\n      tag_97\n      jumpi\n      tag_98\n      tag_78\n      jump\t// in\n    tag_98:\n    tag_97:\n      swap1\n      0x00\n      mstore\n      keccak256(0x00, 0x20)\n      swap1\n      0x03\n      mul\n      add\n        /* \"metadata.sol\":1670:1693  Data[userKey][i].encKey */\n      0x02\n      add\n        /* \"metadata.sol\":1657:1693  encKeys[i] = Data[userKey][i].encKey */\n      dup1\n      sload\n      tag_100\n      swap1\n      tag_35\n      jump\t// in\n    tag_100:\n      dup1\n      0x1f\n      add\n      0x20\n      dup1\n      swap2\n      div\n      mul\n      0x20\n      add\n      mload(0x40)\n      swap1\n      dup2\n      add\n      0x40\n      mstore\n      dup1\n      swap3\n      swap2\n      swap1\n      dup2\n      dup2\n      mstore\n      0x20\n      add\n      dup3\n      dup1\n      sload\n      tag_101\n      swap1\n      tag_35\n      jump\t// in\n    tag_101:\n      dup1\n      iszero\n      tag_102\n      jumpi\n      dup1\n      0x1f\n      lt\n      tag_103\n      jumpi\n      0x0100\n      dup1\n      dup4\n      sload\n      div\n      mul\n      dup4\n      mstore\n      swap2\n      0x20\n      add\n      swap2\n      jump(tag_102)\n    tag_103:\n      dup3\n      add\n      swap2\n      swap1\n      0x00\n      mstore\n      keccak256(0x00, 0x20)\n      swap1\n    tag_104:\n      dup2\n      sload\n      dup2\n      mstore\n      swap1\n      0x01\n      add\n      swap1\n      0x20\n      add\n      dup1\n      dup4\n      gt\n      tag_104\n      jumpi\n      dup3\n      swap1\n      sub\n      0x1f\n      and\n      dup3\n      add\n      swap2\n    tag_102:\n      pop\n      pop\n      pop\n      pop\n      pop\n        /* \"metadata.sol\":1657:1664  encKeys */\n      dup3\n        /* \"metadata.sol\":1665:1666  i */\n      dup3\n        /* \"metadata.sol\":1657:1667  encKeys[i] */\n      dup2\n      mload\n      dup2\n      lt\n      tag_105\n      jumpi\n      tag_106\n      tag_78\n      jump\t// in\n    tag_106:\n    tag_105:\n      0x20\n      mul\n      0x20\n      add\n      add\n        /* \"metadata.sol\":1657:1693  encKeys[i] = Data[userKey][i].encKey */\n      dup2\n      swap1\n      mstore\n      pop\n        /* \"metadata.sol\":1536:1539  i++ */\n      dup1\n      dup1\n      tag_107\n      swap1\n      tag_108\n      jump\t// in\n    tag_107:\n      swap2\n      pop\n      pop\n        /* \"metadata.sol\":1504:1705  for (uint256 i = 0; i < length; i++) {... */\n      jump(tag_73)\n    tag_74:\n      pop\n        /* \"metadata.sol\":1725:1734  dataTypes */\n      dup3\n        /* \"metadata.sol\":1736:1742  HIList */\n      dup3\n        /* \"metadata.sol\":1744:1751  encKeys */\n      dup3\n        /* \"metadata.sol\":1717:1752  return (dataTypes, HIList, encKeys) */\n      swap7\n      pop\n      swap7\n      pop\n      swap7\n      pop\n      pop\n      pop\n      pop\n      pop\n        /* \"metadata.sol\":1082:1760  function searchData(bytes32 userKey) public view returns (string[] memory, string[] memory, bytes[] memory) {... */\n      swap2\n      swap4\n      swap1\n      swap3\n      pop\n      jump\t// out\n        /* \"metadata.sol\":150:174  Registry public registry */\n    tag_25:\n      0x00\n      dup1\n      sload\n      swap1\n      0x0100\n      exp\n      swap1\n      div\n      0xffffffffffffffffffffffffffffffffffffffff\n      and\n      dup2\n      jump\t// out\n        /* \"metadata.sol\":684:1074  function addEHRdata(... */\n    tag_31:\n        /* \"metadata.sol\":854:862  registry */\n      0x00\n      dup1\n      sload\n      swap1\n      0x0100\n      exp\n      swap1\n      div\n      0xffffffffffffffffffffffffffffffffffffffff\n      and\n        /* \"metadata.sol\":854:872  registry.checkUser */\n      0xffffffffffffffffffffffffffffffffffffffff\n      and\n      0x0b2551c2\n        /* \"metadata.sol\":873:881  ownerKey */\n      dup6\n        /* \"metadata.sol\":854:882  registry.checkUser(ownerKey) */\n      mload(0x40)\n      dup3\n      0xffffffff\n      and\n      0xe0\n      shl\n      dup2\n      mstore\n      0x04\n      add\n      tag_110\n      swap2\n      swap1\n      tag_52\n      jump\t// in\n    tag_110:\n      0x20\n      mload(0x40)\n      dup1\n      dup4\n      sub\n      dup2\n      dup7\n      gas\n      staticcall\n      iszero\n      dup1\n      iszero\n      tag_112\n      jumpi\n      returndatasize\n      0x00\n      dup1\n      returndatacopy\n      revert(0x00, returndatasize)\n    tag_112:\n      pop\n      pop\n      pop\n      pop\n      mload(0x40)\n      returndatasize\n      not(0x1f)\n      0x1f\n      dup3\n      add\n      and\n      dup3\n      add\n      dup1\n      0x40\n      mstore\n      pop\n      dup2\n      add\n      swap1\n      tag_113\n      swap2\n      swap1\n      tag_56\n      jump\t// in\n    tag_113:\n        /* \"metadata.sol\":846:930  require(registry.checkUser(ownerKey), \"Patient/new-owner not registered to system!\") */\n      tag_114\n      jumpi\n      mload(0x40)\n      0x08c379a000000000000000000000000000000000000000000000000000000000\n      dup2\n      mstore\n      0x04\n      add\n      tag_115\n      swap1\n      tag_116\n      jump\t// in\n    tag_115:\n      mload(0x40)\n      dup1\n      swap2\n      sub\n      swap1\n      revert\n    tag_114:\n        /* \"metadata.sol\":941:945  Data */\n      0x02\n        /* \"metadata.sol\":941:955  Data[ownerKey] */\n      0x00\n        /* \"metadata.sol\":946:954  ownerKey */\n      dup6\n        /* \"metadata.sol\":941:955  Data[ownerKey] */\n      dup2\n      mstore\n      0x20\n      add\n      swap1\n      dup2\n      mstore\n      0x20\n      add\n      0x00\n      keccak256\n        /* \"metadata.sol\":961:990  EHRData(dataType, HI, encKey) */\n      mload(0x40)\n      dup1\n      0x60\n      add\n      0x40\n      mstore\n      dup1\n        /* \"metadata.sol\":969:977  dataType */\n      dup6\n        /* \"metadata.sol\":961:990  EHRData(dataType, HI, encKey) */\n      dup2\n      mstore\n      0x20\n      add\n        /* \"metadata.sol\":979:981  HI */\n      dup5\n        /* \"metadata.sol\":961:990  EHRData(dataType, HI, encKey) */\n      dup2\n      mstore\n      0x20\n      add\n        /* \"metadata.sol\":983:989  encKey */\n      dup4\n        /* \"metadata.sol\":961:990  EHRData(dataType, HI, encKey) */\n      dup2\n      mstore\n      pop\n        /* \"metadata.sol\":941:991  Data[ownerKey].push(EHRData(dataType, HI, encKey)) */\n      swap1\n      dup1\n      0x01\n      dup2\n      sload\n      add\n      dup1\n      dup3\n      sstore\n      dup1\n      swap2\n      pop\n      pop\n      0x01\n      swap1\n      sub\n      swap1\n      0x00\n      mstore\n      keccak256(0x00, 0x20)\n      swap1\n      0x03\n      mul\n      add\n      0x00\n      swap1\n      swap2\n      swap1\n      swap2\n      swap1\n      swap2\n      pop\n      0x00\n      dup3\n      add\n      mload\n      dup2\n      0x00\n      add\n      swap1\n      dup1\n      mload\n      swap1\n      0x20\n      add\n      swap1\n      tag_118\n      swap3\n      swap2\n      swap1\n      tag_119\n      jump\t// in\n    tag_118:\n      pop\n      0x20\n      dup3\n      add\n      mload\n      dup2\n      0x01\n      add\n      swap1\n      dup1\n      mload\n      swap1\n      0x20\n      add\n      swap1\n      tag_120\n      swap3\n      swap2\n      swap1\n      tag_119\n      jump\t// in\n    tag_120:\n      pop\n      0x40\n      dup3\n      add\n      mload\n      dup2\n      0x02\n      add\n      swap1\n      dup1\n      mload\n      swap1\n      0x20\n      add\n      swap1\n      tag_121\n      swap3\n      swap2\n      swap1\n      tag_122\n      jump\t// in\n    tag_121:\n      pop\n      pop\n      pop\n        /* \"metadata.sol\":1002:1021  notificationManager */\n      0x01\n      0x00\n      swap1\n      sload\n      swap1\n      0x0100\n      exp\n      swap1\n      div\n      0xffffffffffffffffffffffffffffffffffffffff\n      and\n        /* \"metadata.sol\":1002:1037  notificationManager.addNotification */\n      0xffffffffffffffffffffffffffffffffffffffff\n      and\n      0xa2cf0c56\n        /* \"metadata.sol\":1038:1046  ownerKey */\n      dup6\n        /* \"metadata.sol\":1002:1066  notificationManager.addNotification(ownerKey, \"New data added.\") */\n      mload(0x40)\n      dup3\n      0xffffffff\n      and\n      0xe0\n      shl\n      dup2\n      mstore\n      0x04\n      add\n      tag_123\n      swap2\n      swap1\n      tag_124\n      jump\t// in\n    tag_123:\n      0x00\n      mload(0x40)\n      dup1\n      dup4\n      sub\n      dup2\n      0x00\n      dup8\n      dup1\n      extcodesize\n      iszero\n      dup1\n      iszero\n      tag_125\n      jumpi\n      0x00\n      dup1\n      revert\n    tag_125:\n      pop\n      gas\n      call\n      iszero\n      dup1\n      iszero\n      tag_127\n      jumpi\n      returndatasize\n      0x00\n      dup1\n      returndatacopy\n      revert(0x00, returndatasize)\n    tag_127:\n      pop\n      pop\n      pop\n      pop\n        /* \"metadata.sol\":684:1074  function addEHRdata(... */\n      pop\n      pop\n      pop\n      pop\n      jump\t// out\n    tag_119:\n      dup3\n      dup1\n      sload\n      tag_128\n      swap1\n      tag_35\n      jump\t// in\n    tag_128:\n      swap1\n      0x00\n      mstore\n      keccak256(0x00, 0x20)\n      swap1\n      0x1f\n      add\n      0x20\n      swap1\n      div\n      dup2\n      add\n      swap3\n      dup3\n      tag_130\n      jumpi\n      0x00\n      dup6\n      sstore\n      jump(tag_129)\n    tag_130:\n      dup3\n      0x1f\n      lt\n      tag_131\n      jumpi\n      dup1\n      mload\n      not(0xff)\n      and\n      dup4\n      dup1\n      add\n      or\n      dup6\n      sstore\n      jump(tag_129)\n    tag_131:\n      dup3\n      dup1\n      add\n      0x01\n      add\n      dup6\n      sstore\n      dup3\n      iszero\n      tag_129\n      jumpi\n      swap2\n      dup3\n      add\n    tag_132:\n      dup3\n      dup2\n      gt\n      iszero\n      tag_133\n      jumpi\n      dup3\n      mload\n      dup3\n      sstore\n      swap2\n      0x20\n      add\n      swap2\n      swap1\n      0x01\n      add\n      swap1\n      jump(tag_132)\n    tag_133:\n    tag_129:\n      pop\n      swap1\n      pop\n      tag_134\n      swap2\n      swap1\n      tag_135\n      jump\t// in\n    tag_134:\n      pop\n      swap1\n      jump\t// out\n    tag_122:\n      dup3\n      dup1\n      sload\n      tag_136\n      swap1\n      tag_35\n      jump\t// in\n    tag_136:\n      swap1\n      0x00\n      mstore\n      keccak256(0x00, 0x20)\n      swap1\n      0x1f\n      add\n      0x20\n      swap1\n      div\n      dup2\n      add\n      swap3\n      dup3\n      tag_138\n      jumpi\n      0x00\n      dup6\n      sstore\n      jump(tag_137)\n    tag_138:\n      dup3\n      0x1f\n      lt\n      tag_139\n      jumpi\n      dup1\n      mload\n      not(0xff)\n      and\n      dup4\n      dup1\n      add\n      or\n      dup6\n      sstore\n      jump(tag_137)\n    tag_139:\n      dup3\n      dup1\n      add\n      0x01\n      add\n      dup6\n      sstore\n      dup3\n      iszero\n      tag_137\n      jumpi\n      swap2\n      dup3\n      add\n    tag_140:\n      dup3\n      dup2\n      gt\n      iszero\n      tag_141\n      jumpi\n      dup3\n      mload\n      dup3\n      sstore\n      swap2\n      0x20\n      add\n      swap2\n      swap1\n      0x01\n      add\n      swap1\n      jump(tag_140)\n    tag_141:\n    tag_137:\n      pop\n      swap1\n      pop\n      tag_142\n      swap2\n      swap1\n      tag_135\n      jump\t// in\n    tag_142:\n      pop\n      swap1\n      jump\t// out\n    tag_135:\n    tag_143:\n      dup1\n      dup3\n      gt\n      iszero\n      tag_144\n      jumpi\n      0x00\n      dup2\n      0x00\n      swap1\n      sstore\n      pop\n      0x01\n      add\n      jump(tag_143)\n    tag_144:\n      pop\n      swap1\n      jump\t// out\n        /* \"#utility.yul\":7:133   */\n    tag_145:\n        /* \"#utility.yul\":44:51   */\n      0x00\n        /* \"#utility.yul\":84:126   */\n      0xffffffffffffffffffffffffffffffffffffffff\n        /* \"#utility.yul\":77:82   */\n      dup3\n        /* \"#utility.yul\":73:127   */\n      and\n        /* \"#utility.yul\":62:127   */\n      swap1\n      pop\n        /* \"#utility.yul\":7:133   */\n      swap2\n      swap1\n      pop\n      jump\t// out\n        /* \"#utility.yul\":139:199   */\n    tag_146:\n        /* \"#utility.yul\":167:170   */\n      0x00\n        /* \"#utility.yul\":188:193   */\n      dup2\n        /* \"#utility.yul\":181:193   */\n      swap1\n      pop\n        /* \"#utility.yul\":139:199   */\n      swap2\n      swap1\n      pop\n      jump\t// out\n        /* \"#utility.yul\":205:347   */\n    tag_147:\n        /* \"#utility.yul\":255:264   */\n      0x00\n        /* \"#utility.yul\":288:341   */\n      tag_213\n        /* \"#utility.yul\":306:340   */\n      tag_214\n        /* \"#utility.yul\":315:339   */\n      tag_215\n        /* \"#utility.yul\":333:338   */\n      dup5\n        /* \"#utility.yul\":315:339   */\n      tag_145\n      jump\t// in\n    tag_215:\n        /* \"#utility.yul\":306:340   */\n      tag_146\n      jump\t// in\n    tag_214:\n        /* \"#utility.yul\":288:341   */\n      tag_145\n      jump\t// in\n    tag_213:\n        /* \"#utility.yul\":275:341   */\n      swap1\n      pop\n        /* \"#utility.yul\":205:347   */\n      swap2\n      swap1\n      pop\n      jump\t// out\n        /* \"#utility.yul\":353:479   */\n    tag_148:\n        /* \"#utility.yul\":403:412   */\n      0x00\n        /* \"#utility.yul\":436:473   */\n      tag_217\n        /* \"#utility.yul\":467:472   */\n      dup3\n        /* \"#utility.yul\":436:473   */\n      tag_147\n      jump\t// in\n    tag_217:\n        /* \"#utility.yul\":423:473   */\n      swap1\n      pop\n        /* \"#utility.yul\":353:479   */\n      swap2\n      swap1\n      pop\n      jump\t// out\n        /* \"#utility.yul\":485:637   */\n    tag_149:\n        /* \"#utility.yul\":561:570   */\n      0x00\n        /* \"#utility.yul\":594:631   */\n      tag_219\n        /* \"#utility.yul\":625:630   */\n      dup3\n        /* \"#utility.yul\":594:631   */\n      tag_148\n      jump\t// in\n    tag_219:\n        /* \"#utility.yul\":581:631   */\n      swap1\n      pop\n        /* \"#utility.yul\":485:637   */\n      swap2\n      swap1\n      pop\n      jump\t// out\n        /* \"#utility.yul\":643:826   */\n    tag_150:\n        /* \"#utility.yul\":756:819   */\n      tag_221\n        /* \"#utility.yul\":813:818   */\n      dup2\n        /* \"#utility.yul\":756:819   */\n      tag_149\n      jump\t// in\n    tag_221:\n        /* \"#utility.yul\":751:754   */\n      dup3\n        /* \"#utility.yul\":744:820   */\n      mstore\n        /* \"#utility.yul\":643:826   */\n      pop\n      pop\n      jump\t// out\n        /* \"#utility.yul\":832:1106   */\n    tag_11:\n        /* \"#utility.yul\":951:955   */\n      0x00\n        /* \"#utility.yul\":989:991   */\n      0x20\n        /* \"#utility.yul\":978:987   */\n      dup3\n        /* \"#utility.yul\":974:992   */\n      add\n        /* \"#utility.yul\":966:992   */\n      swap1\n      pop\n        /* \"#utility.yul\":1002:1099   */\n      tag_223\n        /* \"#utility.yul\":1096:1097   */\n      0x00\n        /* \"#utility.yul\":1085:1094   */\n      dup4\n        /* \"#utility.yul\":1081:1098   */\n      add\n        /* \"#utility.yul\":1072:1078   */\n      dup5\n        /* \"#utility.yul\":1002:1099   */\n      tag_150\n      jump\t// in\n    tag_223:\n        /* \"#utility.yul\":832:1106   */\n      swap3\n      swap2\n      pop\n      pop\n      jump\t// out\n        /* \"#utility.yul\":1112:1187   */\n    tag_151:\n        /* \"#utility.yul\":1145:1151   */\n      0x00\n        /* \"#utility.yul\":1178:1180   */\n      0x40\n        /* \"#utility.yul\":1172:1181   */\n      mload\n        /* \"#utility.yul\":1162:1181   */\n      swap1\n      pop\n        /* \"#utility.yul\":1112:1187   */\n      swap1\n      jump\t// out\n        /* \"#utility.yul\":1193:1310   */\n    tag_152:\n        /* \"#utility.yul\":1302:1303   */\n      0x00\n        /* \"#utility.yul\":1299:1300   */\n      dup1\n        /* \"#utility.yul\":1292:1304   */\n      revert\n        /* \"#utility.yul\":1316:1433   */\n    tag_153:\n        /* \"#utility.yul\":1425:1426   */\n      0x00\n        /* \"#utility.yul\":1422:1423   */\n      dup1\n        /* \"#utility.yul\":1415:1427   */\n      revert\n        /* \"#utility.yul\":1439:1516   */\n    tag_154:\n        /* \"#utility.yul\":1476:1483   */\n      0x00\n        /* \"#utility.yul\":1505:1510   */\n      dup2\n        /* \"#utility.yul\":1494:1510   */\n      swap1\n      pop\n        /* \"#utility.yul\":1439:1516   */\n      swap2\n      swap1\n      pop\n      jump\t// out\n        /* \"#utility.yul\":1522:1644   */\n    tag_155:\n        /* \"#utility.yul\":1595:1619   */\n      tag_229\n        /* \"#utility.yul\":1613:1618   */\n      dup2\n        /* \"#utility.yul\":1595:1619   */\n      tag_154\n      jump\t// in\n    tag_229:\n        /* \"#utility.yul\":1588:1593   */\n      dup2\n        /* \"#utility.yul\":1585:1620   */\n      eq\n        /* \"#utility.yul\":1575:1638   */\n      tag_230\n      jumpi\n        /* \"#utility.yul\":1634:1635   */\n      0x00\n        /* \"#utility.yul\":1631:1632   */\n      dup1\n        /* \"#utility.yul\":1624:1636   */\n      revert\n        /* \"#utility.yul\":1575:1638   */\n    tag_230:\n        /* \"#utility.yul\":1522:1644   */\n      pop\n      jump\t// out\n        /* \"#utility.yul\":1650:1789   */\n    tag_156:\n        /* \"#utility.yul\":1696:1701   */\n      0x00\n        /* \"#utility.yul\":1734:1740   */\n      dup2\n        /* \"#utility.yul\":1721:1741   */\n      calldataload\n        /* \"#utility.yul\":1712:1741   */\n      swap1\n      pop\n        /* \"#utility.yul\":1750:1783   */\n      tag_232\n        /* \"#utility.yul\":1777:1782   */\n      dup2\n        /* \"#utility.yul\":1750:1783   */\n      tag_155\n      jump\t// in\n    tag_232:\n        /* \"#utility.yul\":1650:1789   */\n      swap3\n      swap2\n      pop\n      pop\n      jump\t// out\n        /* \"#utility.yul\":1795:1872   */\n    tag_157:\n        /* \"#utility.yul\":1832:1839   */\n      0x00\n        /* \"#utility.yul\":1861:1866   */\n      dup2\n        /* \"#utility.yul\":1850:1866   */\n      swap1\n      pop\n        /* \"#utility.yul\":1795:1872   */\n      swap2\n      swap1\n      pop\n      jump\t// out\n        /* \"#utility.yul\":1878:2000   */\n    tag_158:\n        /* \"#utility.yul\":1951:1975   */\n      tag_235\n        /* \"#utility.yul\":1969:1974   */\n      dup2\n        /* \"#utility.yul\":1951:1975   */\n      tag_157\n      jump\t// in\n    tag_235:\n        /* \"#utility.yul\":1944:1949   */\n      dup2\n        /* \"#utility.yul\":1941:1976   */\n      eq\n        /* \"#utility.yul\":1931:1994   */\n      tag_236\n      jumpi\n        /* \"#utility.yul\":1990:1991   */\n      0x00\n        /* \"#utility.yul\":1987:1988   */\n      dup1\n        /* \"#utility.yul\":1980:1992   */\n      revert\n        /* \"#utility.yul\":1931:1994   */\n    tag_236:\n        /* \"#utility.yul\":1878:2000   */\n      pop\n      jump\t// out\n        /* \"#utility.yul\":2006:2145   */\n    tag_159:\n        /* \"#utility.yul\":2052:2057   */\n      0x00\n        /* \"#utility.yul\":2090:2096   */\n      dup2\n        /* \"#utility.yul\":2077:2097   */\n      calldataload\n        /* \"#utility.yul\":2068:2097   */\n      swap1\n      pop\n        /* \"#utility.yul\":2106:2139   */\n      tag_238\n        /* \"#utility.yul\":2133:2138   */\n      dup2\n        /* \"#utility.yul\":2106:2139   */\n      tag_158\n      jump\t// in\n    tag_238:\n        /* \"#utility.yul\":2006:2145   */\n      swap3\n      swap2\n      pop\n      pop\n      jump\t// out\n        /* \"#utility.yul\":2151:2625   */\n    tag_14:\n        /* \"#utility.yul\":2219:2225   */\n      0x00\n        /* \"#utility.yul\":2227:2233   */\n      dup1\n        /* \"#utility.yul\":2276:2278   */\n      0x40\n        /* \"#utility.yul\":2264:2273   */\n      dup4\n        /* \"#utility.yul\":2255:2262   */\n      dup6\n        /* \"#utility.yul\":2251:2274   */\n      sub\n        /* \"#utility.yul\":2247:2279   */\n      slt\n        /* \"#utility.yul\":2244:2363   */\n      iszero\n      tag_240\n      jumpi\n        /* \"#utility.yul\":2282:2361   */\n      tag_241\n      tag_152\n      jump\t// in\n    tag_241:\n        /* \"#utility.yul\":2244:2363   */\n    tag_240:\n        /* \"#utility.yul\":2402:2403   */\n      0x00\n        /* \"#utility.yul\":2427:2480   */\n      tag_242\n        /* \"#utility.yul\":2472:2479   */\n      dup6\n        /* \"#utility.yul\":2463:2469   */\n      dup3\n        /* \"#utility.yul\":2452:2461   */\n      dup7\n        /* \"#utility.yul\":2448:2470   */\n      add\n        /* \"#utility.yul\":2427:2480   */\n      tag_156\n      jump\t// in\n    tag_242:\n        /* \"#utility.yul\":2417:2480   */\n      swap3\n      pop\n        /* \"#utility.yul\":2373:2490   */\n      pop\n        /* \"#utility.yul\":2529:2531   */\n      0x20\n        /* \"#utility.yul\":2555:2608   */\n      tag_243\n        /* \"#utility.yul\":2600:2607   */\n      dup6\n        /* \"#utility.yul\":2591:2597   */\n      dup3\n        /* \"#utility.yul\":2580:2589   */\n      dup7\n        /* \"#utility.yul\":2576:2598   */\n      add\n        /* \"#utility.yul\":2555:2608   */\n      tag_159\n      jump\t// in\n    tag_243:\n        /* \"#utility.yul\":2545:2608   */\n      swap2\n      pop\n        /* \"#utility.yul\":2500:2618   */\n      pop\n        /* \"#utility.yul\":2151:2625   */\n      swap3\n      pop\n      swap3\n      swap1\n      pop\n      jump\t// out\n        /* \"#utility.yul\":2631:2730   */\n    tag_160:\n        /* \"#utility.yul\":2683:2689   */\n      0x00\n        /* \"#utility.yul\":2717:2722   */\n      dup2\n        /* \"#utility.yul\":2711:2723   */\n      mload\n        /* \"#utility.yul\":2701:2723   */\n      swap1\n      pop\n        /* \"#utility.yul\":2631:2730   */\n      swap2\n      swap1\n      pop\n      jump\t// out\n        /* \"#utility.yul\":2736:2905   */\n    tag_161:\n        /* \"#utility.yul\":2820:2831   */\n      0x00\n        /* \"#utility.yul\":2854:2860   */\n      dup3\n        /* \"#utility.yul\":2849:2852   */\n      dup3\n        /* \"#utility.yul\":2842:2861   */\n      mstore\n        /* \"#utility.yul\":2894:2898   */\n      0x20\n        /* \"#utility.yul\":2889:2892   */\n      dup3\n        /* \"#utility.yul\":2885:2899   */\n      add\n        /* \"#utility.yul\":2870:2899   */\n      swap1\n      pop\n        /* \"#utility.yul\":2736:2905   */\n      swap3\n      swap2\n      pop\n      pop\n      jump\t// out\n        /* \"#utility.yul\":2911:3218   */\n    tag_162:\n        /* \"#utility.yul\":2979:2980   */\n      0x00\n        /* \"#utility.yul\":2989:3102   */\n    tag_247:\n        /* \"#utility.yul\":3003:3009   */\n      dup4\n        /* \"#utility.yul\":3000:3001   */\n      dup2\n        /* \"#utility.yul\":2997:3010   */\n      lt\n        /* \"#utility.yul\":2989:3102   */\n      iszero\n      tag_249\n      jumpi\n        /* \"#utility.yul\":3088:3089   */\n      dup1\n        /* \"#utility.yul\":3083:3086   */\n      dup3\n        /* \"#utility.yul\":3079:3090   */\n      add\n        /* \"#utility.yul\":3073:3091   */\n      mload\n        /* \"#utility.yul\":3069:3070   */\n      dup2\n        /* \"#utility.yul\":3064:3067   */\n      dup5\n        /* \"#utility.yul\":3060:3071   */\n      add\n        /* \"#utility.yul\":3053:3092   */\n      mstore\n        /* \"#utility.yul\":3025:3027   */\n      0x20\n        /* \"#utility.yul\":3022:3023   */\n      dup2\n        /* \"#utility.yul\":3018:3028   */\n      add\n        /* \"#utility.yul\":3013:3028   */\n      swap1\n      pop\n        /* \"#utility.yul\":2989:3102   */\n      jump(tag_247)\n    tag_249:\n        /* \"#utility.yul\":3120:3126   */\n      dup4\n        /* \"#utility.yul\":3117:3118   */\n      dup2\n        /* \"#utility.yul\":3114:3127   */\n      gt\n        /* \"#utility.yul\":3111:3212   */\n      iszero\n      tag_250\n      jumpi\n        /* \"#utility.yul\":3200:3201   */\n      0x00\n        /* \"#utility.yul\":3191:3197   */\n      dup5\n        /* \"#utility.yul\":3186:3189   */\n      dup5\n        /* \"#utility.yul\":3182:3198   */\n      add\n        /* \"#utility.yul\":3175:3202   */\n      mstore\n        /* \"#utility.yul\":3111:3212   */\n    tag_250:\n        /* \"#utility.yul\":2960:3218   */\n      pop\n        /* \"#utility.yul\":2911:3218   */\n      pop\n      pop\n      pop\n      jump\t// out\n        /* \"#utility.yul\":3224:3326   */\n    tag_163:\n        /* \"#utility.yul\":3265:3271   */\n      0x00\n        /* \"#utility.yul\":3316:3318   */\n      0x1f\n        /* \"#utility.yul\":3312:3319   */\n      not\n        /* \"#utility.yul\":3307:3309   */\n      0x1f\n        /* \"#utility.yul\":3300:3305   */\n      dup4\n        /* \"#utility.yul\":3296:3310   */\n      add\n        /* \"#utility.yul\":3292:3320   */\n      and\n        /* \"#utility.yul\":3282:3320   */\n      swap1\n      pop\n        /* \"#utility.yul\":3224:3326   */\n      swap2\n      swap1\n      pop\n      jump\t// out\n        /* \"#utility.yul\":3332:3696   */\n    tag_164:\n        /* \"#utility.yul\":3420:3423   */\n      0x00\n        /* \"#utility.yul\":3448:3487   */\n      tag_253\n        /* \"#utility.yul\":3481:3486   */\n      dup3\n        /* \"#utility.yul\":3448:3487   */\n      tag_160\n      jump\t// in\n    tag_253:\n        /* \"#utility.yul\":3503:3574   */\n      tag_254\n        /* \"#utility.yul\":3567:3573   */\n      dup2\n        /* \"#utility.yul\":3562:3565   */\n      dup6\n        /* \"#utility.yul\":3503:3574   */\n      tag_161\n      jump\t// in\n    tag_254:\n        /* \"#utility.yul\":3496:3574   */\n      swap4\n      pop\n        /* \"#utility.yul\":3583:3635   */\n      tag_255\n        /* \"#utility.yul\":3628:3634   */\n      dup2\n        /* \"#utility.yul\":3623:3626   */\n      dup6\n        /* \"#utility.yul\":3616:3620   */\n      0x20\n        /* \"#utility.yul\":3609:3614   */\n      dup7\n        /* \"#utility.yul\":3605:3621   */\n      add\n        /* \"#utility.yul\":3583:3635   */\n      tag_162\n      jump\t// in\n    tag_255:\n        /* \"#utility.yul\":3660:3689   */\n      tag_256\n        /* \"#utility.yul\":3682:3688   */\n      dup2\n        /* \"#utility.yul\":3660:3689   */\n      tag_163\n      jump\t// in\n    tag_256:\n        /* \"#utility.yul\":3655:3658   */\n      dup5\n        /* \"#utility.yul\":3651:3690   */\n      add\n        /* \"#utility.yul\":3644:3690   */\n      swap2\n      pop\n        /* \"#utility.yul\":3424:3696   */\n      pop\n        /* \"#utility.yul\":3332:3696   */\n      swap3\n      swap2\n      pop\n      pop\n      jump\t// out\n        /* \"#utility.yul\":3702:3800   */\n    tag_165:\n        /* \"#utility.yul\":3753:3759   */\n      0x00\n        /* \"#utility.yul\":3787:3792   */\n      dup2\n        /* \"#utility.yul\":3781:3793   */\n      mload\n        /* \"#utility.yul\":3771:3793   */\n      swap1\n      pop\n        /* \"#utility.yul\":3702:3800   */\n      swap2\n      swap1\n      pop\n      jump\t// out\n        /* \"#utility.yul\":3806:3974   */\n    tag_166:\n        /* \"#utility.yul\":3889:3900   */\n      0x00\n        /* \"#utility.yul\":3923:3929   */\n      dup3\n        /* \"#utility.yul\":3918:3921   */\n      dup3\n        /* \"#utility.yul\":3911:3930   */\n      mstore\n        /* \"#utility.yul\":3963:3967   */\n      0x20\n        /* \"#utility.yul\":3958:3961   */\n      dup3\n        /* \"#utility.yul\":3954:3968   */\n      add\n        /* \"#utility.yul\":3939:3968   */\n      swap1\n      pop\n        /* \"#utility.yul\":3806:3974   */\n      swap3\n      swap2\n      pop\n      pop\n      jump\t// out\n        /* \"#utility.yul\":3980:4340   */\n    tag_167:\n        /* \"#utility.yul\":4066:4069   */\n      0x00\n        /* \"#utility.yul\":4094:4132   */\n      tag_260\n        /* \"#utility.yul\":4126:4131   */\n      dup3\n        /* \"#utility.yul\":4094:4132   */\n      tag_165\n      jump\t// in\n    tag_260:\n        /* \"#utility.yul\":4148:4218   */\n      tag_261\n        /* \"#utility.yul\":4211:4217   */\n      dup2\n        /* \"#utility.yul\":4206:4209   */\n      dup6\n        /* \"#utility.yul\":4148:4218   */\n      tag_166\n      jump\t// in\n    tag_261:\n        /* \"#utility.yul\":4141:4218   */\n      swap4\n      pop\n        /* \"#utility.yul\":4227:4279   */\n      tag_262\n        /* \"#utility.yul\":4272:4278   */\n      dup2\n        /* \"#utility.yul\":4267:4270   */\n      dup6\n        /* \"#utility.yul\":4260:4264   */\n      0x20\n        /* \"#utility.yul\":4253:4258   */\n      dup7\n        /* \"#utility.yul\":4249:4265   */\n      add\n        /* \"#utility.yul\":4227:4279   */\n      tag_162\n      jump\t// in\n    tag_262:\n        /* \"#utility.yul\":4304:4333   */\n      tag_263\n        /* \"#utility.yul\":4326:4332   */\n      dup2\n        /* \"#utility.yul\":4304:4333   */\n      tag_163\n      jump\t// in\n    tag_263:\n        /* \"#utility.yul\":4299:4302   */\n      dup5\n        /* \"#utility.yul\":4295:4334   */\n      add\n        /* \"#utility.yul\":4288:4334   */\n      swap2\n      pop\n        /* \"#utility.yul\":4070:4340   */\n      pop\n        /* \"#utility.yul\":3980:4340   */\n      swap3\n      swap2\n      pop\n      pop\n      jump\t// out\n        /* \"#utility.yul\":4346:5057   */\n    tag_17:\n        /* \"#utility.yul\":4553:4557   */\n      0x00\n        /* \"#utility.yul\":4591:4593   */\n      0x60\n        /* \"#utility.yul\":4580:4589   */\n      dup3\n        /* \"#utility.yul\":4576:4594   */\n      add\n        /* \"#utility.yul\":4568:4594   */\n      swap1\n      pop\n        /* \"#utility.yul\":4640:4649   */\n      dup2\n        /* \"#utility.yul\":4634:4638   */\n      dup2\n        /* \"#utility.yul\":4630:4650   */\n      sub\n        /* \"#utility.yul\":4626:4627   */\n      0x00\n        /* \"#utility.yul\":4615:4624   */\n      dup4\n        /* \"#utility.yul\":4611:4628   */\n      add\n        /* \"#utility.yul\":4604:4651   */\n      mstore\n        /* \"#utility.yul\":4668:4746   */\n      tag_265\n        /* \"#utility.yul\":4741:4745   */\n      dup2\n        /* \"#utility.yul\":4732:4738   */\n      dup7\n        /* \"#utility.yul\":4668:4746   */\n      tag_164\n      jump\t// in\n    tag_265:\n        /* \"#utility.yul\":4660:4746   */\n      swap1\n      pop\n        /* \"#utility.yul\":4793:4802   */\n      dup2\n        /* \"#utility.yul\":4787:4791   */\n      dup2\n        /* \"#utility.yul\":4783:4803   */\n      sub\n        /* \"#utility.yul\":4778:4780   */\n      0x20\n        /* \"#utility.yul\":4767:4776   */\n      dup4\n        /* \"#utility.yul\":4763:4781   */\n      add\n        /* \"#utility.yul\":4756:4804   */\n      mstore\n        /* \"#utility.yul\":4821:4899   */\n      tag_266\n        /* \"#utility.yul\":4894:4898   */\n      dup2\n        /* \"#utility.yul\":4885:4891   */\n      dup6\n        /* \"#utility.yul\":4821:4899   */\n      tag_164\n      jump\t// in\n    tag_266:\n        /* \"#utility.yul\":4813:4899   */\n      swap1\n      pop\n        /* \"#utility.yul\":4946:4955   */\n      dup2\n        /* \"#utility.yul\":4940:4944   */\n      dup2\n        /* \"#utility.yul\":4936:4956   */\n      sub\n        /* \"#utility.yul\":4931:4933   */\n      0x40\n        /* \"#utility.yul\":4920:4929   */\n      dup4\n        /* \"#utility.yul\":4916:4934   */\n      add\n        /* \"#utility.yul\":4909:4957   */\n      mstore\n        /* \"#utility.yul\":4974:5050   */\n      tag_267\n        /* \"#utility.yul\":5045:5049   */\n      dup2\n        /* \"#utility.yul\":5036:5042   */\n      dup5\n        /* \"#utility.yul\":4974:5050   */\n      tag_167\n      jump\t// in\n    tag_267:\n        /* \"#utility.yul\":4966:5050   */\n      swap1\n      pop\n        /* \"#utility.yul\":4346:5057   */\n      swap5\n      swap4\n      pop\n      pop\n      pop\n      pop\n      jump\t// out\n        /* \"#utility.yul\":5063:5392   */\n    tag_20:\n        /* \"#utility.yul\":5122:5128   */\n      0x00\n        /* \"#utility.yul\":5171:5173   */\n      0x20\n        /* \"#utility.yul\":5159:5168   */\n      dup3\n        /* \"#utility.yul\":5150:5157   */\n      dup5\n        /* \"#utility.yul\":5146:5169   */\n      sub\n        /* \"#utility.yul\":5142:5174   */\n      slt\n        /* \"#utility.yul\":5139:5258   */\n      iszero\n      tag_269\n      jumpi\n        /* \"#utility.yul\":5177:5256   */\n      tag_270\n      tag_152\n      jump\t// in\n    tag_270:\n        /* \"#utility.yul\":5139:5258   */\n    tag_269:\n        /* \"#utility.yul\":5297:5298   */\n      0x00\n        /* \"#utility.yul\":5322:5375   */\n      tag_271\n        /* \"#utility.yul\":5367:5374   */\n      dup5\n        /* \"#utility.yul\":5358:5364   */\n      dup3\n        /* \"#utility.yul\":5347:5356   */\n      dup6\n        /* \"#utility.yul\":5343:5365   */\n      add\n        /* \"#utility.yul\":5322:5375   */\n      tag_156\n      jump\t// in\n    tag_271:\n        /* \"#utility.yul\":5312:5375   */\n      swap2\n      pop\n        /* \"#utility.yul\":5268:5385   */\n      pop\n        /* \"#utility.yul\":5063:5392   */\n      swap3\n      swap2\n      pop\n      pop\n      jump\t// out\n        /* \"#utility.yul\":5398:5522   */\n    tag_168:\n        /* \"#utility.yul\":5475:5481   */\n      0x00\n        /* \"#utility.yul\":5509:5514   */\n      dup2\n        /* \"#utility.yul\":5503:5515   */\n      mload\n        /* \"#utility.yul\":5493:5515   */\n      swap1\n      pop\n        /* \"#utility.yul\":5398:5522   */\n      swap2\n      swap1\n      pop\n      jump\t// out\n        /* \"#utility.yul\":5528:5722   */\n    tag_169:\n        /* \"#utility.yul\":5637:5648   */\n      0x00\n        /* \"#utility.yul\":5671:5677   */\n      dup3\n        /* \"#utility.yul\":5666:5669   */\n      dup3\n        /* \"#utility.yul\":5659:5678   */\n      mstore\n        /* \"#utility.yul\":5711:5715   */\n      0x20\n        /* \"#utility.yul\":5706:5709   */\n      dup3\n        /* \"#utility.yul\":5702:5716   */\n      add\n        /* \"#utility.yul\":5687:5716   */\n      swap1\n      pop\n        /* \"#utility.yul\":5528:5722   */\n      swap3\n      swap2\n      pop\n      pop\n      jump\t// out\n        /* \"#utility.yul\":5728:5870   */\n    tag_170:\n        /* \"#utility.yul\":5805:5809   */\n      0x00\n        /* \"#utility.yul\":5828:5831   */\n      dup2\n        /* \"#utility.yul\":5820:5831   */\n      swap1\n      pop\n        /* \"#utility.yul\":5858:5862   */\n      0x20\n        /* \"#utility.yul\":5853:5856   */\n      dup3\n        /* \"#utility.yul\":5849:5863   */\n      add\n        /* \"#utility.yul\":5841:5863   */\n      swap1\n      pop\n        /* \"#utility.yul\":5728:5870   */\n      swap2\n      swap1\n      pop\n      jump\t// out\n        /* \"#utility.yul\":5876:6035   */\n    tag_171:\n        /* \"#utility.yul\":5950:5961   */\n      0x00\n        /* \"#utility.yul\":5984:5990   */\n      dup3\n        /* \"#utility.yul\":5979:5982   */\n      dup3\n        /* \"#utility.yul\":5972:5991   */\n      mstore\n        /* \"#utility.yul\":6024:6028   */\n      0x20\n        /* \"#utility.yul\":6019:6022   */\n      dup3\n        /* \"#utility.yul\":6015:6029   */\n      add\n        /* \"#utility.yul\":6000:6029   */\n      swap1\n      pop\n        /* \"#utility.yul\":5876:6035   */\n      swap3\n      swap2\n      pop\n      pop\n      jump\t// out\n        /* \"#utility.yul\":6041:6385   */\n    tag_172:\n        /* \"#utility.yul\":6119:6122   */\n      0x00\n        /* \"#utility.yul\":6147:6186   */\n      tag_277\n        /* \"#utility.yul\":6180:6185   */\n      dup3\n        /* \"#utility.yul\":6147:6186   */\n      tag_160\n      jump\t// in\n    tag_277:\n        /* \"#utility.yul\":6202:6263   */\n      tag_278\n        /* \"#utility.yul\":6256:6262   */\n      dup2\n        /* \"#utility.yul\":6251:6254   */\n      dup6\n        /* \"#utility.yul\":6202:6263   */\n      tag_171\n      jump\t// in\n    tag_278:\n        /* \"#utility.yul\":6195:6263   */\n      swap4\n      pop\n        /* \"#utility.yul\":6272:6324   */\n      tag_279\n        /* \"#utility.yul\":6317:6323   */\n      dup2\n        /* \"#utility.yul\":6312:6315   */\n      dup6\n        /* \"#utility.yul\":6305:6309   */\n      0x20\n        /* \"#utility.yul\":6298:6303   */\n      dup7\n        /* \"#utility.yul\":6294:6310   */\n      add\n        /* \"#utility.yul\":6272:6324   */\n      tag_162\n      jump\t// in\n    tag_279:\n        /* \"#utility.yul\":6349:6378   */\n      tag_280\n        /* \"#utility.yul\":6371:6377   */\n      dup2\n        /* \"#utility.yul\":6349:6378   */\n      tag_163\n      jump\t// in\n    tag_280:\n        /* \"#utility.yul\":6344:6347   */\n      dup5\n        /* \"#utility.yul\":6340:6379   */\n      add\n        /* \"#utility.yul\":6333:6379   */\n      swap2\n      pop\n        /* \"#utility.yul\":6123:6385   */\n      pop\n        /* \"#utility.yul\":6041:6385   */\n      swap3\n      swap2\n      pop\n      pop\n      jump\t// out\n        /* \"#utility.yul\":6391:6587   */\n    tag_173:\n        /* \"#utility.yul\":6480:6490   */\n      0x00\n        /* \"#utility.yul\":6515:6581   */\n      tag_282\n        /* \"#utility.yul\":6577:6580   */\n      dup4\n        /* \"#utility.yul\":6569:6575   */\n      dup4\n        /* \"#utility.yul\":6515:6581   */\n      tag_172\n      jump\t// in\n    tag_282:\n        /* \"#utility.yul\":6501:6581   */\n      swap1\n      pop\n        /* \"#utility.yul\":6391:6587   */\n      swap3\n      swap2\n      pop\n      pop\n      jump\t// out\n        /* \"#utility.yul\":6593:6716   */\n    tag_174:\n        /* \"#utility.yul\":6673:6677   */\n      0x00\n        /* \"#utility.yul\":6705:6709   */\n      0x20\n        /* \"#utility.yul\":6700:6703   */\n      dup3\n        /* \"#utility.yul\":6696:6710   */\n      add\n        /* \"#utility.yul\":6688:6710   */\n      swap1\n      pop\n        /* \"#utility.yul\":6593:6716   */\n      swap2\n      swap1\n      pop\n      jump\t// out\n        /* \"#utility.yul\":6750:7741   */\n    tag_175:\n        /* \"#utility.yul\":6889:6892   */\n      0x00\n        /* \"#utility.yul\":6918:6982   */\n      tag_285\n        /* \"#utility.yul\":6976:6981   */\n      dup3\n        /* \"#utility.yul\":6918:6982   */\n      tag_168\n      jump\t// in\n    tag_285:\n        /* \"#utility.yul\":6998:7094   */\n      tag_286\n        /* \"#utility.yul\":7087:7093   */\n      dup2\n        /* \"#utility.yul\":7082:7085   */\n      dup6\n        /* \"#utility.yul\":6998:7094   */\n      tag_169\n      jump\t// in\n    tag_286:\n        /* \"#utility.yul\":6991:7094   */\n      swap4\n      pop\n        /* \"#utility.yul\":7120:7123   */\n      dup4\n        /* \"#utility.yul\":7165:7169   */\n      0x20\n        /* \"#utility.yul\":7157:7163   */\n      dup3\n        /* \"#utility.yul\":7153:7170   */\n      mul\n        /* \"#utility.yul\":7148:7151   */\n      dup6\n        /* \"#utility.yul\":7144:7171   */\n      add\n        /* \"#utility.yul\":7195:7261   */\n      tag_287\n        /* \"#utility.yul\":7255:7260   */\n      dup6\n        /* \"#utility.yul\":7195:7261   */\n      tag_170\n      jump\t// in\n    tag_287:\n        /* \"#utility.yul\":7284:7291   */\n      dup1\n        /* \"#utility.yul\":7315:7316   */\n      0x00\n        /* \"#utility.yul\":7300:7696   */\n    tag_288:\n        /* \"#utility.yul\":7325:7331   */\n      dup6\n        /* \"#utility.yul\":7322:7323   */\n      dup2\n        /* \"#utility.yul\":7319:7332   */\n      lt\n        /* \"#utility.yul\":7300:7696   */\n      iszero\n      tag_290\n      jumpi\n        /* \"#utility.yul\":7396:7405   */\n      dup5\n        /* \"#utility.yul\":7390:7394   */\n      dup5\n        /* \"#utility.yul\":7386:7406   */\n      sub\n        /* \"#utility.yul\":7381:7384   */\n      dup10\n        /* \"#utility.yul\":7374:7407   */\n      mstore\n        /* \"#utility.yul\":7447:7453   */\n      dup2\n        /* \"#utility.yul\":7441:7454   */\n      mload\n        /* \"#utility.yul\":7475:7559   */\n      tag_291\n        /* \"#utility.yul\":7554:7558   */\n      dup6\n        /* \"#utility.yul\":7539:7552   */\n      dup3\n        /* \"#utility.yul\":7475:7559   */\n      tag_173\n      jump\t// in\n    tag_291:\n        /* \"#utility.yul\":7467:7559   */\n      swap5\n      pop\n        /* \"#utility.yul\":7582:7652   */\n      tag_292\n        /* \"#utility.yul\":7645:7651   */\n      dup4\n        /* \"#utility.yul\":7582:7652   */\n      tag_174\n      jump\t// in\n    tag_292:\n        /* \"#utility.yul\":7572:7652   */\n      swap3\n      pop\n        /* \"#utility.yul\":7681:7685   */\n      0x20\n        /* \"#utility.yul\":7676:7679   */\n      dup11\n        /* \"#utility.yul\":7672:7686   */\n      add\n        /* \"#utility.yul\":7665:7686   */\n      swap10\n      pop\n        /* \"#utility.yul\":7360:7696   */\n      pop\n        /* \"#utility.yul\":7347:7348   */\n      0x01\n        /* \"#utility.yul\":7344:7345   */\n      dup2\n        /* \"#utility.yul\":7340:7349   */\n      add\n        /* \"#utility.yul\":7335:7349   */\n      swap1\n      pop\n        /* \"#utility.yul\":7300:7696   */\n      jump(tag_288)\n    tag_290:\n        /* \"#utility.yul\":7304:7318   */\n      pop\n        /* \"#utility.yul\":7712:7716   */\n      dup3\n        /* \"#utility.yul\":7705:7716   */\n      swap8\n      pop\n        /* \"#utility.yul\":7732:7735   */\n      dup8\n        /* \"#utility.yul\":7725:7735   */\n      swap6\n      pop\n        /* \"#utility.yul\":6894:7741   */\n      pop\n      pop\n      pop\n      pop\n      pop\n        /* \"#utility.yul\":6750:7741   */\n      swap3\n      swap2\n      pop\n      pop\n      jump\t// out\n        /* \"#utility.yul\":7747:7870   */\n    tag_176:\n        /* \"#utility.yul\":7823:7829   */\n      0x00\n        /* \"#utility.yul\":7857:7862   */\n      dup2\n        /* \"#utility.yul\":7851:7863   */\n      mload\n        /* \"#utility.yul\":7841:7863   */\n      swap1\n      pop\n        /* \"#utility.yul\":7747:7870   */\n      swap2\n      swap1\n      pop\n      jump\t// out\n        /* \"#utility.yul\":7876:8069   */\n    tag_177:\n        /* \"#utility.yul\":7984:7995   */\n      0x00\n        /* \"#utility.yul\":8018:8024   */\n      dup3\n        /* \"#utility.yul\":8013:8016   */\n      dup3\n        /* \"#utility.yul\":8006:8025   */\n      mstore\n        /* \"#utility.yul\":8058:8062   */\n      0x20\n        /* \"#utility.yul\":8053:8056   */\n      dup3\n        /* \"#utility.yul\":8049:8063   */\n      add\n        /* \"#utility.yul\":8034:8063   */\n      swap1\n      pop\n        /* \"#utility.yul\":7876:8069   */\n      swap3\n      swap2\n      pop\n      pop\n      jump\t// out\n        /* \"#utility.yul\":8075:8216   */\n    tag_178:\n        /* \"#utility.yul\":8151:8155   */\n      0x00\n        /* \"#utility.yul\":8174:8177   */\n      dup2\n        /* \"#utility.yul\":8166:8177   */\n      swap1\n      pop\n        /* \"#utility.yul\":8204:8208   */\n      0x20\n        /* \"#utility.yul\":8199:8202   */\n      dup3\n        /* \"#utility.yul\":8195:8209   */\n      add\n        /* \"#utility.yul\":8187:8209   */\n      swap1\n      pop\n        /* \"#utility.yul\":8075:8216   */\n      swap2\n      swap1\n      pop\n      jump\t// out\n        /* \"#utility.yul\":8222:8380   */\n    tag_179:\n        /* \"#utility.yul\":8295:8306   */\n      0x00\n        /* \"#utility.yul\":8329:8335   */\n      dup3\n        /* \"#utility.yul\":8324:8327   */\n      dup3\n        /* \"#utility.yul\":8317:8336   */\n      mstore\n        /* \"#utility.yul\":8369:8373   */\n      0x20\n        /* \"#utility.yul\":8364:8367   */\n      dup3\n        /* \"#utility.yul\":8360:8374   */\n      add\n        /* \"#utility.yul\":8345:8374   */\n      swap1\n      pop\n        /* \"#utility.yul\":8222:8380   */\n      swap3\n      swap2\n      pop\n      pop\n      jump\t// out\n        /* \"#utility.yul\":8386:8726   */\n    tag_180:\n        /* \"#utility.yul\":8462:8465   */\n      0x00\n        /* \"#utility.yul\":8490:8528   */\n      tag_298\n        /* \"#utility.yul\":8522:8527   */\n      dup3\n        /* \"#utility.yul\":8490:8528   */\n      tag_165\n      jump\t// in\n    tag_298:\n        /* \"#utility.yul\":8544:8604   */\n      tag_299\n        /* \"#utility.yul\":8597:8603   */\n      dup2\n        /* \"#utility.yul\":8592:8595   */\n      dup6\n        /* \"#utility.yul\":8544:8604   */\n      tag_179\n      jump\t// in\n    tag_299:\n        /* \"#utility.yul\":8537:8604   */\n      swap4\n      pop\n        /* \"#utility.yul\":8613:8665   */\n      tag_300\n        /* \"#utility.yul\":8658:8664   */\n      dup2\n        /* \"#utility.yul\":8653:8656   */\n      dup6\n        /* \"#utility.yul\":8646:8650   */\n      0x20\n        /* \"#utility.yul\":8639:8644   */\n      dup7\n        /* \"#utility.yul\":8635:8651   */\n      add\n        /* \"#utility.yul\":8613:8665   */\n      tag_162\n      jump\t// in\n    tag_300:\n        /* \"#utility.yul\":8690:8719   */\n      tag_301\n        /* \"#utility.yul\":8712:8718   */\n      dup2\n        /* \"#utility.yul\":8690:8719   */\n      tag_163\n      jump\t// in\n    tag_301:\n        /* \"#utility.yul\":8685:8688   */\n      dup5\n        /* \"#utility.yul\":8681:8720   */\n      add\n        /* \"#utility.yul\":8674:8720   */\n      swap2\n      pop\n        /* \"#utility.yul\":8466:8726   */\n      pop\n        /* \"#utility.yul\":8386:8726   */\n      swap3\n      swap2\n      pop\n      pop\n      jump\t// out\n        /* \"#utility.yul\":8732:8924   */\n    tag_181:\n        /* \"#utility.yul\":8819:8829   */\n      0x00\n        /* \"#utility.yul\":8854:8918   */\n      tag_303\n        /* \"#utility.yul\":8914:8917   */\n      dup4\n        /* \"#utility.yul\":8906:8912   */\n      dup4\n        /* \"#utility.yul\":8854:8918   */\n      tag_180\n      jump\t// in\n    tag_303:\n        /* \"#utility.yul\":8840:8918   */\n      swap1\n      pop\n        /* \"#utility.yul\":8732:8924   */\n      swap3\n      swap2\n      pop\n      pop\n      jump\t// out\n        /* \"#utility.yul\":8930:9052   */\n    tag_182:\n        /* \"#utility.yul\":9009:9013   */\n      0x00\n        /* \"#utility.yul\":9041:9045   */\n      0x20\n        /* \"#utility.yul\":9036:9039   */\n      dup3\n        /* \"#utility.yul\":9032:9046   */\n      add\n        /* \"#utility.yul\":9024:9046   */\n      swap1\n      pop\n        /* \"#utility.yul\":8930:9052   */\n      swap2\n      swap1\n      pop\n      jump\t// out\n        /* \"#utility.yul\":9084:10067   */\n    tag_183:\n        /* \"#utility.yul\":9221:9224   */\n      0x00\n        /* \"#utility.yul\":9250:9313   */\n      tag_306\n        /* \"#utility.yul\":9307:9312   */\n      dup3\n        /* \"#utility.yul\":9250:9313   */\n      tag_176\n      jump\t// in\n    tag_306:\n        /* \"#utility.yul\":9329:9424   */\n      tag_307\n        /* \"#utility.yul\":9417:9423   */\n      dup2\n        /* \"#utility.yul\":9412:9415   */\n      dup6\n        /* \"#utility.yul\":9329:9424   */\n      tag_177\n      jump\t// in\n    tag_307:\n        /* \"#utility.yul\":9322:9424   */\n      swap4\n      pop\n        /* \"#utility.yul\":9450:9453   */\n      dup4\n        /* \"#utility.yul\":9495:9499   */\n      0x20\n        /* \"#utility.yul\":9487:9493   */\n      dup3\n        /* \"#utility.yul\":9483:9500   */\n      mul\n        /* \"#utility.yul\":9478:9481   */\n      dup6\n        /* \"#utility.yul\":9474:9501   */\n      add\n        /* \"#utility.yul\":9525:9590   */\n      tag_308\n        /* \"#utility.yul\":9584:9589   */\n      dup6\n        /* \"#utility.yul\":9525:9590   */\n      tag_178\n      jump\t// in\n    tag_308:\n        /* \"#utility.yul\":9613:9620   */\n      dup1\n        /* \"#utility.yul\":9644:9645   */\n      0x00\n        /* \"#utility.yul\":9629:10022   */\n    tag_309:\n        /* \"#utility.yul\":9654:9660   */\n      dup6\n        /* \"#utility.yul\":9651:9652   */\n      dup2\n        /* \"#utility.yul\":9648:9661   */\n      lt\n        /* \"#utility.yul\":9629:10022   */\n      iszero\n      tag_311\n      jumpi\n        /* \"#utility.yul\":9725:9734   */\n      dup5\n        /* \"#utility.yul\":9719:9723   */\n      dup5\n        /* \"#utility.yul\":9715:9735   */\n      sub\n        /* \"#utility.yul\":9710:9713   */\n      dup10\n        /* \"#utility.yul\":9703:9736   */\n      mstore\n        /* \"#utility.yul\":9776:9782   */\n      dup2\n        /* \"#utility.yul\":9770:9783   */\n      mload\n        /* \"#utility.yul\":9804:9886   */\n      tag_312\n        /* \"#utility.yul\":9881:9885   */\n      dup6\n        /* \"#utility.yul\":9866:9879   */\n      dup3\n        /* \"#utility.yul\":9804:9886   */\n      tag_181\n      jump\t// in\n    tag_312:\n        /* \"#utility.yul\":9796:9886   */\n      swap5\n      pop\n        /* \"#utility.yul\":9909:9978   */\n      tag_313\n        /* \"#utility.yul\":9971:9977   */\n      dup4\n        /* \"#utility.yul\":9909:9978   */\n      tag_182\n      jump\t// in\n    tag_313:\n        /* \"#utility.yul\":9899:9978   */\n      swap3\n      pop\n        /* \"#utility.yul\":10007:10011   */\n      0x20\n        /* \"#utility.yul\":10002:10005   */\n      dup11\n        /* \"#utility.yul\":9998:10012   */\n      add\n        /* \"#utility.yul\":9991:10012   */\n      swap10\n      pop\n        /* \"#utility.yul\":9689:10022   */\n      pop\n        /* \"#utility.yul\":9676:9677   */\n      0x01\n        /* \"#utility.yul\":9673:9674   */\n      dup2\n        /* \"#utility.yul\":9669:9678   */\n      add\n        /* \"#utility.yul\":9664:9678   */\n      swap1\n      pop\n        /* \"#utility.yul\":9629:10022   */\n      jump(tag_309)\n    tag_311:\n        /* \"#utility.yul\":9633:9647   */\n      pop\n        /* \"#utility.yul\":10038:10042   */\n      dup3\n        /* \"#utility.yul\":10031:10042   */\n      swap8\n      pop\n        /* \"#utility.yul\":10058:10061   */\n      dup8\n        /* \"#utility.yul\":10051:10061   */\n      swap6\n      pop\n        /* \"#utility.yul\":9226:10067   */\n      pop\n      pop\n      pop\n      pop\n      pop\n        /* \"#utility.yul\":9084:10067   */\n      swap3\n      swap2\n      pop\n      pop\n      jump\t// out\n        /* \"#utility.yul\":10073:11084   */\n    tag_23:\n        /* \"#utility.yul\":10430:10434   */\n      0x00\n        /* \"#utility.yul\":10468:10470   */\n      0x60\n        /* \"#utility.yul\":10457:10466   */\n      dup3\n        /* \"#utility.yul\":10453:10471   */\n      add\n        /* \"#utility.yul\":10445:10471   */\n      swap1\n      pop\n        /* \"#utility.yul\":10517:10526   */\n      dup2\n        /* \"#utility.yul\":10511:10515   */\n      dup2\n        /* \"#utility.yul\":10507:10527   */\n      sub\n        /* \"#utility.yul\":10503:10504   */\n      0x00\n        /* \"#utility.yul\":10492:10501   */\n      dup4\n        /* \"#utility.yul\":10488:10505   */\n      add\n        /* \"#utility.yul\":10481:10528   */\n      mstore\n        /* \"#utility.yul\":10545:10673   */\n      tag_315\n        /* \"#utility.yul\":10668:10672   */\n      dup2\n        /* \"#utility.yul\":10659:10665   */\n      dup7\n        /* \"#utility.yul\":10545:10673   */\n      tag_175\n      jump\t// in\n    tag_315:\n        /* \"#utility.yul\":10537:10673   */\n      swap1\n      pop\n        /* \"#utility.yul\":10720:10729   */\n      dup2\n        /* \"#utility.yul\":10714:10718   */\n      dup2\n        /* \"#utility.yul\":10710:10730   */\n      sub\n        /* \"#utility.yul\":10705:10707   */\n      0x20\n        /* \"#utility.yul\":10694:10703   */\n      dup4\n        /* \"#utility.yul\":10690:10708   */\n      add\n        /* \"#utility.yul\":10683:10731   */\n      mstore\n        /* \"#utility.yul\":10748:10876   */\n      tag_316\n        /* \"#utility.yul\":10871:10875   */\n      dup2\n        /* \"#utility.yul\":10862:10868   */\n      dup6\n        /* \"#utility.yul\":10748:10876   */\n      tag_175\n      jump\t// in\n    tag_316:\n        /* \"#utility.yul\":10740:10876   */\n      swap1\n      pop\n        /* \"#utility.yul\":10923:10932   */\n      dup2\n        /* \"#utility.yul\":10917:10921   */\n      dup2\n        /* \"#utility.yul\":10913:10933   */\n      sub\n        /* \"#utility.yul\":10908:10910   */\n      0x40\n        /* \"#utility.yul\":10897:10906   */\n      dup4\n        /* \"#utility.yul\":10893:10911   */\n      add\n        /* \"#utility.yul\":10886:10934   */\n      mstore\n        /* \"#utility.yul\":10951:11077   */\n      tag_317\n        /* \"#utility.yul\":11072:11076   */\n      dup2\n        /* \"#utility.yul\":11063:11069   */\n      dup5\n        /* \"#utility.yul\":10951:11077   */\n      tag_183\n      jump\t// in\n    tag_317:\n        /* \"#utility.yul\":10943:11077   */\n      swap1\n      pop\n        /* \"#utility.yul\":10073:11084   */\n      swap5\n      swap4\n      pop\n      pop\n      pop\n      pop\n      jump\t// out\n        /* \"#utility.yul\":11090:11232   */\n    tag_184:\n        /* \"#utility.yul\":11156:11165   */\n      0x00\n        /* \"#utility.yul\":11189:11226   */\n      tag_319\n        /* \"#utility.yul\":11220:11225   */\n      dup3\n        /* \"#utility.yul\":11189:11226   */\n      tag_148\n      jump\t// in\n    tag_319:\n        /* \"#utility.yul\":11176:11226   */\n      swap1\n      pop\n        /* \"#utility.yul\":11090:11232   */\n      swap2\n      swap1\n      pop\n      jump\t// out\n        /* \"#utility.yul\":11238:11401   */\n    tag_185:\n        /* \"#utility.yul\":11341:11394   */\n      tag_321\n        /* \"#utility.yul\":11388:11393   */\n      dup2\n        /* \"#utility.yul\":11341:11394   */\n      tag_184\n      jump\t// in\n    tag_321:\n        /* \"#utility.yul\":11336:11339   */\n      dup3\n        /* \"#utility.yul\":11329:11395   */\n      mstore\n        /* \"#utility.yul\":11238:11401   */\n      pop\n      pop\n      jump\t// out\n        /* \"#utility.yul\":11407:11661   */\n    tag_27:\n        /* \"#utility.yul\":11516:11520   */\n      0x00\n        /* \"#utility.yul\":11554:11556   */\n      0x20\n        /* \"#utility.yul\":11543:11552   */\n      dup3\n        /* \"#utility.yul\":11539:11557   */\n      add\n        /* \"#utility.yul\":11531:11557   */\n      swap1\n      pop\n        /* \"#utility.yul\":11567:11654   */\n      tag_323\n        /* \"#utility.yul\":11651:11652   */\n      0x00\n        /* \"#utility.yul\":11640:11649   */\n      dup4\n        /* \"#utility.yul\":11636:11653   */\n      add\n        /* \"#utility.yul\":11627:11633   */\n      dup5\n        /* \"#utility.yul\":11567:11654   */\n      tag_185\n      jump\t// in\n    tag_323:\n        /* \"#utility.yul\":11407:11661   */\n      swap3\n      swap2\n      pop\n      pop\n      jump\t// out\n        /* \"#utility.yul\":11667:11784   */\n    tag_186:\n        /* \"#utility.yul\":11776:11777   */\n      0x00\n        /* \"#utility.yul\":11773:11774   */\n      dup1\n        /* \"#utility.yul\":11766:11778   */\n      revert\n        /* \"#utility.yul\":11790:11907   */\n    tag_187:\n        /* \"#utility.yul\":11899:11900   */\n      0x00\n        /* \"#utility.yul\":11896:11897   */\n      dup1\n        /* \"#utility.yul\":11889:11901   */\n      revert\n        /* \"#utility.yul\":11913:12093   */\n    tag_62:\n        /* \"#utility.yul\":11961:12038   */\n      0x4e487b7100000000000000000000000000000000000000000000000000000000\n        /* \"#utility.yul\":11958:11959   */\n      0x00\n        /* \"#utility.yul\":11951:12039   */\n      mstore\n        /* \"#utility.yul\":12058:12062   */\n      0x41\n        /* \"#utility.yul\":12055:12056   */\n      0x04\n        /* \"#utility.yul\":12048:12063   */\n      mstore\n        /* \"#utility.yul\":12082:12086   */\n      0x24\n        /* \"#utility.yul\":12079:12080   */\n      0x00\n        /* \"#utility.yul\":12072:12087   */\n      revert\n        /* \"#utility.yul\":12099:12380   */\n    tag_188:\n        /* \"#utility.yul\":12182:12209   */\n      tag_328\n        /* \"#utility.yul\":12204:12208   */\n      dup3\n        /* \"#utility.yul\":12182:12209   */\n      tag_163\n      jump\t// in\n    tag_328:\n        /* \"#utility.yul\":12174:12180   */\n      dup2\n        /* \"#utility.yul\":12170:12210   */\n      add\n        /* \"#utility.yul\":12312:12318   */\n      dup2\n        /* \"#utility.yul\":12300:12310   */\n      dup2\n        /* \"#utility.yul\":12297:12319   */\n      lt\n        /* \"#utility.yul\":12276:12294   */\n      0xffffffffffffffff\n        /* \"#utility.yul\":12264:12274   */\n      dup3\n        /* \"#utility.yul\":12261:12295   */\n      gt\n        /* \"#utility.yul\":12258:12320   */\n      or\n        /* \"#utility.yul\":12255:12343   */\n      iszero\n      tag_329\n      jumpi\n        /* \"#utility.yul\":12323:12341   */\n      tag_330\n      tag_62\n      jump\t// in\n    tag_330:\n        /* \"#utility.yul\":12255:12343   */\n    tag_329:\n        /* \"#utility.yul\":12363:12373   */\n      dup1\n        /* \"#utility.yul\":12359:12361   */\n      0x40\n        /* \"#utility.yul\":12352:12374   */\n      mstore\n        /* \"#utility.yul\":12142:12380   */\n      pop\n        /* \"#utility.yul\":12099:12380   */\n      pop\n      pop\n      jump\t// out\n        /* \"#utility.yul\":12386:12515   */\n    tag_189:\n        /* \"#utility.yul\":12420:12426   */\n      0x00\n        /* \"#utility.yul\":12447:12467   */\n      tag_332\n      tag_151\n      jump\t// in\n    tag_332:\n        /* \"#utility.yul\":12437:12467   */\n      swap1\n      pop\n        /* \"#utility.yul\":12476:12509   */\n      tag_333\n        /* \"#utility.yul\":12504:12508   */\n      dup3\n        /* \"#utility.yul\":12496:12502   */\n      dup3\n        /* \"#utility.yul\":12476:12509   */\n      tag_188\n      jump\t// in\n    tag_333:\n        /* \"#utility.yul\":12386:12515   */\n      swap2\n      swap1\n      pop\n      jump\t// out\n        /* \"#utility.yul\":12521:12829   */\n    tag_190:\n        /* \"#utility.yul\":12583:12587   */\n      0x00\n        /* \"#utility.yul\":12673:12691   */\n      0xffffffffffffffff\n        /* \"#utility.yul\":12665:12671   */\n      dup3\n        /* \"#utility.yul\":12662:12692   */\n      gt\n        /* \"#utility.yul\":12659:12715   */\n      iszero\n      tag_335\n      jumpi\n        /* \"#utility.yul\":12695:12713   */\n      tag_336\n      tag_62\n      jump\t// in\n    tag_336:\n        /* \"#utility.yul\":12659:12715   */\n    tag_335:\n        /* \"#utility.yul\":12733:12762   */\n      tag_337\n        /* \"#utility.yul\":12755:12761   */\n      dup3\n        /* \"#utility.yul\":12733:12762   */\n      tag_163\n      jump\t// in\n    tag_337:\n        /* \"#utility.yul\":12725:12762   */\n      swap1\n      pop\n        /* \"#utility.yul\":12817:12821   */\n      0x20\n        /* \"#utility.yul\":12811:12815   */\n      dup2\n        /* \"#utility.yul\":12807:12822   */\n      add\n        /* \"#utility.yul\":12799:12822   */\n      swap1\n      pop\n        /* \"#utility.yul\":12521:12829   */\n      swap2\n      swap1\n      pop\n      jump\t// out\n        /* \"#utility.yul\":12835:12989   */\n    tag_191:\n        /* \"#utility.yul\":12919:12925   */\n      dup3\n        /* \"#utility.yul\":12914:12917   */\n      dup2\n        /* \"#utility.yul\":12909:12912   */\n      dup4\n        /* \"#utility.yul\":12896:12926   */\n      calldatacopy\n        /* \"#utility.yul\":12981:12982   */\n      0x00\n        /* \"#utility.yul\":12972:12978   */\n      dup4\n        /* \"#utility.yul\":12967:12970   */\n      dup4\n        /* \"#utility.yul\":12963:12979   */\n      add\n        /* \"#utility.yul\":12956:12983   */\n      mstore\n        /* \"#utility.yul\":12835:12989   */\n      pop\n      pop\n      pop\n      jump\t// out\n        /* \"#utility.yul\":12995:13407   */\n    tag_192:\n        /* \"#utility.yul\":13073:13078   */\n      0x00\n        /* \"#utility.yul\":13098:13164   */\n      tag_340\n        /* \"#utility.yul\":13114:13163   */\n      tag_341\n        /* \"#utility.yul\":13156:13162   */\n      dup5\n        /* \"#utility.yul\":13114:13163   */\n      tag_190\n      jump\t// in\n    tag_341:\n        /* \"#utility.yul\":13098:13164   */\n      tag_189\n      jump\t// in\n    tag_340:\n        /* \"#utility.yul\":13089:13164   */\n      swap1\n      pop\n        /* \"#utility.yul\":13187:13193   */\n      dup3\n        /* \"#utility.yul\":13180:13185   */\n      dup2\n        /* \"#utility.yul\":13173:13194   */\n      mstore\n        /* \"#utility.yul\":13225:13229   */\n      0x20\n        /* \"#utility.yul\":13218:13223   */\n      dup2\n        /* \"#utility.yul\":13214:13230   */\n      add\n        /* \"#utility.yul\":13263:13266   */\n      dup5\n        /* \"#utility.yul\":13254:13260   */\n      dup5\n        /* \"#utility.yul\":13249:13252   */\n      dup5\n        /* \"#utility.yul\":13245:13261   */\n      add\n        /* \"#utility.yul\":13242:13267   */\n      gt\n        /* \"#utility.yul\":13239:13351   */\n      iszero\n      tag_342\n      jumpi\n        /* \"#utility.yul\":13270:13349   */\n      tag_343\n      tag_187\n      jump\t// in\n    tag_343:\n        /* \"#utility.yul\":13239:13351   */\n    tag_342:\n        /* \"#utility.yul\":13360:13401   */\n      tag_344\n        /* \"#utility.yul\":13394:13400   */\n      dup5\n        /* \"#utility.yul\":13389:13392   */\n      dup3\n        /* \"#utility.yul\":13384:13387   */\n      dup6\n        /* \"#utility.yul\":13360:13401   */\n      tag_191\n      jump\t// in\n    tag_344:\n        /* \"#utility.yul\":13079:13407   */\n      pop\n        /* \"#utility.yul\":12995:13407   */\n      swap4\n      swap3\n      pop\n      pop\n      pop\n      jump\t// out\n        /* \"#utility.yul\":13427:13767   */\n    tag_193:\n        /* \"#utility.yul\":13483:13488   */\n      0x00\n        /* \"#utility.yul\":13532:13535   */\n      dup3\n        /* \"#utility.yul\":13525:13529   */\n      0x1f\n        /* \"#utility.yul\":13517:13523   */\n      dup4\n        /* \"#utility.yul\":13513:13530   */\n      add\n        /* \"#utility.yul\":13509:13536   */\n      slt\n        /* \"#utility.yul\":13499:13621   */\n      tag_346\n      jumpi\n        /* \"#utility.yul\":13540:13619   */\n      tag_347\n      tag_186\n      jump\t// in\n    tag_347:\n        /* \"#utility.yul\":13499:13621   */\n    tag_346:\n        /* \"#utility.yul\":13657:13663   */\n      dup2\n        /* \"#utility.yul\":13644:13664   */\n      calldataload\n        /* \"#utility.yul\":13682:13761   */\n      tag_348\n        /* \"#utility.yul\":13757:13760   */\n      dup5\n        /* \"#utility.yul\":13749:13755   */\n      dup3\n        /* \"#utility.yul\":13742:13746   */\n      0x20\n        /* \"#utility.yul\":13734:13740   */\n      dup7\n        /* \"#utility.yul\":13730:13747   */\n      add\n        /* \"#utility.yul\":13682:13761   */\n      tag_192\n      jump\t// in\n    tag_348:\n        /* \"#utility.yul\":13673:13761   */\n      swap2\n      pop\n        /* \"#utility.yul\":13489:13767   */\n      pop\n        /* \"#utility.yul\":13427:13767   */\n      swap3\n      swap2\n      pop\n      pop\n      jump\t// out\n        /* \"#utility.yul\":13773:14080   */\n    tag_194:\n        /* \"#utility.yul\":13834:13838   */\n      0x00\n        /* \"#utility.yul\":13924:13942   */\n      0xffffffffffffffff\n        /* \"#utility.yul\":13916:13922   */\n      dup3\n        /* \"#utility.yul\":13913:13943   */\n      gt\n        /* \"#utility.yul\":13910:13966   */\n      iszero\n      tag_350\n      jumpi\n        /* \"#utility.yul\":13946:13964   */\n      tag_351\n      tag_62\n      jump\t// in\n    tag_351:\n        /* \"#utility.yul\":13910:13966   */\n    tag_350:\n        /* \"#utility.yul\":13984:14013   */\n      tag_352\n        /* \"#utility.yul\":14006:14012   */\n      dup3\n        /* \"#utility.yul\":13984:14013   */\n      tag_163\n      jump\t// in\n    tag_352:\n        /* \"#utility.yul\":13976:14013   */\n      swap1\n      pop\n        /* \"#utility.yul\":14068:14072   */\n      0x20\n        /* \"#utility.yul\":14062:14066   */\n      dup2\n        /* \"#utility.yul\":14058:14073   */\n      add\n        /* \"#utility.yul\":14050:14073   */\n      swap1\n      pop\n        /* \"#utility.yul\":13773:14080   */\n      swap2\n      swap1\n      pop\n      jump\t// out\n        /* \"#utility.yul\":14086:14496   */\n    tag_195:\n        /* \"#utility.yul\":14163:14168   */\n      0x00\n        /* \"#utility.yul\":14188:14253   */\n      tag_354\n        /* \"#utility.yul\":14204:14252   */\n      tag_355\n        /* \"#utility.yul\":14245:14251   */\n      dup5\n        /* \"#utility.yul\":14204:14252   */\n      tag_194\n      jump\t// in\n    tag_355:\n        /* \"#utility.yul\":14188:14253   */\n      tag_189\n      jump\t// in\n    tag_354:\n        /* \"#utility.yul\":14179:14253   */\n      swap1\n      pop\n        /* \"#utility.yul\":14276:14282   */\n      dup3\n        /* \"#utility.yul\":14269:14274   */\n      dup2\n        /* \"#utility.yul\":14262:14283   */\n      mstore\n        /* \"#utility.yul\":14314:14318   */\n      0x20\n        /* \"#utility.yul\":14307:14312   */\n      dup2\n        /* \"#utility.yul\":14303:14319   */\n      add\n        /* \"#utility.yul\":14352:14355   */\n      dup5\n        /* \"#utility.yul\":14343:14349   */\n      dup5\n        /* \"#utility.yul\":14338:14341   */\n      dup5\n        /* \"#utility.yul\":14334:14350   */\n      add\n        /* \"#utility.yul\":14331:14356   */\n      gt\n        /* \"#utility.yul\":14328:14440   */\n      iszero\n      tag_356\n      jumpi\n        /* \"#utility.yul\":14359:14438   */\n      tag_357\n      tag_187\n      jump\t// in\n    tag_357:\n        /* \"#utility.yul\":14328:14440   */\n    tag_356:\n        /* \"#utility.yul\":14449:14490   */\n      tag_358\n        /* \"#utility.yul\":14483:14489   */\n      dup5\n        /* \"#utility.yul\":14478:14481   */\n      dup3\n        /* \"#utility.yul\":14473:14476   */\n      dup6\n        /* \"#utility.yul\":14449:14490   */\n      tag_191\n      jump\t// in\n    tag_358:\n        /* \"#utility.yul\":14169:14496   */\n      pop\n        /* \"#utility.yul\":14086:14496   */\n      swap4\n      swap3\n      pop\n      pop\n      pop\n      jump\t// out\n        /* \"#utility.yul\":14515:14853   */\n    tag_196:\n        /* \"#utility.yul\":14570:14575   */\n      0x00\n        /* \"#utility.yul\":14619:14622   */\n      dup3\n        /* \"#utility.yul\":14612:14616   */\n      0x1f\n        /* \"#utility.yul\":14604:14610   */\n      dup4\n        /* \"#utility.yul\":14600:14617   */\n      add\n        /* \"#utility.yul\":14596:14623   */\n      slt\n        /* \"#utility.yul\":14586:14708   */\n      tag_360\n      jumpi\n        /* \"#utility.yul\":14627:14706   */\n      tag_361\n      tag_186\n      jump\t// in\n    tag_361:\n        /* \"#utility.yul\":14586:14708   */\n    tag_360:\n        /* \"#utility.yul\":14744:14750   */\n      dup2\n        /* \"#utility.yul\":14731:14751   */\n      calldataload\n        /* \"#utility.yul\":14769:14847   */\n      tag_362\n        /* \"#utility.yul\":14843:14846   */\n      dup5\n        /* \"#utility.yul\":14835:14841   */\n      dup3\n        /* \"#utility.yul\":14828:14832   */\n      0x20\n        /* \"#utility.yul\":14820:14826   */\n      dup7\n        /* \"#utility.yul\":14816:14833   */\n      add\n        /* \"#utility.yul\":14769:14847   */\n      tag_195\n      jump\t// in\n    tag_362:\n        /* \"#utility.yul\":14760:14847   */\n      swap2\n      pop\n        /* \"#utility.yul\":14576:14853   */\n      pop\n        /* \"#utility.yul\":14515:14853   */\n      swap3\n      swap2\n      pop\n      pop\n      jump\t// out\n        /* \"#utility.yul\":14859:16162   */\n    tag_30:\n        /* \"#utility.yul\":14974:14980   */\n      0x00\n        /* \"#utility.yul\":14982:14988   */\n      dup1\n        /* \"#utility.yul\":14990:14996   */\n      0x00\n        /* \"#utility.yul\":14998:15004   */\n      dup1\n        /* \"#utility.yul\":15047:15050   */\n      0x80\n        /* \"#utility.yul\":15035:15044   */\n      dup6\n        /* \"#utility.yul\":15026:15033   */\n      dup8\n        /* \"#utility.yul\":15022:15045   */\n      sub\n        /* \"#utility.yul\":15018:15051   */\n      slt\n        /* \"#utility.yul\":15015:15135   */\n      iszero\n      tag_364\n      jumpi\n        /* \"#utility.yul\":15054:15133   */\n      tag_365\n      tag_152\n      jump\t// in\n    tag_365:\n        /* \"#utility.yul\":15015:15135   */\n    tag_364:\n        /* \"#utility.yul\":15174:15175   */\n      0x00\n        /* \"#utility.yul\":15199:15252   */\n      tag_366\n        /* \"#utility.yul\":15244:15251   */\n      dup8\n        /* \"#utility.yul\":15235:15241   */\n      dup3\n        /* \"#utility.yul\":15224:15233   */\n      dup9\n        /* \"#utility.yul\":15220:15242   */\n      add\n        /* \"#utility.yul\":15199:15252   */\n      tag_156\n      jump\t// in\n    tag_366:\n        /* \"#utility.yul\":15189:15252   */\n      swap5\n      pop\n        /* \"#utility.yul\":15145:15262   */\n      pop\n        /* \"#utility.yul\":15329:15331   */\n      0x20\n        /* \"#utility.yul\":15318:15327   */\n      dup6\n        /* \"#utility.yul\":15314:15332   */\n      add\n        /* \"#utility.yul\":15301:15333   */\n      calldataload\n        /* \"#utility.yul\":15360:15378   */\n      0xffffffffffffffff\n        /* \"#utility.yul\":15352:15358   */\n      dup2\n        /* \"#utility.yul\":15349:15379   */\n      gt\n        /* \"#utility.yul\":15346:15463   */\n      iszero\n      tag_367\n      jumpi\n        /* \"#utility.yul\":15382:15461   */\n      tag_368\n      tag_153\n      jump\t// in\n    tag_368:\n        /* \"#utility.yul\":15346:15463   */\n    tag_367:\n        /* \"#utility.yul\":15487:15550   */\n      tag_369\n        /* \"#utility.yul\":15542:15549   */\n      dup8\n        /* \"#utility.yul\":15533:15539   */\n      dup3\n        /* \"#utility.yul\":15522:15531   */\n      dup9\n        /* \"#utility.yul\":15518:15540   */\n      add\n        /* \"#utility.yul\":15487:15550   */\n      tag_193\n      jump\t// in\n    tag_369:\n        /* \"#utility.yul\":15477:15550   */\n      swap4\n      pop\n        /* \"#utility.yul\":15272:15560   */\n      pop\n        /* \"#utility.yul\":15627:15629   */\n      0x40\n        /* \"#utility.yul\":15616:15625   */\n      dup6\n        /* \"#utility.yul\":15612:15630   */\n      add\n        /* \"#utility.yul\":15599:15631   */\n      calldataload\n        /* \"#utility.yul\":15658:15676   */\n      0xffffffffffffffff\n        /* \"#utility.yul\":15650:15656   */\n      dup2\n        /* \"#utility.yul\":15647:15677   */\n      gt\n        /* \"#utility.yul\":15644:15761   */\n      iszero\n      tag_370\n      jumpi\n        /* \"#utility.yul\":15680:15759   */\n      tag_371\n      tag_153\n      jump\t// in\n    tag_371:\n        /* \"#utility.yul\":15644:15761   */\n    tag_370:\n        /* \"#utility.yul\":15785:15848   */\n      tag_372\n        /* \"#utility.yul\":15840:15847   */\n      dup8\n        /* \"#utility.yul\":15831:15837   */\n      dup3\n        /* \"#utility.yul\":15820:15829   */\n      dup9\n        /* \"#utility.yul\":15816:15838   */\n      add\n        /* \"#utility.yul\":15785:15848   */\n      tag_193\n      jump\t// in\n    tag_372:\n        /* \"#utility.yul\":15775:15848   */\n      swap3\n      pop\n        /* \"#utility.yul\":15570:15858   */\n      pop\n        /* \"#utility.yul\":15925:15927   */\n      0x60\n        /* \"#utility.yul\":15914:15923   */\n      dup6\n        /* \"#utility.yul\":15910:15928   */\n      add\n        /* \"#utility.yul\":15897:15929   */\n      calldataload\n        /* \"#utility.yul\":15956:15974   */\n      0xffffffffffffffff\n        /* \"#utility.yul\":15948:15954   */\n      dup2\n        /* \"#utility.yul\":15945:15975   */\n      gt\n        /* \"#utility.yul\":15942:16059   */\n      iszero\n      tag_373\n      jumpi\n        /* \"#utility.yul\":15978:16057   */\n      tag_374\n      tag_153\n      jump\t// in\n    tag_374:\n        /* \"#utility.yul\":15942:16059   */\n    tag_373:\n        /* \"#utility.yul\":16083:16145   */\n      tag_375\n        /* \"#utility.yul\":16137:16144   */\n      dup8\n        /* \"#utility.yul\":16128:16134   */\n      dup3\n        /* \"#utility.yul\":16117:16126   */\n      dup9\n        /* \"#utility.yul\":16113:16135   */\n      add\n        /* \"#utility.yul\":16083:16145   */\n      tag_196\n      jump\t// in\n    tag_375:\n        /* \"#utility.yul\":16073:16145   */\n      swap2\n      pop\n        /* \"#utility.yul\":15868:16155   */\n      pop\n        /* \"#utility.yul\":14859:16162   */\n      swap3\n      swap6\n      swap2\n      swap5\n      pop\n      swap3\n      pop\n      jump\t// out\n        /* \"#utility.yul\":16168:16348   */\n    tag_197:\n        /* \"#utility.yul\":16216:16293   */\n      0x4e487b7100000000000000000000000000000000000000000000000000000000\n        /* \"#utility.yul\":16213:16214   */\n      0x00\n        /* \"#utility.yul\":16206:16294   */\n      mstore\n        /* \"#utility.yul\":16313:16317   */\n      0x22\n        /* \"#utility.yul\":16310:16311   */\n      0x04\n        /* \"#utility.yul\":16303:16318   */\n      mstore\n        /* \"#utility.yul\":16337:16341   */\n      0x24\n        /* \"#utility.yul\":16334:16335   */\n      0x00\n        /* \"#utility.yul\":16327:16342   */\n      revert\n        /* \"#utility.yul\":16354:16674   */\n    tag_35:\n        /* \"#utility.yul\":16398:16404   */\n      0x00\n        /* \"#utility.yul\":16435:16436   */\n      0x02\n        /* \"#utility.yul\":16429:16433   */\n      dup3\n        /* \"#utility.yul\":16425:16437   */\n      div\n        /* \"#utility.yul\":16415:16437   */\n      swap1\n      pop\n        /* \"#utility.yul\":16482:16483   */\n      0x01\n        /* \"#utility.yul\":16476:16480   */\n      dup3\n        /* \"#utility.yul\":16472:16484   */\n      and\n        /* \"#utility.yul\":16503:16521   */\n      dup1\n        /* \"#utility.yul\":16493:16574   */\n      tag_378\n      jumpi\n        /* \"#utility.yul\":16559:16563   */\n      0x7f\n        /* \"#utility.yul\":16551:16557   */\n      dup3\n        /* \"#utility.yul\":16547:16564   */\n      and\n        /* \"#utility.yul\":16537:16564   */\n      swap2\n      pop\n        /* \"#utility.yul\":16493:16574   */\n    tag_378:\n        /* \"#utility.yul\":16621:16623   */\n      0x20\n        /* \"#utility.yul\":16613:16619   */\n      dup3\n        /* \"#utility.yul\":16610:16624   */\n      lt\n        /* \"#utility.yul\":16590:16608   */\n      dup2\n        /* \"#utility.yul\":16587:16625   */\n      eq\n        /* \"#utility.yul\":16584:16668   */\n      iszero\n      tag_379\n      jumpi\n        /* \"#utility.yul\":16640:16658   */\n      tag_380\n      tag_197\n      jump\t// in\n    tag_380:\n        /* \"#utility.yul\":16584:16668   */\n    tag_379:\n        /* \"#utility.yul\":16405:16674   */\n      pop\n        /* \"#utility.yul\":16354:16674   */\n      swap2\n      swap1\n      pop\n      jump\t// out\n        /* \"#utility.yul\":16680:16798   */\n    tag_198:\n        /* \"#utility.yul\":16767:16791   */\n      tag_382\n        /* \"#utility.yul\":16785:16790   */\n      dup2\n        /* \"#utility.yul\":16767:16791   */\n      tag_154\n      jump\t// in\n    tag_382:\n        /* \"#utility.yul\":16762:16765   */\n      dup3\n        /* \"#utility.yul\":16755:16792   */\n      mstore\n        /* \"#utility.yul\":16680:16798   */\n      pop\n      pop\n      jump\t// out\n        /* \"#utility.yul\":16804:17026   */\n    tag_52:\n        /* \"#utility.yul\":16897:16901   */\n      0x00\n        /* \"#utility.yul\":16935:16937   */\n      0x20\n        /* \"#utility.yul\":16924:16933   */\n      dup3\n        /* \"#utility.yul\":16920:16938   */\n      add\n        /* \"#utility.yul\":16912:16938   */\n      swap1\n      pop\n        /* \"#utility.yul\":16948:17019   */\n      tag_384\n        /* \"#utility.yul\":17016:17017   */\n      0x00\n        /* \"#utility.yul\":17005:17014   */\n      dup4\n        /* \"#utility.yul\":17001:17018   */\n      add\n        /* \"#utility.yul\":16992:16998   */\n      dup5\n        /* \"#utility.yul\":16948:17019   */\n      tag_198\n      jump\t// in\n    tag_384:\n        /* \"#utility.yul\":16804:17026   */\n      swap3\n      swap2\n      pop\n      pop\n      jump\t// out\n        /* \"#utility.yul\":17032:17122   */\n    tag_199:\n        /* \"#utility.yul\":17066:17073   */\n      0x00\n        /* \"#utility.yul\":17109:17114   */\n      dup2\n        /* \"#utility.yul\":17102:17115   */\n      iszero\n        /* \"#utility.yul\":17095:17116   */\n      iszero\n        /* \"#utility.yul\":17084:17116   */\n      swap1\n      pop\n        /* \"#utility.yul\":17032:17122   */\n      swap2\n      swap1\n      pop\n      jump\t// out\n        /* \"#utility.yul\":17128:17244   */\n    tag_200:\n        /* \"#utility.yul\":17198:17219   */\n      tag_387\n        /* \"#utility.yul\":17213:17218   */\n      dup2\n        /* \"#utility.yul\":17198:17219   */\n      tag_199\n      jump\t// in\n    tag_387:\n        /* \"#utility.yul\":17191:17196   */\n      dup2\n        /* \"#utility.yul\":17188:17220   */\n      eq\n        /* \"#utility.yul\":17178:17238   */\n      tag_388\n      jumpi\n        /* \"#utility.yul\":17234:17235   */\n      0x00\n        /* \"#utility.yul\":17231:17232   */\n      dup1\n        /* \"#utility.yul\":17224:17236   */\n      revert\n        /* \"#utility.yul\":17178:17238   */\n    tag_388:\n        /* \"#utility.yul\":17128:17244   */\n      pop\n      jump\t// out\n        /* \"#utility.yul\":17250:17387   */\n    tag_201:\n        /* \"#utility.yul\":17304:17309   */\n      0x00\n        /* \"#utility.yul\":17335:17341   */\n      dup2\n        /* \"#utility.yul\":17329:17342   */\n      mload\n        /* \"#utility.yul\":17320:17342   */\n      swap1\n      pop\n        /* \"#utility.yul\":17351:17381   */\n      tag_390\n        /* \"#utility.yul\":17375:17380   */\n      dup2\n        /* \"#utility.yul\":17351:17381   */\n      tag_200\n      jump\t// in\n    tag_390:\n        /* \"#utility.yul\":17250:17387   */\n      swap3\n      swap2\n      pop\n      pop\n      jump\t// out\n        /* \"#utility.yul\":17393:17738   */\n    tag_56:\n        /* \"#utility.yul\":17460:17466   */\n      0x00\n        /* \"#utility.yul\":17509:17511   */\n      0x20\n        /* \"#utility.yul\":17497:17506   */\n      dup3\n        /* \"#utility.yul\":17488:17495   */\n      dup5\n        /* \"#utility.yul\":17484:17507   */\n      sub\n        /* \"#utility.yul\":17480:17512   */\n      slt\n        /* \"#utility.yul\":17477:17596   */\n      iszero\n      tag_392\n      jumpi\n        /* \"#utility.yul\":17515:17594   */\n      tag_393\n      tag_152\n      jump\t// in\n    tag_393:\n        /* \"#utility.yul\":17477:17596   */\n    tag_392:\n        /* \"#utility.yul\":17635:17636   */\n      0x00\n        /* \"#utility.yul\":17660:17721   */\n      tag_394\n        /* \"#utility.yul\":17713:17720   */\n      dup5\n        /* \"#utility.yul\":17704:17710   */\n      dup3\n        /* \"#utility.yul\":17693:17702   */\n      dup6\n        /* \"#utility.yul\":17689:17711   */\n      add\n        /* \"#utility.yul\":17660:17721   */\n      tag_201\n      jump\t// in\n    tag_394:\n        /* \"#utility.yul\":17650:17721   */\n      swap2\n      pop\n        /* \"#utility.yul\":17606:17731   */\n      pop\n        /* \"#utility.yul\":17393:17738   */\n      swap3\n      swap2\n      pop\n      pop\n      jump\t// out\n        /* \"#utility.yul\":17744:17924   */\n    tag_202:\n        /* \"#utility.yul\":17884:17916   */\n      0x55736572206e6f74207265676973746572656420746f2073797374656d210000\n        /* \"#utility.yul\":17880:17881   */\n      0x00\n        /* \"#utility.yul\":17872:17878   */\n      dup3\n        /* \"#utility.yul\":17868:17882   */\n      add\n        /* \"#utility.yul\":17861:17917   */\n      mstore\n        /* \"#utility.yul\":17744:17924   */\n      pop\n      jump\t// out\n        /* \"#utility.yul\":17930:18296   */\n    tag_203:\n        /* \"#utility.yul\":18072:18075   */\n      0x00\n        /* \"#utility.yul\":18093:18160   */\n      tag_397\n        /* \"#utility.yul\":18157:18159   */\n      0x1e\n        /* \"#utility.yul\":18152:18155   */\n      dup4\n        /* \"#utility.yul\":18093:18160   */\n      tag_161\n      jump\t// in\n    tag_397:\n        /* \"#utility.yul\":18086:18160   */\n      swap2\n      pop\n        /* \"#utility.yul\":18169:18262   */\n      tag_398\n        /* \"#utility.yul\":18258:18261   */\n      dup3\n        /* \"#utility.yul\":18169:18262   */\n      tag_202\n      jump\t// in\n    tag_398:\n        /* \"#utility.yul\":18287:18289   */\n      0x20\n        /* \"#utility.yul\":18282:18285   */\n      dup3\n        /* \"#utility.yul\":18278:18290   */\n      add\n        /* \"#utility.yul\":18271:18290   */\n      swap1\n      pop\n        /* \"#utility.yul\":17930:18296   */\n      swap2\n      swap1\n      pop\n      jump\t// out\n        /* \"#utility.yul\":18302:18721   */\n    tag_59:\n        /* \"#utility.yul\":18468:18472   */\n      0x00\n        /* \"#utility.yul\":18506:18508   */\n      0x20\n        /* \"#utility.yul\":18495:18504   */\n      dup3\n        /* \"#utility.yul\":18491:18509   */\n      add\n        /* \"#utility.yul\":18483:18509   */\n      swap1\n      pop\n        /* \"#utility.yul\":18555:18564   */\n      dup2\n        /* \"#utility.yul\":18549:18553   */\n      dup2\n        /* \"#utility.yul\":18545:18565   */\n      sub\n        /* \"#utility.yul\":18541:18542   */\n      0x00\n        /* \"#utility.yul\":18530:18539   */\n      dup4\n        /* \"#utility.yul\":18526:18543   */\n      add\n        /* \"#utility.yul\":18519:18566   */\n      mstore\n        /* \"#utility.yul\":18583:18714   */\n      tag_400\n        /* \"#utility.yul\":18709:18713   */\n      dup2\n        /* \"#utility.yul\":18583:18714   */\n      tag_203\n      jump\t// in\n    tag_400:\n        /* \"#utility.yul\":18575:18714   */\n      swap1\n      pop\n        /* \"#utility.yul\":18302:18721   */\n      swap2\n      swap1\n      pop\n      jump\t// out\n        /* \"#utility.yul\":18727:18907   */\n    tag_78:\n        /* \"#utility.yul\":18775:18852   */\n      0x4e487b7100000000000000000000000000000000000000000000000000000000\n        /* \"#utility.yul\":18772:18773   */\n      0x00\n        /* \"#utility.yul\":18765:18853   */\n      mstore\n        /* \"#utility.yul\":18872:18876   */\n      0x32\n        /* \"#utility.yul\":18869:18870   */\n      0x04\n        /* \"#utility.yul\":18862:18877   */\n      mstore\n        /* \"#utility.yul\":18896:18900   */\n      0x24\n        /* \"#utility.yul\":18893:18894   */\n      0x00\n        /* \"#utility.yul\":18886:18901   */\n      revert\n        /* \"#utility.yul\":18913:19093   */\n    tag_204:\n        /* \"#utility.yul\":18961:19038   */\n      0x4e487b7100000000000000000000000000000000000000000000000000000000\n        /* \"#utility.yul\":18958:18959   */\n      0x00\n        /* \"#utility.yul\":18951:19039   */\n      mstore\n        /* \"#utility.yul\":19058:19062   */\n      0x11\n        /* \"#utility.yul\":19055:19056   */\n      0x04\n        /* \"#utility.yul\":19048:19063   */\n      mstore\n        /* \"#utility.yul\":19082:19086   */\n      0x24\n        /* \"#utility.yul\":19079:19080   */\n      0x00\n        /* \"#utility.yul\":19072:19087   */\n      revert\n        /* \"#utility.yul\":19099:19332   */\n    tag_108:\n        /* \"#utility.yul\":19138:19141   */\n      0x00\n        /* \"#utility.yul\":19161:19185   */\n      tag_404\n        /* \"#utility.yul\":19179:19184   */\n      dup3\n        /* \"#utility.yul\":19161:19185   */\n      tag_157\n      jump\t// in\n    tag_404:\n        /* \"#utility.yul\":19152:19185   */\n      swap2\n      pop\n        /* \"#utility.yul\":19207:19273   */\n      0xffffffffffffffffffffffffffffffffffffffffffffffffffffffffffffffff\n        /* \"#utility.yul\":19200:19205   */\n      dup3\n        /* \"#utility.yul\":19197:19274   */\n      eq\n        /* \"#utility.yul\":19194:19297   */\n      iszero\n      tag_405\n      jumpi\n        /* \"#utility.yul\":19277:19295   */\n      tag_406\n      tag_204\n      jump\t// in\n    tag_406:\n        /* \"#utility.yul\":19194:19297   */\n    tag_405:\n        /* \"#utility.yul\":19324:19325   */\n      0x01\n        /* \"#utility.yul\":19317:19322   */\n      dup3\n        /* \"#utility.yul\":19313:19326   */\n      add\n        /* \"#utility.yul\":19306:19326   */\n      swap1\n      pop\n        /* \"#utility.yul\":19099:19332   */\n      swap2\n      swap1\n      pop\n      jump\t// out\n        /* \"#utility.yul\":19338:19568   */\n    tag_205:\n        /* \"#utility.yul\":19478:19512   */\n      0x50617469656e742f6e65772d6f776e6572206e6f742072656769737465726564\n        /* \"#utility.yul\":19474:19475   */\n      0x00\n        /* \"#utility.yul\":19466:19472   */\n      dup3\n        /* \"#utility.yul\":19462:19476   */\n      add\n        /* \"#utility.yul\":19455:19513   */\n      mstore\n        /* \"#utility.yul\":19547:19560   */\n      0x20746f2073797374656d21000000000000000000000000000000000000000000\n        /* \"#utility.yul\":19542:19544   */\n      0x20\n        /* \"#utility.yul\":19534:19540   */\n      dup3\n        /* \"#utility.yul\":19530:19545   */\n      add\n        /* \"#utility.yul\":19523:19561   */\n      mstore\n        /* \"#utility.yul\":19338:19568   */\n      pop\n      jump\t// out\n        /* \"#utility.yul\":19574:19940   */\n    tag_206:\n        /* \"#utility.yul\":19716:19719   */\n      0x00\n        /* \"#utility.yul\":19737:19804   */\n      tag_409\n        /* \"#utility.yul\":19801:19803   */\n      0x2b\n        /* \"#utility.yul\":19796:19799   */\n      dup4\n        /* \"#utility.yul\":19737:19804   */\n      tag_161\n      jump\t// in\n    tag_409:\n        /* \"#utility.yul\":19730:19804   */\n      swap2\n      pop\n        /* \"#utility.yul\":19813:19906   */\n      tag_410\n        /* \"#utility.yul\":19902:19905   */\n      dup3\n        /* \"#utility.yul\":19813:19906   */\n      tag_205\n      jump\t// in\n    tag_410:\n        /* \"#utility.yul\":19931:19933   */\n      0x40\n        /* \"#utility.yul\":19926:19929   */\n      dup3\n        /* \"#utility.yul\":19922:19934   */\n      add\n        /* \"#utility.yul\":19915:19934   */\n      swap1\n      pop\n        /* \"#utility.yul\":19574:19940   */\n      swap2\n      swap1\n      pop\n      jump\t// out\n        /* \"#utility.yul\":19946:20365   */\n    tag_116:\n        /* \"#utility.yul\":20112:20116   */\n      0x00\n        /* \"#utility.yul\":20150:20152   */\n      0x20\n        /* \"#utility.yul\":20139:20148   */\n      dup3\n        /* \"#utility.yul\":20135:20153   */\n      add\n        /* \"#utility.yul\":20127:20153   */\n      swap1\n      pop\n        /* \"#utility.yul\":20199:20208   */\n      dup2\n        /* \"#utility.yul\":20193:20197   */\n      dup2\n        /* \"#utility.yul\":20189:20209   */\n      sub\n        /* \"#utility.yul\":20185:20186   */\n      0x00\n        /* \"#utility.yul\":20174:20183   */\n      dup4\n        /* \"#utility.yul\":20170:20187   */\n      add\n        /* \"#utility.yul\":20163:20210   */\n      mstore\n        /* \"#utility.yul\":20227:20358   */\n      tag_412\n        /* \"#utility.yul\":20353:20357   */\n      dup2\n        /* \"#utility.yul\":20227:20358   */\n      tag_206\n      jump\t// in\n    tag_412:\n        /* \"#utility.yul\":20219:20358   */\n      swap1\n      pop\n        /* \"#utility.yul\":19946:20365   */\n      swap2\n      swap1\n      pop\n      jump\t// out\n        /* \"#utility.yul\":20371:20536   */\n    tag_207:\n        /* \"#utility.yul\":20511:20528   */\n      0x4e657720646174612061646465642e0000000000000000000000000000000000\n        /* \"#utility.yul\":20507:20508   */\n      0x00\n        /* \"#utility.yul\":20499:20505   */\n      dup3\n        /* \"#utility.yul\":20495:20509   */\n      add\n        /* \"#utility.yul\":20488:20529   */\n      mstore\n        /* \"#utility.yul\":20371:20536   */\n      pop\n      jump\t// out\n        /* \"#utility.yul\":20542:20908   */\n    tag_208:\n        /* \"#utility.yul\":20684:20687   */\n      0x00\n        /* \"#utility.yul\":20705:20772   */\n      tag_415\n        /* \"#utility.yul\":20769:20771   */\n      0x0f\n        /* \"#utility.yul\":20764:20767   */\n      dup4\n        /* \"#utility.yul\":20705:20772   */\n      tag_161\n      jump\t// in\n    tag_415:\n        /* \"#utility.yul\":20698:20772   */\n      swap2\n      pop\n        /* \"#utility.yul\":20781:20874   */\n      tag_416\n        /* \"#utility.yul\":20870:20873   */\n      dup3\n        /* \"#utility.yul\":20781:20874   */\n      tag_207\n      jump\t// in\n    tag_416:\n        /* \"#utility.yul\":20899:20901   */\n      0x20\n        /* \"#utility.yul\":20894:20897   */\n      dup3\n        /* \"#utility.yul\":20890:20902   */\n      add\n        /* \"#utility.yul\":20883:20902   */\n      swap1\n      pop\n        /* \"#utility.yul\":20542:20908   */\n      swap2\n      swap1\n      pop\n      jump\t// out\n        /* \"#utility.yul\":20914:21443   */\n    tag_124:\n        /* \"#utility.yul\":21108:21112   */\n      0x00\n        /* \"#utility.yul\":21146:21148   */\n      0x40\n        /* \"#utility.yul\":21135:21144   */\n      dup3\n        /* \"#utility.yul\":21131:21149   */\n      add\n        /* \"#utility.yul\":21123:21149   */\n      swap1\n      pop\n        /* \"#utility.yul\":21159:21230   */\n      tag_418\n        /* \"#utility.yul\":21227:21228   */\n      0x00\n        /* \"#utility.yul\":21216:21225   */\n      dup4\n        /* \"#utility.yul\":21212:21229   */\n      add\n        /* \"#utility.yul\":21203:21209   */\n      dup5\n        /* \"#utility.yul\":21159:21230   */\n      tag_198\n      jump\t// in\n    tag_418:\n        /* \"#utility.yul\":21277:21286   */\n      dup2\n        /* \"#utility.yul\":21271:21275   */\n      dup2\n        /* \"#utility.yul\":21267:21287   */\n      sub\n        /* \"#utility.yul\":21262:21264   */\n      0x20\n        /* \"#utility.yul\":21251:21260   */\n      dup4\n        /* \"#utility.yul\":21247:21265   */\n      add\n        /* \"#utility.yul\":21240:21288   */\n      mstore\n        /* \"#utility.yul\":21305:21436   */\n      tag_419\n        /* \"#utility.yul\":21431:21435   */\n      dup2\n        /* \"#utility.yul\":21305:21436   */\n      tag_208\n      jump\t// in\n    tag_419:\n        /* \"#utility.yul\":21297:21436   */\n      swap1\n      pop\n        /* \"#utility.yul\":20914:21443   */\n      swap3\n      swap2\n      pop\n      pop\n      jump\t// out\n\n    auxdata: 0xa2646970667358221220f75d2775005f4abd081db893d821bc40ae66b921a121c4aa1de98a932083641964736f6c634300080a0033\n}\n",
    "bytecode": {
      "linkReferences": {},
      "object": "60806040523480156200001157600080fd5b50604051620017f7380380620017f783398181016040528101906200003791906200012a565b816000806101000a81548173ffffffffffffffffffffffffffffffffffffffff021916908373ffffffffffffffffffffffffffffffffffffffff16021790555080600160006101000a81548173ffffffffffffffffffffffffffffffffffffffff021916908373ffffffffffffffffffffffffffffffffffffffff160217905550505062000171565b600080fd5b600073ffffffffffffffffffffffffffffffffffffffff82169050919050565b6000620000f282620000c5565b9050919050565b6200010481620000e5565b81146200011057600080fd5b50565b6000815190506200012481620000f9565b92915050565b60008060408385031215620001445762000143620000c0565b5b6000620001548582860162000113565b9250506020620001678582860162000113565b9150509250929050565b61167680620001816000396000f3fe608060405234801561001057600080fd5b50600436106100575760003560e01c80631d7555791461005c5780632cb734061461007a57806365375a04146100ac5780637b103999146100de578063ba0c93cb146100fc575b600080fd5b610064610118565b6040516100719190610bbe565b60405180910390f35b610094600480360381019061008f9190610c59565b61013e565b6040516100a393929190610d87565b60405180910390f35b6100c660048036038101906100c19190610dd3565b61031d565b6040516100d593929190611018565b60405180910390f35b6100e66107d6565b6040516100f39190611085565b60405180910390f35b61011660048036038101906101119190611276565b6107fa565b005b600160009054906101000a900473ffffffffffffffffffffffffffffffffffffffff1681565b6002602052816000526040600020818154811061015a57600080fd5b90600052602060002090600302016000915091505080600001805461017e90611360565b80601f01602080910402602001604051908101604052809291908181526020018280546101aa90611360565b80156101f75780601f106101cc576101008083540402835291602001916101f7565b820191906000526020600020905b8154815290600101906020018083116101da57829003601f168201915b50505050509080600101805461020c90611360565b80601f016020809104026020016040519081016040528092919081815260200182805461023890611360565b80156102855780601f1061025a57610100808354040283529160200191610285565b820191906000526020600020905b81548152906001019060200180831161026857829003601f168201915b50505050509080600201805461029a90611360565b80601f01602080910402602001604051908101604052809291908181526020018280546102c690611360565b80156103135780601f106102e857610100808354040283529160200191610313565b820191906000526020600020905b8154815290600101906020018083116102f657829003601f168201915b5050505050905083565b606080606060008054906101000a900473ffffffffffffffffffffffffffffffffffffffff1673ffffffffffffffffffffffffffffffffffffffff16630b2551c2856040518263ffffffff1660e01b815260040161037b91906113a1565b602060405180830381865afa158015610398573d6000803e3d6000fd5b505050506040513d601f19601f820116820180604052508101906103bc91906113f4565b6103fb576040517f08c379a00000000000000000000000000000000000000000000000000000000081526004016103f29061146d565b60405180910390fd5b60006002600086815260200190815260200160002080549050905060008167ffffffffffffffff811115610432576104316110aa565b5b60405190808252806020026020018201604052801561046557816020015b60608152602001906001900390816104505790505b50905060008267ffffffffffffffff811115610484576104836110aa565b5b6040519080825280602002602001820160405280156104b757816020015b60608152602001906001900390816104a25790505b50905060008367ffffffffffffffff8111156104d6576104d56110aa565b5b60405190808252806020026020018201604052801561050957816020015b60608152602001906001900390816104f45790505b50905060005b848110156107c157600260008a8152602001908152602001600020818154811061053c5761053b61148d565b5b9060005260206000209060030201600001805461055890611360565b80601f016020809104026020016040519081016040528092919081815260200182805461058490611360565b80156105d15780601f106105a6576101008083540402835291602001916105d1565b820191906000526020600020905b8154815290600101906020018083116105b457829003601f168201915b50505050508482815181106105e9576105e861148d565b5b6020026020010181905250600260008a815260200190815260200160002081815481106106195761061861148d565b5b9060005260206000209060030201600101805461063590611360565b80601f016020809104026020016040519081016040528092919081815260200182805461066190611360565b80156106ae5780601f10610683576101008083540402835291602001916106ae565b820191906000526020600020905b81548152906001019060200180831161069157829003601f168201915b50505050508382815181106106c6576106c561148d565b5b6020026020010181905250600260008a815260200190815260200160002081815481106106f6576106f561148d565b5b9060005260206000209060030201600201805461071290611360565b80601f016020809104026020016040519081016040528092919081815260200182805461073e90611360565b801561078b5780601f106107605761010080835404028352916020019161078b565b820191906000526020600020905b81548152906001019060200180831161076e57829003601f168201915b50505050508282815181106107a3576107a261148d565b5b602002602001018190525080806107b9906114eb565b91505061050f565b50828282965096509650505050509193909250565b60008054906101000a900473ffffffffffffffffffffffffffffffffffffffff1681565b60008054906101000a900473ffffffffffffffffffffffffffffffffffffffff1673ffffffffffffffffffffffffffffffffffffffff16630b2551c2856040518263ffffffff1660e01b815260040161085391906113a1565b602060405180830381865afa158015610870573d6000803e3d6000fd5b505050506040513d601f19601f8201168201806040525081019061089491906113f4565b6108d3576040517f08c379a00000000000000000000000000000000000000000000000000000000081526004016108ca906115a6565b60405180910390fd5b6002600085815260200190815260200160002060405180606001604052808581526020018481526020018381525090806001815401808255809150506001900390600052602060002090600302016000909190919091506000820151816000019080519060200190610946929190610a16565b506020820151816001019080519060200190610963929190610a16565b506040820151816002019080519060200190610980929190610a9c565b505050600160009054906101000a900473ffffffffffffffffffffffffffffffffffffffff1673ffffffffffffffffffffffffffffffffffffffff1663a2cf0c56856040518263ffffffff1660e01b81526004016109de9190611612565b600060405180830381600087803b1580156109f857600080fd5b505af1158015610a0c573d6000803e3d6000fd5b5050505050505050565b828054610a2290611360565b90600052602060002090601f016020900481019282610a445760008555610a8b565b82601f10610a5d57805160ff1916838001178555610a8b565b82800160010185558215610a8b579182015b82811115610a8a578251825591602001919060010190610a6f565b5b509050610a989190610b22565b5090565b828054610aa890611360565b90600052602060002090601f016020900481019282610aca5760008555610b11565b82601f10610ae357805160ff1916838001178555610b11565b82800160010185558215610b11579182015b82811115610b10578251825591602001919060010190610af5565b5b509050610b1e9190610b22565b5090565b5b80821115610b3b576000816000905550600101610b23565b5090565b600073ffffffffffffffffffffffffffffffffffffffff82169050919050565b6000819050919050565b6000610b84610b7f610b7a84610b3f565b610b5f565b610b3f565b9050919050565b6000610b9682610b69565b9050919050565b6000610ba882610b8b565b9050919050565b610bb881610b9d565b82525050565b6000602082019050610bd36000830184610baf565b92915050565b6000604051905090565b600080fd5b600080fd5b6000819050919050565b610c0081610bed565b8114610c0b57600080fd5b50565b600081359050610c1d81610bf7565b92915050565b6000819050919050565b610c3681610c23565b8114610c4157600080fd5b50565b600081359050610c5381610c2d565b92915050565b60008060408385031215610c7057610c6f610be3565b5b6000610c7e85828601610c0e565b9250506020610c8f85828601610c44565b9150509250929050565b600081519050919050565b600082825260208201905092915050565b60005b83811015610cd3578082015181840152602081019050610cb8565b83811115610ce2576000848401525b50505050565b6000601f19601f8301169050919050565b6000610d0482610c99565b610d0e8185610ca4565b9350610d1e818560208601610cb5565b610d2781610ce8565b840191505092915050565b600081519050919050565b600082825260208201905092915050565b6000610d5982610d32565b610d638185610d3d565b9350610d73818560208601610cb5565b610d7c81610ce8565b840191505092915050565b60006060820190508181036000830152610da18186610cf9565b90508181036020830152610db58185610cf9565b90508181036040830152610dc98184610d4e565b9050949350505050565b600060208284031215610de957610de8610be3565b5b6000610df784828501610c0e565b91505092915050565b600081519050919050565b600082825260208201905092915050565b6000819050602082019050919050565b600082825260208201905092915050565b6000610e4882610c99565b610e528185610e2c565b9350610e62818560208601610cb5565b610e6b81610ce8565b840191505092915050565b6000610e828383610e3d565b905092915050565b6000602082019050919050565b6000610ea282610e00565b610eac8185610e0b565b935083602082028501610ebe85610e1c565b8060005b85811015610efa5784840389528151610edb8582610e76565b9450610ee683610e8a565b925060208a01995050600181019050610ec2565b50829750879550505050505092915050565b600081519050919050565b600082825260208201905092915050565b6000819050602082019050919050565b600082825260208201905092915050565b6000610f5482610d32565b610f5e8185610f38565b9350610f6e818560208601610cb5565b610f7781610ce8565b840191505092915050565b6000610f8e8383610f49565b905092915050565b6000602082019050919050565b6000610fae82610f0c565b610fb88185610f17565b935083602082028501610fca85610f28565b8060005b858110156110065784840389528151610fe78582610f82565b9450610ff283610f96565b925060208a01995050600181019050610fce565b50829750879550505050505092915050565b600060608201905081810360008301526110328186610e97565b905081810360208301526110468185610e97565b9050818103604083015261105a8184610fa3565b9050949350505050565b600061106f82610b8b565b9050919050565b61107f81611064565b82525050565b600060208201905061109a6000830184611076565b92915050565b600080fd5b600080fd5b7f4e487b7100000000000000000000000000000000000000000000000000000000600052604160045260246000fd5b6110e282610ce8565b810181811067ffffffffffffffff82111715611101576111006110aa565b5b80604052505050565b6000611114610bd9565b905061112082826110d9565b919050565b600067ffffffffffffffff8211156111405761113f6110aa565b5b61114982610ce8565b9050602081019050919050565b82818337600083830152505050565b600061117861117384611125565b61110a565b905082815260208101848484011115611194576111936110a5565b5b61119f848285611156565b509392505050565b600082601f8301126111bc576111bb6110a0565b5b81356111cc848260208601611165565b91505092915050565b600067ffffffffffffffff8211156111f0576111ef6110aa565b5b6111f982610ce8565b9050602081019050919050565b6000611219611214846111d5565b61110a565b905082815260208101848484011115611235576112346110a5565b5b611240848285611156565b509392505050565b600082601f83011261125d5761125c6110a0565b5b813561126d848260208601611206565b91505092915050565b600080600080608085870312156112905761128f610be3565b5b600061129e87828801610c0e565b945050602085013567ffffffffffffffff8111156112bf576112be610be8565b5b6112cb878288016111a7565b935050604085013567ffffffffffffffff8111156112ec576112eb610be8565b5b6112f8878288016111a7565b925050606085013567ffffffffffffffff81111561131957611318610be8565b5b61132587828801611248565b91505092959194509250565b7f4e487b7100000000000000000000000000000000000000000000000000000000600052602260045260246000fd5b6000600282049050600182168061137857607f821691505b6020821081141561138c5761138b611331565b5b50919050565b61139b81610bed565b82525050565b60006020820190506113b66000830184611392565b92915050565b60008115159050919050565b6113d1816113bc565b81146113dc57600080fd5b50565b6000815190506113ee816113c8565b92915050565b60006020828403121561140a57611409610be3565b5b6000611418848285016113df565b91505092915050565b7f55736572206e6f74207265676973746572656420746f2073797374656d210000600082015250565b6000611457601e83610ca4565b915061146282611421565b602082019050919050565b600060208201905081810360008301526114868161144a565b9050919050565b7f4e487b7100000000000000000000000000000000000000000000000000000000600052603260045260246000fd5b7f4e487b7100000000000000000000000000000000000000000000000000000000600052601160045260246000fd5b60006114f682610c23565b91507fffffffffffffffffffffffffffffffffffffffffffffffffffffffffffffffff821415611529576115286114bc565b5b600182019050919050565b7f50617469656e742f6e65772d6f776e6572206e6f74207265676973746572656460008201527f20746f2073797374656d21000000000000000000000000000000000000000000602082015250565b6000611590602b83610ca4565b915061159b82611534565b604082019050919050565b600060208201905081810360008301526115bf81611583565b9050919050565b7f4e657720646174612061646465642e0000000000000000000000000000000000600082015250565b60006115fc600f83610ca4565b9150611607826115c6565b602082019050919050565b60006040820190506116276000830184611392565b8181036020830152611638816115ef565b90509291505056fea2646970667358221220f75d2775005f4abd081db893d821bc40ae66b921a121c4aa1de98a932083641964736f6c634300080a0033",
      "opcodes": "PUSH1 0x80 PUSH1 0x40 MSTORE CALLVALUE DUP1 ISZERO PUSH3 0x11 JUMPI PUSH1 0x0 DUP1 REVERT JUMPDEST POP PUSH1 0x40 MLOAD PUSH3 0x17F7 CODESIZE SUB DUP1 PUSH3 0x17F7 DUP4 CODECOPY DUP2 DUP2 ADD PUSH1 0x40 MSTORE DUP2 ADD SWAP1 PUSH3 0x37 SWAP2 SWAP1 PUSH3 0x12A JUMP JUMPDEST DUP2 PUSH1 0x0 DUP1 PUSH2 0x100 EXP DUP2 SLOAD DUP2 PUSH20 0xFFFFFFFFFFFFFFFFFFFFFFFFFFFFFFFFFFFFFFFF MUL NOT AND SWAP1 DUP4 PUSH20 0xFFFFFFFFFFFFFFFFFFFFFFFFFFFFFFFFFFFFFFFF AND MUL OR SWAP1 SSTORE POP DUP1 PUSH1 0x1 PUSH1 0x0 PUSH2 0x100 EXP DUP2 SLOAD DUP2 PUSH20 0xFFFFFFFFFFFFFFFFFFFFFFFFFFFFFFFFFFFFFFFF MUL NOT AND SWAP1 DUP4 PUSH20 0xFFFFFFFFFFFFFFFFFFFFFFFFFFFFFFFFFFFFFFFF AND MUL OR SWAP1 SSTORE POP POP POP PUSH3 0x171 JUMP JUMPDEST PUSH1 0x0 DUP1 REVERT JUMPDEST PUSH1 0x0 PUSH20 0xFFFFFFFFFFFFFFFFFFFFFFFFFFFFFFFFFFFFFFFF DUP3 AND SWAP1 POP SWAP2 SWAP1 POP JUMP JUMPDEST PUSH1 0x0 PUSH3 0xF2 DUP3 PUSH3 0xC5 JUMP JUMPDEST SWAP1 POP SWAP2 SWAP1 POP JUMP JUMPDEST PUSH3 0x104 DUP2 PUSH3 0xE5 JUMP JUMPDEST DUP2 EQ PUSH3 0x110 JUMPI PUSH1 0x0 DUP1 REVERT JUMPDEST POP JUMP JUMPDEST PUSH1 0x0 DUP2 MLOAD SWAP1 POP PUSH3 0x124 DUP2 PUSH3 0xF9 JUMP JUMPDEST SWAP3 SWAP2 POP POP JUMP JUMPDEST PUSH1 0x0 DUP1 PUSH1 0x40 DUP4 DUP6 SUB SLT ISZERO PUSH3 0x144 JUMPI PUSH3 0x143 PUSH3 0xC0 JUMP JUMPDEST JUMPDEST PUSH1 0x0 PUSH3 0x154 DUP6 DUP3 DUP7 ADD PUSH3 0x113 JUMP JUMPDEST SWAP3 POP POP PUSH1 0x20 PUSH3 0x167 DUP6 DUP3 DUP7 ADD PUSH3 0x113 JUMP JUMPDEST SWAP2 POP POP SWAP3 POP SWAP3 SWAP1 POP JUMP JUMPDEST PUSH2 0x1676 DUP1 PUSH3 0x181 PUSH1 0x0 CODECOPY PUSH1 0x0 RETURN INVALID PUSH1 0x80 PUSH1 0x40 MSTORE CALLVALUE DUP1 ISZERO PUSH2 0x10 JUMPI PUSH1 0x0 DUP1 REVERT JUMPDEST POP PUSH1 0x4 CALLDATASIZE LT PUSH2 0x57 JUMPI PUSH1 0x0 CALLDATALOAD PUSH1 0xE0 SHR DUP1 PUSH4 0x1D755579 EQ PUSH2 0x5C JUMPI DUP1 PUSH4 0x2CB73406 EQ PUSH2 0x7A JUMPI DUP1 PUSH4 0x65375A04 EQ PUSH2 0xAC JUMPI DUP1 PUSH4 0x7B103999 EQ PUSH2 0xDE JUMPI DUP1 PUSH4 0xBA0C93CB EQ PUSH2 0xFC JUMPI JUMPDEST PUSH1 0x0 DUP1 REVERT JUMPDEST PUSH2 0x64 PUSH2 0x118 JUMP JUMPDEST PUSH1 0x40 MLOAD PUSH2 0x71 SWAP2 SWAP1 PUSH2 0xBBE JUMP JUMPDEST PUSH1 0x40 MLOAD DUP1 SWAP2 SUB SWAP1 RETURN JUMPDEST PUSH2 0x94 PUSH1 0x4 DUP1 CALLDATASIZE SUB DUP2 ADD SWAP1 PUSH2 0x8F SWAP2 SWAP1 PUSH2 0xC59 JUMP JUMPDEST PUSH2 0x13E JUMP JUMPDEST PUSH1 0x40 MLOAD PUSH2 0xA3 SWAP4 SWAP3 SWAP2 SWAP1 PUSH2 0xD87 JUMP JUMPDEST PUSH1 0x40 MLOAD DUP1 SWAP2 SUB SWAP1 RETURN JUMPDEST PUSH2 0xC6 PUSH1 0x4 DUP1 CALLDATASIZE SUB DUP2 ADD SWAP1 PUSH2 0xC1 SWAP2 SWAP1 PUSH2 0xDD3 JUMP JUMPDEST PUSH2 0x31D JUMP JUMPDEST PUSH1 0x40 MLOAD PUSH2 0xD5 SWAP4 SWAP3 SWAP2 SWAP1 PUSH2 0x1018 JUMP JUMPDEST PUSH1 0x40 MLOAD DUP1 SWAP2 SUB SWAP1 RETURN JUMPDEST PUSH2 0xE6 PUSH2 0x7D6 JUMP JUMPDEST PUSH1 0x40 MLOAD PUSH2 0xF3 SWAP2 SWAP1 PUSH2 0x1085 JUMP JUMPDEST PUSH1 0x40 MLOAD DUP1 SWAP2 SUB SWAP1 RETURN JUMPDEST PUSH2 0x116 PUSH1 0x4 DUP1 CALLDATASIZE SUB DUP2 ADD SWAP1 PUSH2 0x111 SWAP2 SWAP1 PUSH2 0x1276 JUMP JUMPDEST PUSH2 0x7FA JUMP JUMPDEST STOP JUMPDEST PUSH1 0x1 PUSH1 0x0 SWAP1 SLOAD SWAP1 PUSH2 0x100 EXP SWAP1 DIV PUSH20 0xFFFFFFFFFFFFFFFFFFFFFFFFFFFFFFFFFFFFFFFF AND DUP2 JUMP JUMPDEST PUSH1 0x2 PUSH1 0x20 MSTORE DUP2 PUSH1 0x0 MSTORE PUSH1 0x40 PUSH1 0x0 KECCAK256 DUP2 DUP2 SLOAD DUP2 LT PUSH2 0x15A JUMPI PUSH1 0x0 DUP1 REVERT JUMPDEST SWAP1 PUSH1 0x0 MSTORE PUSH1 0x20 PUSH1 0x0 KECCAK256 SWAP1 PUSH1 0x3 MUL ADD PUSH1 0x0 SWAP2 POP SWAP2 POP POP DUP1 PUSH1 0x0 ADD DUP1 SLOAD PUSH2 0x17E SWAP1 PUSH2 0x1360 JUMP JUMPDEST DUP1 PUSH1 0x1F ADD PUSH1 0x20 DUP1 SWAP2 DIV MUL PUSH1 0x20 ADD PUSH1 0x40 MLOAD SWAP1 DUP2 ADD PUSH1 0x40 MSTORE DUP1 SWAP3 SWAP2 SWAP1 DUP2 DUP2 MSTORE PUSH1 0x20 ADD DUP3 DUP1 SLOAD PUSH2 0x1AA SWAP1 PUSH2 0x1360 JUMP JUMPDEST DUP1 ISZERO PUSH2 0x1F7 JUMPI DUP1 PUSH1 0x1F LT PUSH2 0x1CC JUMPI PUSH2 0x100 DUP1 DUP4 SLOAD DIV MUL DUP4 MSTORE SWAP2 PUSH1 0x20 ADD SWAP2 PUSH2 0x1F7 JUMP JUMPDEST DUP3 ADD SWAP2 SWAP1 PUSH1 0x0 MSTORE PUSH1 0x20 PUSH1 0x0 KECCAK256 SWAP1 JUMPDEST DUP2 SLOAD DUP2 MSTORE SWAP1 PUSH1 0x1 ADD SWAP1 PUSH1 0x20 ADD DUP1 DUP4 GT PUSH2 0x1DA JUMPI DUP3 SWAP1 SUB PUSH1 0x1F AND DUP3 ADD SWAP2 JUMPDEST POP POP POP POP POP SWAP1 DUP1 PUSH1 0x1 ADD DUP1 SLOAD PUSH2 0x20C SWAP1 PUSH2 0x1360 JUMP JUMPDEST DUP1 PUSH1 0x1F ADD PUSH1 0x20 DUP1 SWAP2 DIV MUL PUSH1 0x20 ADD PUSH1 0x40 MLOAD SWAP1 DUP2 ADD PUSH1 0x40 MSTORE DUP1 SWAP3 SWAP2 SWAP1 DUP2 DUP2 MSTORE PUSH1 0x20 ADD DUP3 DUP1 SLOAD PUSH2 0x238 SWAP1 PUSH2 0x1360 JUMP JUMPDEST DUP1 ISZERO PUSH2 0x285 JUMPI DUP1 PUSH1 0x1F LT PUSH2 0x25A JUMPI PUSH2 0x100 DUP1 DUP4 SLOAD DIV MUL DUP4 MSTORE SWAP2 PUSH1 0x20 ADD SWAP2 PUSH2 0x285 JUMP JUMPDEST DUP3 ADD SWAP2 SWAP1 PUSH1 0x0 MSTORE PUSH1 0x20 PUSH1 0x0 KECCAK256 SWAP1 JUMPDEST DUP2 SLOAD DUP2 MSTORE SWAP1 PUSH1 0x1 ADD SWAP1 PUSH1 0x20 ADD DUP1 DUP4 GT PUSH2 0x268 JUMPI DUP3 SWAP1 SUB PUSH1 0x1F AND DUP3 ADD SWAP2 JUMPDEST POP POP POP POP POP SWAP1 DUP1 PUSH1 0x2 ADD DUP1 SLOAD PUSH2 0x29A SWAP1 PUSH2 0x1360 JUMP JUMPDEST DUP1 PUSH1 0x1F ADD PUSH1 0x20 DUP1 SWAP2 DIV MUL PUSH1 0x20 ADD PUSH1 0x40 MLOAD SWAP1 DUP2 ADD PUSH1 0x40 MSTORE DUP1 SWAP3 SWAP2 SWAP1 DUP2 DUP2 MSTORE PUSH1 0x20 ADD DUP3 DUP1 SLOAD PUSH2 0x2C6 SWAP1 PUSH2 0x1360 JUMP JUMPDEST DUP1 ISZERO PUSH2 0x313 JUMPI DUP1 PUSH1 0x1F LT PUSH2 0x2E8 JUMPI PUSH2 0x100 DUP1 DUP4 SLOAD DIV MUL DUP4 MSTORE SWAP2 PUSH1 0x20 ADD SWAP2 PUSH2 0x313 JUMP JUMPDEST DUP3 ADD SWAP2 SWAP1 PUSH1 0x0 MSTORE PUSH1 0x20 PUSH1 0x0 KECCAK256 SWAP1 JUMPDEST DUP2 SLOAD DUP2 MSTORE SWAP1 PUSH1 0x1 ADD SWAP1 PUSH1 0x20 ADD DUP1 DUP4 GT PUSH2 0x2F6 JUMPI DUP3 SWAP1 SUB PUSH1 0x1F AND DUP3 ADD SWAP2 JUMPDEST POP POP POP POP POP SWAP1 POP DUP4 JUMP JUMPDEST PUSH1 0x60 DUP1 PUSH1 0x60 PUSH1 0x0 DUP1 SLOAD SWAP1 PUSH2 0x100 EXP SWAP1 DIV PUSH20 0xFFFFFFFFFFFFFFFFFFFFFFFFFFFFFFFFFFFFFFFF AND PUSH20 0xFFFFFFFFFFFFFFFFFFFFFFFFFFFFFFFFFFFFFFFF AND PUSH4 0xB2551C2 DUP6 PUSH1 0x40 MLOAD DUP3 PUSH4 0xFFFFFFFF AND PUSH1 0xE0 SHL DUP2 MSTORE PUSH1 0x4 ADD PUSH2 0x37B SWAP2 SWAP1 PUSH2 0x13A1 JUMP JUMPDEST PUSH1 0x20 PUSH1 0x40 MLOAD DUP1 DUP4 SUB DUP2 DUP7 GAS STATICCALL ISZERO DUP1 ISZERO PUSH2 0x398 JUMPI RETURNDATASIZE PUSH1 0x0 DUP1 RETURNDATACOPY RETURNDATASIZE PUSH1 0x0 REVERT JUMPDEST POP POP POP POP PUSH1 0x40 MLOAD RETURNDATASIZE PUSH1 0x1F NOT PUSH1 0x1F DUP3 ADD AND DUP3 ADD DUP1 PUSH1 0x40 MSTORE POP DUP2 ADD SWAP1 PUSH2 0x3BC SWAP2 SWAP1 PUSH2 0x13F4 JUMP JUMPDEST PUSH2 0x3FB JUMPI PUSH1 0x40 MLOAD PUSH32 0x8C379A000000000000000000000000000000000000000000000000000000000 DUP2 MSTORE PUSH1 0x4 ADD PUSH2 0x3F2 SWAP1 PUSH2 0x146D JUMP JUMPDEST PUSH1 0x40 MLOAD DUP1 SWAP2 SUB SWAP1 REVERT JUMPDEST PUSH1 0x0 PUSH1 0x2 PUSH1 0x0 DUP7 DUP2 MSTORE PUSH1 0x20 ADD SWAP1 DUP2 MSTORE PUSH1 0x20 ADD PUSH1 0x0 KECCAK256 DUP1 SLOAD SWAP1 POP SWAP1 POP PUSH1 0x0 DUP2 PUSH8 0xFFFFFFFFFFFFFFFF DUP2 GT ISZERO PUSH2 0x432 JUMPI PUSH2 0x431 PUSH2 0x10AA JUMP JUMPDEST JUMPDEST PUSH1 0x40 MLOAD SWAP1 DUP1 DUP3 MSTORE DUP1 PUSH1 0x20 MUL PUSH1 0x20 ADD DUP3 ADD PUSH1 0x40 MSTORE DUP1 ISZERO PUSH2 0x465 JUMPI DUP2 PUSH1 0x20 ADD JUMPDEST PUSH1 0x60 DUP2 MSTORE PUSH1 0x20 ADD SWAP1 PUSH1 0x1 SWAP1 SUB SWAP1 DUP2 PUSH2 0x450 JUMPI SWAP1 POP JUMPDEST POP SWAP1 POP PUSH1 0x0 DUP3 PUSH8 0xFFFFFFFFFFFFFFFF DUP2 GT ISZERO PUSH2 0x484 JUMPI PUSH2 0x483 PUSH2 0x10AA JUMP JUMPDEST JUMPDEST PUSH1 0x40 MLOAD SWAP1 DUP1 DUP3 MSTORE DUP1 PUSH1 0x20 MUL PUSH1 0x20 ADD DUP3 ADD PUSH1 0x40 MSTORE DUP1 ISZERO PUSH2 0x4B7 JUMPI DUP2 PUSH1 0x20 ADD JUMPDEST PUSH1 0x60 DUP2 MSTORE PUSH1 0x20 ADD SWAP1 PUSH1 0x1 SWAP1 SUB SWAP1 DUP2 PUSH2 0x4A2 JUMPI SWAP1 POP JUMPDEST POP SWAP1 POP PUSH1 0x0 DUP4 PUSH8 0xFFFFFFFFFFFFFFFF DUP2 GT ISZERO PUSH2 0x4D6 JUMPI PUSH2 0x4D5 PUSH2 0x10AA JUMP JUMPDEST JUMPDEST PUSH1 0x40 MLOAD SWAP1 DUP1 DUP3 MSTORE DUP1 PUSH1 0x20 MUL PUSH1 0x20 ADD DUP3 ADD PUSH1 0x40 MSTORE DUP1 ISZERO PUSH2 0x509 JUMPI DUP2 PUSH1 0x20 ADD JUMPDEST PUSH1 0x60 DUP2 MSTORE PUSH1 0x20 ADD SWAP1 PUSH1 0x1 SWAP1 SUB SWAP1 DUP2 PUSH2 0x4F4 JUMPI SWAP1 POP JUMPDEST POP SWAP1 POP PUSH1 0x0 JUMPDEST DUP5 DUP2 LT ISZERO PUSH2 0x7C1 JUMPI PUSH1 0x2 PUSH1 0x0 DUP11 DUP2 MSTORE PUSH1 0x20 ADD SWAP1 DUP2 MSTORE PUSH1 0x20 ADD PUSH1 0x0 KECCAK256 DUP2 DUP2 SLOAD DUP2 LT PUSH2 0x53C JUMPI PUSH2 0x53B PUSH2 0x148D JUMP JUMPDEST JUMPDEST SWAP1 PUSH1 0x0 MSTORE PUSH1 0x20 PUSH1 0x0 KECCAK256 SWAP1 PUSH1 0x3 MUL ADD PUSH1 0x0 ADD DUP1 SLOAD PUSH2 0x558 SWAP1 PUSH2 0x1360 JUMP JUMPDEST DUP1 PUSH1 0x1F ADD PUSH1 0x20 DUP1 SWAP2 DIV MUL PUSH1 0x20 ADD PUSH1 0x40 MLOAD SWAP1 DUP2 ADD PUSH1 0x40 MSTORE DUP1 SWAP3 SWAP2 SWAP1 DUP2 DUP2 MSTORE PUSH1 0x20 ADD DUP3 DUP1 SLOAD PUSH2 0x584 SWAP1 PUSH2 0x1360 JUMP JUMPDEST DUP1 ISZERO PUSH2 0x5D1 JUMPI DUP1 PUSH1 0x1F LT PUSH2 0x5A6 JUMPI PUSH2 0x100 DUP1 DUP4 SLOAD DIV MUL DUP4 MSTORE SWAP2 PUSH1 0x20 ADD SWAP2 PUSH2 0x5D1 JUMP JUMPDEST DUP3 ADD SWAP2 SWAP1 PUSH1 0x0 MSTORE PUSH1 0x20 PUSH1 0x0 KECCAK256 SWAP1 JUMPDEST DUP2 SLOAD DUP2 MSTORE SWAP1 PUSH1 0x1 ADD SWAP1 PUSH1 0x20 ADD DUP1 DUP4 GT PUSH2 0x5B4 JUMPI DUP3 SWAP1 SUB PUSH1 0x1F AND DUP3 ADD SWAP2 JUMPDEST POP POP POP POP POP DUP5 DUP3 DUP2 MLOAD DUP2 LT PUSH2 0x5E9 JUMPI PUSH2 0x5E8 PUSH2 0x148D JUMP JUMPDEST JUMPDEST PUSH1 0x20 MUL PUSH1 0x20 ADD ADD DUP2 SWAP1 MSTORE POP PUSH1 0x2 PUSH1 0x0 DUP11 DUP2 MSTORE PUSH1 0x20 ADD SWAP1 DUP2 MSTORE PUSH1 0x20 ADD PUSH1 0x0 KECCAK256 DUP2 DUP2 SLOAD DUP2 LT PUSH2 0x619 JUMPI PUSH2 0x618 PUSH2 0x148D JUMP JUMPDEST JUMPDEST SWAP1 PUSH1 0x0 MSTORE PUSH1 0x20 PUSH1 0x0 KECCAK256 SWAP1 PUSH1 0x3 MUL ADD PUSH1 0x1 ADD DUP1 SLOAD PUSH2 0x635 SWAP1 PUSH2 0x1360 JUMP JUMPDEST DUP1 PUSH1 0x1F ADD PUSH1 0x20 DUP1 SWAP2 DIV MUL PUSH1 0x20 ADD PUSH1 0x40 MLOAD SWAP1 DUP2 ADD PUSH1 0x40 MSTORE DUP1 SWAP3 SWAP2 SWAP1 DUP2 DUP2 MSTORE PUSH1 0x20 ADD DUP3 DUP1 SLOAD PUSH2 0x661 SWAP1 PUSH2 0x1360 JUMP JUMPDEST DUP1 ISZERO PUSH2 0x6AE JUMPI DUP1 PUSH1 0x1F LT PUSH2 0x683 JUMPI PUSH2 0x100 DUP1 DUP4 SLOAD DIV MUL DUP4 MSTORE SWAP2 PUSH1 0x20 ADD SWAP2 PUSH2 0x6AE JUMP JUMPDEST DUP3 ADD SWAP2 SWAP1 PUSH1 0x0 MSTORE PUSH1 0x20 PUSH1 0x0 KECCAK256 SWAP1 JUMPDEST DUP2 SLOAD DUP2 MSTORE SWAP1 PUSH1 0x1 ADD SWAP1 PUSH1 0x20 ADD DUP1 DUP4 GT PUSH2 0x691 JUMPI DUP3 SWAP1 SUB PUSH1 0x1F AND DUP3 ADD SWAP2 JUMPDEST POP POP POP POP POP DUP4 DUP3 DUP2 MLOAD DUP2 LT PUSH2 0x6C6 JUMPI PUSH2 0x6C5 PUSH2 0x148D JUMP JUMPDEST JUMPDEST PUSH1 0x20 MUL PUSH1 0x20 ADD ADD DUP2 SWAP1 MSTORE POP PUSH1 0x2 PUSH1 0x0 DUP11 DUP2 MSTORE PUSH1 0x20 ADD SWAP1 DUP2 MSTORE PUSH1 0x20 ADD PUSH1 0x0 KECCAK256 DUP2 DUP2 SLOAD DUP2 LT PUSH2 0x6F6 JUMPI PUSH2 0x6F5 PUSH2 0x148D JUMP JUMPDEST JUMPDEST SWAP1 PUSH1 0x0 MSTORE PUSH1 0x20 PUSH1 0x0 KECCAK256 SWAP1 PUSH1 0x3 MUL ADD PUSH1 0x2 ADD DUP1 SLOAD PUSH2 0x712 SWAP1 PUSH2 0x1360 JUMP JUMPDEST DUP1 PUSH1 0x1F ADD PUSH1 0x20 DUP1 SWAP2 DIV MUL PUSH1 0x20 ADD PUSH1 0x40 MLOAD SWAP1 DUP2 ADD PUSH1 0x40 MSTORE DUP1 SWAP3 SWAP2 SWAP1 DUP2 DUP2 MSTORE PUSH1 0x20 ADD DUP3 DUP1 SLOAD PUSH2 0x73E SWAP1 PUSH2 0x1360 JUMP JUMPDEST DUP1 ISZERO PUSH2 0x78B JUMPI DUP1 PUSH1 0x1F LT PUSH2 0x760 JUMPI PUSH2 0x100 DUP1 DUP4 SLOAD DIV MUL DUP4 MSTORE SWAP2 PUSH1 0x20 ADD SWAP2 PUSH2 0x78B JUMP JUMPDEST DUP3 ADD SWAP2 SWAP1 PUSH1 0x0 MSTORE PUSH1 0x20 PUSH1 0x0 KECCAK256 SWAP1 JUMPDEST DUP2 SLOAD DUP2 MSTORE SWAP1 PUSH1 0x1 ADD SWAP1 PUSH1 0x20 ADD DUP1 DUP4 GT PUSH2 0x76E JUMPI DUP3 SWAP1 SUB PUSH1 0x1F AND DUP3 ADD SWAP2 JUMPDEST POP POP POP POP POP DUP3 DUP3 DUP2 MLOAD DUP2 LT PUSH2 0x7A3 JUMPI PUSH2 0x7A2 PUSH2 0x148D JUMP JUMPDEST JUMPDEST PUSH1 0x20 MUL PUSH1 0x20 ADD ADD DUP2 SWAP1 MSTORE POP DUP1 DUP1 PUSH2 0x7B9 SWAP1 PUSH2 0x14EB JUMP JUMPDEST SWAP2 POP POP PUSH2 0x50F JUMP JUMPDEST POP DUP3 DUP3 DUP3 SWAP7 POP SWAP7 POP SWAP7 POP POP POP POP POP SWAP2 SWAP4 SWAP1 SWAP3 POP JUMP JUMPDEST PUSH1 0x0 DUP1 SLOAD SWAP1 PUSH2 0x100 EXP SWAP1 DIV PUSH20 0xFFFFFFFFFFFFFFFFFFFFFFFFFFFFFFFFFFFFFFFF AND DUP2 JUMP JUMPDEST PUSH1 0x0 DUP1 SLOAD SWAP1 PUSH2 0x100 EXP SWAP1 DIV PUSH20 0xFFFFFFFFFFFFFFFFFFFFFFFFFFFFFFFFFFFFFFFF AND PUSH20 0xFFFFFFFFFFFFFFFFFFFFFFFFFFFFFFFFFFFFFFFF AND PUSH4 0xB2551C2 DUP6 PUSH1 0x40 MLOAD DUP3 PUSH4 0xFFFFFFFF AND PUSH1 0xE0 SHL DUP2 MSTORE PUSH1 0x4 ADD PUSH2 0x853 SWAP2 SWAP1 PUSH2 0x13A1 JUMP JUMPDEST PUSH1 0x20 PUSH1 0x40 MLOAD DUP1 DUP4 SUB DUP2 DUP7 GAS STATICCALL ISZERO DUP1 ISZERO PUSH2 0x870 JUMPI RETURNDATASIZE PUSH1 0x0 DUP1 RETURNDATACOPY RETURNDATASIZE PUSH1 0x0 REVERT JUMPDEST POP POP POP POP PUSH1 0x40 MLOAD RETURNDATASIZE PUSH1 0x1F NOT PUSH1 0x1F DUP3 ADD AND DUP3 ADD DUP1 PUSH1 0x40 MSTORE POP DUP2 ADD SWAP1 PUSH2 0x894 SWAP2 SWAP1 PUSH2 0x13F4 JUMP JUMPDEST PUSH2 0x8D3 JUMPI PUSH1 0x40 MLOAD PUSH32 0x8C379A000000000000000000000000000000000000000000000000000000000 DUP2 MSTORE PUSH1 0x4 ADD PUSH2 0x8CA SWAP1 PUSH2 0x15A6 JUMP JUMPDEST PUSH1 0x40 MLOAD DUP1 SWAP2 SUB SWAP1 REVERT JUMPDEST PUSH1 0x2 PUSH1 0x0 DUP6 DUP2 MSTORE PUSH1 0x20 ADD SWAP1 DUP2 MSTORE PUSH1 0x20 ADD PUSH1 0x0 KECCAK256 PUSH1 0x40 MLOAD DUP1 PUSH1 0x60 ADD PUSH1 0x40 MSTORE DUP1 DUP6 DUP2 MSTORE PUSH1 0x20 ADD DUP5 DUP2 MSTORE PUSH1 0x20 ADD DUP4 DUP2 MSTORE POP SWAP1 DUP1 PUSH1 0x1 DUP2 SLOAD ADD DUP1 DUP3 SSTORE DUP1 SWAP2 POP POP PUSH1 0x1 SWAP1 SUB SWAP1 PUSH1 0x0 MSTORE PUSH1 0x20 PUSH1 0x0 KECCAK256 SWAP1 PUSH1 0x3 MUL ADD PUSH1 0x0 SWAP1 SWAP2 SWAP1 SWAP2 SWAP1 SWAP2 POP PUSH1 0x0 DUP3 ADD MLOAD DUP2 PUSH1 0x0 ADD SWAP1 DUP1 MLOAD SWAP1 PUSH1 0x20 ADD SWAP1 PUSH2 0x946 SWAP3 SWAP2 SWAP1 PUSH2 0xA16 JUMP JUMPDEST POP PUSH1 0x20 DUP3 ADD MLOAD DUP2 PUSH1 0x1 ADD SWAP1 DUP1 MLOAD SWAP1 PUSH1 0x20 ADD SWAP1 PUSH2 0x963 SWAP3 SWAP2 SWAP1 PUSH2 0xA16 JUMP JUMPDEST POP PUSH1 0x40 DUP3 ADD MLOAD DUP2 PUSH1 0x2 ADD SWAP1 DUP1 MLOAD SWAP1 PUSH1 0x20 ADD SWAP1 PUSH2 0x980 SWAP3 SWAP2 SWAP1 PUSH2 0xA9C JUMP JUMPDEST POP POP POP PUSH1 0x1 PUSH1 0x0 SWAP1 SLOAD SWAP1 PUSH2 0x100 EXP SWAP1 DIV PUSH20 0xFFFFFFFFFFFFFFFFFFFFFFFFFFFFFFFFFFFFFFFF AND PUSH20 0xFFFFFFFFFFFFFFFFFFFFFFFFFFFFFFFFFFFFFFFF AND PUSH4 0xA2CF0C56 DUP6 PUSH1 0x40 MLOAD DUP3 PUSH4 0xFFFFFFFF AND PUSH1 0xE0 SHL DUP2 MSTORE PUSH1 0x4 ADD PUSH2 0x9DE SWAP2 SWAP1 PUSH2 0x1612 JUMP JUMPDEST PUSH1 0x0 PUSH1 0x40 MLOAD DUP1 DUP4 SUB DUP2 PUSH1 0x0 DUP8 DUP1 EXTCODESIZE ISZERO DUP1 ISZERO PUSH2 0x9F8 JUMPI PUSH1 0x0 DUP1 REVERT JUMPDEST POP GAS CALL ISZERO DUP1 ISZERO PUSH2 0xA0C JUMPI RETURNDATASIZE PUSH1 0x0 DUP1 RETURNDATACOPY RETURNDATASIZE PUSH1 0x0 REVERT JUMPDEST POP POP POP POP POP POP POP POP JUMP JUMPDEST DUP3 DUP1 SLOAD PUSH2 0xA22 SWAP1 PUSH2 0x1360 JUMP JUMPDEST SWAP1 PUSH1 0x0 MSTORE PUSH1 0x20 PUSH1 0x0 KECCAK256 SWAP1 PUSH1 0x1F ADD PUSH1 0x20 SWAP1 DIV DUP2 ADD SWAP3 DUP3 PUSH2 0xA44 JUMPI PUSH1 0x0 DUP6 SSTORE PUSH2 0xA8B JUMP JUMPDEST DUP3 PUSH1 0x1F LT PUSH2 0xA5D JUMPI DUP1 MLOAD PUSH1 0xFF NOT AND DUP4 DUP1 ADD OR DUP6 SSTORE PUSH2 0xA8B JUMP JUMPDEST DUP3 DUP1 ADD PUSH1 0x1 ADD DUP6 SSTORE DUP3 ISZERO PUSH2 0xA8B JUMPI SWAP2 DUP3 ADD JUMPDEST DUP3 DUP2 GT ISZERO PUSH2 0xA8A JUMPI DUP3 MLOAD DUP3 SSTORE SWAP2 PUSH1 0x20 ADD SWAP2 SWAP1 PUSH1 0x1 ADD SWAP1 PUSH2 0xA6F JUMP JUMPDEST JUMPDEST POP SWAP1 POP PUSH2 0xA98 SWAP2 SWAP1 PUSH2 0xB22 JUMP JUMPDEST POP SWAP1 JUMP JUMPDEST DUP3 DUP1 SLOAD PUSH2 0xAA8 SWAP1 PUSH2 0x1360 JUMP JUMPDEST SWAP1 PUSH1 0x0 MSTORE PUSH1 0x20 PUSH1 0x0 KECCAK256 SWAP1 PUSH1 0x1F ADD PUSH1 0x20 SWAP1 DIV DUP2 ADD SWAP3 DUP3 PUSH2 0xACA JUMPI PUSH1 0x0 DUP6 SSTORE PUSH2 0xB11 JUMP JUMPDEST DUP3 PUSH1 0x1F LT PUSH2 0xAE3 JUMPI DUP1 MLOAD PUSH1 0xFF NOT AND DUP4 DUP1 ADD OR DUP6 SSTORE PUSH2 0xB11 JUMP JUMPDEST DUP3 DUP1 ADD PUSH1 0x1 ADD DUP6 SSTORE DUP3 ISZERO PUSH2 0xB11 JUMPI SWAP2 DUP3 ADD JUMPDEST DUP3 DUP2 GT ISZERO PUSH2 0xB10 JUMPI DUP3 MLOAD DUP3 SSTORE SWAP2 PUSH1 0x20 ADD SWAP2 SWAP1 PUSH1 0x1 ADD SWAP1 PUSH2 0xAF5 JUMP JUMPDEST JUMPDEST POP SWAP1 POP PUSH2 0xB1E SWAP2 SWAP1 PUSH2 0xB22 JUMP JUMPDEST POP SWAP1 JUMP JUMPDEST JUMPDEST DUP1 DUP3 GT ISZERO PUSH2 0xB3B JUMPI PUSH1 0x0 DUP2 PUSH1 0x0 SWAP1 SSTORE POP PUSH1 0x1 ADD PUSH2 0xB23 JUMP JUMPDEST POP SWAP1 JUMP JUMPDEST PUSH1 0x0 PUSH20 0xFFFFFFFFFFFFFFFFFFFFFFFFFFFFFFFFFFFFFFFF DUP3 AND SWAP1 POP SWAP2 SWAP1 POP JUMP JUMPDEST PUSH1 0x0 DUP2 SWAP1 POP SWAP2 SWAP1 POP JUMP JUMPDEST PUSH1 0x0 PUSH2 0xB84 PUSH2 0xB7F PUSH2 0xB7A DUP5 PUSH2 0xB3F JUMP JUMPDEST PUSH2 0xB5F JUMP JUMPDEST PUSH2 0xB3F JUMP JUMPDEST SWAP1 POP SWAP2 SWAP1 POP JUMP JUMPDEST PUSH1 0x0 PUSH2 0xB96 DUP3 PUSH2 0xB69 JUMP JUMPDEST SWAP1 POP SWAP2 SWAP1 POP JUMP JUMPDEST PUSH1 0x0 PUSH2 0xBA8 DUP3 PUSH2 0xB8B JUMP JUMPDEST SWAP1 POP SWAP2 SWAP1 POP JUMP JUMPDEST PUSH2 0xBB8 DUP2 PUSH2 0xB9D JUMP JUMPDEST DUP3 MSTORE POP POP JUMP JUMPDEST PUSH1 0x0 PUSH1 0x20 DUP3 ADD SWAP1 POP PUSH2 0xBD3 PUSH1 0x0 DUP4 ADD DUP5 PUSH2 0xBAF JUMP JUMPDEST SWAP3 SWAP2 POP POP JUMP JUMPDEST PUSH1 0x0 PUSH1 0x40 MLOAD SWAP1 POP SWAP1 JUMP JUMPDEST PUSH1 0x0 DUP1 REVERT JUMPDEST PUSH1 0x0 DUP1 REVERT JUMPDEST PUSH1 0x0 DUP2 SWAP1 POP SWAP2 SWAP1 POP JUMP JUMPDEST PUSH2 0xC00 DUP2 PUSH2 0xBED JUMP JUMPDEST DUP2 EQ PUSH2 0xC0B JUMPI PUSH1 0x0 DUP1 REVERT JUMPDEST POP JUMP JUMPDEST PUSH1 0x0 DUP2 CALLDATALOAD SWAP1 POP PUSH2 0xC1D DUP2 PUSH2 0xBF7 JUMP JUMPDEST SWAP3 SWAP2 POP POP JUMP JUMPDEST PUSH1 0x0 DUP2 SWAP1 POP SWAP2 SWAP1 POP JUMP JUMPDEST PUSH2 0xC36 DUP2 PUSH2 0xC23 JUMP JUMPDEST DUP2 EQ PUSH2 0xC41 JUMPI PUSH1 0x0 DUP1 REVERT JUMPDEST POP JUMP JUMPDEST PUSH1 0x0 DUP2 CALLDATALOAD SWAP1 POP PUSH2 0xC53 DUP2 PUSH2 0xC2D JUMP JUMPDEST SWAP3 SWAP2 POP POP JUMP JUMPDEST PUSH1 0x0 DUP1 PUSH1 0x40 DUP4 DUP6 SUB SLT ISZERO PUSH2 0xC70 JUMPI PUSH2 0xC6F PUSH2 0xBE3 JUMP JUMPDEST JUMPDEST PUSH1 0x0 PUSH2 0xC7E DUP6 DUP3 DUP7 ADD PUSH2 0xC0E JUMP JUMPDEST SWAP3 POP POP PUSH1 0x20 PUSH2 0xC8F DUP6 DUP3 DUP7 ADD PUSH2 0xC44 JUMP JUMPDEST SWAP2 POP POP SWAP3 POP SWAP3 SWAP1 POP JUMP JUMPDEST PUSH1 0x0 DUP2 MLOAD SWAP1 POP SWAP2 SWAP1 POP JUMP JUMPDEST PUSH1 0x0 DUP3 DUP3 MSTORE PUSH1 0x20 DUP3 ADD SWAP1 POP SWAP3 SWAP2 POP POP JUMP JUMPDEST PUSH1 0x0 JUMPDEST DUP4 DUP2 LT ISZERO PUSH2 0xCD3 JUMPI DUP1 DUP3 ADD MLOAD DUP2 DUP5 ADD MSTORE PUSH1 0x20 DUP2 ADD SWAP1 POP PUSH2 0xCB8 JUMP JUMPDEST DUP4 DUP2 GT ISZERO PUSH2 0xCE2 JUMPI PUSH1 0x0 DUP5 DUP5 ADD MSTORE JUMPDEST POP POP POP POP JUMP JUMPDEST PUSH1 0x0 PUSH1 0x1F NOT PUSH1 0x1F DUP4 ADD AND SWAP1 POP SWAP2 SWAP1 POP JUMP JUMPDEST PUSH1 0x0 PUSH2 0xD04 DUP3 PUSH2 0xC99 JUMP JUMPDEST PUSH2 0xD0E DUP2 DUP6 PUSH2 0xCA4 JUMP JUMPDEST SWAP4 POP PUSH2 0xD1E DUP2 DUP6 PUSH1 0x20 DUP7 ADD PUSH2 0xCB5 JUMP JUMPDEST PUSH2 0xD27 DUP2 PUSH2 0xCE8 JUMP JUMPDEST DUP5 ADD SWAP2 POP POP SWAP3 SWAP2 POP POP JUMP JUMPDEST PUSH1 0x0 DUP2 MLOAD SWAP1 POP SWAP2 SWAP1 POP JUMP JUMPDEST PUSH1 0x0 DUP3 DUP3 MSTORE PUSH1 0x20 DUP3 ADD SWAP1 POP SWAP3 SWAP2 POP POP JUMP JUMPDEST PUSH1 0x0 PUSH2 0xD59 DUP3 PUSH2 0xD32 JUMP JUMPDEST PUSH2 0xD63 DUP2 DUP6 PUSH2 0xD3D JUMP JUMPDEST SWAP4 POP PUSH2 0xD73 DUP2 DUP6 PUSH1 0x20 DUP7 ADD PUSH2 0xCB5 JUMP JUMPDEST PUSH2 0xD7C DUP2 PUSH2 0xCE8 JUMP JUMPDEST DUP5 ADD SWAP2 POP POP SWAP3 SWAP2 POP POP JUMP JUMPDEST PUSH1 0x0 PUSH1 0x60 DUP3 ADD SWAP1 POP DUP2 DUP2 SUB PUSH1 0x0 DUP4 ADD MSTORE PUSH2 0xDA1 DUP2 DUP7 PUSH2 0xCF9 JUMP JUMPDEST SWAP1 POP DUP2 DUP2 SUB PUSH1 0x20 DUP4 ADD MSTORE PUSH2 0xDB5 DUP2 DUP6 PUSH2 0xCF9 JUMP JUMPDEST SWAP1 POP DUP2 DUP2 SUB PUSH1 0x40 DUP4 ADD MSTORE PUSH2 0xDC9 DUP2 DUP5 PUSH2 0xD4E JUMP JUMPDEST SWAP1 POP SWAP5 SWAP4 POP POP POP POP JUMP JUMPDEST PUSH1 0x0 PUSH1 0x20 DUP3 DUP5 SUB SLT ISZERO PUSH2 0xDE9 JUMPI PUSH2 0xDE8 PUSH2 0xBE3 JUMP JUMPDEST JUMPDEST PUSH1 0x0 PUSH2 0xDF7 DUP5 DUP3 DUP6 ADD PUSH2 0xC0E JUMP JUMPDEST SWAP2 POP POP SWAP3 SWAP2 POP POP JUMP JUMPDEST PUSH1 0x0 DUP2 MLOAD SWAP1 POP SWAP2 SWAP1 POP JUMP JUMPDEST PUSH1 0x0 DUP3 DUP3 MSTORE PUSH1 0x20 DUP3 ADD SWAP1 POP SWAP3 SWAP2 POP POP JUMP JUMPDEST PUSH1 0x0 DUP2 SWAP1 POP PUSH1 0x20 DUP3 ADD SWAP1 POP SWAP2 SWAP1 POP JUMP JUMPDEST PUSH1 0x0 DUP3 DUP3 MSTORE PUSH1 0x20 DUP3 ADD SWAP1 POP SWAP3 SWAP2 POP POP JUMP JUMPDEST PUSH1 0x0 PUSH2 0xE48 DUP3 PUSH2 0xC99 JUMP JUMPDEST PUSH2 0xE52 DUP2 DUP6 PUSH2 0xE2C JUMP JUMPDEST SWAP4 POP PUSH2 0xE62 DUP2 DUP6 PUSH1 0x20 DUP7 ADD PUSH2 0xCB5 JUMP JUMPDEST PUSH2 0xE6B DUP2 PUSH2 0xCE8 JUMP JUMPDEST DUP5 ADD SWAP2 POP POP SWAP3 SWAP2 POP POP JUMP JUMPDEST PUSH1 0x0 PUSH2 0xE82 DUP4 DUP4 PUSH2 0xE3D JUMP JUMPDEST SWAP1 POP SWAP3 SWAP2 POP POP JUMP JUMPDEST PUSH1 0x0 PUSH1 0x20 DUP3 ADD SWAP1 POP SWAP2 SWAP1 POP JUMP JUMPDEST PUSH1 0x0 PUSH2 0xEA2 DUP3 PUSH2 0xE00 JUMP JUMPDEST PUSH2 0xEAC DUP2 DUP6 PUSH2 0xE0B JUMP JUMPDEST SWAP4 POP DUP4 PUSH1 0x20 DUP3 MUL DUP6 ADD PUSH2 0xEBE DUP6 PUSH2 0xE1C JUMP JUMPDEST DUP1 PUSH1 0x0 JUMPDEST DUP6 DUP2 LT ISZERO PUSH2 0xEFA JUMPI DUP5 DUP5 SUB DUP10 MSTORE DUP2 MLOAD PUSH2 0xEDB DUP6 DUP3 PUSH2 0xE76 JUMP JUMPDEST SWAP5 POP PUSH2 0xEE6 DUP4 PUSH2 0xE8A JUMP JUMPDEST SWAP3 POP PUSH1 0x20 DUP11 ADD SWAP10 POP POP PUSH1 0x1 DUP2 ADD SWAP1 POP PUSH2 0xEC2 JUMP JUMPDEST POP DUP3 SWAP8 POP DUP8 SWAP6 POP POP POP POP POP POP SWAP3 SWAP2 POP POP JUMP JUMPDEST PUSH1 0x0 DUP2 MLOAD SWAP1 POP SWAP2 SWAP1 POP JUMP JUMPDEST PUSH1 0x0 DUP3 DUP3 MSTORE PUSH1 0x20 DUP3 ADD SWAP1 POP SWAP3 SWAP2 POP POP JUMP JUMPDEST PUSH1 0x0 DUP2 SWAP1 POP PUSH1 0x20 DUP3 ADD SWAP1 POP SWAP2 SWAP1 POP JUMP JUMPDEST PUSH1 0x0 DUP3 DUP3 MSTORE PUSH1 0x20 DUP3 ADD SWAP1 POP SWAP3 SWAP2 POP POP JUMP JUMPDEST PUSH1 0x0 PUSH2 0xF54 DUP3 PUSH2 0xD32 JUMP JUMPDEST PUSH2 0xF5E DUP2 DUP6 PUSH2 0xF38 JUMP JUMPDEST SWAP4 POP PUSH2 0xF6E DUP2 DUP6 PUSH1 0x20 DUP7 ADD PUSH2 0xCB5 JUMP JUMPDEST PUSH2 0xF77 DUP2 PUSH2 0xCE8 JUMP JUMPDEST DUP5 ADD SWAP2 POP POP SWAP3 SWAP2 POP POP JUMP JUMPDEST PUSH1 0x0 PUSH2 0xF8E DUP4 DUP4 PUSH2 0xF49 JUMP JUMPDEST SWAP1 POP SWAP3 SWAP2 POP POP JUMP JUMPDEST PUSH1 0x0 PUSH1 0x20 DUP3 ADD SWAP1 POP SWAP2 SWAP1 POP JUMP JUMPDEST PUSH1 0x0 PUSH2 0xFAE DUP3 PUSH2 0xF0C JUMP JUMPDEST PUSH2 0xFB8 DUP2 DUP6 PUSH2 0xF17 JUMP JUMPDEST SWAP4 POP DUP4 PUSH1 0x20 DUP3 MUL DUP6 ADD PUSH2 0xFCA DUP6 PUSH2 0xF28 JUMP JUMPDEST DUP1 PUSH1 0x0 JUMPDEST DUP6 DUP2 LT ISZERO PUSH2 0x1006 JUMPI DUP5 DUP5 SUB DUP10 MSTORE DUP2 MLOAD PUSH2 0xFE7 DUP6 DUP3 PUSH2 0xF82 JUMP JUMPDEST SWAP5 POP PUSH2 0xFF2 DUP4 PUSH2 0xF96 JUMP JUMPDEST SWAP3 POP PUSH1 0x20 DUP11 ADD SWAP10 POP POP PUSH1 0x1 DUP2 ADD SWAP1 POP PUSH2 0xFCE JUMP JUMPDEST POP DUP3 SWAP8 POP DUP8 SWAP6 POP POP POP POP POP POP SWAP3 SWAP2 POP POP JUMP JUMPDEST PUSH1 0x0 PUSH1 0x60 DUP3 ADD SWAP1 POP DUP2 DUP2 SUB PUSH1 0x0 DUP4 ADD MSTORE PUSH2 0x1032 DUP2 DUP7 PUSH2 0xE97 JUMP JUMPDEST SWAP1 POP DUP2 DUP2 SUB PUSH1 0x20 DUP4 ADD MSTORE PUSH2 0x1046 DUP2 DUP6 PUSH2 0xE97 JUMP JUMPDEST SWAP1 POP DUP2 DUP2 SUB PUSH1 0x40 DUP4 ADD MSTORE PUSH2 0x105A DUP2 DUP5 PUSH2 0xFA3 JUMP JUMPDEST SWAP1 POP SWAP5 SWAP4 POP POP POP POP JUMP JUMPDEST PUSH1 0x0 PUSH2 0x106F DUP3 PUSH2 0xB8B JUMP JUMPDEST SWAP1 POP SWAP2 SWAP1 POP JUMP JUMPDEST PUSH2 0x107F DUP2 PUSH2 0x1064 JUMP JUMPDEST DUP3 MSTORE POP POP JUMP JUMPDEST PUSH1 0x0 PUSH1 0x20 DUP3 ADD SWAP1 POP PUSH2 0x109A PUSH1 0x0 DUP4 ADD DUP5 PUSH2 0x1076 JUMP JUMPDEST SWAP3 SWAP2 POP POP JUMP JUMPDEST PUSH1 0x0 DUP1 REVERT JUMPDEST PUSH1 0x0 DUP1 REVERT JUMPDEST PUSH32 0x4E487B7100000000000000000000000000000000000000000000000000000000 PUSH1 0x0 MSTORE PUSH1 0x41 PUSH1 0x4 MSTORE PUSH1 0x24 PUSH1 0x0 REVERT JUMPDEST PUSH2 0x10E2 DUP3 PUSH2 0xCE8 JUMP JUMPDEST DUP2 ADD DUP2 DUP2 LT PUSH8 0xFFFFFFFFFFFFFFFF DUP3 GT OR ISZERO PUSH2 0x1101 JUMPI PUSH2 0x1100 PUSH2 0x10AA JUMP JUMPDEST JUMPDEST DUP1 PUSH1 0x40 MSTORE POP POP POP JUMP JUMPDEST PUSH1 0x0 PUSH2 0x1114 PUSH2 0xBD9 JUMP JUMPDEST SWAP1 POP PUSH2 0x1120 DUP3 DUP3 PUSH2 0x10D9 JUMP JUMPDEST SWAP2 SWAP1 POP JUMP JUMPDEST PUSH1 0x0 PUSH8 0xFFFFFFFFFFFFFFFF DUP3 GT ISZERO PUSH2 0x1140 JUMPI PUSH2 0x113F PUSH2 0x10AA JUMP JUMPDEST JUMPDEST PUSH2 0x1149 DUP3 PUSH2 0xCE8 JUMP JUMPDEST SWAP1 POP PUSH1 0x20 DUP2 ADD SWAP1 POP SWAP2 SWAP1 POP JUMP JUMPDEST DUP3 DUP2 DUP4 CALLDATACOPY PUSH1 0x0 DUP4 DUP4 ADD MSTORE POP POP POP JUMP JUMPDEST PUSH1 0x0 PUSH2 0x1178 PUSH2 0x1173 DUP5 PUSH2 0x1125 JUMP JUMPDEST PUSH2 0x110A JUMP JUMPDEST SWAP1 POP DUP3 DUP2 MSTORE PUSH1 0x20 DUP2 ADD DUP5 DUP5 DUP5 ADD GT ISZERO PUSH2 0x1194 JUMPI PUSH2 0x1193 PUSH2 0x10A5 JUMP JUMPDEST JUMPDEST PUSH2 0x119F DUP5 DUP3 DUP6 PUSH2 0x1156 JUMP JUMPDEST POP SWAP4 SWAP3 POP POP POP JUMP JUMPDEST PUSH1 0x0 DUP3 PUSH1 0x1F DUP4 ADD SLT PUSH2 0x11BC JUMPI PUSH2 0x11BB PUSH2 0x10A0 JUMP JUMPDEST JUMPDEST DUP2 CALLDATALOAD PUSH2 0x11CC DUP5 DUP3 PUSH1 0x20 DUP7 ADD PUSH2 0x1165 JUMP JUMPDEST SWAP2 POP POP SWAP3 SWAP2 POP POP JUMP JUMPDEST PUSH1 0x0 PUSH8 0xFFFFFFFFFFFFFFFF DUP3 GT ISZERO PUSH2 0x11F0 JUMPI PUSH2 0x11EF PUSH2 0x10AA JUMP JUMPDEST JUMPDEST PUSH2 0x11F9 DUP3 PUSH2 0xCE8 JUMP JUMPDEST SWAP1 POP PUSH1 0x20 DUP2 ADD SWAP1 POP SWAP2 SWAP1 POP JUMP JUMPDEST PUSH1 0x0 PUSH2 0x1219 PUSH2 0x1214 DUP5 PUSH2 0x11D5 JUMP JUMPDEST PUSH2 0x110A JUMP JUMPDEST SWAP1 POP DUP3 DUP2 MSTORE PUSH1 0x20 DUP2 ADD DUP5 DUP5 DUP5 ADD GT ISZERO PUSH2 0x1235 JUMPI PUSH2 0x1234 PUSH2 0x10A5 JUMP JUMPDEST JUMPDEST PUSH2 0x1240 DUP5 DUP3 DUP6 PUSH2 0x1156 JUMP JUMPDEST POP SWAP4 SWAP3 POP POP POP JUMP JUMPDEST PUSH1 0x0 DUP3 PUSH1 0x1F DUP4 ADD SLT PUSH2 0x125D JUMPI PUSH2 0x125C PUSH2 0x10A0 JUMP JUMPDEST JUMPDEST DUP2 CALLDATALOAD PUSH2 0x126D DUP5 DUP3 PUSH1 0x20 DUP7 ADD PUSH2 0x1206 JUMP JUMPDEST SWAP2 POP POP SWAP3 SWAP2 POP POP JUMP JUMPDEST PUSH1 0x0 DUP1 PUSH1 0x0 DUP1 PUSH1 0x80 DUP6 DUP8 SUB SLT ISZERO PUSH2 0x1290 JUMPI PUSH2 0x128F PUSH2 0xBE3 JUMP JUMPDEST JUMPDEST PUSH1 0x0 PUSH2 0x129E DUP8 DUP3 DUP9 ADD PUSH2 0xC0E JUMP JUMPDEST SWAP5 POP POP PUSH1 0x20 DUP6 ADD CALLDATALOAD PUSH8 0xFFFFFFFFFFFFFFFF DUP2 GT ISZERO PUSH2 0x12BF JUMPI PUSH2 0x12BE PUSH2 0xBE8 JUMP JUMPDEST JUMPDEST PUSH2 0x12CB DUP8 DUP3 DUP9 ADD PUSH2 0x11A7 JUMP JUMPDEST SWAP4 POP POP PUSH1 0x40 DUP6 ADD CALLDATALOAD PUSH8 0xFFFFFFFFFFFFFFFF DUP2 GT ISZERO PUSH2 0x12EC JUMPI PUSH2 0x12EB PUSH2 0xBE8 JUMP JUMPDEST JUMPDEST PUSH2 0x12F8 DUP8 DUP3 DUP9 ADD PUSH2 0x11A7 JUMP JUMPDEST SWAP3 POP POP PUSH1 0x60 DUP6 ADD CALLDATALOAD PUSH8 0xFFFFFFFFFFFFFFFF DUP2 GT ISZERO PUSH2 0x1319 JUMPI PUSH2 0x1318 PUSH2 0xBE8 JUMP JUMPDEST JUMPDEST PUSH2 0x1325 DUP8 DUP3 DUP9 ADD PUSH2 0x1248 JUMP JUMPDEST SWAP2 POP POP SWAP3 SWAP6 SWAP2 SWAP5 POP SWAP3 POP JUMP JUMPDEST PUSH32 0x4E487B7100000000000000000000000000000000000000000000000000000000 PUSH1 0x0 MSTORE PUSH1 0x22 PUSH1 0x4 MSTORE PUSH1 0x24 PUSH1 0x0 REVERT JUMPDEST PUSH1 0x0 PUSH1 0x2 DUP3 DIV SWAP1 POP PUSH1 0x1 DUP3 AND DUP1 PUSH2 0x1378 JUMPI PUSH1 0x7F DUP3 AND SWAP2 POP JUMPDEST PUSH1 0x20 DUP3 LT DUP2 EQ ISZERO PUSH2 0x138C JUMPI PUSH2 0x138B PUSH2 0x1331 JUMP JUMPDEST JUMPDEST POP SWAP2 SWAP1 POP JUMP JUMPDEST PUSH2 0x139B DUP2 PUSH2 0xBED JUMP JUMPDEST DUP3 MSTORE POP POP JUMP JUMPDEST PUSH1 0x0 PUSH1 0x20 DUP3 ADD SWAP1 POP PUSH2 0x13B6 PUSH1 0x0 DUP4 ADD DUP5 PUSH2 0x1392 JUMP JUMPDEST SWAP3 SWAP2 POP POP JUMP JUMPDEST PUSH1 0x0 DUP2 ISZERO ISZERO SWAP1 POP SWAP2 SWAP1 POP JUMP JUMPDEST PUSH2 0x13D1 DUP2 PUSH2 0x13BC JUMP JUMPDEST DUP2 EQ PUSH2 0x13DC JUMPI PUSH1 0x0 DUP1 REVERT JUMPDEST POP JUMP JUMPDEST PUSH1 0x0 DUP2 MLOAD SWAP1 POP PUSH2 0x13EE DUP2 PUSH2 0x13C8 JUMP JUMPDEST SWAP3 SWAP2 POP POP JUMP JUMPDEST PUSH1 0x0 PUSH1 0x20 DUP3 DUP5 SUB SLT ISZERO PUSH2 0x140A JUMPI PUSH2 0x1409 PUSH2 0xBE3 JUMP JUMPDEST JUMPDEST PUSH1 0x0 PUSH2 0x1418 DUP5 DUP3 DUP6 ADD PUSH2 0x13DF JUMP JUMPDEST SWAP2 POP POP SWAP3 SWAP2 POP POP JUMP JUMPDEST PUSH32 0x55736572206E6F74207265676973746572656420746F2073797374656D210000 PUSH1 0x0 DUP3 ADD MSTORE POP JUMP JUMPDEST PUSH1 0x0 PUSH2 0x1457 PUSH1 0x1E DUP4 PUSH2 0xCA4 JUMP JUMPDEST SWAP2 POP PUSH2 0x1462 DUP3 PUSH2 0x1421 JUMP JUMPDEST PUSH1 0x20 DUP3 ADD SWAP1 POP SWAP2 SWAP1 POP JUMP JUMPDEST PUSH1 0x0 PUSH1 0x20 DUP3 ADD SWAP1 POP DUP2 DUP2 SUB PUSH1 0x0 DUP4 ADD MSTORE PUSH2 0x1486 DUP2 PUSH2 0x144A JUMP JUMPDEST SWAP1 POP SWAP2 SWAP1 POP JUMP JUMPDEST PUSH32 0x4E487B7100000000000000000000000000000000000000000000000000000000 PUSH1 0x0 MSTORE PUSH1 0x32 PUSH1 0x4 MSTORE PUSH1 0x24 PUSH1 0x0 REVERT JUMPDEST PUSH32 0x4E487B7100000000000000000000000000000000000000000000000000000000 PUSH1 0x0 MSTORE PUSH1 0x11 PUSH1 0x4 MSTORE PUSH1 0x24 PUSH1 0x0 REVERT JUMPDEST PUSH1 0x0 PUSH2 0x14F6 DUP3 PUSH2 0xC23 JUMP JUMPDEST SWAP2 POP PUSH32 0xFFFFFFFFFFFFFFFFFFFFFFFFFFFFFFFFFFFFFFFFFFFFFFFFFFFFFFFFFFFFFFFF DUP3 EQ ISZERO PUSH2 0x1529 JUMPI PUSH2 0x1528 PUSH2 0x14BC JUMP JUMPDEST JUMPDEST PUSH1 0x1 DUP3 ADD SWAP1 POP SWAP2 SWAP1 POP JUMP JUMPDEST PUSH32 0x50617469656E742F6E65772D6F776E6572206E6F742072656769737465726564 PUSH1 0x0 DUP3 ADD MSTORE PUSH32 0x20746F2073797374656D21000000000000000000000000000000000000000000 PUSH1 0x20 DUP3 ADD MSTORE POP JUMP JUMPDEST PUSH1 0x0 PUSH2 0x1590 PUSH1 0x2B DUP4 PUSH2 0xCA4 JUMP JUMPDEST SWAP2 POP PUSH2 0x159B DUP3 PUSH2 0x1534 JUMP JUMPDEST PUSH1 0x40 DUP3 ADD SWAP1 POP SWAP2 SWAP1 POP JUMP JUMPDEST PUSH1 0x0 PUSH1 0x20 DUP3 ADD SWAP1 POP DUP2 DUP2 SUB PUSH1 0x0 DUP4 ADD MSTORE PUSH2 0x15BF DUP2 PUSH2 0x1583 JUMP JUMPDEST SWAP1 POP SWAP2 SWAP1 POP JUMP JUMPDEST PUSH32 0x4E657720646174612061646465642E0000000000000000000000000000000000 PUSH1 0x0 DUP3 ADD MSTORE POP JUMP JUMPDEST PUSH1 0x0 PUSH2 0x15FC PUSH1 0xF DUP4 PUSH2 0xCA4 JUMP JUMPDEST SWAP2 POP PUSH2 0x1607 DUP3 PUSH2 0x15C6 JUMP JUMPDEST PUSH1 0x20 DUP3 ADD SWAP1 POP SWAP2 SWAP1 POP JUMP JUMPDEST PUSH1 0x0 PUSH1 0x40 DUP3 ADD SWAP1 POP PUSH2 0x1627 PUSH1 0x0 DUP4 ADD DUP5 PUSH2 0x1392 JUMP JUMPDEST DUP2 DUP2 SUB PUSH1 0x20 DUP4 ADD MSTORE PUSH2 0x1638 DUP2 PUSH2 0x15EF JUMP JUMPDEST SWAP1 POP SWAP3 SWAP2 POP POP JUMP INVALID LOG2 PUSH5 0x6970667358 0x22 SLT KECCAK256 0xF7 0x5D 0x27 PUSH22 0x5F4ABD081DB893D821BC40AE66B921A121C4AA1DE9 DUP11 SWAP4 KECCAK256 DUP4 PUSH5 0x1964736F6C PUSH4 0x4300080A STOP CALLER "
    },
    "gasEstimates": {
      "creation": {
        "codeDepositCost": "1150000",
        "executionCost": "infinite",
        "totalCost": "infinite"
      },
      "external": {
        "Data(bytes32,uint256)": "infinite",
        "addEHRdata(bytes32,string,string,bytes)": "infinite",
        "notificationManager()": "infinite",
        "registry()": "infinite",
        "searchData(bytes32)": "infinite"
      }
    },
    "methodIdentifiers": {
      "Data(bytes32,uint256)": "2cb73406",
      "addEHRdata(bytes32,string,string,bytes)": "ba0c93cb",
      "notificationManager()": "1d755579",
      "registry()": "7b103999",
      "searchData(bytes32)": "65375a04"
    }
  },
  "storageLayout": {
    "storage": [
      {
        "astId": 65,
        "contract": "metadata.sol:Metadata",
        "label": "registry",
        "offset": 0,
        "slot": "0",
        "type": "t_contract(Registry)575"
      },
      {
        "astId": 68,
        "contract": "metadata.sol:Metadata",
        "label": "notificationManager",
        "offset": 0,
        "slot": "1",
        "type": "t_contract(NotificationManager)58"
      },
      {
        "astId": 81,
        "contract": "metadata.sol:Metadata",
        "label": "Data",
        "offset": 0,
        "slot": "2",
        "type": "t_mapping(t_bytes32,t_array(t_struct(EHRData)75_storage)dyn_storage)"
      }
    ],
    "types": {
      "t_array(t_struct(EHRData)75_storage)dyn_storage": {
        "base": "t_struct(EHRData)75_storage",
        "encoding": "dynamic_array",
        "label": "struct Metadata.EHRData[]",
        "numberOfBytes": "32"
      },
      "t_bytes32": {
        "encoding": "inplace",
        "label": "bytes32",
        "numberOfBytes": "32"
      },
      "t_bytes_storage": {
        "encoding": "bytes",
        "label": "bytes",
        "numberOfBytes": "32"
      },
      "t_contract(NotificationManager)58": {
        "encoding": "inplace",
        "label": "contract NotificationManager",
        "numberOfBytes": "20"
      },
      "t_contract(Registry)575": {
        "encoding": "inplace",
        "label": "contract Registry",
        "numberOfBytes": "20"
      },
      "t_mapping(t_bytes32,t_array(t_struct(EHRData)75_storage)dyn_storage)": {
        "encoding": "mapping",
        "key": "t_bytes32",
        "label": "mapping(bytes32 => struct Metadata.EHRData[])",
        "numberOfBytes": "32",
        "value": "t_array(t_struct(EHRData)75_storage)dyn_storage"
      },
      "t_string_storage": {
        "encoding": "bytes",
        "label": "string",
        "numberOfBytes": "32"
      },
      "t_struct(EHRData)75_storage": {
        "encoding": "inplace",
        "label": "struct Metadata.EHRData",
        "members": [
          {
            "astId": 70,
            "contract": "metadata.sol:Metadata",
            "label": "dataType",
            "offset": 0,
            "slot": "0",
            "type": "t_string_storage"
          },
          {
            "astId": 72,
            "contract": "metadata.sol:Metadata",
            "label": "HI",
            "offset": 0,
            "slot": "1",
            "type": "t_string_storage"
          },
          {
            "astId": 74,
            "contract": "metadata.sol:Metadata",
            "label": "encKey",
            "offset": 0,
            "slot": "2",
            "type": "t_bytes_storage"
          }
        ],
        "numberOfBytes": "96"
      }
    }
  },
  "userdoc": {
    "kind": "user",
    "methods": {},
    "version": 1
  }
}