{
  "abi": [
    {
      "inputs": [
        {
          "internalType": "bytes32",
          "name": "userKey",
          "type": "bytes32"
        },
        {
          "internalType": "string",
          "name": "message",
          "type": "string"
        }
      ],
      "name": "addNotification",
      "outputs": [],
      "stateMutability": "nonpayable",
      "type": "function"
    },
    {
      "inputs": [
        {
          "internalType": "bytes32",
          "name": "userKey",
          "type": "bytes32"
        }
      ],
      "name": "getNotifications",
      "outputs": [
        {
          "internalType": "string[10]",
          "name": "",
          "type": "string[10]"
        }
      ],
      "stateMutability": "view",
      "type": "function"
    }
  ],
  "devdoc": {
    "kind": "dev",
    "methods": {},
    "version": 1
  },
  "evm": {
    "assembly": "    /* \"NotificationManager.sol\":60:676  contract NotificationManager {... */\n  mstore(0x40, 0x80)\n  callvalue\n  dup1\n  iszero\n  tag_1\n  jumpi\n  0x00\n  dup1\n  revert\ntag_1:\n  pop\n  dataSize(sub_0)\n  dup1\n  dataOffset(sub_0)\n  0x00\n  codecopy\n  0x00\n  return\nstop\n\nsub_0: assembly {\n        /* \"NotificationManager.sol\":60:676  contract NotificationManager {... */\n      mstore(0x40, 0x80)\n      callvalue\n      dup1\n      iszero\n      tag_1\n      jumpi\n      0x00\n      dup1\n      revert\n    tag_1:\n      pop\n      jumpi(tag_2, lt(calldatasize, 0x04))\n      shr(0xe0, calldataload(0x00))\n      dup1\n      0x838824f6\n      eq\n      tag_3\n      jumpi\n      dup1\n      0xa2cf0c56\n      eq\n      tag_4\n      jumpi\n    tag_2:\n      0x00\n      dup1\n      revert\n        /* \"NotificationManager.sol\":527:673  function getNotifications(bytes32 userKey) public view returns (string[MAX_NOTIFICATIONS] memory) {... */\n    tag_3:\n      tag_5\n      0x04\n      dup1\n      calldatasize\n      sub\n      dup2\n      add\n      swap1\n      tag_6\n      swap2\n      swap1\n      tag_7\n      jump\t// in\n    tag_6:\n      tag_8\n      jump\t// in\n    tag_5:\n      mload(0x40)\n      tag_9\n      swap2\n      swap1\n      tag_10\n      jump\t// in\n    tag_9:\n      mload(0x40)\n      dup1\n      swap2\n      sub\n      swap1\n      return\n        /* \"NotificationManager.sol\":277:519  function addNotification(bytes32 userKey, string memory message) public {... */\n    tag_4:\n      tag_11\n      0x04\n      dup1\n      calldatasize\n      sub\n      dup2\n      add\n      swap1\n      tag_12\n      swap2\n      swap1\n      tag_13\n      jump\t// in\n    tag_12:\n      tag_14\n      jump\t// in\n    tag_11:\n      stop\n        /* \"NotificationManager.sol\":527:673  function getNotifications(bytes32 userKey) public view returns (string[MAX_NOTIFICATIONS] memory) {... */\n    tag_8:\n        /* \"NotificationManager.sol\":591:623  string[MAX_NOTIFICATIONS] memory */\n      tag_15\n      tag_16\n      jump\t// in\n    tag_15:\n        /* \"NotificationManager.sol\":643:656  notifications */\n      0x00\n        /* \"NotificationManager.sol\":643:665  notifications[userKey] */\n      dup1\n        /* \"NotificationManager.sol\":657:664  userKey */\n      dup4\n        /* \"NotificationManager.sol\":643:665  notifications[userKey] */\n      dup2\n      mstore\n      0x20\n      add\n      swap1\n      dup2\n      mstore\n      0x20\n      add\n      0x00\n      keccak256\n        /* \"NotificationManager.sol\":636:665  return notifications[userKey] */\n      0x0a\n      dup1\n      0x20\n      mul\n      mload(0x40)\n      swap1\n      dup2\n      add\n      0x40\n      mstore\n      dup1\n      swap3\n      swap2\n      swap1\n      0x00\n      swap1\n    tag_18:\n      dup3\n      dup3\n      lt\n      iszero\n      tag_19\n      jumpi\n      dup4\n      dup3\n      add\n      dup1\n      sload\n      tag_21\n      swap1\n      tag_22\n      jump\t// in\n    tag_21:\n      dup1\n      0x1f\n      add\n      0x20\n      dup1\n      swap2\n      div\n      mul\n      0x20\n      add\n      mload(0x40)\n      swap1\n      dup2\n      add\n      0x40\n      mstore\n      dup1\n      swap3\n      swap2\n      swap1\n      dup2\n      dup2\n      mstore\n      0x20\n      add\n      dup3\n      dup1\n      sload\n      tag_23\n      swap1\n      tag_22\n      jump\t// in\n    tag_23:\n      dup1\n      iszero\n      tag_24\n      jumpi\n      dup1\n      0x1f\n      lt\n      tag_25\n      jumpi\n      0x0100\n      dup1\n      dup4\n      sload\n      div\n      mul\n      dup4\n      mstore\n      swap2\n      0x20\n      add\n      swap2\n      jump(tag_24)\n    tag_25:\n      dup3\n      add\n      swap2\n      swap1\n      0x00\n      mstore\n      keccak256(0x00, 0x20)\n      swap1\n    tag_26:\n      dup2\n      sload\n      dup2\n      mstore\n      swap1\n      0x01\n      add\n      swap1\n      0x20\n      add\n      dup1\n      dup4\n      gt\n      tag_26\n      jumpi\n      dup3\n      swap1\n      sub\n      0x1f\n      and\n      dup3\n      add\n      swap2\n    tag_24:\n      pop\n      pop\n      pop\n      pop\n      pop\n      dup2\n      mstore\n      0x20\n      add\n      swap1\n      0x01\n      add\n      swap1\n      jump(tag_18)\n    tag_19:\n      pop\n      pop\n      pop\n      pop\n      swap1\n      pop\n        /* \"NotificationManager.sol\":527:673  function getNotifications(bytes32 userKey) public view returns (string[MAX_NOTIFICATIONS] memory) {... */\n      swap2\n      swap1\n      pop\n      jump\t// out\n        /* \"NotificationManager.sol\":277:519  function addNotification(bytes32 userKey, string memory message) public {... */\n    tag_14:\n        /* \"NotificationManager.sol\":360:371  uint8 count */\n      0x00\n        /* \"NotificationManager.sol\":374:392  notificationCounts */\n      0x01\n        /* \"NotificationManager.sol\":374:401  notificationCounts[userKey] */\n      0x00\n        /* \"NotificationManager.sol\":393:400  userKey */\n      dup5\n        /* \"NotificationManager.sol\":374:401  notificationCounts[userKey] */\n      dup2\n      mstore\n      0x20\n      add\n      swap1\n      dup2\n      mstore\n      0x20\n      add\n      0x00\n      keccak256\n      0x00\n      swap1\n      sload\n      swap1\n      0x0100\n      exp\n      swap1\n      div\n      0xff\n      and\n        /* \"NotificationManager.sol\":360:401  uint8 count = notificationCounts[userKey] */\n      swap1\n      pop\n        /* \"NotificationManager.sol\":464:471  message */\n      dup2\n        /* \"NotificationManager.sol\":412:425  notifications */\n      0x00\n        /* \"NotificationManager.sol\":412:434  notifications[userKey] */\n      dup1\n        /* \"NotificationManager.sol\":426:433  userKey */\n      dup6\n        /* \"NotificationManager.sol\":412:434  notifications[userKey] */\n      dup2\n      mstore\n      0x20\n      add\n      swap1\n      dup2\n      mstore\n      0x20\n      add\n      0x00\n      keccak256\n        /* \"NotificationManager.sol\":131:133  10 */\n      0x0a\n        /* \"NotificationManager.sol\":435:440  count */\n      dup4\n        /* \"NotificationManager.sol\":435:460  count % MAX_NOTIFICATIONS */\n      tag_28\n      swap2\n      swap1\n      tag_29\n      jump\t// in\n    tag_28:\n        /* \"NotificationManager.sol\":412:461  notifications[userKey][count % MAX_NOTIFICATIONS] */\n      0xff\n      and\n      0x0a\n      dup2\n      lt\n      tag_30\n      jumpi\n      tag_31\n      tag_32\n      jump\t// in\n    tag_31:\n    tag_30:\n      add\n        /* \"NotificationManager.sol\":412:471  notifications[userKey][count % MAX_NOTIFICATIONS] = message */\n      swap1\n      dup1\n      mload\n      swap1\n      0x20\n      add\n      swap1\n      tag_34\n      swap3\n      swap2\n      swap1\n      tag_35\n      jump\t// in\n    tag_34:\n      pop\n        /* \"NotificationManager.sol\":482:500  notificationCounts */\n      0x01\n        /* \"NotificationManager.sol\":482:509  notificationCounts[userKey] */\n      0x00\n        /* \"NotificationManager.sol\":501:508  userKey */\n      dup5\n        /* \"NotificationManager.sol\":482:509  notificationCounts[userKey] */\n      dup2\n      mstore\n      0x20\n      add\n      swap1\n      dup2\n      mstore\n      0x20\n      add\n      0x00\n      keccak256\n      0x00\n        /* \"NotificationManager.sol\":482:511  notificationCounts[userKey]++ */\n      dup2\n      dup2\n      swap1\n      sload\n      swap1\n      0x0100\n      exp\n      swap1\n      div\n      0xff\n      and\n      dup1\n      swap3\n      swap2\n      swap1\n      tag_36\n      swap1\n      tag_37\n      jump\t// in\n    tag_36:\n      swap2\n      swap1\n      0x0100\n      exp\n      dup2\n      sload\n      dup2\n      0xff\n      mul\n      not\n      and\n      swap1\n      dup4\n      0xff\n      and\n      mul\n      or\n      swap1\n      sstore\n      pop\n      pop\n        /* \"NotificationManager.sol\":349:519  {... */\n      pop\n        /* \"NotificationManager.sol\":277:519  function addNotification(bytes32 userKey, string memory message) public {... */\n      pop\n      pop\n      jump\t// out\n    tag_16:\n      mload(0x40)\n      dup1\n      0x0140\n      add\n      0x40\n      mstore\n      dup1\n      0x0a\n      swap1\n    tag_38:\n      0x60\n      dup2\n      mstore\n      0x20\n      add\n      swap1\n      0x01\n      swap1\n      sub\n      swap1\n      dup2\n      tag_38\n      jumpi\n      swap1\n      pop\n      pop\n      swap1\n      jump\t// out\n    tag_35:\n      dup3\n      dup1\n      sload\n      tag_39\n      swap1\n      tag_22\n      jump\t// in\n    tag_39:\n      swap1\n      0x00\n      mstore\n      keccak256(0x00, 0x20)\n      swap1\n      0x1f\n      add\n      0x20\n      swap1\n      div\n      dup2\n      add\n      swap3\n      dup3\n      tag_41\n      jumpi\n      0x00\n      dup6\n      sstore\n      jump(tag_40)\n    tag_41:\n      dup3\n      0x1f\n      lt\n      tag_42\n      jumpi\n      dup1\n      mload\n      not(0xff)\n      and\n      dup4\n      dup1\n      add\n      or\n      dup6\n      sstore\n      jump(tag_40)\n    tag_42:\n      dup3\n      dup1\n      add\n      0x01\n      add\n      dup6\n      sstore\n      dup3\n      iszero\n      tag_40\n      jumpi\n      swap2\n      dup3\n      add\n    tag_43:\n      dup3\n      dup2\n      gt\n      iszero\n      tag_44\n      jumpi\n      dup3\n      mload\n      dup3\n      sstore\n      swap2\n      0x20\n      add\n      swap2\n      swap1\n      0x01\n      add\n      swap1\n      jump(tag_43)\n    tag_44:\n    tag_40:\n      pop\n      swap1\n      pop\n      tag_45\n      swap2\n      swap1\n      tag_46\n      jump\t// in\n    tag_45:\n      pop\n      swap1\n      jump\t// out\n    tag_46:\n    tag_47:\n      dup1\n      dup3\n      gt\n      iszero\n      tag_48\n      jumpi\n      0x00\n      dup2\n      0x00\n      swap1\n      sstore\n      pop\n      0x01\n      add\n      jump(tag_47)\n    tag_48:\n      pop\n      swap1\n      jump\t// out\n        /* \"#utility.yul\":7:82   */\n    tag_49:\n        /* \"#utility.yul\":40:46   */\n      0x00\n        /* \"#utility.yul\":73:75   */\n      0x40\n        /* \"#utility.yul\":67:76   */\n      mload\n        /* \"#utility.yul\":57:76   */\n      swap1\n      pop\n        /* \"#utility.yul\":7:82   */\n      swap1\n      jump\t// out\n        /* \"#utility.yul\":88:205   */\n    tag_50:\n        /* \"#utility.yul\":197:198   */\n      0x00\n        /* \"#utility.yul\":194:195   */\n      dup1\n        /* \"#utility.yul\":187:199   */\n      revert\n        /* \"#utility.yul\":211:328   */\n    tag_51:\n        /* \"#utility.yul\":320:321   */\n      0x00\n        /* \"#utility.yul\":317:318   */\n      dup1\n        /* \"#utility.yul\":310:322   */\n      revert\n        /* \"#utility.yul\":334:411   */\n    tag_52:\n        /* \"#utility.yul\":371:378   */\n      0x00\n        /* \"#utility.yul\":400:405   */\n      dup2\n        /* \"#utility.yul\":389:405   */\n      swap1\n      pop\n        /* \"#utility.yul\":334:411   */\n      swap2\n      swap1\n      pop\n      jump\t// out\n        /* \"#utility.yul\":417:539   */\n    tag_53:\n        /* \"#utility.yul\":490:514   */\n      tag_85\n        /* \"#utility.yul\":508:513   */\n      dup2\n        /* \"#utility.yul\":490:514   */\n      tag_52\n      jump\t// in\n    tag_85:\n        /* \"#utility.yul\":483:488   */\n      dup2\n        /* \"#utility.yul\":480:515   */\n      eq\n        /* \"#utility.yul\":470:533   */\n      tag_86\n      jumpi\n        /* \"#utility.yul\":529:530   */\n      0x00\n        /* \"#utility.yul\":526:527   */\n      dup1\n        /* \"#utility.yul\":519:531   */\n      revert\n        /* \"#utility.yul\":470:533   */\n    tag_86:\n        /* \"#utility.yul\":417:539   */\n      pop\n      jump\t// out\n        /* \"#utility.yul\":545:684   */\n    tag_54:\n        /* \"#utility.yul\":591:596   */\n      0x00\n        /* \"#utility.yul\":629:635   */\n      dup2\n        /* \"#utility.yul\":616:636   */\n      calldataload\n        /* \"#utility.yul\":607:636   */\n      swap1\n      pop\n        /* \"#utility.yul\":645:678   */\n      tag_88\n        /* \"#utility.yul\":672:677   */\n      dup2\n        /* \"#utility.yul\":645:678   */\n      tag_53\n      jump\t// in\n    tag_88:\n        /* \"#utility.yul\":545:684   */\n      swap3\n      swap2\n      pop\n      pop\n      jump\t// out\n        /* \"#utility.yul\":690:1019   */\n    tag_7:\n        /* \"#utility.yul\":749:755   */\n      0x00\n        /* \"#utility.yul\":798:800   */\n      0x20\n        /* \"#utility.yul\":786:795   */\n      dup3\n        /* \"#utility.yul\":777:784   */\n      dup5\n        /* \"#utility.yul\":773:796   */\n      sub\n        /* \"#utility.yul\":769:801   */\n      slt\n        /* \"#utility.yul\":766:885   */\n      iszero\n      tag_90\n      jumpi\n        /* \"#utility.yul\":804:883   */\n      tag_91\n      tag_50\n      jump\t// in\n    tag_91:\n        /* \"#utility.yul\":766:885   */\n    tag_90:\n        /* \"#utility.yul\":924:925   */\n      0x00\n        /* \"#utility.yul\":949:1002   */\n      tag_92\n        /* \"#utility.yul\":994:1001   */\n      dup5\n        /* \"#utility.yul\":985:991   */\n      dup3\n        /* \"#utility.yul\":974:983   */\n      dup6\n        /* \"#utility.yul\":970:992   */\n      add\n        /* \"#utility.yul\":949:1002   */\n      tag_54\n      jump\t// in\n    tag_92:\n        /* \"#utility.yul\":939:1002   */\n      swap2\n      pop\n        /* \"#utility.yul\":895:1012   */\n      pop\n        /* \"#utility.yul\":690:1019   */\n      swap3\n      swap2\n      pop\n      pop\n      jump\t// out\n        /* \"#utility.yul\":1025:1140   */\n    tag_55:\n        /* \"#utility.yul\":1101:1107   */\n      0x00\n        /* \"#utility.yul\":1129:1133   */\n      0x0a\n        /* \"#utility.yul\":1119:1133   */\n      swap1\n      pop\n        /* \"#utility.yul\":1025:1140   */\n      swap2\n      swap1\n      pop\n      jump\t// out\n        /* \"#utility.yul\":1146:1300   */\n    tag_56:\n        /* \"#utility.yul\":1254:1265   */\n      0x00\n        /* \"#utility.yul\":1291:1294   */\n      dup2\n        /* \"#utility.yul\":1276:1294   */\n      swap1\n      pop\n        /* \"#utility.yul\":1146:1300   */\n      swap3\n      swap2\n      pop\n      pop\n      jump\t// out\n        /* \"#utility.yul\":1306:1415   */\n    tag_57:\n        /* \"#utility.yul\":1382:1386   */\n      0x00\n        /* \"#utility.yul\":1405:1408   */\n      dup2\n        /* \"#utility.yul\":1397:1408   */\n      swap1\n      pop\n        /* \"#utility.yul\":1306:1415   */\n      swap2\n      swap1\n      pop\n      jump\t// out\n        /* \"#utility.yul\":1421:1520   */\n    tag_58:\n        /* \"#utility.yul\":1473:1479   */\n      0x00\n        /* \"#utility.yul\":1507:1512   */\n      dup2\n        /* \"#utility.yul\":1501:1513   */\n      mload\n        /* \"#utility.yul\":1491:1513   */\n      swap1\n      pop\n        /* \"#utility.yul\":1421:1520   */\n      swap2\n      swap1\n      pop\n      jump\t// out\n        /* \"#utility.yul\":1526:1685   */\n    tag_59:\n        /* \"#utility.yul\":1600:1611   */\n      0x00\n        /* \"#utility.yul\":1634:1640   */\n      dup3\n        /* \"#utility.yul\":1629:1632   */\n      dup3\n        /* \"#utility.yul\":1622:1641   */\n      mstore\n        /* \"#utility.yul\":1674:1678   */\n      0x20\n        /* \"#utility.yul\":1669:1672   */\n      dup3\n        /* \"#utility.yul\":1665:1679   */\n      add\n        /* \"#utility.yul\":1650:1679   */\n      swap1\n      pop\n        /* \"#utility.yul\":1526:1685   */\n      swap3\n      swap2\n      pop\n      pop\n      jump\t// out\n        /* \"#utility.yul\":1691:1998   */\n    tag_60:\n        /* \"#utility.yul\":1759:1760   */\n      0x00\n        /* \"#utility.yul\":1769:1882   */\n    tag_99:\n        /* \"#utility.yul\":1783:1789   */\n      dup4\n        /* \"#utility.yul\":1780:1781   */\n      dup2\n        /* \"#utility.yul\":1777:1790   */\n      lt\n        /* \"#utility.yul\":1769:1882   */\n      iszero\n      tag_101\n      jumpi\n        /* \"#utility.yul\":1868:1869   */\n      dup1\n        /* \"#utility.yul\":1863:1866   */\n      dup3\n        /* \"#utility.yul\":1859:1870   */\n      add\n        /* \"#utility.yul\":1853:1871   */\n      mload\n        /* \"#utility.yul\":1849:1850   */\n      dup2\n        /* \"#utility.yul\":1844:1847   */\n      dup5\n        /* \"#utility.yul\":1840:1851   */\n      add\n        /* \"#utility.yul\":1833:1872   */\n      mstore\n        /* \"#utility.yul\":1805:1807   */\n      0x20\n        /* \"#utility.yul\":1802:1803   */\n      dup2\n        /* \"#utility.yul\":1798:1808   */\n      add\n        /* \"#utility.yul\":1793:1808   */\n      swap1\n      pop\n        /* \"#utility.yul\":1769:1882   */\n      jump(tag_99)\n    tag_101:\n        /* \"#utility.yul\":1900:1906   */\n      dup4\n        /* \"#utility.yul\":1897:1898   */\n      dup2\n        /* \"#utility.yul\":1894:1907   */\n      gt\n        /* \"#utility.yul\":1891:1992   */\n      iszero\n      tag_102\n      jumpi\n        /* \"#utility.yul\":1980:1981   */\n      0x00\n        /* \"#utility.yul\":1971:1977   */\n      dup5\n        /* \"#utility.yul\":1966:1969   */\n      dup5\n        /* \"#utility.yul\":1962:1978   */\n      add\n        /* \"#utility.yul\":1955:1982   */\n      mstore\n        /* \"#utility.yul\":1891:1992   */\n    tag_102:\n        /* \"#utility.yul\":1740:1998   */\n      pop\n        /* \"#utility.yul\":1691:1998   */\n      pop\n      pop\n      pop\n      jump\t// out\n        /* \"#utility.yul\":2004:2106   */\n    tag_61:\n        /* \"#utility.yul\":2045:2051   */\n      0x00\n        /* \"#utility.yul\":2096:2098   */\n      0x1f\n        /* \"#utility.yul\":2092:2099   */\n      not\n        /* \"#utility.yul\":2087:2089   */\n      0x1f\n        /* \"#utility.yul\":2080:2085   */\n      dup4\n        /* \"#utility.yul\":2076:2090   */\n      add\n        /* \"#utility.yul\":2072:2100   */\n      and\n        /* \"#utility.yul\":2062:2100   */\n      swap1\n      pop\n        /* \"#utility.yul\":2004:2106   */\n      swap2\n      swap1\n      pop\n      jump\t// out\n        /* \"#utility.yul\":2112:2456   */\n    tag_62:\n        /* \"#utility.yul\":2190:2193   */\n      0x00\n        /* \"#utility.yul\":2218:2257   */\n      tag_105\n        /* \"#utility.yul\":2251:2256   */\n      dup3\n        /* \"#utility.yul\":2218:2257   */\n      tag_58\n      jump\t// in\n    tag_105:\n        /* \"#utility.yul\":2273:2334   */\n      tag_106\n        /* \"#utility.yul\":2327:2333   */\n      dup2\n        /* \"#utility.yul\":2322:2325   */\n      dup6\n        /* \"#utility.yul\":2273:2334   */\n      tag_59\n      jump\t// in\n    tag_106:\n        /* \"#utility.yul\":2266:2334   */\n      swap4\n      pop\n        /* \"#utility.yul\":2343:2395   */\n      tag_107\n        /* \"#utility.yul\":2388:2394   */\n      dup2\n        /* \"#utility.yul\":2383:2386   */\n      dup6\n        /* \"#utility.yul\":2376:2380   */\n      0x20\n        /* \"#utility.yul\":2369:2374   */\n      dup7\n        /* \"#utility.yul\":2365:2381   */\n      add\n        /* \"#utility.yul\":2343:2395   */\n      tag_60\n      jump\t// in\n    tag_107:\n        /* \"#utility.yul\":2420:2449   */\n      tag_108\n        /* \"#utility.yul\":2442:2448   */\n      dup2\n        /* \"#utility.yul\":2420:2449   */\n      tag_61\n      jump\t// in\n    tag_108:\n        /* \"#utility.yul\":2415:2418   */\n      dup5\n        /* \"#utility.yul\":2411:2450   */\n      add\n        /* \"#utility.yul\":2404:2450   */\n      swap2\n      pop\n        /* \"#utility.yul\":2194:2456   */\n      pop\n        /* \"#utility.yul\":2112:2456   */\n      swap3\n      swap2\n      pop\n      pop\n      jump\t// out\n        /* \"#utility.yul\":2462:2658   */\n    tag_63:\n        /* \"#utility.yul\":2551:2561   */\n      0x00\n        /* \"#utility.yul\":2586:2652   */\n      tag_110\n        /* \"#utility.yul\":2648:2651   */\n      dup4\n        /* \"#utility.yul\":2640:2646   */\n      dup4\n        /* \"#utility.yul\":2586:2652   */\n      tag_62\n      jump\t// in\n    tag_110:\n        /* \"#utility.yul\":2572:2652   */\n      swap1\n      pop\n        /* \"#utility.yul\":2462:2658   */\n      swap3\n      swap2\n      pop\n      pop\n      jump\t// out\n        /* \"#utility.yul\":2664:2786   */\n    tag_64:\n        /* \"#utility.yul\":2743:2747   */\n      0x00\n        /* \"#utility.yul\":2775:2779   */\n      0x20\n        /* \"#utility.yul\":2770:2773   */\n      dup3\n        /* \"#utility.yul\":2766:2780   */\n      add\n        /* \"#utility.yul\":2758:2780   */\n      swap1\n      pop\n        /* \"#utility.yul\":2664:2786   */\n      swap2\n      swap1\n      pop\n      jump\t// out\n        /* \"#utility.yul\":2824:3809   */\n    tag_65:\n        /* \"#utility.yul\":2961:2964   */\n      0x00\n        /* \"#utility.yul\":2990:3053   */\n      tag_113\n        /* \"#utility.yul\":3047:3052   */\n      dup3\n        /* \"#utility.yul\":2990:3053   */\n      tag_55\n      jump\t// in\n    tag_113:\n        /* \"#utility.yul\":3069:3164   */\n      tag_114\n        /* \"#utility.yul\":3157:3163   */\n      dup2\n        /* \"#utility.yul\":3152:3155   */\n      dup6\n        /* \"#utility.yul\":3069:3164   */\n      tag_56\n      jump\t// in\n    tag_114:\n        /* \"#utility.yul\":3062:3164   */\n      swap4\n      pop\n        /* \"#utility.yul\":3190:3193   */\n      dup4\n        /* \"#utility.yul\":3235:3239   */\n      0x20\n        /* \"#utility.yul\":3227:3233   */\n      dup3\n        /* \"#utility.yul\":3223:3240   */\n      mul\n        /* \"#utility.yul\":3218:3221   */\n      dup6\n        /* \"#utility.yul\":3214:3241   */\n      add\n        /* \"#utility.yul\":3265:3330   */\n      tag_115\n        /* \"#utility.yul\":3324:3329   */\n      dup6\n        /* \"#utility.yul\":3265:3330   */\n      tag_57\n      jump\t// in\n    tag_115:\n        /* \"#utility.yul\":3353:3360   */\n      dup1\n        /* \"#utility.yul\":3384:3385   */\n      0x00\n        /* \"#utility.yul\":3369:3764   */\n    tag_116:\n        /* \"#utility.yul\":3394:3400   */\n      dup6\n        /* \"#utility.yul\":3391:3392   */\n      dup2\n        /* \"#utility.yul\":3388:3401   */\n      lt\n        /* \"#utility.yul\":3369:3764   */\n      iszero\n      tag_118\n      jumpi\n        /* \"#utility.yul\":3465:3474   */\n      dup5\n        /* \"#utility.yul\":3459:3463   */\n      dup5\n        /* \"#utility.yul\":3455:3475   */\n      sub\n        /* \"#utility.yul\":3450:3453   */\n      dup10\n        /* \"#utility.yul\":3443:3476   */\n      mstore\n        /* \"#utility.yul\":3516:3522   */\n      dup2\n        /* \"#utility.yul\":3510:3523   */\n      mload\n        /* \"#utility.yul\":3544:3628   */\n      tag_119\n        /* \"#utility.yul\":3623:3627   */\n      dup6\n        /* \"#utility.yul\":3608:3621   */\n      dup3\n        /* \"#utility.yul\":3544:3628   */\n      tag_63\n      jump\t// in\n    tag_119:\n        /* \"#utility.yul\":3536:3628   */\n      swap5\n      pop\n        /* \"#utility.yul\":3651:3720   */\n      tag_120\n        /* \"#utility.yul\":3713:3719   */\n      dup4\n        /* \"#utility.yul\":3651:3720   */\n      tag_64\n      jump\t// in\n    tag_120:\n        /* \"#utility.yul\":3641:3720   */\n      swap3\n      pop\n        /* \"#utility.yul\":3749:3753   */\n      0x20\n        /* \"#utility.yul\":3744:3747   */\n      dup11\n        /* \"#utility.yul\":3740:3754   */\n      add\n        /* \"#utility.yul\":3733:3754   */\n      swap10\n      pop\n        /* \"#utility.yul\":3429:3764   */\n      pop\n        /* \"#utility.yul\":3416:3417   */\n      0x01\n        /* \"#utility.yul\":3413:3414   */\n      dup2\n        /* \"#utility.yul\":3409:3418   */\n      add\n        /* \"#utility.yul\":3404:3418   */\n      swap1\n      pop\n        /* \"#utility.yul\":3369:3764   */\n      jump(tag_116)\n    tag_118:\n        /* \"#utility.yul\":3373:3387   */\n      pop\n        /* \"#utility.yul\":3780:3784   */\n      dup3\n        /* \"#utility.yul\":3773:3784   */\n      swap8\n      pop\n        /* \"#utility.yul\":3800:3803   */\n      dup8\n        /* \"#utility.yul\":3793:3803   */\n      swap6\n      pop\n        /* \"#utility.yul\":2966:3809   */\n      pop\n      pop\n      pop\n      pop\n      pop\n        /* \"#utility.yul\":2824:3809   */\n      swap3\n      swap2\n      pop\n      pop\n      jump\t// out\n        /* \"#utility.yul\":3815:4224   */\n    tag_10:\n        /* \"#utility.yul\":3976:3980   */\n      0x00\n        /* \"#utility.yul\":4014:4016   */\n      0x20\n        /* \"#utility.yul\":4003:4012   */\n      dup3\n        /* \"#utility.yul\":3999:4017   */\n      add\n        /* \"#utility.yul\":3991:4017   */\n      swap1\n      pop\n        /* \"#utility.yul\":4063:4072   */\n      dup2\n        /* \"#utility.yul\":4057:4061   */\n      dup2\n        /* \"#utility.yul\":4053:4073   */\n      sub\n        /* \"#utility.yul\":4049:4050   */\n      0x00\n        /* \"#utility.yul\":4038:4047   */\n      dup4\n        /* \"#utility.yul\":4034:4051   */\n      add\n        /* \"#utility.yul\":4027:4074   */\n      mstore\n        /* \"#utility.yul\":4091:4217   */\n      tag_122\n        /* \"#utility.yul\":4212:4216   */\n      dup2\n        /* \"#utility.yul\":4203:4209   */\n      dup5\n        /* \"#utility.yul\":4091:4217   */\n      tag_65\n      jump\t// in\n    tag_122:\n        /* \"#utility.yul\":4083:4217   */\n      swap1\n      pop\n        /* \"#utility.yul\":3815:4224   */\n      swap3\n      swap2\n      pop\n      pop\n      jump\t// out\n        /* \"#utility.yul\":4230:4347   */\n    tag_66:\n        /* \"#utility.yul\":4339:4340   */\n      0x00\n        /* \"#utility.yul\":4336:4337   */\n      dup1\n        /* \"#utility.yul\":4329:4341   */\n      revert\n        /* \"#utility.yul\":4353:4470   */\n    tag_67:\n        /* \"#utility.yul\":4462:4463   */\n      0x00\n        /* \"#utility.yul\":4459:4460   */\n      dup1\n        /* \"#utility.yul\":4452:4464   */\n      revert\n        /* \"#utility.yul\":4476:4656   */\n    tag_68:\n        /* \"#utility.yul\":4524:4601   */\n      0x4e487b7100000000000000000000000000000000000000000000000000000000\n        /* \"#utility.yul\":4521:4522   */\n      0x00\n        /* \"#utility.yul\":4514:4602   */\n      mstore\n        /* \"#utility.yul\":4621:4625   */\n      0x41\n        /* \"#utility.yul\":4618:4619   */\n      0x04\n        /* \"#utility.yul\":4611:4626   */\n      mstore\n        /* \"#utility.yul\":4645:4649   */\n      0x24\n        /* \"#utility.yul\":4642:4643   */\n      0x00\n        /* \"#utility.yul\":4635:4650   */\n      revert\n        /* \"#utility.yul\":4662:4943   */\n    tag_69:\n        /* \"#utility.yul\":4745:4772   */\n      tag_127\n        /* \"#utility.yul\":4767:4771   */\n      dup3\n        /* \"#utility.yul\":4745:4772   */\n      tag_61\n      jump\t// in\n    tag_127:\n        /* \"#utility.yul\":4737:4743   */\n      dup2\n        /* \"#utility.yul\":4733:4773   */\n      add\n        /* \"#utility.yul\":4875:4881   */\n      dup2\n        /* \"#utility.yul\":4863:4873   */\n      dup2\n        /* \"#utility.yul\":4860:4882   */\n      lt\n        /* \"#utility.yul\":4839:4857   */\n      0xffffffffffffffff\n        /* \"#utility.yul\":4827:4837   */\n      dup3\n        /* \"#utility.yul\":4824:4858   */\n      gt\n        /* \"#utility.yul\":4821:4883   */\n      or\n        /* \"#utility.yul\":4818:4906   */\n      iszero\n      tag_128\n      jumpi\n        /* \"#utility.yul\":4886:4904   */\n      tag_129\n      tag_68\n      jump\t// in\n    tag_129:\n        /* \"#utility.yul\":4818:4906   */\n    tag_128:\n        /* \"#utility.yul\":4926:4936   */\n      dup1\n        /* \"#utility.yul\":4922:4924   */\n      0x40\n        /* \"#utility.yul\":4915:4937   */\n      mstore\n        /* \"#utility.yul\":4705:4943   */\n      pop\n        /* \"#utility.yul\":4662:4943   */\n      pop\n      pop\n      jump\t// out\n        /* \"#utility.yul\":4949:5078   */\n    tag_70:\n        /* \"#utility.yul\":4983:4989   */\n      0x00\n        /* \"#utility.yul\":5010:5030   */\n      tag_131\n      tag_49\n      jump\t// in\n    tag_131:\n        /* \"#utility.yul\":5000:5030   */\n      swap1\n      pop\n        /* \"#utility.yul\":5039:5072   */\n      tag_132\n        /* \"#utility.yul\":5067:5071   */\n      dup3\n        /* \"#utility.yul\":5059:5065   */\n      dup3\n        /* \"#utility.yul\":5039:5072   */\n      tag_69\n      jump\t// in\n    tag_132:\n        /* \"#utility.yul\":4949:5078   */\n      swap2\n      swap1\n      pop\n      jump\t// out\n        /* \"#utility.yul\":5084:5392   */\n    tag_71:\n        /* \"#utility.yul\":5146:5150   */\n      0x00\n        /* \"#utility.yul\":5236:5254   */\n      0xffffffffffffffff\n        /* \"#utility.yul\":5228:5234   */\n      dup3\n        /* \"#utility.yul\":5225:5255   */\n      gt\n        /* \"#utility.yul\":5222:5278   */\n      iszero\n      tag_134\n      jumpi\n        /* \"#utility.yul\":5258:5276   */\n      tag_135\n      tag_68\n      jump\t// in\n    tag_135:\n        /* \"#utility.yul\":5222:5278   */\n    tag_134:\n        /* \"#utility.yul\":5296:5325   */\n      tag_136\n        /* \"#utility.yul\":5318:5324   */\n      dup3\n        /* \"#utility.yul\":5296:5325   */\n      tag_61\n      jump\t// in\n    tag_136:\n        /* \"#utility.yul\":5288:5325   */\n      swap1\n      pop\n        /* \"#utility.yul\":5380:5384   */\n      0x20\n        /* \"#utility.yul\":5374:5378   */\n      dup2\n        /* \"#utility.yul\":5370:5385   */\n      add\n        /* \"#utility.yul\":5362:5385   */\n      swap1\n      pop\n        /* \"#utility.yul\":5084:5392   */\n      swap2\n      swap1\n      pop\n      jump\t// out\n        /* \"#utility.yul\":5398:5552   */\n    tag_72:\n        /* \"#utility.yul\":5482:5488   */\n      dup3\n        /* \"#utility.yul\":5477:5480   */\n      dup2\n        /* \"#utility.yul\":5472:5475   */\n      dup4\n        /* \"#utility.yul\":5459:5489   */\n      calldatacopy\n        /* \"#utility.yul\":5544:5545   */\n      0x00\n        /* \"#utility.yul\":5535:5541   */\n      dup4\n        /* \"#utility.yul\":5530:5533   */\n      dup4\n        /* \"#utility.yul\":5526:5542   */\n      add\n        /* \"#utility.yul\":5519:5546   */\n      mstore\n        /* \"#utility.yul\":5398:5552   */\n      pop\n      pop\n      pop\n      jump\t// out\n        /* \"#utility.yul\":5558:5970   */\n    tag_73:\n        /* \"#utility.yul\":5636:5641   */\n      0x00\n        /* \"#utility.yul\":5661:5727   */\n      tag_139\n        /* \"#utility.yul\":5677:5726   */\n      tag_140\n        /* \"#utility.yul\":5719:5725   */\n      dup5\n        /* \"#utility.yul\":5677:5726   */\n      tag_71\n      jump\t// in\n    tag_140:\n        /* \"#utility.yul\":5661:5727   */\n      tag_70\n      jump\t// in\n    tag_139:\n        /* \"#utility.yul\":5652:5727   */\n      swap1\n      pop\n        /* \"#utility.yul\":5750:5756   */\n      dup3\n        /* \"#utility.yul\":5743:5748   */\n      dup2\n        /* \"#utility.yul\":5736:5757   */\n      mstore\n        /* \"#utility.yul\":5788:5792   */\n      0x20\n        /* \"#utility.yul\":5781:5786   */\n      dup2\n        /* \"#utility.yul\":5777:5793   */\n      add\n        /* \"#utility.yul\":5826:5829   */\n      dup5\n        /* \"#utility.yul\":5817:5823   */\n      dup5\n        /* \"#utility.yul\":5812:5815   */\n      dup5\n        /* \"#utility.yul\":5808:5824   */\n      add\n        /* \"#utility.yul\":5805:5830   */\n      gt\n        /* \"#utility.yul\":5802:5914   */\n      iszero\n      tag_141\n      jumpi\n        /* \"#utility.yul\":5833:5912   */\n      tag_142\n      tag_67\n      jump\t// in\n    tag_142:\n        /* \"#utility.yul\":5802:5914   */\n    tag_141:\n        /* \"#utility.yul\":5923:5964   */\n      tag_143\n        /* \"#utility.yul\":5957:5963   */\n      dup5\n        /* \"#utility.yul\":5952:5955   */\n      dup3\n        /* \"#utility.yul\":5947:5950   */\n      dup6\n        /* \"#utility.yul\":5923:5964   */\n      tag_72\n      jump\t// in\n    tag_143:\n        /* \"#utility.yul\":5642:5970   */\n      pop\n        /* \"#utility.yul\":5558:5970   */\n      swap4\n      swap3\n      pop\n      pop\n      pop\n      jump\t// out\n        /* \"#utility.yul\":5990:6330   */\n    tag_74:\n        /* \"#utility.yul\":6046:6051   */\n      0x00\n        /* \"#utility.yul\":6095:6098   */\n      dup3\n        /* \"#utility.yul\":6088:6092   */\n      0x1f\n        /* \"#utility.yul\":6080:6086   */\n      dup4\n        /* \"#utility.yul\":6076:6093   */\n      add\n        /* \"#utility.yul\":6072:6099   */\n      slt\n        /* \"#utility.yul\":6062:6184   */\n      tag_145\n      jumpi\n        /* \"#utility.yul\":6103:6182   */\n      tag_146\n      tag_66\n      jump\t// in\n    tag_146:\n        /* \"#utility.yul\":6062:6184   */\n    tag_145:\n        /* \"#utility.yul\":6220:6226   */\n      dup2\n        /* \"#utility.yul\":6207:6227   */\n      calldataload\n        /* \"#utility.yul\":6245:6324   */\n      tag_147\n        /* \"#utility.yul\":6320:6323   */\n      dup5\n        /* \"#utility.yul\":6312:6318   */\n      dup3\n        /* \"#utility.yul\":6305:6309   */\n      0x20\n        /* \"#utility.yul\":6297:6303   */\n      dup7\n        /* \"#utility.yul\":6293:6310   */\n      add\n        /* \"#utility.yul\":6245:6324   */\n      tag_73\n      jump\t// in\n    tag_147:\n        /* \"#utility.yul\":6236:6324   */\n      swap2\n      pop\n        /* \"#utility.yul\":6052:6330   */\n      pop\n        /* \"#utility.yul\":5990:6330   */\n      swap3\n      swap2\n      pop\n      pop\n      jump\t// out\n        /* \"#utility.yul\":6336:6990   */\n    tag_13:\n        /* \"#utility.yul\":6414:6420   */\n      0x00\n        /* \"#utility.yul\":6422:6428   */\n      dup1\n        /* \"#utility.yul\":6471:6473   */\n      0x40\n        /* \"#utility.yul\":6459:6468   */\n      dup4\n        /* \"#utility.yul\":6450:6457   */\n      dup6\n        /* \"#utility.yul\":6446:6469   */\n      sub\n        /* \"#utility.yul\":6442:6474   */\n      slt\n        /* \"#utility.yul\":6439:6558   */\n      iszero\n      tag_149\n      jumpi\n        /* \"#utility.yul\":6477:6556   */\n      tag_150\n      tag_50\n      jump\t// in\n    tag_150:\n        /* \"#utility.yul\":6439:6558   */\n    tag_149:\n        /* \"#utility.yul\":6597:6598   */\n      0x00\n        /* \"#utility.yul\":6622:6675   */\n      tag_151\n        /* \"#utility.yul\":6667:6674   */\n      dup6\n        /* \"#utility.yul\":6658:6664   */\n      dup3\n        /* \"#utility.yul\":6647:6656   */\n      dup7\n        /* \"#utility.yul\":6643:6665   */\n      add\n        /* \"#utility.yul\":6622:6675   */\n      tag_54\n      jump\t// in\n    tag_151:\n        /* \"#utility.yul\":6612:6675   */\n      swap3\n      pop\n        /* \"#utility.yul\":6568:6685   */\n      pop\n        /* \"#utility.yul\":6752:6754   */\n      0x20\n        /* \"#utility.yul\":6741:6750   */\n      dup4\n        /* \"#utility.yul\":6737:6755   */\n      add\n        /* \"#utility.yul\":6724:6756   */\n      calldataload\n        /* \"#utility.yul\":6783:6801   */\n      0xffffffffffffffff\n        /* \"#utility.yul\":6775:6781   */\n      dup2\n        /* \"#utility.yul\":6772:6802   */\n      gt\n        /* \"#utility.yul\":6769:6886   */\n      iszero\n      tag_152\n      jumpi\n        /* \"#utility.yul\":6805:6884   */\n      tag_153\n      tag_51\n      jump\t// in\n    tag_153:\n        /* \"#utility.yul\":6769:6886   */\n    tag_152:\n        /* \"#utility.yul\":6910:6973   */\n      tag_154\n        /* \"#utility.yul\":6965:6972   */\n      dup6\n        /* \"#utility.yul\":6956:6962   */\n      dup3\n        /* \"#utility.yul\":6945:6954   */\n      dup7\n        /* \"#utility.yul\":6941:6963   */\n      add\n        /* \"#utility.yul\":6910:6973   */\n      tag_74\n      jump\t// in\n    tag_154:\n        /* \"#utility.yul\":6900:6973   */\n      swap2\n      pop\n        /* \"#utility.yul\":6695:6983   */\n      pop\n        /* \"#utility.yul\":6336:6990   */\n      swap3\n      pop\n      swap3\n      swap1\n      pop\n      jump\t// out\n        /* \"#utility.yul\":6996:7176   */\n    tag_75:\n        /* \"#utility.yul\":7044:7121   */\n      0x4e487b7100000000000000000000000000000000000000000000000000000000\n        /* \"#utility.yul\":7041:7042   */\n      0x00\n        /* \"#utility.yul\":7034:7122   */\n      mstore\n        /* \"#utility.yul\":7141:7145   */\n      0x22\n        /* \"#utility.yul\":7138:7139   */\n      0x04\n        /* \"#utility.yul\":7131:7146   */\n      mstore\n        /* \"#utility.yul\":7165:7169   */\n      0x24\n        /* \"#utility.yul\":7162:7163   */\n      0x00\n        /* \"#utility.yul\":7155:7170   */\n      revert\n        /* \"#utility.yul\":7182:7502   */\n    tag_22:\n        /* \"#utility.yul\":7226:7232   */\n      0x00\n        /* \"#utility.yul\":7263:7264   */\n      0x02\n        /* \"#utility.yul\":7257:7261   */\n      dup3\n        /* \"#utility.yul\":7253:7265   */\n      div\n        /* \"#utility.yul\":7243:7265   */\n      swap1\n      pop\n        /* \"#utility.yul\":7310:7311   */\n      0x01\n        /* \"#utility.yul\":7304:7308   */\n      dup3\n        /* \"#utility.yul\":7300:7312   */\n      and\n        /* \"#utility.yul\":7331:7349   */\n      dup1\n        /* \"#utility.yul\":7321:7402   */\n      tag_157\n      jumpi\n        /* \"#utility.yul\":7387:7391   */\n      0x7f\n        /* \"#utility.yul\":7379:7385   */\n      dup3\n        /* \"#utility.yul\":7375:7392   */\n      and\n        /* \"#utility.yul\":7365:7392   */\n      swap2\n      pop\n        /* \"#utility.yul\":7321:7402   */\n    tag_157:\n        /* \"#utility.yul\":7449:7451   */\n      0x20\n        /* \"#utility.yul\":7441:7447   */\n      dup3\n        /* \"#utility.yul\":7438:7452   */\n      lt\n        /* \"#utility.yul\":7418:7436   */\n      dup2\n        /* \"#utility.yul\":7415:7453   */\n      eq\n        /* \"#utility.yul\":7412:7496   */\n      iszero\n      tag_158\n      jumpi\n        /* \"#utility.yul\":7468:7486   */\n      tag_159\n      tag_75\n      jump\t// in\n    tag_159:\n        /* \"#utility.yul\":7412:7496   */\n    tag_158:\n        /* \"#utility.yul\":7233:7502   */\n      pop\n        /* \"#utility.yul\":7182:7502   */\n      swap2\n      swap1\n      pop\n      jump\t// out\n        /* \"#utility.yul\":7508:7594   */\n    tag_76:\n        /* \"#utility.yul\":7543:7550   */\n      0x00\n        /* \"#utility.yul\":7583:7587   */\n      0xff\n        /* \"#utility.yul\":7576:7581   */\n      dup3\n        /* \"#utility.yul\":7572:7588   */\n      and\n        /* \"#utility.yul\":7561:7588   */\n      swap1\n      pop\n        /* \"#utility.yul\":7508:7594   */\n      swap2\n      swap1\n      pop\n      jump\t// out\n        /* \"#utility.yul\":7600:7780   */\n    tag_77:\n        /* \"#utility.yul\":7648:7725   */\n      0x4e487b7100000000000000000000000000000000000000000000000000000000\n        /* \"#utility.yul\":7645:7646   */\n      0x00\n        /* \"#utility.yul\":7638:7726   */\n      mstore\n        /* \"#utility.yul\":7745:7749   */\n      0x12\n        /* \"#utility.yul\":7742:7743   */\n      0x04\n        /* \"#utility.yul\":7735:7750   */\n      mstore\n        /* \"#utility.yul\":7769:7773   */\n      0x24\n        /* \"#utility.yul\":7766:7767   */\n      0x00\n        /* \"#utility.yul\":7759:7774   */\n      revert\n        /* \"#utility.yul\":7786:7956   */\n    tag_29:\n        /* \"#utility.yul\":7816:7817   */\n      0x00\n        /* \"#utility.yul\":7833:7851   */\n      tag_163\n        /* \"#utility.yul\":7849:7850   */\n      dup3\n        /* \"#utility.yul\":7833:7851   */\n      tag_76\n      jump\t// in\n    tag_163:\n        /* \"#utility.yul\":7828:7851   */\n      swap2\n      pop\n        /* \"#utility.yul\":7865:7883   */\n      tag_164\n        /* \"#utility.yul\":7881:7882   */\n      dup4\n        /* \"#utility.yul\":7865:7883   */\n      tag_76\n      jump\t// in\n    tag_164:\n        /* \"#utility.yul\":7860:7883   */\n      swap3\n      pop\n        /* \"#utility.yul\":7902:7903   */\n      dup3\n        /* \"#utility.yul\":7892:7927   */\n      tag_165\n      jumpi\n        /* \"#utility.yul\":7907:7925   */\n      tag_166\n      tag_77\n      jump\t// in\n    tag_166:\n        /* \"#utility.yul\":7892:7927   */\n    tag_165:\n        /* \"#utility.yul\":7948:7949   */\n      dup3\n        /* \"#utility.yul\":7945:7946   */\n      dup3\n        /* \"#utility.yul\":7941:7950   */\n      mod\n        /* \"#utility.yul\":7936:7950   */\n      swap1\n      pop\n        /* \"#utility.yul\":7786:7956   */\n      swap3\n      swap2\n      pop\n      pop\n      jump\t// out\n        /* \"#utility.yul\":7962:8142   */\n    tag_32:\n        /* \"#utility.yul\":8010:8087   */\n      0x4e487b7100000000000000000000000000000000000000000000000000000000\n        /* \"#utility.yul\":8007:8008   */\n      0x00\n        /* \"#utility.yul\":8000:8088   */\n      mstore\n        /* \"#utility.yul\":8107:8111   */\n      0x32\n        /* \"#utility.yul\":8104:8105   */\n      0x04\n        /* \"#utility.yul\":8097:8112   */\n      mstore\n        /* \"#utility.yul\":8131:8135   */\n      0x24\n        /* \"#utility.yul\":8128:8129   */\n      0x00\n        /* \"#utility.yul\":8121:8136   */\n      revert\n        /* \"#utility.yul\":8148:8328   */\n    tag_78:\n        /* \"#utility.yul\":8196:8273   */\n      0x4e487b7100000000000000000000000000000000000000000000000000000000\n        /* \"#utility.yul\":8193:8194   */\n      0x00\n        /* \"#utility.yul\":8186:8274   */\n      mstore\n        /* \"#utility.yul\":8293:8297   */\n      0x11\n        /* \"#utility.yul\":8290:8291   */\n      0x04\n        /* \"#utility.yul\":8283:8298   */\n      mstore\n        /* \"#utility.yul\":8317:8321   */\n      0x24\n        /* \"#utility.yul\":8314:8315   */\n      0x00\n        /* \"#utility.yul\":8307:8322   */\n      revert\n        /* \"#utility.yul\":8334:8501   */\n    tag_37:\n        /* \"#utility.yul\":8371:8374   */\n      0x00\n        /* \"#utility.yul\":8394:8416   */\n      tag_170\n        /* \"#utility.yul\":8410:8415   */\n      dup3\n        /* \"#utility.yul\":8394:8416   */\n      tag_76\n      jump\t// in\n    tag_170:\n        /* \"#utility.yul\":8385:8416   */\n      swap2\n      pop\n        /* \"#utility.yul\":8438:8442   */\n      0xff\n        /* \"#utility.yul\":8431:8436   */\n      dup3\n        /* \"#utility.yul\":8428:8443   */\n      eq\n        /* \"#utility.yul\":8425:8466   */\n      iszero\n      tag_171\n      jumpi\n        /* \"#utility.yul\":8446:8464   */\n      tag_172\n      tag_78\n      jump\t// in\n    tag_172:\n        /* \"#utility.yul\":8425:8466   */\n    tag_171:\n        /* \"#utility.yul\":8493:8494   */\n      0x01\n        /* \"#utility.yul\":8486:8491   */\n      dup3\n        /* \"#utility.yul\":8482:8495   */\n      add\n        /* \"#utility.yul\":8475:8495   */\n      swap1\n      pop\n        /* \"#utility.yul\":8334:8501   */\n      swap2\n      swap1\n      pop\n      jump\t// out\n\n    auxdata: 0xa26469706673582212203616752a7dcd3b03a5c3cd0be2cc4a9ff10479e5d492588aae12d96b9c25d60364736f6c634300080a0033\n}\n",
    "bytecode": {
      "linkReferences": {},
      "object": "608060405234801561001057600080fd5b506107f2806100206000396000f3fe608060405234801561001057600080fd5b50600436106100365760003560e01c8063838824f61461003b578063a2cf0c561461006b575b600080fd5b61005560048036038101906100509190610337565b610087565b60405161006291906104b3565b60405180910390f35b6100856004803603810190610080919061060a565b610166565b005b61008f610222565b600080838152602001908152602001600020600a80602002604051908101604052809291906000905b8282101561015b5783820180546100ce90610695565b80601f01602080910402602001604051908101604052809291908181526020018280546100fa90610695565b80156101475780601f1061011c57610100808354040283529160200191610147565b820191906000526020600020905b81548152906001019060200180831161012a57829003601f168201915b5050505050815260200190600101906100b8565b505050509050919050565b60006001600084815260200190815260200160002060009054906101000a900460ff16905081600080858152602001908152602001600020600a836101ab9190610703565b60ff16600a81106101bf576101be610734565b5b0190805190602001906101d392919061024a565b5060016000848152602001908152602001600020600081819054906101000a900460ff168092919061020490610792565b91906101000a81548160ff021916908360ff16021790555050505050565b604051806101400160405280600a905b60608152602001906001900390816102325790505090565b82805461025690610695565b90600052602060002090601f01602090048101928261027857600085556102bf565b82601f1061029157805160ff19168380011785556102bf565b828001600101855582156102bf579182015b828111156102be5782518255916020019190600101906102a3565b5b5090506102cc91906102d0565b5090565b5b808211156102e95760008160009055506001016102d1565b5090565b6000604051905090565b600080fd5b600080fd5b6000819050919050565b61031481610301565b811461031f57600080fd5b50565b6000813590506103318161030b565b92915050565b60006020828403121561034d5761034c6102f7565b5b600061035b84828501610322565b91505092915050565b6000600a9050919050565b600081905092915050565b6000819050919050565b600081519050919050565b600082825260208201905092915050565b60005b838110156103be5780820151818401526020810190506103a3565b838111156103cd576000848401525b50505050565b6000601f19601f8301169050919050565b60006103ef82610384565b6103f9818561038f565b93506104098185602086016103a0565b610412816103d3565b840191505092915050565b600061042983836103e4565b905092915050565b6000602082019050919050565b600061044982610364565b610453818561036f565b9350836020820285016104658561037a565b8060005b858110156104a15784840389528151610482858261041d565b945061048d83610431565b925060208a01995050600181019050610469565b50829750879550505050505092915050565b600060208201905081810360008301526104cd818461043e565b905092915050565b600080fd5b600080fd5b7f4e487b7100000000000000000000000000000000000000000000000000000000600052604160045260246000fd5b610517826103d3565b810181811067ffffffffffffffff82111715610536576105356104df565b5b80604052505050565b60006105496102ed565b9050610555828261050e565b919050565b600067ffffffffffffffff821115610575576105746104df565b5b61057e826103d3565b9050602081019050919050565b82818337600083830152505050565b60006105ad6105a88461055a565b61053f565b9050828152602081018484840111156105c9576105c86104da565b5b6105d484828561058b565b509392505050565b600082601f8301126105f1576105f06104d5565b5b813561060184826020860161059a565b91505092915050565b60008060408385031215610621576106206102f7565b5b600061062f85828601610322565b925050602083013567ffffffffffffffff8111156106505761064f6102fc565b5b61065c858286016105dc565b9150509250929050565b7f4e487b7100000000000000000000000000000000000000000000000000000000600052602260045260246000fd5b600060028204905060018216806106ad57607f821691505b602082108114156106c1576106c0610666565b5b50919050565b600060ff82169050919050565b7f4e487b7100000000000000000000000000000000000000000000000000000000600052601260045260246000fd5b600061070e826106c7565b9150610719836106c7565b925082610729576107286106d4565b5b828206905092915050565b7f4e487b7100000000000000000000000000000000000000000000000000000000600052603260045260246000fd5b7f4e487b7100000000000000000000000000000000000000000000000000000000600052601160045260246000fd5b600061079d826106c7565b915060ff8214156107b1576107b0610763565b5b60018201905091905056fea26469706673582212203616752a7dcd3b03a5c3cd0be2cc4a9ff10479e5d492588aae12d96b9c25d60364736f6c634300080a0033",
      "opcodes": "PUSH1 0x80 PUSH1 0x40 MSTORE CALLVALUE DUP1 ISZERO PUSH2 0x10 JUMPI PUSH1 0x0 DUP1 REVERT JUMPDEST POP PUSH2 0x7F2 DUP1 PUSH2 0x20 PUSH1 0x0 CODECOPY PUSH1 0x0 RETURN INVALID PUSH1 0x80 PUSH1 0x40 MSTORE CALLVALUE DUP1 ISZERO PUSH2 0x10 JUMPI PUSH1 0x0 DUP1 REVERT JUMPDEST POP PUSH1 0x4 CALLDATASIZE LT PUSH2 0x36 JUMPI PUSH1 0x0 CALLDATALOAD PUSH1 0xE0 SHR DUP1 PUSH4 0x838824F6 EQ PUSH2 0x3B JUMPI DUP1 PUSH4 0xA2CF0C56 EQ PUSH2 0x6B JUMPI JUMPDEST PUSH1 0x0 DUP1 REVERT JUMPDEST PUSH2 0x55 PUSH1 0x4 DUP1 CALLDATASIZE SUB DUP2 ADD SWAP1 PUSH2 0x50 SWAP2 SWAP1 PUSH2 0x337 JUMP JUMPDEST PUSH2 0x87 JUMP JUMPDEST PUSH1 0x40 MLOAD PUSH2 0x62 SWAP2 SWAP1 PUSH2 0x4B3 JUMP JUMPDEST PUSH1 0x40 MLOAD DUP1 SWAP2 SUB SWAP1 RETURN JUMPDEST PUSH2 0x85 PUSH1 0x4 DUP1 CALLDATASIZE SUB DUP2 ADD SWAP1 PUSH2 0x80 SWAP2 SWAP1 PUSH2 0x60A JUMP JUMPDEST PUSH2 0x166 JUMP JUMPDEST STOP JUMPDEST PUSH2 0x8F PUSH2 0x222 JUMP JUMPDEST PUSH1 0x0 DUP1 DUP4 DUP2 MSTORE PUSH1 0x20 ADD SWAP1 DUP2 MSTORE PUSH1 0x20 ADD PUSH1 0x0 KECCAK256 PUSH1 0xA DUP1 PUSH1 0x20 MUL PUSH1 0x40 MLOAD SWAP1 DUP2 ADD PUSH1 0x40 MSTORE DUP1 SWAP3 SWAP2 SWAP1 PUSH1 0x0 SWAP1 JUMPDEST DUP3 DUP3 LT ISZERO PUSH2 0x15B JUMPI DUP4 DUP3 ADD DUP1 SLOAD PUSH2 0xCE SWAP1 PUSH2 0x695 JUMP JUMPDEST DUP1 PUSH1 0x1F ADD PUSH1 0x20 DUP1 SWAP2 DIV MUL PUSH1 0x20 ADD PUSH1 0x40 MLOAD SWAP1 DUP2 ADD PUSH1 0x40 MSTORE DUP1 SWAP3 SWAP2 SWAP1 DUP2 DUP2 MSTORE PUSH1 0x20 ADD DUP3 DUP1 SLOAD PUSH2 0xFA SWAP1 PUSH2 0x695 JUMP JUMPDEST DUP1 ISZERO PUSH2 0x147 JUMPI DUP1 PUSH1 0x1F LT PUSH2 0x11C JUMPI PUSH2 0x100 DUP1 DUP4 SLOAD DIV MUL DUP4 MSTORE SWAP2 PUSH1 0x20 ADD SWAP2 PUSH2 0x147 JUMP JUMPDEST DUP3 ADD SWAP2 SWAP1 PUSH1 0x0 MSTORE PUSH1 0x20 PUSH1 0x0 KECCAK256 SWAP1 JUMPDEST DUP2 SLOAD DUP2 MSTORE SWAP1 PUSH1 0x1 ADD SWAP1 PUSH1 0x20 ADD DUP1 DUP4 GT PUSH2 0x12A JUMPI DUP3 SWAP1 SUB PUSH1 0x1F AND DUP3 ADD SWAP2 JUMPDEST POP POP POP POP POP DUP2 MSTORE PUSH1 0x20 ADD SWAP1 PUSH1 0x1 ADD SWAP1 PUSH2 0xB8 JUMP JUMPDEST POP POP POP POP SWAP1 POP SWAP2 SWAP1 POP JUMP JUMPDEST PUSH1 0x0 PUSH1 0x1 PUSH1 0x0 DUP5 DUP2 MSTORE PUSH1 0x20 ADD SWAP1 DUP2 MSTORE PUSH1 0x20 ADD PUSH1 0x0 KECCAK256 PUSH1 0x0 SWAP1 SLOAD SWAP1 PUSH2 0x100 EXP SWAP1 DIV PUSH1 0xFF AND SWAP1 POP DUP2 PUSH1 0x0 DUP1 DUP6 DUP2 MSTORE PUSH1 0x20 ADD SWAP1 DUP2 MSTORE PUSH1 0x20 ADD PUSH1 0x0 KECCAK256 PUSH1 0xA DUP4 PUSH2 0x1AB SWAP2 SWAP1 PUSH2 0x703 JUMP JUMPDEST PUSH1 0xFF AND PUSH1 0xA DUP2 LT PUSH2 0x1BF JUMPI PUSH2 0x1BE PUSH2 0x734 JUMP JUMPDEST JUMPDEST ADD SWAP1 DUP1 MLOAD SWAP1 PUSH1 0x20 ADD SWAP1 PUSH2 0x1D3 SWAP3 SWAP2 SWAP1 PUSH2 0x24A JUMP JUMPDEST POP PUSH1 0x1 PUSH1 0x0 DUP5 DUP2 MSTORE PUSH1 0x20 ADD SWAP1 DUP2 MSTORE PUSH1 0x20 ADD PUSH1 0x0 KECCAK256 PUSH1 0x0 DUP2 DUP2 SWAP1 SLOAD SWAP1 PUSH2 0x100 EXP SWAP1 DIV PUSH1 0xFF AND DUP1 SWAP3 SWAP2 SWAP1 PUSH2 0x204 SWAP1 PUSH2 0x792 JUMP JUMPDEST SWAP2 SWAP1 PUSH2 0x100 EXP DUP2 SLOAD DUP2 PUSH1 0xFF MUL NOT AND SWAP1 DUP4 PUSH1 0xFF AND MUL OR SWAP1 SSTORE POP POP POP POP POP JUMP JUMPDEST PUSH1 0x40 MLOAD DUP1 PUSH2 0x140 ADD PUSH1 0x40 MSTORE DUP1 PUSH1 0xA SWAP1 JUMPDEST PUSH1 0x60 DUP2 MSTORE PUSH1 0x20 ADD SWAP1 PUSH1 0x1 SWAP1 SUB SWAP1 DUP2 PUSH2 0x232 JUMPI SWAP1 POP POP SWAP1 JUMP JUMPDEST DUP3 DUP1 SLOAD PUSH2 0x256 SWAP1 PUSH2 0x695 JUMP JUMPDEST SWAP1 PUSH1 0x0 MSTORE PUSH1 0x20 PUSH1 0x0 KECCAK256 SWAP1 PUSH1 0x1F ADD PUSH1 0x20 SWAP1 DIV DUP2 ADD SWAP3 DUP3 PUSH2 0x278 JUMPI PUSH1 0x0 DUP6 SSTORE PUSH2 0x2BF JUMP JUMPDEST DUP3 PUSH1 0x1F LT PUSH2 0x291 JUMPI DUP1 MLOAD PUSH1 0xFF NOT AND DUP4 DUP1 ADD OR DUP6 SSTORE PUSH2 0x2BF JUMP JUMPDEST DUP3 DUP1 ADD PUSH1 0x1 ADD DUP6 SSTORE DUP3 ISZERO PUSH2 0x2BF JUMPI SWAP2 DUP3 ADD JUMPDEST DUP3 DUP2 GT ISZERO PUSH2 0x2BE JUMPI DUP3 MLOAD DUP3 SSTORE SWAP2 PUSH1 0x20 ADD SWAP2 SWAP1 PUSH1 0x1 ADD SWAP1 PUSH2 0x2A3 JUMP JUMPDEST JUMPDEST POP SWAP1 POP PUSH2 0x2CC SWAP2 SWAP1 PUSH2 0x2D0 JUMP JUMPDEST POP SWAP1 JUMP JUMPDEST JUMPDEST DUP1 DUP3 GT ISZERO PUSH2 0x2E9 JUMPI PUSH1 0x0 DUP2 PUSH1 0x0 SWAP1 SSTORE POP PUSH1 0x1 ADD PUSH2 0x2D1 JUMP JUMPDEST POP SWAP1 JUMP JUMPDEST PUSH1 0x0 PUSH1 0x40 MLOAD SWAP1 POP SWAP1 JUMP JUMPDEST PUSH1 0x0 DUP1 REVERT JUMPDEST PUSH1 0x0 DUP1 REVERT JUMPDEST PUSH1 0x0 DUP2 SWAP1 POP SWAP2 SWAP1 POP JUMP JUMPDEST PUSH2 0x314 DUP2 PUSH2 0x301 JUMP JUMPDEST DUP2 EQ PUSH2 0x31F JUMPI PUSH1 0x0 DUP1 REVERT JUMPDEST POP JUMP JUMPDEST PUSH1 0x0 DUP2 CALLDATALOAD SWAP1 POP PUSH2 0x331 DUP2 PUSH2 0x30B JUMP JUMPDEST SWAP3 SWAP2 POP POP JUMP JUMPDEST PUSH1 0x0 PUSH1 0x20 DUP3 DUP5 SUB SLT ISZERO PUSH2 0x34D JUMPI PUSH2 0x34C PUSH2 0x2F7 JUMP JUMPDEST JUMPDEST PUSH1 0x0 PUSH2 0x35B DUP5 DUP3 DUP6 ADD PUSH2 0x322 JUMP JUMPDEST SWAP2 POP POP SWAP3 SWAP2 POP POP JUMP JUMPDEST PUSH1 0x0 PUSH1 0xA SWAP1 POP SWAP2 SWAP1 POP JUMP JUMPDEST PUSH1 0x0 DUP2 SWAP1 POP SWAP3 SWAP2 POP POP JUMP JUMPDEST PUSH1 0x0 DUP2 SWAP1 POP SWAP2 SWAP1 POP JUMP JUMPDEST PUSH1 0x0 DUP2 MLOAD SWAP1 POP SWAP2 SWAP1 POP JUMP JUMPDEST PUSH1 0x0 DUP3 DUP3 MSTORE PUSH1 0x20 DUP3 ADD SWAP1 POP SWAP3 SWAP2 POP POP JUMP JUMPDEST PUSH1 0x0 JUMPDEST DUP4 DUP2 LT ISZERO PUSH2 0x3BE JUMPI DUP1 DUP3 ADD MLOAD DUP2 DUP5 ADD MSTORE PUSH1 0x20 DUP2 ADD SWAP1 POP PUSH2 0x3A3 JUMP JUMPDEST DUP4 DUP2 GT ISZERO PUSH2 0x3CD JUMPI PUSH1 0x0 DUP5 DUP5 ADD MSTORE JUMPDEST POP POP POP POP JUMP JUMPDEST PUSH1 0x0 PUSH1 0x1F NOT PUSH1 0x1F DUP4 ADD AND SWAP1 POP SWAP2 SWAP1 POP JUMP JUMPDEST PUSH1 0x0 PUSH2 0x3EF DUP3 PUSH2 0x384 JUMP JUMPDEST PUSH2 0x3F9 DUP2 DUP6 PUSH2 0x38F JUMP JUMPDEST SWAP4 POP PUSH2 0x409 DUP2 DUP6 PUSH1 0x20 DUP7 ADD PUSH2 0x3A0 JUMP JUMPDEST PUSH2 0x412 DUP2 PUSH2 0x3D3 JUMP JUMPDEST DUP5 ADD SWAP2 POP POP SWAP3 SWAP2 POP POP JUMP JUMPDEST PUSH1 0x0 PUSH2 0x429 DUP4 DUP4 PUSH2 0x3E4 JUMP JUMPDEST SWAP1 POP SWAP3 SWAP2 POP POP JUMP JUMPDEST PUSH1 0x0 PUSH1 0x20 DUP3 ADD SWAP1 POP SWAP2 SWAP1 POP JUMP JUMPDEST PUSH1 0x0 PUSH2 0x449 DUP3 PUSH2 0x364 JUMP JUMPDEST PUSH2 0x453 DUP2 DUP6 PUSH2 0x36F JUMP JUMPDEST SWAP4 POP DUP4 PUSH1 0x20 DUP3 MUL DUP6 ADD PUSH2 0x465 DUP6 PUSH2 0x37A JUMP JUMPDEST DUP1 PUSH1 0x0 JUMPDEST DUP6 DUP2 LT ISZERO PUSH2 0x4A1 JUMPI DUP5 DUP5 SUB DUP10 MSTORE DUP2 MLOAD PUSH2 0x482 DUP6 DUP3 PUSH2 0x41D JUMP JUMPDEST SWAP5 POP PUSH2 0x48D DUP4 PUSH2 0x431 JUMP JUMPDEST SWAP3 POP PUSH1 0x20 DUP11 ADD SWAP10 POP POP PUSH1 0x1 DUP2 ADD SWAP1 POP PUSH2 0x469 JUMP JUMPDEST POP DUP3 SWAP8 POP DUP8 SWAP6 POP POP POP POP POP POP SWAP3 SWAP2 POP POP JUMP JUMPDEST PUSH1 0x0 PUSH1 0x20 DUP3 ADD SWAP1 POP DUP2 DUP2 SUB PUSH1 0x0 DUP4 ADD MSTORE PUSH2 0x4CD DUP2 DUP5 PUSH2 0x43E JUMP JUMPDEST SWAP1 POP SWAP3 SWAP2 POP POP JUMP JUMPDEST PUSH1 0x0 DUP1 REVERT JUMPDEST PUSH1 0x0 DUP1 REVERT JUMPDEST PUSH32 0x4E487B7100000000000000000000000000000000000000000000000000000000 PUSH1 0x0 MSTORE PUSH1 0x41 PUSH1 0x4 MSTORE PUSH1 0x24 PUSH1 0x0 REVERT JUMPDEST PUSH2 0x517 DUP3 PUSH2 0x3D3 JUMP JUMPDEST DUP2 ADD DUP2 DUP2 LT PUSH8 0xFFFFFFFFFFFFFFFF DUP3 GT OR ISZERO PUSH2 0x536 JUMPI PUSH2 0x535 PUSH2 0x4DF JUMP JUMPDEST JUMPDEST DUP1 PUSH1 0x40 MSTORE POP POP POP JUMP JUMPDEST PUSH1 0x0 PUSH2 0x549 PUSH2 0x2ED JUMP JUMPDEST SWAP1 POP PUSH2 0x555 DUP3 DUP3 PUSH2 0x50E JUMP JUMPDEST SWAP2 SWAP1 POP JUMP JUMPDEST PUSH1 0x0 PUSH8 0xFFFFFFFFFFFFFFFF DUP3 GT ISZERO PUSH2 0x575 JUMPI PUSH2 0x574 PUSH2 0x4DF JUMP JUMPDEST JUMPDEST PUSH2 0x57E DUP3 PUSH2 0x3D3 JUMP JUMPDEST SWAP1 POP PUSH1 0x20 DUP2 ADD SWAP1 POP SWAP2 SWAP1 POP JUMP JUMPDEST DUP3 DUP2 DUP4 CALLDATACOPY PUSH1 0x0 DUP4 DUP4 ADD MSTORE POP POP POP JUMP JUMPDEST PUSH1 0x0 PUSH2 0x5AD PUSH2 0x5A8 DUP5 PUSH2 0x55A JUMP JUMPDEST PUSH2 0x53F JUMP JUMPDEST SWAP1 POP DUP3 DUP2 MSTORE PUSH1 0x20 DUP2 ADD DUP5 DUP5 DUP5 ADD GT ISZERO PUSH2 0x5C9 JUMPI PUSH2 0x5C8 PUSH2 0x4DA JUMP JUMPDEST JUMPDEST PUSH2 0x5D4 DUP5 DUP3 DUP6 PUSH2 0x58B JUMP JUMPDEST POP SWAP4 SWAP3 POP POP POP JUMP JUMPDEST PUSH1 0x0 DUP3 PUSH1 0x1F DUP4 ADD SLT PUSH2 0x5F1 JUMPI PUSH2 0x5F0 PUSH2 0x4D5 JUMP JUMPDEST JUMPDEST DUP2 CALLDATALOAD PUSH2 0x601 DUP5 DUP3 PUSH1 0x20 DUP7 ADD PUSH2 0x59A JUMP JUMPDEST SWAP2 POP POP SWAP3 SWAP2 POP POP JUMP JUMPDEST PUSH1 0x0 DUP1 PUSH1 0x40 DUP4 DUP6 SUB SLT ISZERO PUSH2 0x621 JUMPI PUSH2 0x620 PUSH2 0x2F7 JUMP JUMPDEST JUMPDEST PUSH1 0x0 PUSH2 0x62F DUP6 DUP3 DUP7 ADD PUSH2 0x322 JUMP JUMPDEST SWAP3 POP POP PUSH1 0x20 DUP4 ADD CALLDATALOAD PUSH8 0xFFFFFFFFFFFFFFFF DUP2 GT ISZERO PUSH2 0x650 JUMPI PUSH2 0x64F PUSH2 0x2FC JUMP JUMPDEST JUMPDEST PUSH2 0x65C DUP6 DUP3 DUP7 ADD PUSH2 0x5DC JUMP JUMPDEST SWAP2 POP POP SWAP3 POP SWAP3 SWAP1 POP JUMP JUMPDEST PUSH32 0x4E487B7100000000000000000000000000000000000000000000000000000000 PUSH1 0x0 MSTORE PUSH1 0x22 PUSH1 0x4 MSTORE PUSH1 0x24 PUSH1 0x0 REVERT JUMPDEST PUSH1 0x0 PUSH1 0x2 DUP3 DIV SWAP1 POP PUSH1 0x1 DUP3 AND DUP1 PUSH2 0x6AD JUMPI PUSH1 0x7F DUP3 AND SWAP2 POP JUMPDEST PUSH1 0x20 DUP3 LT DUP2 EQ ISZERO PUSH2 0x6C1 JUMPI PUSH2 0x6C0 PUSH2 0x666 JUMP JUMPDEST JUMPDEST POP SWAP2 SWAP1 POP JUMP JUMPDEST PUSH1 0x0 PUSH1 0xFF DUP3 AND SWAP1 POP SWAP2 SWAP1 POP JUMP JUMPDEST PUSH32 0x4E487B7100000000000000000000000000000000000000000000000000000000 PUSH1 0x0 MSTORE PUSH1 0x12 PUSH1 0x4 MSTORE PUSH1 0x24 PUSH1 0x0 REVERT JUMPDEST PUSH1 0x0 PUSH2 0x70E DUP3 PUSH2 0x6C7 JUMP JUMPDEST SWAP2 POP PUSH2 0x719 DUP4 PUSH2 0x6C7 JUMP JUMPDEST SWAP3 POP DUP3 PUSH2 0x729 JUMPI PUSH2 0x728 PUSH2 0x6D4 JUMP JUMPDEST JUMPDEST DUP3 DUP3 MOD SWAP1 POP SWAP3 SWAP2 POP POP JUMP JUMPDEST PUSH32 0x4E487B7100000000000000000000000000000000000000000000000000000000 PUSH1 0x0 MSTORE PUSH1 0x32 PUSH1 0x4 MSTORE PUSH1 0x24 PUSH1 0x0 REVERT JUMPDEST PUSH32 0x4E487B7100000000000000000000000000000000000000000000000000000000 PUSH1 0x0 MSTORE PUSH1 0x11 PUSH1 0x4 MSTORE PUSH1 0x24 PUSH1 0x0 REVERT JUMPDEST PUSH1 0x0 PUSH2 0x79D DUP3 PUSH2 0x6C7 JUMP JUMPDEST SWAP2 POP PUSH1 0xFF DUP3 EQ ISZERO PUSH2 0x7B1 JUMPI PUSH2 0x7B0 PUSH2 0x763 JUMP JUMPDEST JUMPDEST PUSH1 0x1 DUP3 ADD SWAP1 POP SWAP2 SWAP1 POP JUMP INVALID LOG2 PUSH5 0x6970667358 0x22 SLT KECCAK256 CALLDATASIZE AND PUSH22 0x2A7DCD3B03A5C3CD0BE2CC4A9FF10479E5D492588AAE SLT 0xD9 PUSH12 0x9C25D60364736F6C63430008 EXP STOP CALLER "
    },
    "gasEstimates": {
      "creation": {
        "codeDepositCost": "406800",
        "executionCost": "443",
        "totalCost": "407243"
      },
      "external": {
        "addNotification(bytes32,string)": "infinite",
        "getNotifications(bytes32)": "infinite"
      }
    },
    "methodIdentifiers": {
      "addNotification(bytes32,string)": "a2cf0c56",
      "getNotifications(bytes32)": "838824f6"
    }
  },
  "storageLayout": {
    "storage": [
      {
        "astId": 10,
        "contract": "NotificationManager.sol:NotificationManager",
        "label": "notifications",
        "offset": 0,
        "slot": "0",
        "type": "t_mapping(t_bytes32,t_array(t_string_storage)10_storage)"
      },
      {
        "astId": 14,
        "contract": "NotificationManager.sol:NotificationManager",
        "label": "notificationCounts",
        "offset": 0,
        "slot": "1",
        "type": "t_mapping(t_bytes32,t_uint8)"
      }
    ],
    "types": {
      "t_array(t_string_storage)10_storage": {
        "base": "t_string_storage",
        "encoding": "inplace",
        "label": "string[10]",
        "numberOfBytes": "320"
      },
      "t_bytes32": {
        "encoding": "inplace",
        "label": "bytes32",
        "numberOfBytes": "32"
      },
      "t_mapping(t_bytes32,t_array(t_string_storage)10_storage)": {
        "encoding": "mapping",
        "key": "t_bytes32",
        "label": "mapping(bytes32 => string[10])",
        "numberOfBytes": "32",
        "value": "t_array(t_string_storage)10_storage"
      },
      "t_mapping(t_bytes32,t_uint8)": {
        "encoding": "mapping",
        "key": "t_bytes32",
        "label": "mapping(bytes32 => uint8)",
        "numberOfBytes": "32",
        "value": "t_uint8"
      },
      "t_string_storage": {
        "encoding": "bytes",
        "label": "string",
        "numberOfBytes": "32"
      },
      "t_uint8": {
        "encoding": "inplace",
        "label": "uint8",
        "numberOfBytes": "1"
      }
    }
  },
  "userdoc": {
    "kind": "user",
    "methods": {},
    "version": 1
  }
}