{
  "abi": [
    {
      "inputs": [
        {
          "internalType": "address",
          "name": "_registryAddress",
          "type": "address"
        },
        {
          "internalType": "address",
          "name": "_notificationManagerAddress",
          "type": "address"
        },
        {
          "internalType": "address",
          "name": "_metadataAddress",
          "type": "address"
        }
      ],
      "stateMutability": "nonpayable",
      "type": "constructor"
    },
    {
      "inputs": [
        {
          "internalType": "bytes32",
          "name": "granterKey",
          "type": "bytes32"
        }
      ],
      "name": "approvePermission",
      "outputs": [
        {
          "internalType": "string[]",
          "name": "",
          "type": "string[]"
        },
        {
          "internalType": "string[]",
          "name": "",
          "type": "string[]"
        },
        {
          "internalType": "bytes[]",
          "name": "",
          "type": "bytes[]"
        }
      ],
      "stateMutability": "view",
      "type": "function"
    },
    {
      "inputs": [],
      "name": "metadata",
      "outputs": [
        {
          "internalType": "contract Metadata",
          "name": "",
          "type": "address"
        }
      ],
      "stateMutability": "view",
      "type": "function"
    },
    {
      "inputs": [],
      "name": "notificationManager",
      "outputs": [
        {
          "internalType": "contract NotificationManager",
          "name": "",
          "type": "address"
        }
      ],
      "stateMutability": "view",
      "type": "function"
    },
    {
      "inputs": [],
      "name": "registry",
      "outputs": [
        {
          "internalType": "contract Registry",
          "name": "",
          "type": "address"
        }
      ],
      "stateMutability": "view",
      "type": "function"
    },
    {
      "inputs": [
        {
          "internalType": "bytes32",
          "name": "requesterKey",
          "type": "bytes32"
        },
        {
          "internalType": "bytes32",
          "name": "granterKey",
          "type": "bytes32"
        }
      ],
      "name": "requestPermission",
      "outputs": [],
      "stateMutability": "nonpayable",
      "type": "function"
    }
  ],
  "devdoc": {
    "kind": "dev",
    "methods": {},
    "version": 1
  },
  "evm": {
    "assembly": "    /* \"permission.sol\":151:1767  contract Permission {... */\n  mstore(0x40, 0x80)\n    /* \"permission.sol\":295:581  constructor(address _registryAddress, address _notificationManagerAddress, address _metadataAddress) {... */\n  callvalue\n  dup1\n  iszero\n  tag_1\n  jumpi\n  0x00\n  dup1\n  revert\ntag_1:\n  pop\n  mload(0x40)\n  sub(codesize, bytecodeSize)\n  dup1\n  bytecodeSize\n  dup4\n  codecopy\n  dup2\n  dup2\n  add\n  0x40\n  mstore\n  dup2\n  add\n  swap1\n  tag_2\n  swap2\n  swap1\n  tag_3\n  jump\t// in\ntag_2:\n    /* \"permission.sol\":427:443  _registryAddress */\n  dup3\n    /* \"permission.sol\":407:415  registry */\n  0x00\n  dup1\n    /* \"permission.sol\":407:444  registry = Registry(_registryAddress) */\n  0x0100\n  exp\n  dup2\n  sload\n  dup2\n  0xffffffffffffffffffffffffffffffffffffffff\n  mul\n  not\n  and\n  swap1\n  dup4\n  0xffffffffffffffffffffffffffffffffffffffff\n  and\n  mul\n  or\n  swap1\n  sstore\n  pop\n    /* \"permission.sol\":497:524  _notificationManagerAddress */\n  dup2\n    /* \"permission.sol\":455:474  notificationManager */\n  0x01\n  0x00\n    /* \"permission.sol\":455:525  notificationManager = NotificationManager(_notificationManagerAddress) */\n  0x0100\n  exp\n  dup2\n  sload\n  dup2\n  0xffffffffffffffffffffffffffffffffffffffff\n  mul\n  not\n  and\n  swap1\n  dup4\n  0xffffffffffffffffffffffffffffffffffffffff\n  and\n  mul\n  or\n  swap1\n  sstore\n  pop\n    /* \"permission.sol\":556:572  _metadataAddress */\n  dup1\n    /* \"permission.sol\":536:544  metadata */\n  0x02\n  0x00\n    /* \"permission.sol\":536:573  metadata = Metadata(_metadataAddress) */\n  0x0100\n  exp\n  dup2\n  sload\n  dup2\n  0xffffffffffffffffffffffffffffffffffffffff\n  mul\n  not\n  and\n  swap1\n  dup4\n  0xffffffffffffffffffffffffffffffffffffffff\n  and\n  mul\n  or\n  swap1\n  sstore\n  pop\n    /* \"permission.sol\":295:581  constructor(address _registryAddress, address _notificationManagerAddress, address _metadataAddress) {... */\n  pop\n  pop\n  pop\n    /* \"permission.sol\":151:1767  contract Permission {... */\n  jump(tag_6)\n    /* \"#utility.yul\":88:205   */\ntag_8:\n    /* \"#utility.yul\":197:198   */\n  0x00\n    /* \"#utility.yul\":194:195   */\n  dup1\n    /* \"#utility.yul\":187:199   */\n  revert\n    /* \"#utility.yul\":334:460   */\ntag_10:\n    /* \"#utility.yul\":371:378   */\n  0x00\n    /* \"#utility.yul\":411:453   */\n  0xffffffffffffffffffffffffffffffffffffffff\n    /* \"#utility.yul\":404:409   */\n  dup3\n    /* \"#utility.yul\":400:454   */\n  and\n    /* \"#utility.yul\":389:454   */\n  swap1\n  pop\n    /* \"#utility.yul\":334:460   */\n  swap2\n  swap1\n  pop\n  jump\t// out\n    /* \"#utility.yul\":466:562   */\ntag_11:\n    /* \"#utility.yul\":503:510   */\n  0x00\n    /* \"#utility.yul\":532:556   */\n  tag_20\n    /* \"#utility.yul\":550:555   */\n  dup3\n    /* \"#utility.yul\":532:556   */\n  tag_10\n  jump\t// in\ntag_20:\n    /* \"#utility.yul\":521:556   */\n  swap1\n  pop\n    /* \"#utility.yul\":466:562   */\n  swap2\n  swap1\n  pop\n  jump\t// out\n    /* \"#utility.yul\":568:690   */\ntag_12:\n    /* \"#utility.yul\":641:665   */\n  tag_22\n    /* \"#utility.yul\":659:664   */\n  dup2\n    /* \"#utility.yul\":641:665   */\n  tag_11\n  jump\t// in\ntag_22:\n    /* \"#utility.yul\":634:639   */\n  dup2\n    /* \"#utility.yul\":631:666   */\n  eq\n    /* \"#utility.yul\":621:684   */\n  tag_23\n  jumpi\n    /* \"#utility.yul\":680:681   */\n  0x00\n    /* \"#utility.yul\":677:678   */\n  dup1\n    /* \"#utility.yul\":670:682   */\n  revert\n    /* \"#utility.yul\":621:684   */\ntag_23:\n    /* \"#utility.yul\":568:690   */\n  pop\n  jump\t// out\n    /* \"#utility.yul\":696:839   */\ntag_13:\n    /* \"#utility.yul\":753:758   */\n  0x00\n    /* \"#utility.yul\":784:790   */\n  dup2\n    /* \"#utility.yul\":778:791   */\n  mload\n    /* \"#utility.yul\":769:791   */\n  swap1\n  pop\n    /* \"#utility.yul\":800:833   */\n  tag_25\n    /* \"#utility.yul\":827:832   */\n  dup2\n    /* \"#utility.yul\":800:833   */\n  tag_12\n  jump\t// in\ntag_25:\n    /* \"#utility.yul\":696:839   */\n  swap3\n  swap2\n  pop\n  pop\n  jump\t// out\n    /* \"#utility.yul\":845:1508   */\ntag_3:\n    /* \"#utility.yul\":933:939   */\n  0x00\n    /* \"#utility.yul\":941:947   */\n  dup1\n    /* \"#utility.yul\":949:955   */\n  0x00\n    /* \"#utility.yul\":998:1000   */\n  0x60\n    /* \"#utility.yul\":986:995   */\n  dup5\n    /* \"#utility.yul\":977:984   */\n  dup7\n    /* \"#utility.yul\":973:996   */\n  sub\n    /* \"#utility.yul\":969:1001   */\n  slt\n    /* \"#utility.yul\":966:1085   */\n  iszero\n  tag_27\n  jumpi\n    /* \"#utility.yul\":1004:1083   */\n  tag_28\n  tag_8\n  jump\t// in\ntag_28:\n    /* \"#utility.yul\":966:1085   */\ntag_27:\n    /* \"#utility.yul\":1124:1125   */\n  0x00\n    /* \"#utility.yul\":1149:1213   */\n  tag_29\n    /* \"#utility.yul\":1205:1212   */\n  dup7\n    /* \"#utility.yul\":1196:1202   */\n  dup3\n    /* \"#utility.yul\":1185:1194   */\n  dup8\n    /* \"#utility.yul\":1181:1203   */\n  add\n    /* \"#utility.yul\":1149:1213   */\n  tag_13\n  jump\t// in\ntag_29:\n    /* \"#utility.yul\":1139:1213   */\n  swap4\n  pop\n    /* \"#utility.yul\":1095:1223   */\n  pop\n    /* \"#utility.yul\":1262:1264   */\n  0x20\n    /* \"#utility.yul\":1288:1352   */\n  tag_30\n    /* \"#utility.yul\":1344:1351   */\n  dup7\n    /* \"#utility.yul\":1335:1341   */\n  dup3\n    /* \"#utility.yul\":1324:1333   */\n  dup8\n    /* \"#utility.yul\":1320:1342   */\n  add\n    /* \"#utility.yul\":1288:1352   */\n  tag_13\n  jump\t// in\ntag_30:\n    /* \"#utility.yul\":1278:1352   */\n  swap3\n  pop\n    /* \"#utility.yul\":1233:1362   */\n  pop\n    /* \"#utility.yul\":1401:1403   */\n  0x40\n    /* \"#utility.yul\":1427:1491   */\n  tag_31\n    /* \"#utility.yul\":1483:1490   */\n  dup7\n    /* \"#utility.yul\":1474:1480   */\n  dup3\n    /* \"#utility.yul\":1463:1472   */\n  dup8\n    /* \"#utility.yul\":1459:1481   */\n  add\n    /* \"#utility.yul\":1427:1491   */\n  tag_13\n  jump\t// in\ntag_31:\n    /* \"#utility.yul\":1417:1491   */\n  swap2\n  pop\n    /* \"#utility.yul\":1372:1501   */\n  pop\n    /* \"#utility.yul\":845:1508   */\n  swap3\n  pop\n  swap3\n  pop\n  swap3\n  jump\t// out\n    /* \"permission.sol\":151:1767  contract Permission {... */\ntag_6:\n  dataSize(sub_0)\n  dup1\n  dataOffset(sub_0)\n  0x00\n  codecopy\n  0x00\n  return\nstop\n\nsub_0: assembly {\n        /* \"permission.sol\":151:1767  contract Permission {... */\n      mstore(0x40, 0x80)\n      callvalue\n      dup1\n      iszero\n      tag_1\n      jumpi\n      0x00\n      dup1\n      revert\n    tag_1:\n      pop\n      jumpi(tag_2, lt(calldatasize, 0x04))\n      shr(0xe0, calldataload(0x00))\n      dup1\n      0x1d755579\n      eq\n      tag_3\n      jumpi\n      dup1\n      0x392f37e9\n      eq\n      tag_4\n      jumpi\n      dup1\n      0x6938323a\n      eq\n      tag_5\n      jumpi\n      dup1\n      0x7b103999\n      eq\n      tag_6\n      jumpi\n      dup1\n      0xa6fb108f\n      eq\n      tag_7\n      jumpi\n    tag_2:\n      0x00\n      dup1\n      revert\n        /* \"permission.sol\":209:255  NotificationManager public notificationManager */\n    tag_3:\n      tag_8\n      tag_9\n      jump\t// in\n    tag_8:\n      mload(0x40)\n      tag_10\n      swap2\n      swap1\n      tag_11\n      jump\t// in\n    tag_10:\n      mload(0x40)\n      dup1\n      swap2\n      sub\n      swap1\n      return\n        /* \"permission.sol\":262:286  Metadata public metadata */\n    tag_4:\n      tag_12\n      tag_13\n      jump\t// in\n    tag_12:\n      mload(0x40)\n      tag_14\n      swap2\n      swap1\n      tag_15\n      jump\t// in\n    tag_14:\n      mload(0x40)\n      dup1\n      swap2\n      sub\n      swap1\n      return\n        /* \"permission.sol\":589:1012  function requestPermission(bytes32 requesterKey, bytes32 granterKey) public {... */\n    tag_5:\n      tag_16\n      0x04\n      dup1\n      calldatasize\n      sub\n      dup2\n      add\n      swap1\n      tag_17\n      swap2\n      swap1\n      tag_18\n      jump\t// in\n    tag_17:\n      tag_19\n      jump\t// in\n    tag_16:\n      stop\n        /* \"permission.sol\":178:202  Registry public registry */\n    tag_6:\n      tag_20\n      tag_21\n      jump\t// in\n    tag_20:\n      mload(0x40)\n      tag_22\n      swap2\n      swap1\n      tag_23\n      jump\t// in\n    tag_22:\n      mload(0x40)\n      dup1\n      swap2\n      sub\n      swap1\n      return\n        /* \"permission.sol\":1019:1326  function approvePermission(bytes32 granterKey) public view returns (... */\n    tag_7:\n      tag_24\n      0x04\n      dup1\n      calldatasize\n      sub\n      dup2\n      add\n      swap1\n      tag_25\n      swap2\n      swap1\n      tag_26\n      jump\t// in\n    tag_25:\n      tag_27\n      jump\t// in\n    tag_24:\n      mload(0x40)\n      tag_28\n      swap4\n      swap3\n      swap2\n      swap1\n      tag_29\n      jump\t// in\n    tag_28:\n      mload(0x40)\n      dup1\n      swap2\n      sub\n      swap1\n      return\n        /* \"permission.sol\":209:255  NotificationManager public notificationManager */\n    tag_9:\n      0x01\n      0x00\n      swap1\n      sload\n      swap1\n      0x0100\n      exp\n      swap1\n      div\n      0xffffffffffffffffffffffffffffffffffffffff\n      and\n      dup2\n      jump\t// out\n        /* \"permission.sol\":262:286  Metadata public metadata */\n    tag_13:\n      0x02\n      0x00\n      swap1\n      sload\n      swap1\n      0x0100\n      exp\n      swap1\n      div\n      0xffffffffffffffffffffffffffffffffffffffff\n      and\n      dup2\n      jump\t// out\n        /* \"permission.sol\":589:1012  function requestPermission(bytes32 requesterKey, bytes32 granterKey) public {... */\n    tag_19:\n        /* \"permission.sol\":684:692  registry */\n      0x00\n      dup1\n      sload\n      swap1\n      0x0100\n      exp\n      swap1\n      div\n      0xffffffffffffffffffffffffffffffffffffffff\n      and\n        /* \"permission.sol\":684:702  registry.checkUser */\n      0xffffffffffffffffffffffffffffffffffffffff\n      and\n      0x0b2551c2\n        /* \"permission.sol\":703:715  requesterKey */\n      dup4\n        /* \"permission.sol\":684:716  registry.checkUser(requesterKey) */\n      mload(0x40)\n      dup3\n      0xffffffff\n      and\n      0xe0\n      shl\n      dup2\n      mstore\n      0x04\n      add\n      tag_31\n      swap2\n      swap1\n      tag_32\n      jump\t// in\n    tag_31:\n      0x20\n      mload(0x40)\n      dup1\n      dup4\n      sub\n      dup2\n      dup7\n      gas\n      staticcall\n      iszero\n      dup1\n      iszero\n      tag_34\n      jumpi\n      returndatasize\n      0x00\n      dup1\n      returndatacopy\n      revert(0x00, returndatasize)\n    tag_34:\n      pop\n      pop\n      pop\n      pop\n      mload(0x40)\n      returndatasize\n      not(0x1f)\n      0x1f\n      dup3\n      add\n      and\n      dup3\n      add\n      dup1\n      0x40\n      mstore\n      pop\n      dup2\n      add\n      swap1\n      tag_35\n      swap2\n      swap1\n      tag_36\n      jump\t// in\n    tag_35:\n        /* \"permission.sol\":676:746  require(registry.checkUser(requesterKey), \"Requester not registered!\") */\n      tag_37\n      jumpi\n      mload(0x40)\n      0x08c379a000000000000000000000000000000000000000000000000000000000\n      dup2\n      mstore\n      0x04\n      add\n      tag_38\n      swap1\n      tag_39\n      jump\t// in\n    tag_38:\n      mload(0x40)\n      dup1\n      swap2\n      sub\n      swap1\n      revert\n    tag_37:\n        /* \"permission.sol\":765:773  registry */\n      0x00\n      dup1\n      sload\n      swap1\n      0x0100\n      exp\n      swap1\n      div\n      0xffffffffffffffffffffffffffffffffffffffff\n      and\n        /* \"permission.sol\":765:783  registry.checkUser */\n      0xffffffffffffffffffffffffffffffffffffffff\n      and\n      0x0b2551c2\n        /* \"permission.sol\":784:794  granterKey */\n      dup3\n        /* \"permission.sol\":765:795  registry.checkUser(granterKey) */\n      mload(0x40)\n      dup3\n      0xffffffff\n      and\n      0xe0\n      shl\n      dup2\n      mstore\n      0x04\n      add\n      tag_40\n      swap2\n      swap1\n      tag_32\n      jump\t// in\n    tag_40:\n      0x20\n      mload(0x40)\n      dup1\n      dup4\n      sub\n      dup2\n      dup7\n      gas\n      staticcall\n      iszero\n      dup1\n      iszero\n      tag_42\n      jumpi\n      returndatasize\n      0x00\n      dup1\n      returndatacopy\n      revert(0x00, returndatasize)\n    tag_42:\n      pop\n      pop\n      pop\n      pop\n      mload(0x40)\n      returndatasize\n      not(0x1f)\n      0x1f\n      dup3\n      add\n      and\n      dup3\n      add\n      dup1\n      0x40\n      mstore\n      pop\n      dup2\n      add\n      swap1\n      tag_43\n      swap2\n      swap1\n      tag_36\n      jump\t// in\n    tag_43:\n        /* \"permission.sol\":757:823  require(registry.checkUser(granterKey), \"Granter not registered!\") */\n      tag_44\n      jumpi\n      mload(0x40)\n      0x08c379a000000000000000000000000000000000000000000000000000000000\n      dup2\n      mstore\n      0x04\n      add\n      tag_45\n      swap1\n      tag_46\n      jump\t// in\n    tag_45:\n      mload(0x40)\n      dup1\n      swap2\n      sub\n      swap1\n      revert\n    tag_44:\n        /* \"permission.sol\":836:855  notificationManager */\n      0x01\n      0x00\n      swap1\n      sload\n      swap1\n      0x0100\n      exp\n      swap1\n      div\n      0xffffffffffffffffffffffffffffffffffffffff\n      and\n        /* \"permission.sol\":836:871  notificationManager.addNotification */\n      0xffffffffffffffffffffffffffffffffffffffff\n      and\n      0xa2cf0c56\n        /* \"permission.sol\":872:882  granterKey */\n      dup3\n        /* \"permission.sol\":836:915  notificationManager.addNotification(granterKey, \"New permission request from:\") */\n      mload(0x40)\n      dup3\n      0xffffffff\n      and\n      0xe0\n      shl\n      dup2\n      mstore\n      0x04\n      add\n      tag_47\n      swap2\n      swap1\n      tag_48\n      jump\t// in\n    tag_47:\n      0x00\n      mload(0x40)\n      dup1\n      dup4\n      sub\n      dup2\n      0x00\n      dup8\n      dup1\n      extcodesize\n      iszero\n      dup1\n      iszero\n      tag_49\n      jumpi\n      0x00\n      dup1\n      revert\n    tag_49:\n      pop\n      gas\n      call\n      iszero\n      dup1\n      iszero\n      tag_51\n      jumpi\n      returndatasize\n      0x00\n      dup1\n      returndatacopy\n      revert(0x00, returndatasize)\n    tag_51:\n      pop\n      pop\n      pop\n      pop\n        /* \"permission.sol\":926:945  notificationManager */\n      0x01\n      0x00\n      swap1\n      sload\n      swap1\n      0x0100\n      exp\n      swap1\n      div\n      0xffffffffffffffffffffffffffffffffffffffff\n      and\n        /* \"permission.sol\":926:961  notificationManager.addNotification */\n      0xffffffffffffffffffffffffffffffffffffffff\n      and\n      0xa2cf0c56\n        /* \"permission.sol\":962:972  granterKey */\n      dup3\n        /* \"permission.sol\":974:1003  bytes32ToString(requesterKey) */\n      tag_52\n        /* \"permission.sol\":990:1002  requesterKey */\n      dup6\n        /* \"permission.sol\":974:989  bytes32ToString */\n      tag_53\n        /* \"permission.sol\":974:1003  bytes32ToString(requesterKey) */\n      jump\t// in\n    tag_52:\n        /* \"permission.sol\":926:1004  notificationManager.addNotification(granterKey, bytes32ToString(requesterKey)) */\n      mload(0x40)\n      dup4\n      0xffffffff\n      and\n      0xe0\n      shl\n      dup2\n      mstore\n      0x04\n      add\n      tag_54\n      swap3\n      swap2\n      swap1\n      tag_55\n      jump\t// in\n    tag_54:\n      0x00\n      mload(0x40)\n      dup1\n      dup4\n      sub\n      dup2\n      0x00\n      dup8\n      dup1\n      extcodesize\n      iszero\n      dup1\n      iszero\n      tag_56\n      jumpi\n      0x00\n      dup1\n      revert\n    tag_56:\n      pop\n      gas\n      call\n      iszero\n      dup1\n      iszero\n      tag_58\n      jumpi\n      returndatasize\n      0x00\n      dup1\n      returndatacopy\n      revert(0x00, returndatasize)\n    tag_58:\n      pop\n      pop\n      pop\n      pop\n        /* \"permission.sol\":589:1012  function requestPermission(bytes32 requesterKey, bytes32 granterKey) public {... */\n      pop\n      pop\n      jump\t// out\n        /* \"permission.sol\":178:202  Registry public registry */\n    tag_21:\n      0x00\n      dup1\n      sload\n      swap1\n      0x0100\n      exp\n      swap1\n      div\n      0xffffffffffffffffffffffffffffffffffffffff\n      and\n      dup2\n      jump\t// out\n        /* \"permission.sol\":1019:1326  function approvePermission(bytes32 granterKey) public view returns (... */\n    tag_27:\n        /* \"permission.sol\":1093:1108  string[] memory */\n      0x60\n        /* \"permission.sol\":1162:1177  string[] memory */\n      dup1\n        /* \"permission.sol\":1184:1198  bytes[] memory */\n      0x60\n        /* \"permission.sol\":1217:1225  registry */\n      0x00\n      dup1\n      sload\n      swap1\n      0x0100\n      exp\n      swap1\n      div\n      0xffffffffffffffffffffffffffffffffffffffff\n      and\n        /* \"permission.sol\":1217:1235  registry.checkUser */\n      0xffffffffffffffffffffffffffffffffffffffff\n      and\n      0x0b2551c2\n        /* \"permission.sol\":1236:1246  granterKey */\n      dup6\n        /* \"permission.sol\":1217:1247  registry.checkUser(granterKey) */\n      mload(0x40)\n      dup3\n      0xffffffff\n      and\n      0xe0\n      shl\n      dup2\n      mstore\n      0x04\n      add\n      tag_60\n      swap2\n      swap1\n      tag_32\n      jump\t// in\n    tag_60:\n      0x20\n      mload(0x40)\n      dup1\n      dup4\n      sub\n      dup2\n      dup7\n      gas\n      staticcall\n      iszero\n      dup1\n      iszero\n      tag_62\n      jumpi\n      returndatasize\n      0x00\n      dup1\n      returndatacopy\n      revert(0x00, returndatasize)\n    tag_62:\n      pop\n      pop\n      pop\n      pop\n      mload(0x40)\n      returndatasize\n      not(0x1f)\n      0x1f\n      dup3\n      add\n      and\n      dup3\n      add\n      dup1\n      0x40\n      mstore\n      pop\n      dup2\n      add\n      swap1\n      tag_63\n      swap2\n      swap1\n      tag_36\n      jump\t// in\n    tag_63:\n        /* \"permission.sol\":1209:1275  require(registry.checkUser(granterKey), \"Granter not registered!\") */\n      tag_64\n      jumpi\n      mload(0x40)\n      0x08c379a000000000000000000000000000000000000000000000000000000000\n      dup2\n      mstore\n      0x04\n      add\n      tag_65\n      swap1\n      tag_46\n      jump\t// in\n    tag_65:\n      mload(0x40)\n      dup1\n      swap2\n      sub\n      swap1\n      revert\n    tag_64:\n        /* \"permission.sol\":1291:1299  metadata */\n      0x02\n      0x00\n      swap1\n      sload\n      swap1\n      0x0100\n      exp\n      swap1\n      div\n      0xffffffffffffffffffffffffffffffffffffffff\n      and\n        /* \"permission.sol\":1291:1310  metadata.searchData */\n      0xffffffffffffffffffffffffffffffffffffffff\n      and\n      0x65375a04\n        /* \"permission.sol\":1311:1321  granterKey */\n      dup6\n        /* \"permission.sol\":1291:1322  metadata.searchData(granterKey) */\n      mload(0x40)\n      dup3\n      0xffffffff\n      and\n      0xe0\n      shl\n      dup2\n      mstore\n      0x04\n      add\n      tag_66\n      swap2\n      swap1\n      tag_32\n      jump\t// in\n    tag_66:\n      0x00\n      mload(0x40)\n      dup1\n      dup4\n      sub\n      dup2\n      dup7\n      gas\n      staticcall\n      iszero\n      dup1\n      iszero\n      tag_68\n      jumpi\n      returndatasize\n      0x00\n      dup1\n      returndatacopy\n      revert(0x00, returndatasize)\n    tag_68:\n      pop\n      pop\n      pop\n      pop\n      mload(0x40)\n      returndatasize\n      0x00\n      dup3\n      returndatacopy\n      returndatasize\n      not(0x1f)\n      0x1f\n      dup3\n      add\n      and\n      dup3\n      add\n      dup1\n      0x40\n      mstore\n      pop\n      dup2\n      add\n      swap1\n      tag_69\n      swap2\n      swap1\n      tag_70\n      jump\t// in\n    tag_69:\n        /* \"permission.sol\":1284:1322  return metadata.searchData(granterKey) */\n      swap3\n      pop\n      swap3\n      pop\n      swap3\n      pop\n        /* \"permission.sol\":1019:1326  function approvePermission(bytes32 granterKey) public view returns (... */\n      swap2\n      swap4\n      swap1\n      swap3\n      pop\n      jump\t// out\n        /* \"permission.sol\":1389:1764  function bytes32ToString(bytes32 _bytes32) internal pure returns (string memory) {... */\n    tag_53:\n        /* \"permission.sol\":1455:1468  string memory */\n      0x60\n        /* \"permission.sol\":1481:1488  uint8 i */\n      0x00\n        /* \"permission.sol\":1503:1568  while (i < 32 && _bytes32[i] != 0) {... */\n    tag_72:\n        /* \"permission.sol\":1514:1516  32 */\n      0x20\n        /* \"permission.sol\":1510:1511  i */\n      dup2\n        /* \"permission.sol\":1510:1516  i < 32 */\n      0xff\n      and\n      lt\n        /* \"permission.sol\":1510:1536  i < 32 && _bytes32[i] != 0 */\n      dup1\n      iszero\n      tag_74\n      jumpi\n      pop\n        /* \"permission.sol\":1535:1536  0 */\n      0x00\n        /* \"permission.sol\":1520:1536  _bytes32[i] != 0 */\n      0xf8\n      shl\n        /* \"permission.sol\":1520:1528  _bytes32 */\n      dup4\n        /* \"permission.sol\":1529:1530  i */\n      dup3\n        /* \"permission.sol\":1520:1531  _bytes32[i] */\n      0xff\n      and\n      0x20\n      dup2\n      lt\n      tag_75\n      jumpi\n      tag_76\n      tag_77\n      jump\t// in\n    tag_76:\n    tag_75:\n      byte\n      0xf8\n      shl\n        /* \"permission.sol\":1520:1536  _bytes32[i] != 0 */\n      not(0xffffffffffffffffffffffffffffffffffffffffffffffffffffffffffffff)\n      and\n      eq\n      iszero\n        /* \"permission.sol\":1510:1536  i < 32 && _bytes32[i] != 0 */\n    tag_74:\n        /* \"permission.sol\":1503:1568  while (i < 32 && _bytes32[i] != 0) {... */\n      iszero\n      tag_73\n      jumpi\n        /* \"permission.sol\":1553:1556  i++ */\n      dup1\n      dup1\n      tag_78\n      swap1\n      tag_79\n      jump\t// in\n    tag_78:\n      swap2\n      pop\n      pop\n        /* \"permission.sol\":1503:1568  while (i < 32 && _bytes32[i] != 0) {... */\n      jump(tag_72)\n    tag_73:\n        /* \"permission.sol\":1578:1601  bytes memory bytesArray */\n      0x00\n        /* \"permission.sol\":1614:1615  i */\n      dup2\n        /* \"permission.sol\":1604:1616  new bytes(i) */\n      0xff\n      and\n      0xffffffffffffffff\n      dup2\n      gt\n      iszero\n      tag_80\n      jumpi\n      tag_81\n      tag_82\n      jump\t// in\n    tag_81:\n    tag_80:\n      mload(0x40)\n      swap1\n      dup1\n      dup3\n      mstore\n      dup1\n      0x1f\n      add\n      not(0x1f)\n      and\n      0x20\n      add\n      dup3\n      add\n      0x40\n      mstore\n      dup1\n      iszero\n      tag_83\n      jumpi\n      dup2\n      0x20\n      add\n      0x01\n      dup3\n      mul\n      dup1\n      calldatasize\n      dup4\n      calldatacopy\n      dup1\n      dup3\n      add\n      swap2\n      pop\n      pop\n      swap1\n      pop\n    tag_83:\n      pop\n        /* \"permission.sol\":1578:1616  bytes memory bytesArray = new bytes(i) */\n      swap1\n      pop\n        /* \"permission.sol\":1636:1637  0 */\n      0x00\n        /* \"permission.sol\":1632:1637  i = 0 */\n      swap2\n      pop\n        /* \"permission.sol\":1627:1721  for (i = 0; i < bytesArray.length; i++) {... */\n    tag_84:\n        /* \"permission.sol\":1643:1653  bytesArray */\n      dup1\n        /* \"permission.sol\":1643:1660  bytesArray.length */\n      mload\n        /* \"permission.sol\":1639:1640  i */\n      dup3\n        /* \"permission.sol\":1639:1660  i < bytesArray.length */\n      0xff\n      and\n      lt\n        /* \"permission.sol\":1627:1721  for (i = 0; i < bytesArray.length; i++) {... */\n      iszero\n      tag_85\n      jumpi\n        /* \"permission.sol\":1698:1706  _bytes32 */\n      dup4\n        /* \"permission.sol\":1707:1708  i */\n      dup3\n        /* \"permission.sol\":1698:1709  _bytes32[i] */\n      0xff\n      and\n      0x20\n      dup2\n      lt\n      tag_87\n      jumpi\n      tag_88\n      tag_77\n      jump\t// in\n    tag_88:\n    tag_87:\n      byte\n      0xf8\n      shl\n        /* \"permission.sol\":1682:1692  bytesArray */\n      dup2\n        /* \"permission.sol\":1693:1694  i */\n      dup4\n        /* \"permission.sol\":1682:1695  bytesArray[i] */\n      0xff\n      and\n      dup2\n      mload\n      dup2\n      lt\n      tag_89\n      jumpi\n      tag_90\n      tag_77\n      jump\t// in\n    tag_90:\n    tag_89:\n      0x20\n      add\n      add\n        /* \"permission.sol\":1682:1709  bytesArray[i] = _bytes32[i] */\n      swap1\n      not(0xffffffffffffffffffffffffffffffffffffffffffffffffffffffffffffff)\n      and\n      swap1\n      dup2\n      0x00\n      byte\n      swap1\n      mstore8\n      pop\n        /* \"permission.sol\":1662:1665  i++ */\n      dup2\n      dup1\n      tag_91\n      swap1\n      tag_79\n      jump\t// in\n    tag_91:\n      swap3\n      pop\n      pop\n        /* \"permission.sol\":1627:1721  for (i = 0; i < bytesArray.length; i++) {... */\n      jump(tag_84)\n    tag_85:\n        /* \"permission.sol\":1745:1755  bytesArray */\n      dup1\n        /* \"permission.sol\":1731:1756  return string(bytesArray) */\n      swap3\n      pop\n      pop\n      pop\n        /* \"permission.sol\":1389:1764  function bytes32ToString(bytes32 _bytes32) internal pure returns (string memory) {... */\n      swap2\n      swap1\n      pop\n      jump\t// out\n        /* \"#utility.yul\":7:133   */\n    tag_92:\n        /* \"#utility.yul\":44:51   */\n      0x00\n        /* \"#utility.yul\":84:126   */\n      0xffffffffffffffffffffffffffffffffffffffff\n        /* \"#utility.yul\":77:82   */\n      dup3\n        /* \"#utility.yul\":73:127   */\n      and\n        /* \"#utility.yul\":62:127   */\n      swap1\n      pop\n        /* \"#utility.yul\":7:133   */\n      swap2\n      swap1\n      pop\n      jump\t// out\n        /* \"#utility.yul\":139:199   */\n    tag_93:\n        /* \"#utility.yul\":167:170   */\n      0x00\n        /* \"#utility.yul\":188:193   */\n      dup2\n        /* \"#utility.yul\":181:193   */\n      swap1\n      pop\n        /* \"#utility.yul\":139:199   */\n      swap2\n      swap1\n      pop\n      jump\t// out\n        /* \"#utility.yul\":205:347   */\n    tag_94:\n        /* \"#utility.yul\":255:264   */\n      0x00\n        /* \"#utility.yul\":288:341   */\n      tag_163\n        /* \"#utility.yul\":306:340   */\n      tag_164\n        /* \"#utility.yul\":315:339   */\n      tag_165\n        /* \"#utility.yul\":333:338   */\n      dup5\n        /* \"#utility.yul\":315:339   */\n      tag_92\n      jump\t// in\n    tag_165:\n        /* \"#utility.yul\":306:340   */\n      tag_93\n      jump\t// in\n    tag_164:\n        /* \"#utility.yul\":288:341   */\n      tag_92\n      jump\t// in\n    tag_163:\n        /* \"#utility.yul\":275:341   */\n      swap1\n      pop\n        /* \"#utility.yul\":205:347   */\n      swap2\n      swap1\n      pop\n      jump\t// out\n        /* \"#utility.yul\":353:479   */\n    tag_95:\n        /* \"#utility.yul\":403:412   */\n      0x00\n        /* \"#utility.yul\":436:473   */\n      tag_167\n        /* \"#utility.yul\":467:472   */\n      dup3\n        /* \"#utility.yul\":436:473   */\n      tag_94\n      jump\t// in\n    tag_167:\n        /* \"#utility.yul\":423:473   */\n      swap1\n      pop\n        /* \"#utility.yul\":353:479   */\n      swap2\n      swap1\n      pop\n      jump\t// out\n        /* \"#utility.yul\":485:637   */\n    tag_96:\n        /* \"#utility.yul\":561:570   */\n      0x00\n        /* \"#utility.yul\":594:631   */\n      tag_169\n        /* \"#utility.yul\":625:630   */\n      dup3\n        /* \"#utility.yul\":594:631   */\n      tag_95\n      jump\t// in\n    tag_169:\n        /* \"#utility.yul\":581:631   */\n      swap1\n      pop\n        /* \"#utility.yul\":485:637   */\n      swap2\n      swap1\n      pop\n      jump\t// out\n        /* \"#utility.yul\":643:826   */\n    tag_97:\n        /* \"#utility.yul\":756:819   */\n      tag_171\n        /* \"#utility.yul\":813:818   */\n      dup2\n        /* \"#utility.yul\":756:819   */\n      tag_96\n      jump\t// in\n    tag_171:\n        /* \"#utility.yul\":751:754   */\n      dup3\n        /* \"#utility.yul\":744:820   */\n      mstore\n        /* \"#utility.yul\":643:826   */\n      pop\n      pop\n      jump\t// out\n        /* \"#utility.yul\":832:1106   */\n    tag_11:\n        /* \"#utility.yul\":951:955   */\n      0x00\n        /* \"#utility.yul\":989:991   */\n      0x20\n        /* \"#utility.yul\":978:987   */\n      dup3\n        /* \"#utility.yul\":974:992   */\n      add\n        /* \"#utility.yul\":966:992   */\n      swap1\n      pop\n        /* \"#utility.yul\":1002:1099   */\n      tag_173\n        /* \"#utility.yul\":1096:1097   */\n      0x00\n        /* \"#utility.yul\":1085:1094   */\n      dup4\n        /* \"#utility.yul\":1081:1098   */\n      add\n        /* \"#utility.yul\":1072:1078   */\n      dup5\n        /* \"#utility.yul\":1002:1099   */\n      tag_97\n      jump\t// in\n    tag_173:\n        /* \"#utility.yul\":832:1106   */\n      swap3\n      swap2\n      pop\n      pop\n      jump\t// out\n        /* \"#utility.yul\":1112:1254   */\n    tag_98:\n        /* \"#utility.yul\":1178:1187   */\n      0x00\n        /* \"#utility.yul\":1211:1248   */\n      tag_175\n        /* \"#utility.yul\":1242:1247   */\n      dup3\n        /* \"#utility.yul\":1211:1248   */\n      tag_95\n      jump\t// in\n    tag_175:\n        /* \"#utility.yul\":1198:1248   */\n      swap1\n      pop\n        /* \"#utility.yul\":1112:1254   */\n      swap2\n      swap1\n      pop\n      jump\t// out\n        /* \"#utility.yul\":1260:1423   */\n    tag_99:\n        /* \"#utility.yul\":1363:1416   */\n      tag_177\n        /* \"#utility.yul\":1410:1415   */\n      dup2\n        /* \"#utility.yul\":1363:1416   */\n      tag_98\n      jump\t// in\n    tag_177:\n        /* \"#utility.yul\":1358:1361   */\n      dup3\n        /* \"#utility.yul\":1351:1417   */\n      mstore\n        /* \"#utility.yul\":1260:1423   */\n      pop\n      pop\n      jump\t// out\n        /* \"#utility.yul\":1429:1683   */\n    tag_15:\n        /* \"#utility.yul\":1538:1542   */\n      0x00\n        /* \"#utility.yul\":1576:1578   */\n      0x20\n        /* \"#utility.yul\":1565:1574   */\n      dup3\n        /* \"#utility.yul\":1561:1579   */\n      add\n        /* \"#utility.yul\":1553:1579   */\n      swap1\n      pop\n        /* \"#utility.yul\":1589:1676   */\n      tag_179\n        /* \"#utility.yul\":1673:1674   */\n      0x00\n        /* \"#utility.yul\":1662:1671   */\n      dup4\n        /* \"#utility.yul\":1658:1675   */\n      add\n        /* \"#utility.yul\":1649:1655   */\n      dup5\n        /* \"#utility.yul\":1589:1676   */\n      tag_99\n      jump\t// in\n    tag_179:\n        /* \"#utility.yul\":1429:1683   */\n      swap3\n      swap2\n      pop\n      pop\n      jump\t// out\n        /* \"#utility.yul\":1689:1764   */\n    tag_100:\n        /* \"#utility.yul\":1722:1728   */\n      0x00\n        /* \"#utility.yul\":1755:1757   */\n      0x40\n        /* \"#utility.yul\":1749:1758   */\n      mload\n        /* \"#utility.yul\":1739:1758   */\n      swap1\n      pop\n        /* \"#utility.yul\":1689:1764   */\n      swap1\n      jump\t// out\n        /* \"#utility.yul\":1770:1887   */\n    tag_101:\n        /* \"#utility.yul\":1879:1880   */\n      0x00\n        /* \"#utility.yul\":1876:1877   */\n      dup1\n        /* \"#utility.yul\":1869:1881   */\n      revert\n        /* \"#utility.yul\":1893:2010   */\n    tag_102:\n        /* \"#utility.yul\":2002:2003   */\n      0x00\n        /* \"#utility.yul\":1999:2000   */\n      dup1\n        /* \"#utility.yul\":1992:2004   */\n      revert\n        /* \"#utility.yul\":2016:2093   */\n    tag_103:\n        /* \"#utility.yul\":2053:2060   */\n      0x00\n        /* \"#utility.yul\":2082:2087   */\n      dup2\n        /* \"#utility.yul\":2071:2087   */\n      swap1\n      pop\n        /* \"#utility.yul\":2016:2093   */\n      swap2\n      swap1\n      pop\n      jump\t// out\n        /* \"#utility.yul\":2099:2221   */\n    tag_104:\n        /* \"#utility.yul\":2172:2196   */\n      tag_185\n        /* \"#utility.yul\":2190:2195   */\n      dup2\n        /* \"#utility.yul\":2172:2196   */\n      tag_103\n      jump\t// in\n    tag_185:\n        /* \"#utility.yul\":2165:2170   */\n      dup2\n        /* \"#utility.yul\":2162:2197   */\n      eq\n        /* \"#utility.yul\":2152:2215   */\n      tag_186\n      jumpi\n        /* \"#utility.yul\":2211:2212   */\n      0x00\n        /* \"#utility.yul\":2208:2209   */\n      dup1\n        /* \"#utility.yul\":2201:2213   */\n      revert\n        /* \"#utility.yul\":2152:2215   */\n    tag_186:\n        /* \"#utility.yul\":2099:2221   */\n      pop\n      jump\t// out\n        /* \"#utility.yul\":2227:2366   */\n    tag_105:\n        /* \"#utility.yul\":2273:2278   */\n      0x00\n        /* \"#utility.yul\":2311:2317   */\n      dup2\n        /* \"#utility.yul\":2298:2318   */\n      calldataload\n        /* \"#utility.yul\":2289:2318   */\n      swap1\n      pop\n        /* \"#utility.yul\":2327:2360   */\n      tag_188\n        /* \"#utility.yul\":2354:2359   */\n      dup2\n        /* \"#utility.yul\":2327:2360   */\n      tag_104\n      jump\t// in\n    tag_188:\n        /* \"#utility.yul\":2227:2366   */\n      swap3\n      swap2\n      pop\n      pop\n      jump\t// out\n        /* \"#utility.yul\":2372:2846   */\n    tag_18:\n        /* \"#utility.yul\":2440:2446   */\n      0x00\n        /* \"#utility.yul\":2448:2454   */\n      dup1\n        /* \"#utility.yul\":2497:2499   */\n      0x40\n        /* \"#utility.yul\":2485:2494   */\n      dup4\n        /* \"#utility.yul\":2476:2483   */\n      dup6\n        /* \"#utility.yul\":2472:2495   */\n      sub\n        /* \"#utility.yul\":2468:2500   */\n      slt\n        /* \"#utility.yul\":2465:2584   */\n      iszero\n      tag_190\n      jumpi\n        /* \"#utility.yul\":2503:2582   */\n      tag_191\n      tag_101\n      jump\t// in\n    tag_191:\n        /* \"#utility.yul\":2465:2584   */\n    tag_190:\n        /* \"#utility.yul\":2623:2624   */\n      0x00\n        /* \"#utility.yul\":2648:2701   */\n      tag_192\n        /* \"#utility.yul\":2693:2700   */\n      dup6\n        /* \"#utility.yul\":2684:2690   */\n      dup3\n        /* \"#utility.yul\":2673:2682   */\n      dup7\n        /* \"#utility.yul\":2669:2691   */\n      add\n        /* \"#utility.yul\":2648:2701   */\n      tag_105\n      jump\t// in\n    tag_192:\n        /* \"#utility.yul\":2638:2701   */\n      swap3\n      pop\n        /* \"#utility.yul\":2594:2711   */\n      pop\n        /* \"#utility.yul\":2750:2752   */\n      0x20\n        /* \"#utility.yul\":2776:2829   */\n      tag_193\n        /* \"#utility.yul\":2821:2828   */\n      dup6\n        /* \"#utility.yul\":2812:2818   */\n      dup3\n        /* \"#utility.yul\":2801:2810   */\n      dup7\n        /* \"#utility.yul\":2797:2819   */\n      add\n        /* \"#utility.yul\":2776:2829   */\n      tag_105\n      jump\t// in\n    tag_193:\n        /* \"#utility.yul\":2766:2829   */\n      swap2\n      pop\n        /* \"#utility.yul\":2721:2839   */\n      pop\n        /* \"#utility.yul\":2372:2846   */\n      swap3\n      pop\n      swap3\n      swap1\n      pop\n      jump\t// out\n        /* \"#utility.yul\":2852:2994   */\n    tag_106:\n        /* \"#utility.yul\":2918:2927   */\n      0x00\n        /* \"#utility.yul\":2951:2988   */\n      tag_195\n        /* \"#utility.yul\":2982:2987   */\n      dup3\n        /* \"#utility.yul\":2951:2988   */\n      tag_95\n      jump\t// in\n    tag_195:\n        /* \"#utility.yul\":2938:2988   */\n      swap1\n      pop\n        /* \"#utility.yul\":2852:2994   */\n      swap2\n      swap1\n      pop\n      jump\t// out\n        /* \"#utility.yul\":3000:3163   */\n    tag_107:\n        /* \"#utility.yul\":3103:3156   */\n      tag_197\n        /* \"#utility.yul\":3150:3155   */\n      dup2\n        /* \"#utility.yul\":3103:3156   */\n      tag_106\n      jump\t// in\n    tag_197:\n        /* \"#utility.yul\":3098:3101   */\n      dup3\n        /* \"#utility.yul\":3091:3157   */\n      mstore\n        /* \"#utility.yul\":3000:3163   */\n      pop\n      pop\n      jump\t// out\n        /* \"#utility.yul\":3169:3423   */\n    tag_23:\n        /* \"#utility.yul\":3278:3282   */\n      0x00\n        /* \"#utility.yul\":3316:3318   */\n      0x20\n        /* \"#utility.yul\":3305:3314   */\n      dup3\n        /* \"#utility.yul\":3301:3319   */\n      add\n        /* \"#utility.yul\":3293:3319   */\n      swap1\n      pop\n        /* \"#utility.yul\":3329:3416   */\n      tag_199\n        /* \"#utility.yul\":3413:3414   */\n      0x00\n        /* \"#utility.yul\":3402:3411   */\n      dup4\n        /* \"#utility.yul\":3398:3415   */\n      add\n        /* \"#utility.yul\":3389:3395   */\n      dup5\n        /* \"#utility.yul\":3329:3416   */\n      tag_107\n      jump\t// in\n    tag_199:\n        /* \"#utility.yul\":3169:3423   */\n      swap3\n      swap2\n      pop\n      pop\n      jump\t// out\n        /* \"#utility.yul\":3429:3758   */\n    tag_26:\n        /* \"#utility.yul\":3488:3494   */\n      0x00\n        /* \"#utility.yul\":3537:3539   */\n      0x20\n        /* \"#utility.yul\":3525:3534   */\n      dup3\n        /* \"#utility.yul\":3516:3523   */\n      dup5\n        /* \"#utility.yul\":3512:3535   */\n      sub\n        /* \"#utility.yul\":3508:3540   */\n      slt\n        /* \"#utility.yul\":3505:3624   */\n      iszero\n      tag_201\n      jumpi\n        /* \"#utility.yul\":3543:3622   */\n      tag_202\n      tag_101\n      jump\t// in\n    tag_202:\n        /* \"#utility.yul\":3505:3624   */\n    tag_201:\n        /* \"#utility.yul\":3663:3664   */\n      0x00\n        /* \"#utility.yul\":3688:3741   */\n      tag_203\n        /* \"#utility.yul\":3733:3740   */\n      dup5\n        /* \"#utility.yul\":3724:3730   */\n      dup3\n        /* \"#utility.yul\":3713:3722   */\n      dup6\n        /* \"#utility.yul\":3709:3731   */\n      add\n        /* \"#utility.yul\":3688:3741   */\n      tag_105\n      jump\t// in\n    tag_203:\n        /* \"#utility.yul\":3678:3741   */\n      swap2\n      pop\n        /* \"#utility.yul\":3634:3751   */\n      pop\n        /* \"#utility.yul\":3429:3758   */\n      swap3\n      swap2\n      pop\n      pop\n      jump\t// out\n        /* \"#utility.yul\":3764:3888   */\n    tag_108:\n        /* \"#utility.yul\":3841:3847   */\n      0x00\n        /* \"#utility.yul\":3875:3880   */\n      dup2\n        /* \"#utility.yul\":3869:3881   */\n      mload\n        /* \"#utility.yul\":3859:3881   */\n      swap1\n      pop\n        /* \"#utility.yul\":3764:3888   */\n      swap2\n      swap1\n      pop\n      jump\t// out\n        /* \"#utility.yul\":3894:4088   */\n    tag_109:\n        /* \"#utility.yul\":4003:4014   */\n      0x00\n        /* \"#utility.yul\":4037:4043   */\n      dup3\n        /* \"#utility.yul\":4032:4035   */\n      dup3\n        /* \"#utility.yul\":4025:4044   */\n      mstore\n        /* \"#utility.yul\":4077:4081   */\n      0x20\n        /* \"#utility.yul\":4072:4075   */\n      dup3\n        /* \"#utility.yul\":4068:4082   */\n      add\n        /* \"#utility.yul\":4053:4082   */\n      swap1\n      pop\n        /* \"#utility.yul\":3894:4088   */\n      swap3\n      swap2\n      pop\n      pop\n      jump\t// out\n        /* \"#utility.yul\":4094:4236   */\n    tag_110:\n        /* \"#utility.yul\":4171:4175   */\n      0x00\n        /* \"#utility.yul\":4194:4197   */\n      dup2\n        /* \"#utility.yul\":4186:4197   */\n      swap1\n      pop\n        /* \"#utility.yul\":4224:4228   */\n      0x20\n        /* \"#utility.yul\":4219:4222   */\n      dup3\n        /* \"#utility.yul\":4215:4229   */\n      add\n        /* \"#utility.yul\":4207:4229   */\n      swap1\n      pop\n        /* \"#utility.yul\":4094:4236   */\n      swap2\n      swap1\n      pop\n      jump\t// out\n        /* \"#utility.yul\":4242:4341   */\n    tag_111:\n        /* \"#utility.yul\":4294:4300   */\n      0x00\n        /* \"#utility.yul\":4328:4333   */\n      dup2\n        /* \"#utility.yul\":4322:4334   */\n      mload\n        /* \"#utility.yul\":4312:4334   */\n      swap1\n      pop\n        /* \"#utility.yul\":4242:4341   */\n      swap2\n      swap1\n      pop\n      jump\t// out\n        /* \"#utility.yul\":4347:4506   */\n    tag_112:\n        /* \"#utility.yul\":4421:4432   */\n      0x00\n        /* \"#utility.yul\":4455:4461   */\n      dup3\n        /* \"#utility.yul\":4450:4453   */\n      dup3\n        /* \"#utility.yul\":4443:4462   */\n      mstore\n        /* \"#utility.yul\":4495:4499   */\n      0x20\n        /* \"#utility.yul\":4490:4493   */\n      dup3\n        /* \"#utility.yul\":4486:4500   */\n      add\n        /* \"#utility.yul\":4471:4500   */\n      swap1\n      pop\n        /* \"#utility.yul\":4347:4506   */\n      swap3\n      swap2\n      pop\n      pop\n      jump\t// out\n        /* \"#utility.yul\":4512:4819   */\n    tag_113:\n        /* \"#utility.yul\":4580:4581   */\n      0x00\n        /* \"#utility.yul\":4590:4703   */\n    tag_210:\n        /* \"#utility.yul\":4604:4610   */\n      dup4\n        /* \"#utility.yul\":4601:4602   */\n      dup2\n        /* \"#utility.yul\":4598:4611   */\n      lt\n        /* \"#utility.yul\":4590:4703   */\n      iszero\n      tag_212\n      jumpi\n        /* \"#utility.yul\":4689:4690   */\n      dup1\n        /* \"#utility.yul\":4684:4687   */\n      dup3\n        /* \"#utility.yul\":4680:4691   */\n      add\n        /* \"#utility.yul\":4674:4692   */\n      mload\n        /* \"#utility.yul\":4670:4671   */\n      dup2\n        /* \"#utility.yul\":4665:4668   */\n      dup5\n        /* \"#utility.yul\":4661:4672   */\n      add\n        /* \"#utility.yul\":4654:4693   */\n      mstore\n        /* \"#utility.yul\":4626:4628   */\n      0x20\n        /* \"#utility.yul\":4623:4624   */\n      dup2\n        /* \"#utility.yul\":4619:4629   */\n      add\n        /* \"#utility.yul\":4614:4629   */\n      swap1\n      pop\n        /* \"#utility.yul\":4590:4703   */\n      jump(tag_210)\n    tag_212:\n        /* \"#utility.yul\":4721:4727   */\n      dup4\n        /* \"#utility.yul\":4718:4719   */\n      dup2\n        /* \"#utility.yul\":4715:4728   */\n      gt\n        /* \"#utility.yul\":4712:4813   */\n      iszero\n      tag_213\n      jumpi\n        /* \"#utility.yul\":4801:4802   */\n      0x00\n        /* \"#utility.yul\":4792:4798   */\n      dup5\n        /* \"#utility.yul\":4787:4790   */\n      dup5\n        /* \"#utility.yul\":4783:4799   */\n      add\n        /* \"#utility.yul\":4776:4803   */\n      mstore\n        /* \"#utility.yul\":4712:4813   */\n    tag_213:\n        /* \"#utility.yul\":4561:4819   */\n      pop\n        /* \"#utility.yul\":4512:4819   */\n      pop\n      pop\n      pop\n      jump\t// out\n        /* \"#utility.yul\":4825:4927   */\n    tag_114:\n        /* \"#utility.yul\":4866:4872   */\n      0x00\n        /* \"#utility.yul\":4917:4919   */\n      0x1f\n        /* \"#utility.yul\":4913:4920   */\n      not\n        /* \"#utility.yul\":4908:4910   */\n      0x1f\n        /* \"#utility.yul\":4901:4906   */\n      dup4\n        /* \"#utility.yul\":4897:4911   */\n      add\n        /* \"#utility.yul\":4893:4921   */\n      and\n        /* \"#utility.yul\":4883:4921   */\n      swap1\n      pop\n        /* \"#utility.yul\":4825:4927   */\n      swap2\n      swap1\n      pop\n      jump\t// out\n        /* \"#utility.yul\":4933:5277   */\n    tag_115:\n        /* \"#utility.yul\":5011:5014   */\n      0x00\n        /* \"#utility.yul\":5039:5078   */\n      tag_216\n        /* \"#utility.yul\":5072:5077   */\n      dup3\n        /* \"#utility.yul\":5039:5078   */\n      tag_111\n      jump\t// in\n    tag_216:\n        /* \"#utility.yul\":5094:5155   */\n      tag_217\n        /* \"#utility.yul\":5148:5154   */\n      dup2\n        /* \"#utility.yul\":5143:5146   */\n      dup6\n        /* \"#utility.yul\":5094:5155   */\n      tag_112\n      jump\t// in\n    tag_217:\n        /* \"#utility.yul\":5087:5155   */\n      swap4\n      pop\n        /* \"#utility.yul\":5164:5216   */\n      tag_218\n        /* \"#utility.yul\":5209:5215   */\n      dup2\n        /* \"#utility.yul\":5204:5207   */\n      dup6\n        /* \"#utility.yul\":5197:5201   */\n      0x20\n        /* \"#utility.yul\":5190:5195   */\n      dup7\n        /* \"#utility.yul\":5186:5202   */\n      add\n        /* \"#utility.yul\":5164:5216   */\n      tag_113\n      jump\t// in\n    tag_218:\n        /* \"#utility.yul\":5241:5270   */\n      tag_219\n        /* \"#utility.yul\":5263:5269   */\n      dup2\n        /* \"#utility.yul\":5241:5270   */\n      tag_114\n      jump\t// in\n    tag_219:\n        /* \"#utility.yul\":5236:5239   */\n      dup5\n        /* \"#utility.yul\":5232:5271   */\n      add\n        /* \"#utility.yul\":5225:5271   */\n      swap2\n      pop\n        /* \"#utility.yul\":5015:5277   */\n      pop\n        /* \"#utility.yul\":4933:5277   */\n      swap3\n      swap2\n      pop\n      pop\n      jump\t// out\n        /* \"#utility.yul\":5283:5479   */\n    tag_116:\n        /* \"#utility.yul\":5372:5382   */\n      0x00\n        /* \"#utility.yul\":5407:5473   */\n      tag_221\n        /* \"#utility.yul\":5469:5472   */\n      dup4\n        /* \"#utility.yul\":5461:5467   */\n      dup4\n        /* \"#utility.yul\":5407:5473   */\n      tag_115\n      jump\t// in\n    tag_221:\n        /* \"#utility.yul\":5393:5473   */\n      swap1\n      pop\n        /* \"#utility.yul\":5283:5479   */\n      swap3\n      swap2\n      pop\n      pop\n      jump\t// out\n        /* \"#utility.yul\":5485:5608   */\n    tag_117:\n        /* \"#utility.yul\":5565:5569   */\n      0x00\n        /* \"#utility.yul\":5597:5601   */\n      0x20\n        /* \"#utility.yul\":5592:5595   */\n      dup3\n        /* \"#utility.yul\":5588:5602   */\n      add\n        /* \"#utility.yul\":5580:5602   */\n      swap1\n      pop\n        /* \"#utility.yul\":5485:5608   */\n      swap2\n      swap1\n      pop\n      jump\t// out\n        /* \"#utility.yul\":5642:6633   */\n    tag_118:\n        /* \"#utility.yul\":5781:5784   */\n      0x00\n        /* \"#utility.yul\":5810:5874   */\n      tag_224\n        /* \"#utility.yul\":5868:5873   */\n      dup3\n        /* \"#utility.yul\":5810:5874   */\n      tag_108\n      jump\t// in\n    tag_224:\n        /* \"#utility.yul\":5890:5986   */\n      tag_225\n        /* \"#utility.yul\":5979:5985   */\n      dup2\n        /* \"#utility.yul\":5974:5977   */\n      dup6\n        /* \"#utility.yul\":5890:5986   */\n      tag_109\n      jump\t// in\n    tag_225:\n        /* \"#utility.yul\":5883:5986   */\n      swap4\n      pop\n        /* \"#utility.yul\":6012:6015   */\n      dup4\n        /* \"#utility.yul\":6057:6061   */\n      0x20\n        /* \"#utility.yul\":6049:6055   */\n      dup3\n        /* \"#utility.yul\":6045:6062   */\n      mul\n        /* \"#utility.yul\":6040:6043   */\n      dup6\n        /* \"#utility.yul\":6036:6063   */\n      add\n        /* \"#utility.yul\":6087:6153   */\n      tag_226\n        /* \"#utility.yul\":6147:6152   */\n      dup6\n        /* \"#utility.yul\":6087:6153   */\n      tag_110\n      jump\t// in\n    tag_226:\n        /* \"#utility.yul\":6176:6183   */\n      dup1\n        /* \"#utility.yul\":6207:6208   */\n      0x00\n        /* \"#utility.yul\":6192:6588   */\n    tag_227:\n        /* \"#utility.yul\":6217:6223   */\n      dup6\n        /* \"#utility.yul\":6214:6215   */\n      dup2\n        /* \"#utility.yul\":6211:6224   */\n      lt\n        /* \"#utility.yul\":6192:6588   */\n      iszero\n      tag_229\n      jumpi\n        /* \"#utility.yul\":6288:6297   */\n      dup5\n        /* \"#utility.yul\":6282:6286   */\n      dup5\n        /* \"#utility.yul\":6278:6298   */\n      sub\n        /* \"#utility.yul\":6273:6276   */\n      dup10\n        /* \"#utility.yul\":6266:6299   */\n      mstore\n        /* \"#utility.yul\":6339:6345   */\n      dup2\n        /* \"#utility.yul\":6333:6346   */\n      mload\n        /* \"#utility.yul\":6367:6451   */\n      tag_230\n        /* \"#utility.yul\":6446:6450   */\n      dup6\n        /* \"#utility.yul\":6431:6444   */\n      dup3\n        /* \"#utility.yul\":6367:6451   */\n      tag_116\n      jump\t// in\n    tag_230:\n        /* \"#utility.yul\":6359:6451   */\n      swap5\n      pop\n        /* \"#utility.yul\":6474:6544   */\n      tag_231\n        /* \"#utility.yul\":6537:6543   */\n      dup4\n        /* \"#utility.yul\":6474:6544   */\n      tag_117\n      jump\t// in\n    tag_231:\n        /* \"#utility.yul\":6464:6544   */\n      swap3\n      pop\n        /* \"#utility.yul\":6573:6577   */\n      0x20\n        /* \"#utility.yul\":6568:6571   */\n      dup11\n        /* \"#utility.yul\":6564:6578   */\n      add\n        /* \"#utility.yul\":6557:6578   */\n      swap10\n      pop\n        /* \"#utility.yul\":6252:6588   */\n      pop\n        /* \"#utility.yul\":6239:6240   */\n      0x01\n        /* \"#utility.yul\":6236:6237   */\n      dup2\n        /* \"#utility.yul\":6232:6241   */\n      add\n        /* \"#utility.yul\":6227:6241   */\n      swap1\n      pop\n        /* \"#utility.yul\":6192:6588   */\n      jump(tag_227)\n    tag_229:\n        /* \"#utility.yul\":6196:6210   */\n      pop\n        /* \"#utility.yul\":6604:6608   */\n      dup3\n        /* \"#utility.yul\":6597:6608   */\n      swap8\n      pop\n        /* \"#utility.yul\":6624:6627   */\n      dup8\n        /* \"#utility.yul\":6617:6627   */\n      swap6\n      pop\n        /* \"#utility.yul\":5786:6633   */\n      pop\n      pop\n      pop\n      pop\n      pop\n        /* \"#utility.yul\":5642:6633   */\n      swap3\n      swap2\n      pop\n      pop\n      jump\t// out\n        /* \"#utility.yul\":6639:6762   */\n    tag_119:\n        /* \"#utility.yul\":6715:6721   */\n      0x00\n        /* \"#utility.yul\":6749:6754   */\n      dup2\n        /* \"#utility.yul\":6743:6755   */\n      mload\n        /* \"#utility.yul\":6733:6755   */\n      swap1\n      pop\n        /* \"#utility.yul\":6639:6762   */\n      swap2\n      swap1\n      pop\n      jump\t// out\n        /* \"#utility.yul\":6768:6961   */\n    tag_120:\n        /* \"#utility.yul\":6876:6887   */\n      0x00\n        /* \"#utility.yul\":6910:6916   */\n      dup3\n        /* \"#utility.yul\":6905:6908   */\n      dup3\n        /* \"#utility.yul\":6898:6917   */\n      mstore\n        /* \"#utility.yul\":6950:6954   */\n      0x20\n        /* \"#utility.yul\":6945:6948   */\n      dup3\n        /* \"#utility.yul\":6941:6955   */\n      add\n        /* \"#utility.yul\":6926:6955   */\n      swap1\n      pop\n        /* \"#utility.yul\":6768:6961   */\n      swap3\n      swap2\n      pop\n      pop\n      jump\t// out\n        /* \"#utility.yul\":6967:7108   */\n    tag_121:\n        /* \"#utility.yul\":7043:7047   */\n      0x00\n        /* \"#utility.yul\":7066:7069   */\n      dup2\n        /* \"#utility.yul\":7058:7069   */\n      swap1\n      pop\n        /* \"#utility.yul\":7096:7100   */\n      0x20\n        /* \"#utility.yul\":7091:7094   */\n      dup3\n        /* \"#utility.yul\":7087:7101   */\n      add\n        /* \"#utility.yul\":7079:7101   */\n      swap1\n      pop\n        /* \"#utility.yul\":6967:7108   */\n      swap2\n      swap1\n      pop\n      jump\t// out\n        /* \"#utility.yul\":7114:7212   */\n    tag_122:\n        /* \"#utility.yul\":7165:7171   */\n      0x00\n        /* \"#utility.yul\":7199:7204   */\n      dup2\n        /* \"#utility.yul\":7193:7205   */\n      mload\n        /* \"#utility.yul\":7183:7205   */\n      swap1\n      pop\n        /* \"#utility.yul\":7114:7212   */\n      swap2\n      swap1\n      pop\n      jump\t// out\n        /* \"#utility.yul\":7218:7376   */\n    tag_123:\n        /* \"#utility.yul\":7291:7302   */\n      0x00\n        /* \"#utility.yul\":7325:7331   */\n      dup3\n        /* \"#utility.yul\":7320:7323   */\n      dup3\n        /* \"#utility.yul\":7313:7332   */\n      mstore\n        /* \"#utility.yul\":7365:7369   */\n      0x20\n        /* \"#utility.yul\":7360:7363   */\n      dup3\n        /* \"#utility.yul\":7356:7370   */\n      add\n        /* \"#utility.yul\":7341:7370   */\n      swap1\n      pop\n        /* \"#utility.yul\":7218:7376   */\n      swap3\n      swap2\n      pop\n      pop\n      jump\t// out\n        /* \"#utility.yul\":7382:7722   */\n    tag_124:\n        /* \"#utility.yul\":7458:7461   */\n      0x00\n        /* \"#utility.yul\":7486:7524   */\n      tag_238\n        /* \"#utility.yul\":7518:7523   */\n      dup3\n        /* \"#utility.yul\":7486:7524   */\n      tag_122\n      jump\t// in\n    tag_238:\n        /* \"#utility.yul\":7540:7600   */\n      tag_239\n        /* \"#utility.yul\":7593:7599   */\n      dup2\n        /* \"#utility.yul\":7588:7591   */\n      dup6\n        /* \"#utility.yul\":7540:7600   */\n      tag_123\n      jump\t// in\n    tag_239:\n        /* \"#utility.yul\":7533:7600   */\n      swap4\n      pop\n        /* \"#utility.yul\":7609:7661   */\n      tag_240\n        /* \"#utility.yul\":7654:7660   */\n      dup2\n        /* \"#utility.yul\":7649:7652   */\n      dup6\n        /* \"#utility.yul\":7642:7646   */\n      0x20\n        /* \"#utility.yul\":7635:7640   */\n      dup7\n        /* \"#utility.yul\":7631:7647   */\n      add\n        /* \"#utility.yul\":7609:7661   */\n      tag_113\n      jump\t// in\n    tag_240:\n        /* \"#utility.yul\":7686:7715   */\n      tag_241\n        /* \"#utility.yul\":7708:7714   */\n      dup2\n        /* \"#utility.yul\":7686:7715   */\n      tag_114\n      jump\t// in\n    tag_241:\n        /* \"#utility.yul\":7681:7684   */\n      dup5\n        /* \"#utility.yul\":7677:7716   */\n      add\n        /* \"#utility.yul\":7670:7716   */\n      swap2\n      pop\n        /* \"#utility.yul\":7462:7722   */\n      pop\n        /* \"#utility.yul\":7382:7722   */\n      swap3\n      swap2\n      pop\n      pop\n      jump\t// out\n        /* \"#utility.yul\":7728:7920   */\n    tag_125:\n        /* \"#utility.yul\":7815:7825   */\n      0x00\n        /* \"#utility.yul\":7850:7914   */\n      tag_243\n        /* \"#utility.yul\":7910:7913   */\n      dup4\n        /* \"#utility.yul\":7902:7908   */\n      dup4\n        /* \"#utility.yul\":7850:7914   */\n      tag_124\n      jump\t// in\n    tag_243:\n        /* \"#utility.yul\":7836:7914   */\n      swap1\n      pop\n        /* \"#utility.yul\":7728:7920   */\n      swap3\n      swap2\n      pop\n      pop\n      jump\t// out\n        /* \"#utility.yul\":7926:8048   */\n    tag_126:\n        /* \"#utility.yul\":8005:8009   */\n      0x00\n        /* \"#utility.yul\":8037:8041   */\n      0x20\n        /* \"#utility.yul\":8032:8035   */\n      dup3\n        /* \"#utility.yul\":8028:8042   */\n      add\n        /* \"#utility.yul\":8020:8042   */\n      swap1\n      pop\n        /* \"#utility.yul\":7926:8048   */\n      swap2\n      swap1\n      pop\n      jump\t// out\n        /* \"#utility.yul\":8080:9063   */\n    tag_127:\n        /* \"#utility.yul\":8217:8220   */\n      0x00\n        /* \"#utility.yul\":8246:8309   */\n      tag_246\n        /* \"#utility.yul\":8303:8308   */\n      dup3\n        /* \"#utility.yul\":8246:8309   */\n      tag_119\n      jump\t// in\n    tag_246:\n        /* \"#utility.yul\":8325:8420   */\n      tag_247\n        /* \"#utility.yul\":8413:8419   */\n      dup2\n        /* \"#utility.yul\":8408:8411   */\n      dup6\n        /* \"#utility.yul\":8325:8420   */\n      tag_120\n      jump\t// in\n    tag_247:\n        /* \"#utility.yul\":8318:8420   */\n      swap4\n      pop\n        /* \"#utility.yul\":8446:8449   */\n      dup4\n        /* \"#utility.yul\":8491:8495   */\n      0x20\n        /* \"#utility.yul\":8483:8489   */\n      dup3\n        /* \"#utility.yul\":8479:8496   */\n      mul\n        /* \"#utility.yul\":8474:8477   */\n      dup6\n        /* \"#utility.yul\":8470:8497   */\n      add\n        /* \"#utility.yul\":8521:8586   */\n      tag_248\n        /* \"#utility.yul\":8580:8585   */\n      dup6\n        /* \"#utility.yul\":8521:8586   */\n      tag_121\n      jump\t// in\n    tag_248:\n        /* \"#utility.yul\":8609:8616   */\n      dup1\n        /* \"#utility.yul\":8640:8641   */\n      0x00\n        /* \"#utility.yul\":8625:9018   */\n    tag_249:\n        /* \"#utility.yul\":8650:8656   */\n      dup6\n        /* \"#utility.yul\":8647:8648   */\n      dup2\n        /* \"#utility.yul\":8644:8657   */\n      lt\n        /* \"#utility.yul\":8625:9018   */\n      iszero\n      tag_251\n      jumpi\n        /* \"#utility.yul\":8721:8730   */\n      dup5\n        /* \"#utility.yul\":8715:8719   */\n      dup5\n        /* \"#utility.yul\":8711:8731   */\n      sub\n        /* \"#utility.yul\":8706:8709   */\n      dup10\n        /* \"#utility.yul\":8699:8732   */\n      mstore\n        /* \"#utility.yul\":8772:8778   */\n      dup2\n        /* \"#utility.yul\":8766:8779   */\n      mload\n        /* \"#utility.yul\":8800:8882   */\n      tag_252\n        /* \"#utility.yul\":8877:8881   */\n      dup6\n        /* \"#utility.yul\":8862:8875   */\n      dup3\n        /* \"#utility.yul\":8800:8882   */\n      tag_125\n      jump\t// in\n    tag_252:\n        /* \"#utility.yul\":8792:8882   */\n      swap5\n      pop\n        /* \"#utility.yul\":8905:8974   */\n      tag_253\n        /* \"#utility.yul\":8967:8973   */\n      dup4\n        /* \"#utility.yul\":8905:8974   */\n      tag_126\n      jump\t// in\n    tag_253:\n        /* \"#utility.yul\":8895:8974   */\n      swap3\n      pop\n        /* \"#utility.yul\":9003:9007   */\n      0x20\n        /* \"#utility.yul\":8998:9001   */\n      dup11\n        /* \"#utility.yul\":8994:9008   */\n      add\n        /* \"#utility.yul\":8987:9008   */\n      swap10\n      pop\n        /* \"#utility.yul\":8685:9018   */\n      pop\n        /* \"#utility.yul\":8672:8673   */\n      0x01\n        /* \"#utility.yul\":8669:8670   */\n      dup2\n        /* \"#utility.yul\":8665:8674   */\n      add\n        /* \"#utility.yul\":8660:8674   */\n      swap1\n      pop\n        /* \"#utility.yul\":8625:9018   */\n      jump(tag_249)\n    tag_251:\n        /* \"#utility.yul\":8629:8643   */\n      pop\n        /* \"#utility.yul\":9034:9038   */\n      dup3\n        /* \"#utility.yul\":9027:9038   */\n      swap8\n      pop\n        /* \"#utility.yul\":9054:9057   */\n      dup8\n        /* \"#utility.yul\":9047:9057   */\n      swap6\n      pop\n        /* \"#utility.yul\":8222:9063   */\n      pop\n      pop\n      pop\n      pop\n      pop\n        /* \"#utility.yul\":8080:9063   */\n      swap3\n      swap2\n      pop\n      pop\n      jump\t// out\n        /* \"#utility.yul\":9069:10080   */\n    tag_29:\n        /* \"#utility.yul\":9426:9430   */\n      0x00\n        /* \"#utility.yul\":9464:9466   */\n      0x60\n        /* \"#utility.yul\":9453:9462   */\n      dup3\n        /* \"#utility.yul\":9449:9467   */\n      add\n        /* \"#utility.yul\":9441:9467   */\n      swap1\n      pop\n        /* \"#utility.yul\":9513:9522   */\n      dup2\n        /* \"#utility.yul\":9507:9511   */\n      dup2\n        /* \"#utility.yul\":9503:9523   */\n      sub\n        /* \"#utility.yul\":9499:9500   */\n      0x00\n        /* \"#utility.yul\":9488:9497   */\n      dup4\n        /* \"#utility.yul\":9484:9501   */\n      add\n        /* \"#utility.yul\":9477:9524   */\n      mstore\n        /* \"#utility.yul\":9541:9669   */\n      tag_255\n        /* \"#utility.yul\":9664:9668   */\n      dup2\n        /* \"#utility.yul\":9655:9661   */\n      dup7\n        /* \"#utility.yul\":9541:9669   */\n      tag_118\n      jump\t// in\n    tag_255:\n        /* \"#utility.yul\":9533:9669   */\n      swap1\n      pop\n        /* \"#utility.yul\":9716:9725   */\n      dup2\n        /* \"#utility.yul\":9710:9714   */\n      dup2\n        /* \"#utility.yul\":9706:9726   */\n      sub\n        /* \"#utility.yul\":9701:9703   */\n      0x20\n        /* \"#utility.yul\":9690:9699   */\n      dup4\n        /* \"#utility.yul\":9686:9704   */\n      add\n        /* \"#utility.yul\":9679:9727   */\n      mstore\n        /* \"#utility.yul\":9744:9872   */\n      tag_256\n        /* \"#utility.yul\":9867:9871   */\n      dup2\n        /* \"#utility.yul\":9858:9864   */\n      dup6\n        /* \"#utility.yul\":9744:9872   */\n      tag_118\n      jump\t// in\n    tag_256:\n        /* \"#utility.yul\":9736:9872   */\n      swap1\n      pop\n        /* \"#utility.yul\":9919:9928   */\n      dup2\n        /* \"#utility.yul\":9913:9917   */\n      dup2\n        /* \"#utility.yul\":9909:9929   */\n      sub\n        /* \"#utility.yul\":9904:9906   */\n      0x40\n        /* \"#utility.yul\":9893:9902   */\n      dup4\n        /* \"#utility.yul\":9889:9907   */\n      add\n        /* \"#utility.yul\":9882:9930   */\n      mstore\n        /* \"#utility.yul\":9947:10073   */\n      tag_257\n        /* \"#utility.yul\":10068:10072   */\n      dup2\n        /* \"#utility.yul\":10059:10065   */\n      dup5\n        /* \"#utility.yul\":9947:10073   */\n      tag_127\n      jump\t// in\n    tag_257:\n        /* \"#utility.yul\":9939:10073   */\n      swap1\n      pop\n        /* \"#utility.yul\":9069:10080   */\n      swap5\n      swap4\n      pop\n      pop\n      pop\n      pop\n      jump\t// out\n        /* \"#utility.yul\":10086:10204   */\n    tag_128:\n        /* \"#utility.yul\":10173:10197   */\n      tag_259\n        /* \"#utility.yul\":10191:10196   */\n      dup2\n        /* \"#utility.yul\":10173:10197   */\n      tag_103\n      jump\t// in\n    tag_259:\n        /* \"#utility.yul\":10168:10171   */\n      dup3\n        /* \"#utility.yul\":10161:10198   */\n      mstore\n        /* \"#utility.yul\":10086:10204   */\n      pop\n      pop\n      jump\t// out\n        /* \"#utility.yul\":10210:10432   */\n    tag_32:\n        /* \"#utility.yul\":10303:10307   */\n      0x00\n        /* \"#utility.yul\":10341:10343   */\n      0x20\n        /* \"#utility.yul\":10330:10339   */\n      dup3\n        /* \"#utility.yul\":10326:10344   */\n      add\n        /* \"#utility.yul\":10318:10344   */\n      swap1\n      pop\n        /* \"#utility.yul\":10354:10425   */\n      tag_261\n        /* \"#utility.yul\":10422:10423   */\n      0x00\n        /* \"#utility.yul\":10411:10420   */\n      dup4\n        /* \"#utility.yul\":10407:10424   */\n      add\n        /* \"#utility.yul\":10398:10404   */\n      dup5\n        /* \"#utility.yul\":10354:10425   */\n      tag_128\n      jump\t// in\n    tag_261:\n        /* \"#utility.yul\":10210:10432   */\n      swap3\n      swap2\n      pop\n      pop\n      jump\t// out\n        /* \"#utility.yul\":10438:10528   */\n    tag_129:\n        /* \"#utility.yul\":10472:10479   */\n      0x00\n        /* \"#utility.yul\":10515:10520   */\n      dup2\n        /* \"#utility.yul\":10508:10521   */\n      iszero\n        /* \"#utility.yul\":10501:10522   */\n      iszero\n        /* \"#utility.yul\":10490:10522   */\n      swap1\n      pop\n        /* \"#utility.yul\":10438:10528   */\n      swap2\n      swap1\n      pop\n      jump\t// out\n        /* \"#utility.yul\":10534:10650   */\n    tag_130:\n        /* \"#utility.yul\":10604:10625   */\n      tag_264\n        /* \"#utility.yul\":10619:10624   */\n      dup2\n        /* \"#utility.yul\":10604:10625   */\n      tag_129\n      jump\t// in\n    tag_264:\n        /* \"#utility.yul\":10597:10602   */\n      dup2\n        /* \"#utility.yul\":10594:10626   */\n      eq\n        /* \"#utility.yul\":10584:10644   */\n      tag_265\n      jumpi\n        /* \"#utility.yul\":10640:10641   */\n      0x00\n        /* \"#utility.yul\":10637:10638   */\n      dup1\n        /* \"#utility.yul\":10630:10642   */\n      revert\n        /* \"#utility.yul\":10584:10644   */\n    tag_265:\n        /* \"#utility.yul\":10534:10650   */\n      pop\n      jump\t// out\n        /* \"#utility.yul\":10656:10793   */\n    tag_131:\n        /* \"#utility.yul\":10710:10715   */\n      0x00\n        /* \"#utility.yul\":10741:10747   */\n      dup2\n        /* \"#utility.yul\":10735:10748   */\n      mload\n        /* \"#utility.yul\":10726:10748   */\n      swap1\n      pop\n        /* \"#utility.yul\":10757:10787   */\n      tag_267\n        /* \"#utility.yul\":10781:10786   */\n      dup2\n        /* \"#utility.yul\":10757:10787   */\n      tag_130\n      jump\t// in\n    tag_267:\n        /* \"#utility.yul\":10656:10793   */\n      swap3\n      swap2\n      pop\n      pop\n      jump\t// out\n        /* \"#utility.yul\":10799:11144   */\n    tag_36:\n        /* \"#utility.yul\":10866:10872   */\n      0x00\n        /* \"#utility.yul\":10915:10917   */\n      0x20\n        /* \"#utility.yul\":10903:10912   */\n      dup3\n        /* \"#utility.yul\":10894:10901   */\n      dup5\n        /* \"#utility.yul\":10890:10913   */\n      sub\n        /* \"#utility.yul\":10886:10918   */\n      slt\n        /* \"#utility.yul\":10883:11002   */\n      iszero\n      tag_269\n      jumpi\n        /* \"#utility.yul\":10921:11000   */\n      tag_270\n      tag_101\n      jump\t// in\n    tag_270:\n        /* \"#utility.yul\":10883:11002   */\n    tag_269:\n        /* \"#utility.yul\":11041:11042   */\n      0x00\n        /* \"#utility.yul\":11066:11127   */\n      tag_271\n        /* \"#utility.yul\":11119:11126   */\n      dup5\n        /* \"#utility.yul\":11110:11116   */\n      dup3\n        /* \"#utility.yul\":11099:11108   */\n      dup6\n        /* \"#utility.yul\":11095:11117   */\n      add\n        /* \"#utility.yul\":11066:11127   */\n      tag_131\n      jump\t// in\n    tag_271:\n        /* \"#utility.yul\":11056:11127   */\n      swap2\n      pop\n        /* \"#utility.yul\":11012:11137   */\n      pop\n        /* \"#utility.yul\":10799:11144   */\n      swap3\n      swap2\n      pop\n      pop\n      jump\t// out\n        /* \"#utility.yul\":11150:11319   */\n    tag_132:\n        /* \"#utility.yul\":11234:11245   */\n      0x00\n        /* \"#utility.yul\":11268:11274   */\n      dup3\n        /* \"#utility.yul\":11263:11266   */\n      dup3\n        /* \"#utility.yul\":11256:11275   */\n      mstore\n        /* \"#utility.yul\":11308:11312   */\n      0x20\n        /* \"#utility.yul\":11303:11306   */\n      dup3\n        /* \"#utility.yul\":11299:11313   */\n      add\n        /* \"#utility.yul\":11284:11313   */\n      swap1\n      pop\n        /* \"#utility.yul\":11150:11319   */\n      swap3\n      swap2\n      pop\n      pop\n      jump\t// out\n        /* \"#utility.yul\":11325:11500   */\n    tag_133:\n        /* \"#utility.yul\":11465:11492   */\n      0x526571756573746572206e6f7420726567697374657265642100000000000000\n        /* \"#utility.yul\":11461:11462   */\n      0x00\n        /* \"#utility.yul\":11453:11459   */\n      dup3\n        /* \"#utility.yul\":11449:11463   */\n      add\n        /* \"#utility.yul\":11442:11493   */\n      mstore\n        /* \"#utility.yul\":11325:11500   */\n      pop\n      jump\t// out\n        /* \"#utility.yul\":11506:11872   */\n    tag_134:\n        /* \"#utility.yul\":11648:11651   */\n      0x00\n        /* \"#utility.yul\":11669:11736   */\n      tag_275\n        /* \"#utility.yul\":11733:11735   */\n      0x19\n        /* \"#utility.yul\":11728:11731   */\n      dup4\n        /* \"#utility.yul\":11669:11736   */\n      tag_132\n      jump\t// in\n    tag_275:\n        /* \"#utility.yul\":11662:11736   */\n      swap2\n      pop\n        /* \"#utility.yul\":11745:11838   */\n      tag_276\n        /* \"#utility.yul\":11834:11837   */\n      dup3\n        /* \"#utility.yul\":11745:11838   */\n      tag_133\n      jump\t// in\n    tag_276:\n        /* \"#utility.yul\":11863:11865   */\n      0x20\n        /* \"#utility.yul\":11858:11861   */\n      dup3\n        /* \"#utility.yul\":11854:11866   */\n      add\n        /* \"#utility.yul\":11847:11866   */\n      swap1\n      pop\n        /* \"#utility.yul\":11506:11872   */\n      swap2\n      swap1\n      pop\n      jump\t// out\n        /* \"#utility.yul\":11878:12297   */\n    tag_39:\n        /* \"#utility.yul\":12044:12048   */\n      0x00\n        /* \"#utility.yul\":12082:12084   */\n      0x20\n        /* \"#utility.yul\":12071:12080   */\n      dup3\n        /* \"#utility.yul\":12067:12085   */\n      add\n        /* \"#utility.yul\":12059:12085   */\n      swap1\n      pop\n        /* \"#utility.yul\":12131:12140   */\n      dup2\n        /* \"#utility.yul\":12125:12129   */\n      dup2\n        /* \"#utility.yul\":12121:12141   */\n      sub\n        /* \"#utility.yul\":12117:12118   */\n      0x00\n        /* \"#utility.yul\":12106:12115   */\n      dup4\n        /* \"#utility.yul\":12102:12119   */\n      add\n        /* \"#utility.yul\":12095:12142   */\n      mstore\n        /* \"#utility.yul\":12159:12290   */\n      tag_278\n        /* \"#utility.yul\":12285:12289   */\n      dup2\n        /* \"#utility.yul\":12159:12290   */\n      tag_134\n      jump\t// in\n    tag_278:\n        /* \"#utility.yul\":12151:12290   */\n      swap1\n      pop\n        /* \"#utility.yul\":11878:12297   */\n      swap2\n      swap1\n      pop\n      jump\t// out\n        /* \"#utility.yul\":12303:12476   */\n    tag_135:\n        /* \"#utility.yul\":12443:12468   */\n      0x4772616e746572206e6f74207265676973746572656421000000000000000000\n        /* \"#utility.yul\":12439:12440   */\n      0x00\n        /* \"#utility.yul\":12431:12437   */\n      dup3\n        /* \"#utility.yul\":12427:12441   */\n      add\n        /* \"#utility.yul\":12420:12469   */\n      mstore\n        /* \"#utility.yul\":12303:12476   */\n      pop\n      jump\t// out\n        /* \"#utility.yul\":12482:12848   */\n    tag_136:\n        /* \"#utility.yul\":12624:12627   */\n      0x00\n        /* \"#utility.yul\":12645:12712   */\n      tag_281\n        /* \"#utility.yul\":12709:12711   */\n      0x17\n        /* \"#utility.yul\":12704:12707   */\n      dup4\n        /* \"#utility.yul\":12645:12712   */\n      tag_132\n      jump\t// in\n    tag_281:\n        /* \"#utility.yul\":12638:12712   */\n      swap2\n      pop\n        /* \"#utility.yul\":12721:12814   */\n      tag_282\n        /* \"#utility.yul\":12810:12813   */\n      dup3\n        /* \"#utility.yul\":12721:12814   */\n      tag_135\n      jump\t// in\n    tag_282:\n        /* \"#utility.yul\":12839:12841   */\n      0x20\n        /* \"#utility.yul\":12834:12837   */\n      dup3\n        /* \"#utility.yul\":12830:12842   */\n      add\n        /* \"#utility.yul\":12823:12842   */\n      swap1\n      pop\n        /* \"#utility.yul\":12482:12848   */\n      swap2\n      swap1\n      pop\n      jump\t// out\n        /* \"#utility.yul\":12854:13273   */\n    tag_46:\n        /* \"#utility.yul\":13020:13024   */\n      0x00\n        /* \"#utility.yul\":13058:13060   */\n      0x20\n        /* \"#utility.yul\":13047:13056   */\n      dup3\n        /* \"#utility.yul\":13043:13061   */\n      add\n        /* \"#utility.yul\":13035:13061   */\n      swap1\n      pop\n        /* \"#utility.yul\":13107:13116   */\n      dup2\n        /* \"#utility.yul\":13101:13105   */\n      dup2\n        /* \"#utility.yul\":13097:13117   */\n      sub\n        /* \"#utility.yul\":13093:13094   */\n      0x00\n        /* \"#utility.yul\":13082:13091   */\n      dup4\n        /* \"#utility.yul\":13078:13095   */\n      add\n        /* \"#utility.yul\":13071:13118   */\n      mstore\n        /* \"#utility.yul\":13135:13266   */\n      tag_284\n        /* \"#utility.yul\":13261:13265   */\n      dup2\n        /* \"#utility.yul\":13135:13266   */\n      tag_136\n      jump\t// in\n    tag_284:\n        /* \"#utility.yul\":13127:13266   */\n      swap1\n      pop\n        /* \"#utility.yul\":12854:13273   */\n      swap2\n      swap1\n      pop\n      jump\t// out\n        /* \"#utility.yul\":13279:13457   */\n    tag_137:\n        /* \"#utility.yul\":13419:13449   */\n      0x4e6577207065726d697373696f6e20726571756573742066726f6d3a00000000\n        /* \"#utility.yul\":13415:13416   */\n      0x00\n        /* \"#utility.yul\":13407:13413   */\n      dup3\n        /* \"#utility.yul\":13403:13417   */\n      add\n        /* \"#utility.yul\":13396:13450   */\n      mstore\n        /* \"#utility.yul\":13279:13457   */\n      pop\n      jump\t// out\n        /* \"#utility.yul\":13463:13829   */\n    tag_138:\n        /* \"#utility.yul\":13605:13608   */\n      0x00\n        /* \"#utility.yul\":13626:13693   */\n      tag_287\n        /* \"#utility.yul\":13690:13692   */\n      0x1c\n        /* \"#utility.yul\":13685:13688   */\n      dup4\n        /* \"#utility.yul\":13626:13693   */\n      tag_132\n      jump\t// in\n    tag_287:\n        /* \"#utility.yul\":13619:13693   */\n      swap2\n      pop\n        /* \"#utility.yul\":13702:13795   */\n      tag_288\n        /* \"#utility.yul\":13791:13794   */\n      dup3\n        /* \"#utility.yul\":13702:13795   */\n      tag_137\n      jump\t// in\n    tag_288:\n        /* \"#utility.yul\":13820:13822   */\n      0x20\n        /* \"#utility.yul\":13815:13818   */\n      dup3\n        /* \"#utility.yul\":13811:13823   */\n      add\n        /* \"#utility.yul\":13804:13823   */\n      swap1\n      pop\n        /* \"#utility.yul\":13463:13829   */\n      swap2\n      swap1\n      pop\n      jump\t// out\n        /* \"#utility.yul\":13835:14364   */\n    tag_48:\n        /* \"#utility.yul\":14029:14033   */\n      0x00\n        /* \"#utility.yul\":14067:14069   */\n      0x40\n        /* \"#utility.yul\":14056:14065   */\n      dup3\n        /* \"#utility.yul\":14052:14070   */\n      add\n        /* \"#utility.yul\":14044:14070   */\n      swap1\n      pop\n        /* \"#utility.yul\":14080:14151   */\n      tag_290\n        /* \"#utility.yul\":14148:14149   */\n      0x00\n        /* \"#utility.yul\":14137:14146   */\n      dup4\n        /* \"#utility.yul\":14133:14150   */\n      add\n        /* \"#utility.yul\":14124:14130   */\n      dup5\n        /* \"#utility.yul\":14080:14151   */\n      tag_128\n      jump\t// in\n    tag_290:\n        /* \"#utility.yul\":14198:14207   */\n      dup2\n        /* \"#utility.yul\":14192:14196   */\n      dup2\n        /* \"#utility.yul\":14188:14208   */\n      sub\n        /* \"#utility.yul\":14183:14185   */\n      0x20\n        /* \"#utility.yul\":14172:14181   */\n      dup4\n        /* \"#utility.yul\":14168:14186   */\n      add\n        /* \"#utility.yul\":14161:14209   */\n      mstore\n        /* \"#utility.yul\":14226:14357   */\n      tag_291\n        /* \"#utility.yul\":14352:14356   */\n      dup2\n        /* \"#utility.yul\":14226:14357   */\n      tag_138\n      jump\t// in\n    tag_291:\n        /* \"#utility.yul\":14218:14357   */\n      swap1\n      pop\n        /* \"#utility.yul\":13835:14364   */\n      swap3\n      swap2\n      pop\n      pop\n      jump\t// out\n        /* \"#utility.yul\":14370:14734   */\n    tag_139:\n        /* \"#utility.yul\":14458:14461   */\n      0x00\n        /* \"#utility.yul\":14486:14525   */\n      tag_293\n        /* \"#utility.yul\":14519:14524   */\n      dup3\n        /* \"#utility.yul\":14486:14525   */\n      tag_111\n      jump\t// in\n    tag_293:\n        /* \"#utility.yul\":14541:14612   */\n      tag_294\n        /* \"#utility.yul\":14605:14611   */\n      dup2\n        /* \"#utility.yul\":14600:14603   */\n      dup6\n        /* \"#utility.yul\":14541:14612   */\n      tag_132\n      jump\t// in\n    tag_294:\n        /* \"#utility.yul\":14534:14612   */\n      swap4\n      pop\n        /* \"#utility.yul\":14621:14673   */\n      tag_295\n        /* \"#utility.yul\":14666:14672   */\n      dup2\n        /* \"#utility.yul\":14661:14664   */\n      dup6\n        /* \"#utility.yul\":14654:14658   */\n      0x20\n        /* \"#utility.yul\":14647:14652   */\n      dup7\n        /* \"#utility.yul\":14643:14659   */\n      add\n        /* \"#utility.yul\":14621:14673   */\n      tag_113\n      jump\t// in\n    tag_295:\n        /* \"#utility.yul\":14698:14727   */\n      tag_296\n        /* \"#utility.yul\":14720:14726   */\n      dup2\n        /* \"#utility.yul\":14698:14727   */\n      tag_114\n      jump\t// in\n    tag_296:\n        /* \"#utility.yul\":14693:14696   */\n      dup5\n        /* \"#utility.yul\":14689:14728   */\n      add\n        /* \"#utility.yul\":14682:14728   */\n      swap2\n      pop\n        /* \"#utility.yul\":14462:14734   */\n      pop\n        /* \"#utility.yul\":14370:14734   */\n      swap3\n      swap2\n      pop\n      pop\n      jump\t// out\n        /* \"#utility.yul\":14740:15163   */\n    tag_55:\n        /* \"#utility.yul\":14881:14885   */\n      0x00\n        /* \"#utility.yul\":14919:14921   */\n      0x40\n        /* \"#utility.yul\":14908:14917   */\n      dup3\n        /* \"#utility.yul\":14904:14922   */\n      add\n        /* \"#utility.yul\":14896:14922   */\n      swap1\n      pop\n        /* \"#utility.yul\":14932:15003   */\n      tag_298\n        /* \"#utility.yul\":15000:15001   */\n      0x00\n        /* \"#utility.yul\":14989:14998   */\n      dup4\n        /* \"#utility.yul\":14985:15002   */\n      add\n        /* \"#utility.yul\":14976:14982   */\n      dup6\n        /* \"#utility.yul\":14932:15003   */\n      tag_128\n      jump\t// in\n    tag_298:\n        /* \"#utility.yul\":15050:15059   */\n      dup2\n        /* \"#utility.yul\":15044:15048   */\n      dup2\n        /* \"#utility.yul\":15040:15060   */\n      sub\n        /* \"#utility.yul\":15035:15037   */\n      0x20\n        /* \"#utility.yul\":15024:15033   */\n      dup4\n        /* \"#utility.yul\":15020:15038   */\n      add\n        /* \"#utility.yul\":15013:15061   */\n      mstore\n        /* \"#utility.yul\":15078:15156   */\n      tag_299\n        /* \"#utility.yul\":15151:15155   */\n      dup2\n        /* \"#utility.yul\":15142:15148   */\n      dup5\n        /* \"#utility.yul\":15078:15156   */\n      tag_139\n      jump\t// in\n    tag_299:\n        /* \"#utility.yul\":15070:15156   */\n      swap1\n      pop\n        /* \"#utility.yul\":14740:15163   */\n      swap4\n      swap3\n      pop\n      pop\n      pop\n      jump\t// out\n        /* \"#utility.yul\":15169:15286   */\n    tag_140:\n        /* \"#utility.yul\":15278:15279   */\n      0x00\n        /* \"#utility.yul\":15275:15276   */\n      dup1\n        /* \"#utility.yul\":15268:15280   */\n      revert\n        /* \"#utility.yul\":15292:15472   */\n    tag_82:\n        /* \"#utility.yul\":15340:15417   */\n      0x4e487b7100000000000000000000000000000000000000000000000000000000\n        /* \"#utility.yul\":15337:15338   */\n      0x00\n        /* \"#utility.yul\":15330:15418   */\n      mstore\n        /* \"#utility.yul\":15437:15441   */\n      0x41\n        /* \"#utility.yul\":15434:15435   */\n      0x04\n        /* \"#utility.yul\":15427:15442   */\n      mstore\n        /* \"#utility.yul\":15461:15465   */\n      0x24\n        /* \"#utility.yul\":15458:15459   */\n      0x00\n        /* \"#utility.yul\":15451:15466   */\n      revert\n        /* \"#utility.yul\":15478:15759   */\n    tag_141:\n        /* \"#utility.yul\":15561:15588   */\n      tag_303\n        /* \"#utility.yul\":15583:15587   */\n      dup3\n        /* \"#utility.yul\":15561:15588   */\n      tag_114\n      jump\t// in\n    tag_303:\n        /* \"#utility.yul\":15553:15559   */\n      dup2\n        /* \"#utility.yul\":15549:15589   */\n      add\n        /* \"#utility.yul\":15691:15697   */\n      dup2\n        /* \"#utility.yul\":15679:15689   */\n      dup2\n        /* \"#utility.yul\":15676:15698   */\n      lt\n        /* \"#utility.yul\":15655:15673   */\n      0xffffffffffffffff\n        /* \"#utility.yul\":15643:15653   */\n      dup3\n        /* \"#utility.yul\":15640:15674   */\n      gt\n        /* \"#utility.yul\":15637:15699   */\n      or\n        /* \"#utility.yul\":15634:15722   */\n      iszero\n      tag_304\n      jumpi\n        /* \"#utility.yul\":15702:15720   */\n      tag_305\n      tag_82\n      jump\t// in\n    tag_305:\n        /* \"#utility.yul\":15634:15722   */\n    tag_304:\n        /* \"#utility.yul\":15742:15752   */\n      dup1\n        /* \"#utility.yul\":15738:15740   */\n      0x40\n        /* \"#utility.yul\":15731:15753   */\n      mstore\n        /* \"#utility.yul\":15521:15759   */\n      pop\n        /* \"#utility.yul\":15478:15759   */\n      pop\n      pop\n      jump\t// out\n        /* \"#utility.yul\":15765:15894   */\n    tag_142:\n        /* \"#utility.yul\":15799:15805   */\n      0x00\n        /* \"#utility.yul\":15826:15846   */\n      tag_307\n      tag_100\n      jump\t// in\n    tag_307:\n        /* \"#utility.yul\":15816:15846   */\n      swap1\n      pop\n        /* \"#utility.yul\":15855:15888   */\n      tag_308\n        /* \"#utility.yul\":15883:15887   */\n      dup3\n        /* \"#utility.yul\":15875:15881   */\n      dup3\n        /* \"#utility.yul\":15855:15888   */\n      tag_141\n      jump\t// in\n    tag_308:\n        /* \"#utility.yul\":15765:15894   */\n      swap2\n      swap1\n      pop\n      jump\t// out\n        /* \"#utility.yul\":15900:16221   */\n    tag_143:\n        /* \"#utility.yul\":15987:15991   */\n      0x00\n        /* \"#utility.yul\":16077:16095   */\n      0xffffffffffffffff\n        /* \"#utility.yul\":16069:16075   */\n      dup3\n        /* \"#utility.yul\":16066:16096   */\n      gt\n        /* \"#utility.yul\":16063:16119   */\n      iszero\n      tag_310\n      jumpi\n        /* \"#utility.yul\":16099:16117   */\n      tag_311\n      tag_82\n      jump\t// in\n    tag_311:\n        /* \"#utility.yul\":16063:16119   */\n    tag_310:\n        /* \"#utility.yul\":16149:16153   */\n      0x20\n        /* \"#utility.yul\":16141:16147   */\n      dup3\n        /* \"#utility.yul\":16137:16154   */\n      mul\n        /* \"#utility.yul\":16129:16154   */\n      swap1\n      pop\n        /* \"#utility.yul\":16209:16213   */\n      0x20\n        /* \"#utility.yul\":16203:16207   */\n      dup2\n        /* \"#utility.yul\":16199:16214   */\n      add\n        /* \"#utility.yul\":16191:16214   */\n      swap1\n      pop\n        /* \"#utility.yul\":15900:16221   */\n      swap2\n      swap1\n      pop\n      jump\t// out\n        /* \"#utility.yul\":16227:16344   */\n    tag_144:\n        /* \"#utility.yul\":16336:16337   */\n      0x00\n        /* \"#utility.yul\":16333:16334   */\n      dup1\n        /* \"#utility.yul\":16326:16338   */\n      revert\n        /* \"#utility.yul\":16350:16467   */\n    tag_145:\n        /* \"#utility.yul\":16459:16460   */\n      0x00\n        /* \"#utility.yul\":16456:16457   */\n      dup1\n        /* \"#utility.yul\":16449:16461   */\n      revert\n        /* \"#utility.yul\":16473:16781   */\n    tag_146:\n        /* \"#utility.yul\":16535:16539   */\n      0x00\n        /* \"#utility.yul\":16625:16643   */\n      0xffffffffffffffff\n        /* \"#utility.yul\":16617:16623   */\n      dup3\n        /* \"#utility.yul\":16614:16644   */\n      gt\n        /* \"#utility.yul\":16611:16667   */\n      iszero\n      tag_315\n      jumpi\n        /* \"#utility.yul\":16647:16665   */\n      tag_316\n      tag_82\n      jump\t// in\n    tag_316:\n        /* \"#utility.yul\":16611:16667   */\n    tag_315:\n        /* \"#utility.yul\":16685:16714   */\n      tag_317\n        /* \"#utility.yul\":16707:16713   */\n      dup3\n        /* \"#utility.yul\":16685:16714   */\n      tag_114\n      jump\t// in\n    tag_317:\n        /* \"#utility.yul\":16677:16714   */\n      swap1\n      pop\n        /* \"#utility.yul\":16769:16773   */\n      0x20\n        /* \"#utility.yul\":16763:16767   */\n      dup2\n        /* \"#utility.yul\":16759:16774   */\n      add\n        /* \"#utility.yul\":16751:16774   */\n      swap1\n      pop\n        /* \"#utility.yul\":16473:16781   */\n      swap2\n      swap1\n      pop\n      jump\t// out\n        /* \"#utility.yul\":16787:17208   */\n    tag_147:\n        /* \"#utility.yul\":16876:16881   */\n      0x00\n        /* \"#utility.yul\":16901:16967   */\n      tag_319\n        /* \"#utility.yul\":16917:16966   */\n      tag_320\n        /* \"#utility.yul\":16959:16965   */\n      dup5\n        /* \"#utility.yul\":16917:16966   */\n      tag_146\n      jump\t// in\n    tag_320:\n        /* \"#utility.yul\":16901:16967   */\n      tag_142\n      jump\t// in\n    tag_319:\n        /* \"#utility.yul\":16892:16967   */\n      swap1\n      pop\n        /* \"#utility.yul\":16990:16996   */\n      dup3\n        /* \"#utility.yul\":16983:16988   */\n      dup2\n        /* \"#utility.yul\":16976:16997   */\n      mstore\n        /* \"#utility.yul\":17028:17032   */\n      0x20\n        /* \"#utility.yul\":17021:17026   */\n      dup2\n        /* \"#utility.yul\":17017:17033   */\n      add\n        /* \"#utility.yul\":17066:17069   */\n      dup5\n        /* \"#utility.yul\":17057:17063   */\n      dup5\n        /* \"#utility.yul\":17052:17055   */\n      dup5\n        /* \"#utility.yul\":17048:17064   */\n      add\n        /* \"#utility.yul\":17045:17070   */\n      gt\n        /* \"#utility.yul\":17042:17154   */\n      iszero\n      tag_321\n      jumpi\n        /* \"#utility.yul\":17073:17152   */\n      tag_322\n      tag_145\n      jump\t// in\n    tag_322:\n        /* \"#utility.yul\":17042:17154   */\n    tag_321:\n        /* \"#utility.yul\":17163:17202   */\n      tag_323\n        /* \"#utility.yul\":17195:17201   */\n      dup5\n        /* \"#utility.yul\":17190:17193   */\n      dup3\n        /* \"#utility.yul\":17185:17188   */\n      dup6\n        /* \"#utility.yul\":17163:17202   */\n      tag_113\n      jump\t// in\n    tag_323:\n        /* \"#utility.yul\":16882:17208   */\n      pop\n        /* \"#utility.yul\":16787:17208   */\n      swap4\n      swap3\n      pop\n      pop\n      pop\n      jump\t// out\n        /* \"#utility.yul\":17228:17583   */\n    tag_148:\n        /* \"#utility.yul\":17295:17300   */\n      0x00\n        /* \"#utility.yul\":17344:17347   */\n      dup3\n        /* \"#utility.yul\":17337:17341   */\n      0x1f\n        /* \"#utility.yul\":17329:17335   */\n      dup4\n        /* \"#utility.yul\":17325:17342   */\n      add\n        /* \"#utility.yul\":17321:17348   */\n      slt\n        /* \"#utility.yul\":17311:17433   */\n      tag_325\n      jumpi\n        /* \"#utility.yul\":17352:17431   */\n      tag_326\n      tag_140\n      jump\t// in\n    tag_326:\n        /* \"#utility.yul\":17311:17433   */\n    tag_325:\n        /* \"#utility.yul\":17462:17468   */\n      dup2\n        /* \"#utility.yul\":17456:17469   */\n      mload\n        /* \"#utility.yul\":17487:17577   */\n      tag_327\n        /* \"#utility.yul\":17573:17576   */\n      dup5\n        /* \"#utility.yul\":17565:17571   */\n      dup3\n        /* \"#utility.yul\":17558:17562   */\n      0x20\n        /* \"#utility.yul\":17550:17556   */\n      dup7\n        /* \"#utility.yul\":17546:17563   */\n      add\n        /* \"#utility.yul\":17487:17577   */\n      tag_147\n      jump\t// in\n    tag_327:\n        /* \"#utility.yul\":17478:17577   */\n      swap2\n      pop\n        /* \"#utility.yul\":17301:17583   */\n      pop\n        /* \"#utility.yul\":17228:17583   */\n      swap3\n      swap2\n      pop\n      pop\n      jump\t// out\n        /* \"#utility.yul\":17605:18565   */\n    tag_149:\n        /* \"#utility.yul\":17722:17727   */\n      0x00\n        /* \"#utility.yul\":17747:17838   */\n      tag_329\n        /* \"#utility.yul\":17763:17837   */\n      tag_330\n        /* \"#utility.yul\":17830:17836   */\n      dup5\n        /* \"#utility.yul\":17763:17837   */\n      tag_143\n      jump\t// in\n    tag_330:\n        /* \"#utility.yul\":17747:17838   */\n      tag_142\n      jump\t// in\n    tag_329:\n        /* \"#utility.yul\":17738:17838   */\n      swap1\n      pop\n        /* \"#utility.yul\":17858:17863   */\n      dup1\n        /* \"#utility.yul\":17887:17893   */\n      dup4\n        /* \"#utility.yul\":17880:17885   */\n      dup3\n        /* \"#utility.yul\":17873:17894   */\n      mstore\n        /* \"#utility.yul\":17921:17925   */\n      0x20\n        /* \"#utility.yul\":17914:17919   */\n      dup3\n        /* \"#utility.yul\":17910:17926   */\n      add\n        /* \"#utility.yul\":17903:17926   */\n      swap1\n      pop\n        /* \"#utility.yul\":17974:17978   */\n      0x20\n        /* \"#utility.yul\":17966:17972   */\n      dup5\n        /* \"#utility.yul\":17962:17979   */\n      mul\n        /* \"#utility.yul\":17954:17960   */\n      dup4\n        /* \"#utility.yul\":17950:17980   */\n      add\n        /* \"#utility.yul\":18003:18006   */\n      dup6\n        /* \"#utility.yul\":17995:18001   */\n      dup2\n        /* \"#utility.yul\":17992:18007   */\n      gt\n        /* \"#utility.yul\":17989:18111   */\n      iszero\n      tag_331\n      jumpi\n        /* \"#utility.yul\":18022:18101   */\n      tag_332\n      tag_144\n      jump\t// in\n    tag_332:\n        /* \"#utility.yul\":17989:18111   */\n    tag_331:\n        /* \"#utility.yul\":18137:18143   */\n      dup4\n        /* \"#utility.yul\":18120:18559   */\n    tag_333:\n        /* \"#utility.yul\":18154:18160   */\n      dup2\n        /* \"#utility.yul\":18149:18152   */\n      dup2\n        /* \"#utility.yul\":18146:18161   */\n      lt\n        /* \"#utility.yul\":18120:18559   */\n      iszero\n      tag_335\n      jumpi\n        /* \"#utility.yul\":18236:18239   */\n      dup1\n        /* \"#utility.yul\":18230:18240   */\n      mload\n        /* \"#utility.yul\":18272:18290   */\n      0xffffffffffffffff\n        /* \"#utility.yul\":18259:18270   */\n      dup2\n        /* \"#utility.yul\":18256:18291   */\n      gt\n        /* \"#utility.yul\":18253:18375   */\n      iszero\n      tag_336\n      jumpi\n        /* \"#utility.yul\":18294:18373   */\n      tag_337\n      tag_140\n      jump\t// in\n    tag_337:\n        /* \"#utility.yul\":18253:18375   */\n    tag_336:\n        /* \"#utility.yul\":18418:18429   */\n      dup1\n        /* \"#utility.yul\":18410:18416   */\n      dup7\n        /* \"#utility.yul\":18406:18430   */\n      add\n        /* \"#utility.yul\":18456:18514   */\n      tag_338\n        /* \"#utility.yul\":18510:18513   */\n      dup10\n        /* \"#utility.yul\":18498:18508   */\n      dup3\n        /* \"#utility.yul\":18456:18514   */\n      tag_148\n      jump\t// in\n    tag_338:\n        /* \"#utility.yul\":18451:18454   */\n      dup6\n        /* \"#utility.yul\":18444:18515   */\n      mstore\n        /* \"#utility.yul\":18544:18548   */\n      0x20\n        /* \"#utility.yul\":18539:18542   */\n      dup6\n        /* \"#utility.yul\":18535:18549   */\n      add\n        /* \"#utility.yul\":18528:18549   */\n      swap5\n      pop\n        /* \"#utility.yul\":18196:18559   */\n      pop\n      pop\n        /* \"#utility.yul\":18180:18184   */\n      0x20\n        /* \"#utility.yul\":18175:18178   */\n      dup2\n        /* \"#utility.yul\":18171:18185   */\n      add\n        /* \"#utility.yul\":18164:18185   */\n      swap1\n      pop\n        /* \"#utility.yul\":18120:18559   */\n      jump(tag_333)\n    tag_335:\n        /* \"#utility.yul\":18124:18145   */\n      pop\n        /* \"#utility.yul\":17728:18565   */\n      pop\n      pop\n        /* \"#utility.yul\":17605:18565   */\n      swap4\n      swap3\n      pop\n      pop\n      pop\n      jump\t// out\n        /* \"#utility.yul\":18587:18992   */\n    tag_150:\n        /* \"#utility.yul\":18679:18684   */\n      0x00\n        /* \"#utility.yul\":18728:18731   */\n      dup3\n        /* \"#utility.yul\":18721:18725   */\n      0x1f\n        /* \"#utility.yul\":18713:18719   */\n      dup4\n        /* \"#utility.yul\":18709:18726   */\n      add\n        /* \"#utility.yul\":18705:18732   */\n      slt\n        /* \"#utility.yul\":18695:18817   */\n      tag_340\n      jumpi\n        /* \"#utility.yul\":18736:18815   */\n      tag_341\n      tag_140\n      jump\t// in\n    tag_341:\n        /* \"#utility.yul\":18695:18817   */\n    tag_340:\n        /* \"#utility.yul\":18846:18852   */\n      dup2\n        /* \"#utility.yul\":18840:18853   */\n      mload\n        /* \"#utility.yul\":18871:18986   */\n      tag_342\n        /* \"#utility.yul\":18982:18985   */\n      dup5\n        /* \"#utility.yul\":18974:18980   */\n      dup3\n        /* \"#utility.yul\":18967:18971   */\n      0x20\n        /* \"#utility.yul\":18959:18965   */\n      dup7\n        /* \"#utility.yul\":18955:18972   */\n      add\n        /* \"#utility.yul\":18871:18986   */\n      tag_149\n      jump\t// in\n    tag_342:\n        /* \"#utility.yul\":18862:18986   */\n      swap2\n      pop\n        /* \"#utility.yul\":18685:18992   */\n      pop\n        /* \"#utility.yul\":18587:18992   */\n      swap3\n      swap2\n      pop\n      pop\n      jump\t// out\n        /* \"#utility.yul\":18998:19318   */\n    tag_151:\n        /* \"#utility.yul\":19084:19088   */\n      0x00\n        /* \"#utility.yul\":19174:19192   */\n      0xffffffffffffffff\n        /* \"#utility.yul\":19166:19172   */\n      dup3\n        /* \"#utility.yul\":19163:19193   */\n      gt\n        /* \"#utility.yul\":19160:19216   */\n      iszero\n      tag_344\n      jumpi\n        /* \"#utility.yul\":19196:19214   */\n      tag_345\n      tag_82\n      jump\t// in\n    tag_345:\n        /* \"#utility.yul\":19160:19216   */\n    tag_344:\n        /* \"#utility.yul\":19246:19250   */\n      0x20\n        /* \"#utility.yul\":19238:19244   */\n      dup3\n        /* \"#utility.yul\":19234:19251   */\n      mul\n        /* \"#utility.yul\":19226:19251   */\n      swap1\n      pop\n        /* \"#utility.yul\":19306:19310   */\n      0x20\n        /* \"#utility.yul\":19300:19304   */\n      dup2\n        /* \"#utility.yul\":19296:19311   */\n      add\n        /* \"#utility.yul\":19288:19311   */\n      swap1\n      pop\n        /* \"#utility.yul\":18998:19318   */\n      swap2\n      swap1\n      pop\n      jump\t// out\n        /* \"#utility.yul\":19324:19631   */\n    tag_152:\n        /* \"#utility.yul\":19385:19389   */\n      0x00\n        /* \"#utility.yul\":19475:19493   */\n      0xffffffffffffffff\n        /* \"#utility.yul\":19467:19473   */\n      dup3\n        /* \"#utility.yul\":19464:19494   */\n      gt\n        /* \"#utility.yul\":19461:19517   */\n      iszero\n      tag_347\n      jumpi\n        /* \"#utility.yul\":19497:19515   */\n      tag_348\n      tag_82\n      jump\t// in\n    tag_348:\n        /* \"#utility.yul\":19461:19517   */\n    tag_347:\n        /* \"#utility.yul\":19535:19564   */\n      tag_349\n        /* \"#utility.yul\":19557:19563   */\n      dup3\n        /* \"#utility.yul\":19535:19564   */\n      tag_114\n      jump\t// in\n    tag_349:\n        /* \"#utility.yul\":19527:19564   */\n      swap1\n      pop\n        /* \"#utility.yul\":19619:19623   */\n      0x20\n        /* \"#utility.yul\":19613:19617   */\n      dup2\n        /* \"#utility.yul\":19609:19624   */\n      add\n        /* \"#utility.yul\":19601:19624   */\n      swap1\n      pop\n        /* \"#utility.yul\":19324:19631   */\n      swap2\n      swap1\n      pop\n      jump\t// out\n        /* \"#utility.yul\":19637:20056   */\n    tag_153:\n        /* \"#utility.yul\":19725:19730   */\n      0x00\n        /* \"#utility.yul\":19750:19815   */\n      tag_351\n        /* \"#utility.yul\":19766:19814   */\n      tag_352\n        /* \"#utility.yul\":19807:19813   */\n      dup5\n        /* \"#utility.yul\":19766:19814   */\n      tag_152\n      jump\t// in\n    tag_352:\n        /* \"#utility.yul\":19750:19815   */\n      tag_142\n      jump\t// in\n    tag_351:\n        /* \"#utility.yul\":19741:19815   */\n      swap1\n      pop\n        /* \"#utility.yul\":19838:19844   */\n      dup3\n        /* \"#utility.yul\":19831:19836   */\n      dup2\n        /* \"#utility.yul\":19824:19845   */\n      mstore\n        /* \"#utility.yul\":19876:19880   */\n      0x20\n        /* \"#utility.yul\":19869:19874   */\n      dup2\n        /* \"#utility.yul\":19865:19881   */\n      add\n        /* \"#utility.yul\":19914:19917   */\n      dup5\n        /* \"#utility.yul\":19905:19911   */\n      dup5\n        /* \"#utility.yul\":19900:19903   */\n      dup5\n        /* \"#utility.yul\":19896:19912   */\n      add\n        /* \"#utility.yul\":19893:19918   */\n      gt\n        /* \"#utility.yul\":19890:20002   */\n      iszero\n      tag_353\n      jumpi\n        /* \"#utility.yul\":19921:20000   */\n      tag_354\n      tag_145\n      jump\t// in\n    tag_354:\n        /* \"#utility.yul\":19890:20002   */\n    tag_353:\n        /* \"#utility.yul\":20011:20050   */\n      tag_355\n        /* \"#utility.yul\":20043:20049   */\n      dup5\n        /* \"#utility.yul\":20038:20041   */\n      dup3\n        /* \"#utility.yul\":20033:20036   */\n      dup6\n        /* \"#utility.yul\":20011:20050   */\n      tag_113\n      jump\t// in\n    tag_355:\n        /* \"#utility.yul\":19731:20056   */\n      pop\n        /* \"#utility.yul\":19637:20056   */\n      swap4\n      swap3\n      pop\n      pop\n      pop\n      jump\t// out\n        /* \"#utility.yul\":20075:20428   */\n    tag_154:\n        /* \"#utility.yul\":20141:20146   */\n      0x00\n        /* \"#utility.yul\":20190:20193   */\n      dup3\n        /* \"#utility.yul\":20183:20187   */\n      0x1f\n        /* \"#utility.yul\":20175:20181   */\n      dup4\n        /* \"#utility.yul\":20171:20188   */\n      add\n        /* \"#utility.yul\":20167:20194   */\n      slt\n        /* \"#utility.yul\":20157:20279   */\n      tag_357\n      jumpi\n        /* \"#utility.yul\":20198:20277   */\n      tag_358\n      tag_140\n      jump\t// in\n    tag_358:\n        /* \"#utility.yul\":20157:20279   */\n    tag_357:\n        /* \"#utility.yul\":20308:20314   */\n      dup2\n        /* \"#utility.yul\":20302:20315   */\n      mload\n        /* \"#utility.yul\":20333:20422   */\n      tag_359\n        /* \"#utility.yul\":20418:20421   */\n      dup5\n        /* \"#utility.yul\":20410:20416   */\n      dup3\n        /* \"#utility.yul\":20403:20407   */\n      0x20\n        /* \"#utility.yul\":20395:20401   */\n      dup7\n        /* \"#utility.yul\":20391:20408   */\n      add\n        /* \"#utility.yul\":20333:20422   */\n      tag_153\n      jump\t// in\n    tag_359:\n        /* \"#utility.yul\":20324:20422   */\n      swap2\n      pop\n        /* \"#utility.yul\":20147:20428   */\n      pop\n        /* \"#utility.yul\":20075:20428   */\n      swap3\n      swap2\n      pop\n      pop\n      jump\t// out\n        /* \"#utility.yul\":20449:21406   */\n    tag_155:\n        /* \"#utility.yul\":20565:20570   */\n      0x00\n        /* \"#utility.yul\":20590:20680   */\n      tag_361\n        /* \"#utility.yul\":20606:20679   */\n      tag_362\n        /* \"#utility.yul\":20672:20678   */\n      dup5\n        /* \"#utility.yul\":20606:20679   */\n      tag_151\n      jump\t// in\n    tag_362:\n        /* \"#utility.yul\":20590:20680   */\n      tag_142\n      jump\t// in\n    tag_361:\n        /* \"#utility.yul\":20581:20680   */\n      swap1\n      pop\n        /* \"#utility.yul\":20700:20705   */\n      dup1\n        /* \"#utility.yul\":20729:20735   */\n      dup4\n        /* \"#utility.yul\":20722:20727   */\n      dup3\n        /* \"#utility.yul\":20715:20736   */\n      mstore\n        /* \"#utility.yul\":20763:20767   */\n      0x20\n        /* \"#utility.yul\":20756:20761   */\n      dup3\n        /* \"#utility.yul\":20752:20768   */\n      add\n        /* \"#utility.yul\":20745:20768   */\n      swap1\n      pop\n        /* \"#utility.yul\":20816:20820   */\n      0x20\n        /* \"#utility.yul\":20808:20814   */\n      dup5\n        /* \"#utility.yul\":20804:20821   */\n      mul\n        /* \"#utility.yul\":20796:20802   */\n      dup4\n        /* \"#utility.yul\":20792:20822   */\n      add\n        /* \"#utility.yul\":20845:20848   */\n      dup6\n        /* \"#utility.yul\":20837:20843   */\n      dup2\n        /* \"#utility.yul\":20834:20849   */\n      gt\n        /* \"#utility.yul\":20831:20953   */\n      iszero\n      tag_363\n      jumpi\n        /* \"#utility.yul\":20864:20943   */\n      tag_364\n      tag_144\n      jump\t// in\n    tag_364:\n        /* \"#utility.yul\":20831:20953   */\n    tag_363:\n        /* \"#utility.yul\":20979:20985   */\n      dup4\n        /* \"#utility.yul\":20962:21400   */\n    tag_365:\n        /* \"#utility.yul\":20996:21002   */\n      dup2\n        /* \"#utility.yul\":20991:20994   */\n      dup2\n        /* \"#utility.yul\":20988:21003   */\n      lt\n        /* \"#utility.yul\":20962:21400   */\n      iszero\n      tag_367\n      jumpi\n        /* \"#utility.yul\":21078:21081   */\n      dup1\n        /* \"#utility.yul\":21072:21082   */\n      mload\n        /* \"#utility.yul\":21114:21132   */\n      0xffffffffffffffff\n        /* \"#utility.yul\":21101:21112   */\n      dup2\n        /* \"#utility.yul\":21098:21133   */\n      gt\n        /* \"#utility.yul\":21095:21217   */\n      iszero\n      tag_368\n      jumpi\n        /* \"#utility.yul\":21136:21215   */\n      tag_369\n      tag_140\n      jump\t// in\n    tag_369:\n        /* \"#utility.yul\":21095:21217   */\n    tag_368:\n        /* \"#utility.yul\":21260:21271   */\n      dup1\n        /* \"#utility.yul\":21252:21258   */\n      dup7\n        /* \"#utility.yul\":21248:21272   */\n      add\n        /* \"#utility.yul\":21298:21355   */\n      tag_370\n        /* \"#utility.yul\":21351:21354   */\n      dup10\n        /* \"#utility.yul\":21339:21349   */\n      dup3\n        /* \"#utility.yul\":21298:21355   */\n      tag_154\n      jump\t// in\n    tag_370:\n        /* \"#utility.yul\":21293:21296   */\n      dup6\n        /* \"#utility.yul\":21286:21356   */\n      mstore\n        /* \"#utility.yul\":21385:21389   */\n      0x20\n        /* \"#utility.yul\":21380:21383   */\n      dup6\n        /* \"#utility.yul\":21376:21390   */\n      add\n        /* \"#utility.yul\":21369:21390   */\n      swap5\n      pop\n        /* \"#utility.yul\":21038:21400   */\n      pop\n      pop\n        /* \"#utility.yul\":21022:21026   */\n      0x20\n        /* \"#utility.yul\":21017:21020   */\n      dup2\n        /* \"#utility.yul\":21013:21027   */\n      add\n        /* \"#utility.yul\":21006:21027   */\n      swap1\n      pop\n        /* \"#utility.yul\":20962:21400   */\n      jump(tag_365)\n    tag_367:\n        /* \"#utility.yul\":20966:20987   */\n      pop\n        /* \"#utility.yul\":20571:21406   */\n      pop\n      pop\n        /* \"#utility.yul\":20449:21406   */\n      swap4\n      swap3\n      pop\n      pop\n      pop\n      jump\t// out\n        /* \"#utility.yul\":21427:21830   */\n    tag_156:\n        /* \"#utility.yul\":21518:21523   */\n      0x00\n        /* \"#utility.yul\":21567:21570   */\n      dup3\n        /* \"#utility.yul\":21560:21564   */\n      0x1f\n        /* \"#utility.yul\":21552:21558   */\n      dup4\n        /* \"#utility.yul\":21548:21565   */\n      add\n        /* \"#utility.yul\":21544:21571   */\n      slt\n        /* \"#utility.yul\":21534:21656   */\n      tag_372\n      jumpi\n        /* \"#utility.yul\":21575:21654   */\n      tag_373\n      tag_140\n      jump\t// in\n    tag_373:\n        /* \"#utility.yul\":21534:21656   */\n    tag_372:\n        /* \"#utility.yul\":21685:21691   */\n      dup2\n        /* \"#utility.yul\":21679:21692   */\n      mload\n        /* \"#utility.yul\":21710:21824   */\n      tag_374\n        /* \"#utility.yul\":21820:21823   */\n      dup5\n        /* \"#utility.yul\":21812:21818   */\n      dup3\n        /* \"#utility.yul\":21805:21809   */\n      0x20\n        /* \"#utility.yul\":21797:21803   */\n      dup7\n        /* \"#utility.yul\":21793:21810   */\n      add\n        /* \"#utility.yul\":21710:21824   */\n      tag_155\n      jump\t// in\n    tag_374:\n        /* \"#utility.yul\":21701:21824   */\n      swap2\n      pop\n        /* \"#utility.yul\":21524:21830   */\n      pop\n        /* \"#utility.yul\":21427:21830   */\n      swap3\n      swap2\n      pop\n      pop\n      jump\t// out\n        /* \"#utility.yul\":21836:23166   */\n    tag_70:\n        /* \"#utility.yul\":22028:22034   */\n      0x00\n        /* \"#utility.yul\":22036:22042   */\n      dup1\n        /* \"#utility.yul\":22044:22050   */\n      0x00\n        /* \"#utility.yul\":22093:22095   */\n      0x60\n        /* \"#utility.yul\":22081:22090   */\n      dup5\n        /* \"#utility.yul\":22072:22079   */\n      dup7\n        /* \"#utility.yul\":22068:22091   */\n      sub\n        /* \"#utility.yul\":22064:22096   */\n      slt\n        /* \"#utility.yul\":22061:22180   */\n      iszero\n      tag_376\n      jumpi\n        /* \"#utility.yul\":22099:22178   */\n      tag_377\n      tag_101\n      jump\t// in\n    tag_377:\n        /* \"#utility.yul\":22061:22180   */\n    tag_376:\n        /* \"#utility.yul\":22240:22241   */\n      0x00\n        /* \"#utility.yul\":22229:22238   */\n      dup5\n        /* \"#utility.yul\":22225:22242   */\n      add\n        /* \"#utility.yul\":22219:22243   */\n      mload\n        /* \"#utility.yul\":22270:22288   */\n      0xffffffffffffffff\n        /* \"#utility.yul\":22262:22268   */\n      dup2\n        /* \"#utility.yul\":22259:22289   */\n      gt\n        /* \"#utility.yul\":22256:22373   */\n      iszero\n      tag_378\n      jumpi\n        /* \"#utility.yul\":22292:22371   */\n      tag_379\n      tag_102\n      jump\t// in\n    tag_379:\n        /* \"#utility.yul\":22256:22373   */\n    tag_378:\n        /* \"#utility.yul\":22397:22496   */\n      tag_380\n        /* \"#utility.yul\":22488:22495   */\n      dup7\n        /* \"#utility.yul\":22479:22485   */\n      dup3\n        /* \"#utility.yul\":22468:22477   */\n      dup8\n        /* \"#utility.yul\":22464:22486   */\n      add\n        /* \"#utility.yul\":22397:22496   */\n      tag_150\n      jump\t// in\n    tag_380:\n        /* \"#utility.yul\":22387:22496   */\n      swap4\n      pop\n        /* \"#utility.yul\":22190:22506   */\n      pop\n        /* \"#utility.yul\":22566:22568   */\n      0x20\n        /* \"#utility.yul\":22555:22564   */\n      dup5\n        /* \"#utility.yul\":22551:22569   */\n      add\n        /* \"#utility.yul\":22545:22570   */\n      mload\n        /* \"#utility.yul\":22597:22615   */\n      0xffffffffffffffff\n        /* \"#utility.yul\":22589:22595   */\n      dup2\n        /* \"#utility.yul\":22586:22616   */\n      gt\n        /* \"#utility.yul\":22583:22700   */\n      iszero\n      tag_381\n      jumpi\n        /* \"#utility.yul\":22619:22698   */\n      tag_382\n      tag_102\n      jump\t// in\n    tag_382:\n        /* \"#utility.yul\":22583:22700   */\n    tag_381:\n        /* \"#utility.yul\":22724:22823   */\n      tag_383\n        /* \"#utility.yul\":22815:22822   */\n      dup7\n        /* \"#utility.yul\":22806:22812   */\n      dup3\n        /* \"#utility.yul\":22795:22804   */\n      dup8\n        /* \"#utility.yul\":22791:22813   */\n      add\n        /* \"#utility.yul\":22724:22823   */\n      tag_150\n      jump\t// in\n    tag_383:\n        /* \"#utility.yul\":22714:22823   */\n      swap3\n      pop\n        /* \"#utility.yul\":22516:22833   */\n      pop\n        /* \"#utility.yul\":22893:22895   */\n      0x40\n        /* \"#utility.yul\":22882:22891   */\n      dup5\n        /* \"#utility.yul\":22878:22896   */\n      add\n        /* \"#utility.yul\":22872:22897   */\n      mload\n        /* \"#utility.yul\":22924:22942   */\n      0xffffffffffffffff\n        /* \"#utility.yul\":22916:22922   */\n      dup2\n        /* \"#utility.yul\":22913:22943   */\n      gt\n        /* \"#utility.yul\":22910:23027   */\n      iszero\n      tag_384\n      jumpi\n        /* \"#utility.yul\":22946:23025   */\n      tag_385\n      tag_102\n      jump\t// in\n    tag_385:\n        /* \"#utility.yul\":22910:23027   */\n    tag_384:\n        /* \"#utility.yul\":23051:23149   */\n      tag_386\n        /* \"#utility.yul\":23141:23148   */\n      dup7\n        /* \"#utility.yul\":23132:23138   */\n      dup3\n        /* \"#utility.yul\":23121:23130   */\n      dup8\n        /* \"#utility.yul\":23117:23139   */\n      add\n        /* \"#utility.yul\":23051:23149   */\n      tag_156\n      jump\t// in\n    tag_386:\n        /* \"#utility.yul\":23041:23149   */\n      swap2\n      pop\n        /* \"#utility.yul\":22843:23159   */\n      pop\n        /* \"#utility.yul\":21836:23166   */\n      swap3\n      pop\n      swap3\n      pop\n      swap3\n      jump\t// out\n        /* \"#utility.yul\":23172:23352   */\n    tag_77:\n        /* \"#utility.yul\":23220:23297   */\n      0x4e487b7100000000000000000000000000000000000000000000000000000000\n        /* \"#utility.yul\":23217:23218   */\n      0x00\n        /* \"#utility.yul\":23210:23298   */\n      mstore\n        /* \"#utility.yul\":23317:23321   */\n      0x32\n        /* \"#utility.yul\":23314:23315   */\n      0x04\n        /* \"#utility.yul\":23307:23322   */\n      mstore\n        /* \"#utility.yul\":23341:23345   */\n      0x24\n        /* \"#utility.yul\":23338:23339   */\n      0x00\n        /* \"#utility.yul\":23331:23346   */\n      revert\n        /* \"#utility.yul\":23358:23538   */\n    tag_157:\n        /* \"#utility.yul\":23406:23483   */\n      0x4e487b7100000000000000000000000000000000000000000000000000000000\n        /* \"#utility.yul\":23403:23404   */\n      0x00\n        /* \"#utility.yul\":23396:23484   */\n      mstore\n        /* \"#utility.yul\":23503:23507   */\n      0x11\n        /* \"#utility.yul\":23500:23501   */\n      0x04\n        /* \"#utility.yul\":23493:23508   */\n      mstore\n        /* \"#utility.yul\":23527:23531   */\n      0x24\n        /* \"#utility.yul\":23524:23525   */\n      0x00\n        /* \"#utility.yul\":23517:23532   */\n      revert\n        /* \"#utility.yul\":23544:23630   */\n    tag_158:\n        /* \"#utility.yul\":23579:23586   */\n      0x00\n        /* \"#utility.yul\":23619:23623   */\n      0xff\n        /* \"#utility.yul\":23612:23617   */\n      dup3\n        /* \"#utility.yul\":23608:23624   */\n      and\n        /* \"#utility.yul\":23597:23624   */\n      swap1\n      pop\n        /* \"#utility.yul\":23544:23630   */\n      swap2\n      swap1\n      pop\n      jump\t// out\n        /* \"#utility.yul\":23636:23803   */\n    tag_79:\n        /* \"#utility.yul\":23673:23676   */\n      0x00\n        /* \"#utility.yul\":23696:23718   */\n      tag_391\n        /* \"#utility.yul\":23712:23717   */\n      dup3\n        /* \"#utility.yul\":23696:23718   */\n      tag_158\n      jump\t// in\n    tag_391:\n        /* \"#utility.yul\":23687:23718   */\n      swap2\n      pop\n        /* \"#utility.yul\":23740:23744   */\n      0xff\n        /* \"#utility.yul\":23733:23738   */\n      dup3\n        /* \"#utility.yul\":23730:23745   */\n      eq\n        /* \"#utility.yul\":23727:23768   */\n      iszero\n      tag_392\n      jumpi\n        /* \"#utility.yul\":23748:23766   */\n      tag_393\n      tag_157\n      jump\t// in\n    tag_393:\n        /* \"#utility.yul\":23727:23768   */\n    tag_392:\n        /* \"#utility.yul\":23795:23796   */\n      0x01\n        /* \"#utility.yul\":23788:23793   */\n      dup3\n        /* \"#utility.yul\":23784:23797   */\n      add\n        /* \"#utility.yul\":23777:23797   */\n      swap1\n      pop\n        /* \"#utility.yul\":23636:23803   */\n      swap2\n      swap1\n      pop\n      jump\t// out\n\n    auxdata: 0xa26469706673582212201e3f4ab197620e7552203eab695af92fd09f52e39867ee0f36899f00a0d3654564736f6c634300080a0033\n}\n",
    "bytecode": {
      "linkReferences": {},
      "object": "60806040523480156200001157600080fd5b50604051620014e4380380620014e483398181016040528101906200003791906200016c565b826000806101000a81548173ffffffffffffffffffffffffffffffffffffffff021916908373ffffffffffffffffffffffffffffffffffffffff16021790555081600160006101000a81548173ffffffffffffffffffffffffffffffffffffffff021916908373ffffffffffffffffffffffffffffffffffffffff16021790555080600260006101000a81548173ffffffffffffffffffffffffffffffffffffffff021916908373ffffffffffffffffffffffffffffffffffffffff160217905550505050620001c8565b600080fd5b600073ffffffffffffffffffffffffffffffffffffffff82169050919050565b6000620001348262000107565b9050919050565b620001468162000127565b81146200015257600080fd5b50565b60008151905062000166816200013b565b92915050565b60008060006060848603121562000188576200018762000102565b5b6000620001988682870162000155565b9350506020620001ab8682870162000155565b9250506040620001be8682870162000155565b9150509250925092565b61130c80620001d86000396000f3fe608060405234801561001057600080fd5b50600436106100575760003560e01c80631d7555791461005c578063392f37e91461007a5780636938323a146100985780637b103999146100b4578063a6fb108f146100d2575b600080fd5b610064610104565b60405161007191906107a9565b60405180910390f35b61008261012a565b60405161008f91906107e5565b60405180910390f35b6100b260048036038101906100ad919061084a565b610150565b005b6100bc61042a565b6040516100c991906108ab565b60405180910390f35b6100ec60048036038101906100e791906108c6565b61044e565b6040516100fb93929190610b65565b60405180910390f35b600160009054906101000a900473ffffffffffffffffffffffffffffffffffffffff1681565b600260009054906101000a900473ffffffffffffffffffffffffffffffffffffffff1681565b60008054906101000a900473ffffffffffffffffffffffffffffffffffffffff1673ffffffffffffffffffffffffffffffffffffffff16630b2551c2836040518263ffffffff1660e01b81526004016101a99190610bc0565b602060405180830381865afa1580156101c6573d6000803e3d6000fd5b505050506040513d601f19601f820116820180604052508101906101ea9190610c13565b610229576040517f08c379a000000000000000000000000000000000000000000000000000000000815260040161022090610c9d565b60405180910390fd5b60008054906101000a900473ffffffffffffffffffffffffffffffffffffffff1673ffffffffffffffffffffffffffffffffffffffff16630b2551c2826040518263ffffffff1660e01b81526004016102829190610bc0565b602060405180830381865afa15801561029f573d6000803e3d6000fd5b505050506040513d601f19601f820116820180604052508101906102c39190610c13565b610302576040517f08c379a00000000000000000000000000000000000000000000000000000000081526004016102f990610d09565b60405180910390fd5b600160009054906101000a900473ffffffffffffffffffffffffffffffffffffffff1673ffffffffffffffffffffffffffffffffffffffff1663a2cf0c56826040518263ffffffff1660e01b815260040161035d9190610d75565b600060405180830381600087803b15801561037757600080fd5b505af115801561038b573d6000803e3d6000fd5b50505050600160009054906101000a900473ffffffffffffffffffffffffffffffffffffffff1673ffffffffffffffffffffffffffffffffffffffff1663a2cf0c56826103d7856105da565b6040518363ffffffff1660e01b81526004016103f4929190610ddc565b600060405180830381600087803b15801561040e57600080fd5b505af1158015610422573d6000803e3d6000fd5b505050505050565b60008054906101000a900473ffffffffffffffffffffffffffffffffffffffff1681565b606080606060008054906101000a900473ffffffffffffffffffffffffffffffffffffffff1673ffffffffffffffffffffffffffffffffffffffff16630b2551c2856040518263ffffffff1660e01b81526004016104ac9190610bc0565b602060405180830381865afa1580156104c9573d6000803e3d6000fd5b505050506040513d601f19601f820116820180604052508101906104ed9190610c13565b61052c576040517f08c379a000000000000000000000000000000000000000000000000000000000815260040161052390610d09565b60405180910390fd5b600260009054906101000a900473ffffffffffffffffffffffffffffffffffffffff1673ffffffffffffffffffffffffffffffffffffffff166365375a04856040518263ffffffff1660e01b81526004016105879190610bc0565b600060405180830381865afa1580156105a4573d6000803e3d6000fd5b505050506040513d6000823e3d601f19601f820116820180604052508101906105cd919061119a565b9250925092509193909250565b606060005b60208160ff161080156106315750600060f81b838260ff166020811061060857610607611241565b5b1a60f81b7effffffffffffffffffffffffffffffffffffffffffffffffffffffffffffff191614155b15610649578080610641906112ac565b9150506105df565b60008160ff1667ffffffffffffffff81111561066857610667610e11565b5b6040519080825280601f01601f19166020018201604052801561069a5781602001600182028036833780820191505090505b509050600091505b80518260ff16101561072057838260ff16602081106106c4576106c3611241565b5b1a60f81b818360ff16815181106106de576106dd611241565b5b60200101907effffffffffffffffffffffffffffffffffffffffffffffffffffffffffffff1916908160001a9053508180610718906112ac565b9250506106a2565b8092505050919050565b600073ffffffffffffffffffffffffffffffffffffffff82169050919050565b6000819050919050565b600061076f61076a6107658461072a565b61074a565b61072a565b9050919050565b600061078182610754565b9050919050565b600061079382610776565b9050919050565b6107a381610788565b82525050565b60006020820190506107be600083018461079a565b92915050565b60006107cf82610776565b9050919050565b6107df816107c4565b82525050565b60006020820190506107fa60008301846107d6565b92915050565b6000604051905090565b600080fd5b600080fd5b6000819050919050565b61082781610814565b811461083257600080fd5b50565b6000813590506108448161081e565b92915050565b600080604083850312156108615761086061080a565b5b600061086f85828601610835565b925050602061088085828601610835565b9150509250929050565b600061089582610776565b9050919050565b6108a58161088a565b82525050565b60006020820190506108c0600083018461089c565b92915050565b6000602082840312156108dc576108db61080a565b5b60006108ea84828501610835565b91505092915050565b600081519050919050565b600082825260208201905092915050565b6000819050602082019050919050565b600081519050919050565b600082825260208201905092915050565b60005b8381101561095957808201518184015260208101905061093e565b83811115610968576000848401525b50505050565b6000601f19601f8301169050919050565b600061098a8261091f565b610994818561092a565b93506109a481856020860161093b565b6109ad8161096e565b840191505092915050565b60006109c4838361097f565b905092915050565b6000602082019050919050565b60006109e4826108f3565b6109ee81856108fe565b935083602082028501610a008561090f565b8060005b85811015610a3c5784840389528151610a1d85826109b8565b9450610a28836109cc565b925060208a01995050600181019050610a04565b50829750879550505050505092915050565b600081519050919050565b600082825260208201905092915050565b6000819050602082019050919050565b600081519050919050565b600082825260208201905092915050565b6000610aa182610a7a565b610aab8185610a85565b9350610abb81856020860161093b565b610ac48161096e565b840191505092915050565b6000610adb8383610a96565b905092915050565b6000602082019050919050565b6000610afb82610a4e565b610b058185610a59565b935083602082028501610b1785610a6a565b8060005b85811015610b535784840389528151610b348582610acf565b9450610b3f83610ae3565b925060208a01995050600181019050610b1b565b50829750879550505050505092915050565b60006060820190508181036000830152610b7f81866109d9565b90508181036020830152610b9381856109d9565b90508181036040830152610ba78184610af0565b9050949350505050565b610bba81610814565b82525050565b6000602082019050610bd56000830184610bb1565b92915050565b60008115159050919050565b610bf081610bdb565b8114610bfb57600080fd5b50565b600081519050610c0d81610be7565b92915050565b600060208284031215610c2957610c2861080a565b5b6000610c3784828501610bfe565b91505092915050565b600082825260208201905092915050565b7f526571756573746572206e6f7420726567697374657265642100000000000000600082015250565b6000610c87601983610c40565b9150610c9282610c51565b602082019050919050565b60006020820190508181036000830152610cb681610c7a565b9050919050565b7f4772616e746572206e6f74207265676973746572656421000000000000000000600082015250565b6000610cf3601783610c40565b9150610cfe82610cbd565b602082019050919050565b60006020820190508181036000830152610d2281610ce6565b9050919050565b7f4e6577207065726d697373696f6e20726571756573742066726f6d3a00000000600082015250565b6000610d5f601c83610c40565b9150610d6a82610d29565b602082019050919050565b6000604082019050610d8a6000830184610bb1565b8181036020830152610d9b81610d52565b905092915050565b6000610dae8261091f565b610db88185610c40565b9350610dc881856020860161093b565b610dd18161096e565b840191505092915050565b6000604082019050610df16000830185610bb1565b8181036020830152610e038184610da3565b90509392505050565b600080fd5b7f4e487b7100000000000000000000000000000000000000000000000000000000600052604160045260246000fd5b610e498261096e565b810181811067ffffffffffffffff82111715610e6857610e67610e11565b5b80604052505050565b6000610e7b610800565b9050610e878282610e40565b919050565b600067ffffffffffffffff821115610ea757610ea6610e11565b5b602082029050602081019050919050565b600080fd5b600080fd5b600067ffffffffffffffff821115610edd57610edc610e11565b5b610ee68261096e565b9050602081019050919050565b6000610f06610f0184610ec2565b610e71565b905082815260208101848484011115610f2257610f21610ebd565b5b610f2d84828561093b565b509392505050565b600082601f830112610f4a57610f49610e0c565b5b8151610f5a848260208601610ef3565b91505092915050565b6000610f76610f7184610e8c565b610e71565b90508083825260208201905060208402830185811115610f9957610f98610eb8565b5b835b81811015610fe057805167ffffffffffffffff811115610fbe57610fbd610e0c565b5b808601610fcb8982610f35565b85526020850194505050602081019050610f9b565b5050509392505050565b600082601f830112610fff57610ffe610e0c565b5b815161100f848260208601610f63565b91505092915050565b600067ffffffffffffffff82111561103357611032610e11565b5b602082029050602081019050919050565b600067ffffffffffffffff82111561105f5761105e610e11565b5b6110688261096e565b9050602081019050919050565b600061108861108384611044565b610e71565b9050828152602081018484840111156110a4576110a3610ebd565b5b6110af84828561093b565b509392505050565b600082601f8301126110cc576110cb610e0c565b5b81516110dc848260208601611075565b91505092915050565b60006110f86110f384611018565b610e71565b9050808382526020820190506020840283018581111561111b5761111a610eb8565b5b835b8181101561116257805167ffffffffffffffff8111156111405761113f610e0c565b5b80860161114d89826110b7565b8552602085019450505060208101905061111d565b5050509392505050565b600082601f83011261118157611180610e0c565b5b81516111918482602086016110e5565b91505092915050565b6000806000606084860312156111b3576111b261080a565b5b600084015167ffffffffffffffff8111156111d1576111d061080f565b5b6111dd86828701610fea565b935050602084015167ffffffffffffffff8111156111fe576111fd61080f565b5b61120a86828701610fea565b925050604084015167ffffffffffffffff81111561122b5761122a61080f565b5b6112378682870161116c565b9150509250925092565b7f4e487b7100000000000000000000000000000000000000000000000000000000600052603260045260246000fd5b7f4e487b7100000000000000000000000000000000000000000000000000000000600052601160045260246000fd5b600060ff82169050919050565b60006112b78261129f565b915060ff8214156112cb576112ca611270565b5b60018201905091905056fea26469706673582212201e3f4ab197620e7552203eab695af92fd09f52e39867ee0f36899f00a0d3654564736f6c634300080a0033",
      "opcodes": "PUSH1 0x80 PUSH1 0x40 MSTORE CALLVALUE DUP1 ISZERO PUSH3 0x11 JUMPI PUSH1 0x0 DUP1 REVERT JUMPDEST POP PUSH1 0x40 MLOAD PUSH3 0x14E4 CODESIZE SUB DUP1 PUSH3 0x14E4 DUP4 CODECOPY DUP2 DUP2 ADD PUSH1 0x40 MSTORE DUP2 ADD SWAP1 PUSH3 0x37 SWAP2 SWAP1 PUSH3 0x16C JUMP JUMPDEST DUP3 PUSH1 0x0 DUP1 PUSH2 0x100 EXP DUP2 SLOAD DUP2 PUSH20 0xFFFFFFFFFFFFFFFFFFFFFFFFFFFFFFFFFFFFFFFF MUL NOT AND SWAP1 DUP4 PUSH20 0xFFFFFFFFFFFFFFFFFFFFFFFFFFFFFFFFFFFFFFFF AND MUL OR SWAP1 SSTORE POP DUP2 PUSH1 0x1 PUSH1 0x0 PUSH2 0x100 EXP DUP2 SLOAD DUP2 PUSH20 0xFFFFFFFFFFFFFFFFFFFFFFFFFFFFFFFFFFFFFFFF MUL NOT AND SWAP1 DUP4 PUSH20 0xFFFFFFFFFFFFFFFFFFFFFFFFFFFFFFFFFFFFFFFF AND MUL OR SWAP1 SSTORE POP DUP1 PUSH1 0x2 PUSH1 0x0 PUSH2 0x100 EXP DUP2 SLOAD DUP2 PUSH20 0xFFFFFFFFFFFFFFFFFFFFFFFFFFFFFFFFFFFFFFFF MUL NOT AND SWAP1 DUP4 PUSH20 0xFFFFFFFFFFFFFFFFFFFFFFFFFFFFFFFFFFFFFFFF AND MUL OR SWAP1 SSTORE POP POP POP POP PUSH3 0x1C8 JUMP JUMPDEST PUSH1 0x0 DUP1 REVERT JUMPDEST PUSH1 0x0 PUSH20 0xFFFFFFFFFFFFFFFFFFFFFFFFFFFFFFFFFFFFFFFF DUP3 AND SWAP1 POP SWAP2 SWAP1 POP JUMP JUMPDEST PUSH1 0x0 PUSH3 0x134 DUP3 PUSH3 0x107 JUMP JUMPDEST SWAP1 POP SWAP2 SWAP1 POP JUMP JUMPDEST PUSH3 0x146 DUP2 PUSH3 0x127 JUMP JUMPDEST DUP2 EQ PUSH3 0x152 JUMPI PUSH1 0x0 DUP1 REVERT JUMPDEST POP JUMP JUMPDEST PUSH1 0x0 DUP2 MLOAD SWAP1 POP PUSH3 0x166 DUP2 PUSH3 0x13B JUMP JUMPDEST SWAP3 SWAP2 POP POP JUMP JUMPDEST PUSH1 0x0 DUP1 PUSH1 0x0 PUSH1 0x60 DUP5 DUP7 SUB SLT ISZERO PUSH3 0x188 JUMPI PUSH3 0x187 PUSH3 0x102 JUMP JUMPDEST JUMPDEST PUSH1 0x0 PUSH3 0x198 DUP7 DUP3 DUP8 ADD PUSH3 0x155 JUMP JUMPDEST SWAP4 POP POP PUSH1 0x20 PUSH3 0x1AB DUP7 DUP3 DUP8 ADD PUSH3 0x155 JUMP JUMPDEST SWAP3 POP POP PUSH1 0x40 PUSH3 0x1BE DUP7 DUP3 DUP8 ADD PUSH3 0x155 JUMP JUMPDEST SWAP2 POP POP SWAP3 POP SWAP3 POP SWAP3 JUMP JUMPDEST PUSH2 0x130C DUP1 PUSH3 0x1D8 PUSH1 0x0 CODECOPY PUSH1 0x0 RETURN INVALID PUSH1 0x80 PUSH1 0x40 MSTORE CALLVALUE DUP1 ISZERO PUSH2 0x10 JUMPI PUSH1 0x0 DUP1 REVERT JUMPDEST POP PUSH1 0x4 CALLDATASIZE LT PUSH2 0x57 JUMPI PUSH1 0x0 CALLDATALOAD PUSH1 0xE0 SHR DUP1 PUSH4 0x1D755579 EQ PUSH2 0x5C JUMPI DUP1 PUSH4 0x392F37E9 EQ PUSH2 0x7A JUMPI DUP1 PUSH4 0x6938323A EQ PUSH2 0x98 JUMPI DUP1 PUSH4 0x7B103999 EQ PUSH2 0xB4 JUMPI DUP1 PUSH4 0xA6FB108F EQ PUSH2 0xD2 JUMPI JUMPDEST PUSH1 0x0 DUP1 REVERT JUMPDEST PUSH2 0x64 PUSH2 0x104 JUMP JUMPDEST PUSH1 0x40 MLOAD PUSH2 0x71 SWAP2 SWAP1 PUSH2 0x7A9 JUMP JUMPDEST PUSH1 0x40 MLOAD DUP1 SWAP2 SUB SWAP1 RETURN JUMPDEST PUSH2 0x82 PUSH2 0x12A JUMP JUMPDEST PUSH1 0x40 MLOAD PUSH2 0x8F SWAP2 SWAP1 PUSH2 0x7E5 JUMP JUMPDEST PUSH1 0x40 MLOAD DUP1 SWAP2 SUB SWAP1 RETURN JUMPDEST PUSH2 0xB2 PUSH1 0x4 DUP1 CALLDATASIZE SUB DUP2 ADD SWAP1 PUSH2 0xAD SWAP2 SWAP1 PUSH2 0x84A JUMP JUMPDEST PUSH2 0x150 JUMP JUMPDEST STOP JUMPDEST PUSH2 0xBC PUSH2 0x42A JUMP JUMPDEST PUSH1 0x40 MLOAD PUSH2 0xC9 SWAP2 SWAP1 PUSH2 0x8AB JUMP JUMPDEST PUSH1 0x40 MLOAD DUP1 SWAP2 SUB SWAP1 RETURN JUMPDEST PUSH2 0xEC PUSH1 0x4 DUP1 CALLDATASIZE SUB DUP2 ADD SWAP1 PUSH2 0xE7 SWAP2 SWAP1 PUSH2 0x8C6 JUMP JUMPDEST PUSH2 0x44E JUMP JUMPDEST PUSH1 0x40 MLOAD PUSH2 0xFB SWAP4 SWAP3 SWAP2 SWAP1 PUSH2 0xB65 JUMP JUMPDEST PUSH1 0x40 MLOAD DUP1 SWAP2 SUB SWAP1 RETURN JUMPDEST PUSH1 0x1 PUSH1 0x0 SWAP1 SLOAD SWAP1 PUSH2 0x100 EXP SWAP1 DIV PUSH20 0xFFFFFFFFFFFFFFFFFFFFFFFFFFFFFFFFFFFFFFFF AND DUP2 JUMP JUMPDEST PUSH1 0x2 PUSH1 0x0 SWAP1 SLOAD SWAP1 PUSH2 0x100 EXP SWAP1 DIV PUSH20 0xFFFFFFFFFFFFFFFFFFFFFFFFFFFFFFFFFFFFFFFF AND DUP2 JUMP JUMPDEST PUSH1 0x0 DUP1 SLOAD SWAP1 PUSH2 0x100 EXP SWAP1 DIV PUSH20 0xFFFFFFFFFFFFFFFFFFFFFFFFFFFFFFFFFFFFFFFF AND PUSH20 0xFFFFFFFFFFFFFFFFFFFFFFFFFFFFFFFFFFFFFFFF AND PUSH4 0xB2551C2 DUP4 PUSH1 0x40 MLOAD DUP3 PUSH4 0xFFFFFFFF AND PUSH1 0xE0 SHL DUP2 MSTORE PUSH1 0x4 ADD PUSH2 0x1A9 SWAP2 SWAP1 PUSH2 0xBC0 JUMP JUMPDEST PUSH1 0x20 PUSH1 0x40 MLOAD DUP1 DUP4 SUB DUP2 DUP7 GAS STATICCALL ISZERO DUP1 ISZERO PUSH2 0x1C6 JUMPI RETURNDATASIZE PUSH1 0x0 DUP1 RETURNDATACOPY RETURNDATASIZE PUSH1 0x0 REVERT JUMPDEST POP POP POP POP PUSH1 0x40 MLOAD RETURNDATASIZE PUSH1 0x1F NOT PUSH1 0x1F DUP3 ADD AND DUP3 ADD DUP1 PUSH1 0x40 MSTORE POP DUP2 ADD SWAP1 PUSH2 0x1EA SWAP2 SWAP1 PUSH2 0xC13 JUMP JUMPDEST PUSH2 0x229 JUMPI PUSH1 0x40 MLOAD PUSH32 0x8C379A000000000000000000000000000000000000000000000000000000000 DUP2 MSTORE PUSH1 0x4 ADD PUSH2 0x220 SWAP1 PUSH2 0xC9D JUMP JUMPDEST PUSH1 0x40 MLOAD DUP1 SWAP2 SUB SWAP1 REVERT JUMPDEST PUSH1 0x0 DUP1 SLOAD SWAP1 PUSH2 0x100 EXP SWAP1 DIV PUSH20 0xFFFFFFFFFFFFFFFFFFFFFFFFFFFFFFFFFFFFFFFF AND PUSH20 0xFFFFFFFFFFFFFFFFFFFFFFFFFFFFFFFFFFFFFFFF AND PUSH4 0xB2551C2 DUP3 PUSH1 0x40 MLOAD DUP3 PUSH4 0xFFFFFFFF AND PUSH1 0xE0 SHL DUP2 MSTORE PUSH1 0x4 ADD PUSH2 0x282 SWAP2 SWAP1 PUSH2 0xBC0 JUMP JUMPDEST PUSH1 0x20 PUSH1 0x40 MLOAD DUP1 DUP4 SUB DUP2 DUP7 GAS STATICCALL ISZERO DUP1 ISZERO PUSH2 0x29F JUMPI RETURNDATASIZE PUSH1 0x0 DUP1 RETURNDATACOPY RETURNDATASIZE PUSH1 0x0 REVERT JUMPDEST POP POP POP POP PUSH1 0x40 MLOAD RETURNDATASIZE PUSH1 0x1F NOT PUSH1 0x1F DUP3 ADD AND DUP3 ADD DUP1 PUSH1 0x40 MSTORE POP DUP2 ADD SWAP1 PUSH2 0x2C3 SWAP2 SWAP1 PUSH2 0xC13 JUMP JUMPDEST PUSH2 0x302 JUMPI PUSH1 0x40 MLOAD PUSH32 0x8C379A000000000000000000000000000000000000000000000000000000000 DUP2 MSTORE PUSH1 0x4 ADD PUSH2 0x2F9 SWAP1 PUSH2 0xD09 JUMP JUMPDEST PUSH1 0x40 MLOAD DUP1 SWAP2 SUB SWAP1 REVERT JUMPDEST PUSH1 0x1 PUSH1 0x0 SWAP1 SLOAD SWAP1 PUSH2 0x100 EXP SWAP1 DIV PUSH20 0xFFFFFFFFFFFFFFFFFFFFFFFFFFFFFFFFFFFFFFFF AND PUSH20 0xFFFFFFFFFFFFFFFFFFFFFFFFFFFFFFFFFFFFFFFF AND PUSH4 0xA2CF0C56 DUP3 PUSH1 0x40 MLOAD DUP3 PUSH4 0xFFFFFFFF AND PUSH1 0xE0 SHL DUP2 MSTORE PUSH1 0x4 ADD PUSH2 0x35D SWAP2 SWAP1 PUSH2 0xD75 JUMP JUMPDEST PUSH1 0x0 PUSH1 0x40 MLOAD DUP1 DUP4 SUB DUP2 PUSH1 0x0 DUP8 DUP1 EXTCODESIZE ISZERO DUP1 ISZERO PUSH2 0x377 JUMPI PUSH1 0x0 DUP1 REVERT JUMPDEST POP GAS CALL ISZERO DUP1 ISZERO PUSH2 0x38B JUMPI RETURNDATASIZE PUSH1 0x0 DUP1 RETURNDATACOPY RETURNDATASIZE PUSH1 0x0 REVERT JUMPDEST POP POP POP POP PUSH1 0x1 PUSH1 0x0 SWAP1 SLOAD SWAP1 PUSH2 0x100 EXP SWAP1 DIV PUSH20 0xFFFFFFFFFFFFFFFFFFFFFFFFFFFFFFFFFFFFFFFF AND PUSH20 0xFFFFFFFFFFFFFFFFFFFFFFFFFFFFFFFFFFFFFFFF AND PUSH4 0xA2CF0C56 DUP3 PUSH2 0x3D7 DUP6 PUSH2 0x5DA JUMP JUMPDEST PUSH1 0x40 MLOAD DUP4 PUSH4 0xFFFFFFFF AND PUSH1 0xE0 SHL DUP2 MSTORE PUSH1 0x4 ADD PUSH2 0x3F4 SWAP3 SWAP2 SWAP1 PUSH2 0xDDC JUMP JUMPDEST PUSH1 0x0 PUSH1 0x40 MLOAD DUP1 DUP4 SUB DUP2 PUSH1 0x0 DUP8 DUP1 EXTCODESIZE ISZERO DUP1 ISZERO PUSH2 0x40E JUMPI PUSH1 0x0 DUP1 REVERT JUMPDEST POP GAS CALL ISZERO DUP1 ISZERO PUSH2 0x422 JUMPI RETURNDATASIZE PUSH1 0x0 DUP1 RETURNDATACOPY RETURNDATASIZE PUSH1 0x0 REVERT JUMPDEST POP POP POP POP POP POP JUMP JUMPDEST PUSH1 0x0 DUP1 SLOAD SWAP1 PUSH2 0x100 EXP SWAP1 DIV PUSH20 0xFFFFFFFFFFFFFFFFFFFFFFFFFFFFFFFFFFFFFFFF AND DUP2 JUMP JUMPDEST PUSH1 0x60 DUP1 PUSH1 0x60 PUSH1 0x0 DUP1 SLOAD SWAP1 PUSH2 0x100 EXP SWAP1 DIV PUSH20 0xFFFFFFFFFFFFFFFFFFFFFFFFFFFFFFFFFFFFFFFF AND PUSH20 0xFFFFFFFFFFFFFFFFFFFFFFFFFFFFFFFFFFFFFFFF AND PUSH4 0xB2551C2 DUP6 PUSH1 0x40 MLOAD DUP3 PUSH4 0xFFFFFFFF AND PUSH1 0xE0 SHL DUP2 MSTORE PUSH1 0x4 ADD PUSH2 0x4AC SWAP2 SWAP1 PUSH2 0xBC0 JUMP JUMPDEST PUSH1 0x20 PUSH1 0x40 MLOAD DUP1 DUP4 SUB DUP2 DUP7 GAS STATICCALL ISZERO DUP1 ISZERO PUSH2 0x4C9 JUMPI RETURNDATASIZE PUSH1 0x0 DUP1 RETURNDATACOPY RETURNDATASIZE PUSH1 0x0 REVERT JUMPDEST POP POP POP POP PUSH1 0x40 MLOAD RETURNDATASIZE PUSH1 0x1F NOT PUSH1 0x1F DUP3 ADD AND DUP3 ADD DUP1 PUSH1 0x40 MSTORE POP DUP2 ADD SWAP1 PUSH2 0x4ED SWAP2 SWAP1 PUSH2 0xC13 JUMP JUMPDEST PUSH2 0x52C JUMPI PUSH1 0x40 MLOAD PUSH32 0x8C379A000000000000000000000000000000000000000000000000000000000 DUP2 MSTORE PUSH1 0x4 ADD PUSH2 0x523 SWAP1 PUSH2 0xD09 JUMP JUMPDEST PUSH1 0x40 MLOAD DUP1 SWAP2 SUB SWAP1 REVERT JUMPDEST PUSH1 0x2 PUSH1 0x0 SWAP1 SLOAD SWAP1 PUSH2 0x100 EXP SWAP1 DIV PUSH20 0xFFFFFFFFFFFFFFFFFFFFFFFFFFFFFFFFFFFFFFFF AND PUSH20 0xFFFFFFFFFFFFFFFFFFFFFFFFFFFFFFFFFFFFFFFF AND PUSH4 0x65375A04 DUP6 PUSH1 0x40 MLOAD DUP3 PUSH4 0xFFFFFFFF AND PUSH1 0xE0 SHL DUP2 MSTORE PUSH1 0x4 ADD PUSH2 0x587 SWAP2 SWAP1 PUSH2 0xBC0 JUMP JUMPDEST PUSH1 0x0 PUSH1 0x40 MLOAD DUP1 DUP4 SUB DUP2 DUP7 GAS STATICCALL ISZERO DUP1 ISZERO PUSH2 0x5A4 JUMPI RETURNDATASIZE PUSH1 0x0 DUP1 RETURNDATACOPY RETURNDATASIZE PUSH1 0x0 REVERT JUMPDEST POP POP POP POP PUSH1 0x40 MLOAD RETURNDATASIZE PUSH1 0x0 DUP3 RETURNDATACOPY RETURNDATASIZE PUSH1 0x1F NOT PUSH1 0x1F DUP3 ADD AND DUP3 ADD DUP1 PUSH1 0x40 MSTORE POP DUP2 ADD SWAP1 PUSH2 0x5CD SWAP2 SWAP1 PUSH2 0x119A JUMP JUMPDEST SWAP3 POP SWAP3 POP SWAP3 POP SWAP2 SWAP4 SWAP1 SWAP3 POP JUMP JUMPDEST PUSH1 0x60 PUSH1 0x0 JUMPDEST PUSH1 0x20 DUP2 PUSH1 0xFF AND LT DUP1 ISZERO PUSH2 0x631 JUMPI POP PUSH1 0x0 PUSH1 0xF8 SHL DUP4 DUP3 PUSH1 0xFF AND PUSH1 0x20 DUP2 LT PUSH2 0x608 JUMPI PUSH2 0x607 PUSH2 0x1241 JUMP JUMPDEST JUMPDEST BYTE PUSH1 0xF8 SHL PUSH31 0xFFFFFFFFFFFFFFFFFFFFFFFFFFFFFFFFFFFFFFFFFFFFFFFFFFFFFFFFFFFFFF NOT AND EQ ISZERO JUMPDEST ISZERO PUSH2 0x649 JUMPI DUP1 DUP1 PUSH2 0x641 SWAP1 PUSH2 0x12AC JUMP JUMPDEST SWAP2 POP POP PUSH2 0x5DF JUMP JUMPDEST PUSH1 0x0 DUP2 PUSH1 0xFF AND PUSH8 0xFFFFFFFFFFFFFFFF DUP2 GT ISZERO PUSH2 0x668 JUMPI PUSH2 0x667 PUSH2 0xE11 JUMP JUMPDEST JUMPDEST PUSH1 0x40 MLOAD SWAP1 DUP1 DUP3 MSTORE DUP1 PUSH1 0x1F ADD PUSH1 0x1F NOT AND PUSH1 0x20 ADD DUP3 ADD PUSH1 0x40 MSTORE DUP1 ISZERO PUSH2 0x69A JUMPI DUP2 PUSH1 0x20 ADD PUSH1 0x1 DUP3 MUL DUP1 CALLDATASIZE DUP4 CALLDATACOPY DUP1 DUP3 ADD SWAP2 POP POP SWAP1 POP JUMPDEST POP SWAP1 POP PUSH1 0x0 SWAP2 POP JUMPDEST DUP1 MLOAD DUP3 PUSH1 0xFF AND LT ISZERO PUSH2 0x720 JUMPI DUP4 DUP3 PUSH1 0xFF AND PUSH1 0x20 DUP2 LT PUSH2 0x6C4 JUMPI PUSH2 0x6C3 PUSH2 0x1241 JUMP JUMPDEST JUMPDEST BYTE PUSH1 0xF8 SHL DUP2 DUP4 PUSH1 0xFF AND DUP2 MLOAD DUP2 LT PUSH2 0x6DE JUMPI PUSH2 0x6DD PUSH2 0x1241 JUMP JUMPDEST JUMPDEST PUSH1 0x20 ADD ADD SWAP1 PUSH31 0xFFFFFFFFFFFFFFFFFFFFFFFFFFFFFFFFFFFFFFFFFFFFFFFFFFFFFFFFFFFFFF NOT AND SWAP1 DUP2 PUSH1 0x0 BYTE SWAP1 MSTORE8 POP DUP2 DUP1 PUSH2 0x718 SWAP1 PUSH2 0x12AC JUMP JUMPDEST SWAP3 POP POP PUSH2 0x6A2 JUMP JUMPDEST DUP1 SWAP3 POP POP POP SWAP2 SWAP1 POP JUMP JUMPDEST PUSH1 0x0 PUSH20 0xFFFFFFFFFFFFFFFFFFFFFFFFFFFFFFFFFFFFFFFF DUP3 AND SWAP1 POP SWAP2 SWAP1 POP JUMP JUMPDEST PUSH1 0x0 DUP2 SWAP1 POP SWAP2 SWAP1 POP JUMP JUMPDEST PUSH1 0x0 PUSH2 0x76F PUSH2 0x76A PUSH2 0x765 DUP5 PUSH2 0x72A JUMP JUMPDEST PUSH2 0x74A JUMP JUMPDEST PUSH2 0x72A JUMP JUMPDEST SWAP1 POP SWAP2 SWAP1 POP JUMP JUMPDEST PUSH1 0x0 PUSH2 0x781 DUP3 PUSH2 0x754 JUMP JUMPDEST SWAP1 POP SWAP2 SWAP1 POP JUMP JUMPDEST PUSH1 0x0 PUSH2 0x793 DUP3 PUSH2 0x776 JUMP JUMPDEST SWAP1 POP SWAP2 SWAP1 POP JUMP JUMPDEST PUSH2 0x7A3 DUP2 PUSH2 0x788 JUMP JUMPDEST DUP3 MSTORE POP POP JUMP JUMPDEST PUSH1 0x0 PUSH1 0x20 DUP3 ADD SWAP1 POP PUSH2 0x7BE PUSH1 0x0 DUP4 ADD DUP5 PUSH2 0x79A JUMP JUMPDEST SWAP3 SWAP2 POP POP JUMP JUMPDEST PUSH1 0x0 PUSH2 0x7CF DUP3 PUSH2 0x776 JUMP JUMPDEST SWAP1 POP SWAP2 SWAP1 POP JUMP JUMPDEST PUSH2 0x7DF DUP2 PUSH2 0x7C4 JUMP JUMPDEST DUP3 MSTORE POP POP JUMP JUMPDEST PUSH1 0x0 PUSH1 0x20 DUP3 ADD SWAP1 POP PUSH2 0x7FA PUSH1 0x0 DUP4 ADD DUP5 PUSH2 0x7D6 JUMP JUMPDEST SWAP3 SWAP2 POP POP JUMP JUMPDEST PUSH1 0x0 PUSH1 0x40 MLOAD SWAP1 POP SWAP1 JUMP JUMPDEST PUSH1 0x0 DUP1 REVERT JUMPDEST PUSH1 0x0 DUP1 REVERT JUMPDEST PUSH1 0x0 DUP2 SWAP1 POP SWAP2 SWAP1 POP JUMP JUMPDEST PUSH2 0x827 DUP2 PUSH2 0x814 JUMP JUMPDEST DUP2 EQ PUSH2 0x832 JUMPI PUSH1 0x0 DUP1 REVERT JUMPDEST POP JUMP JUMPDEST PUSH1 0x0 DUP2 CALLDATALOAD SWAP1 POP PUSH2 0x844 DUP2 PUSH2 0x81E JUMP JUMPDEST SWAP3 SWAP2 POP POP JUMP JUMPDEST PUSH1 0x0 DUP1 PUSH1 0x40 DUP4 DUP6 SUB SLT ISZERO PUSH2 0x861 JUMPI PUSH2 0x860 PUSH2 0x80A JUMP JUMPDEST JUMPDEST PUSH1 0x0 PUSH2 0x86F DUP6 DUP3 DUP7 ADD PUSH2 0x835 JUMP JUMPDEST SWAP3 POP POP PUSH1 0x20 PUSH2 0x880 DUP6 DUP3 DUP7 ADD PUSH2 0x835 JUMP JUMPDEST SWAP2 POP POP SWAP3 POP SWAP3 SWAP1 POP JUMP JUMPDEST PUSH1 0x0 PUSH2 0x895 DUP3 PUSH2 0x776 JUMP JUMPDEST SWAP1 POP SWAP2 SWAP1 POP JUMP JUMPDEST PUSH2 0x8A5 DUP2 PUSH2 0x88A JUMP JUMPDEST DUP3 MSTORE POP POP JUMP JUMPDEST PUSH1 0x0 PUSH1 0x20 DUP3 ADD SWAP1 POP PUSH2 0x8C0 PUSH1 0x0 DUP4 ADD DUP5 PUSH2 0x89C JUMP JUMPDEST SWAP3 SWAP2 POP POP JUMP JUMPDEST PUSH1 0x0 PUSH1 0x20 DUP3 DUP5 SUB SLT ISZERO PUSH2 0x8DC JUMPI PUSH2 0x8DB PUSH2 0x80A JUMP JUMPDEST JUMPDEST PUSH1 0x0 PUSH2 0x8EA DUP5 DUP3 DUP6 ADD PUSH2 0x835 JUMP JUMPDEST SWAP2 POP POP SWAP3 SWAP2 POP POP JUMP JUMPDEST PUSH1 0x0 DUP2 MLOAD SWAP1 POP SWAP2 SWAP1 POP JUMP JUMPDEST PUSH1 0x0 DUP3 DUP3 MSTORE PUSH1 0x20 DUP3 ADD SWAP1 POP SWAP3 SWAP2 POP POP JUMP JUMPDEST PUSH1 0x0 DUP2 SWAP1 POP PUSH1 0x20 DUP3 ADD SWAP1 POP SWAP2 SWAP1 POP JUMP JUMPDEST PUSH1 0x0 DUP2 MLOAD SWAP1 POP SWAP2 SWAP1 POP JUMP JUMPDEST PUSH1 0x0 DUP3 DUP3 MSTORE PUSH1 0x20 DUP3 ADD SWAP1 POP SWAP3 SWAP2 POP POP JUMP JUMPDEST PUSH1 0x0 JUMPDEST DUP4 DUP2 LT ISZERO PUSH2 0x959 JUMPI DUP1 DUP3 ADD MLOAD DUP2 DUP5 ADD MSTORE PUSH1 0x20 DUP2 ADD SWAP1 POP PUSH2 0x93E JUMP JUMPDEST DUP4 DUP2 GT ISZERO PUSH2 0x968 JUMPI PUSH1 0x0 DUP5 DUP5 ADD MSTORE JUMPDEST POP POP POP POP JUMP JUMPDEST PUSH1 0x0 PUSH1 0x1F NOT PUSH1 0x1F DUP4 ADD AND SWAP1 POP SWAP2 SWAP1 POP JUMP JUMPDEST PUSH1 0x0 PUSH2 0x98A DUP3 PUSH2 0x91F JUMP JUMPDEST PUSH2 0x994 DUP2 DUP6 PUSH2 0x92A JUMP JUMPDEST SWAP4 POP PUSH2 0x9A4 DUP2 DUP6 PUSH1 0x20 DUP7 ADD PUSH2 0x93B JUMP JUMPDEST PUSH2 0x9AD DUP2 PUSH2 0x96E JUMP JUMPDEST DUP5 ADD SWAP2 POP POP SWAP3 SWAP2 POP POP JUMP JUMPDEST PUSH1 0x0 PUSH2 0x9C4 DUP4 DUP4 PUSH2 0x97F JUMP JUMPDEST SWAP1 POP SWAP3 SWAP2 POP POP JUMP JUMPDEST PUSH1 0x0 PUSH1 0x20 DUP3 ADD SWAP1 POP SWAP2 SWAP1 POP JUMP JUMPDEST PUSH1 0x0 PUSH2 0x9E4 DUP3 PUSH2 0x8F3 JUMP JUMPDEST PUSH2 0x9EE DUP2 DUP6 PUSH2 0x8FE JUMP JUMPDEST SWAP4 POP DUP4 PUSH1 0x20 DUP3 MUL DUP6 ADD PUSH2 0xA00 DUP6 PUSH2 0x90F JUMP JUMPDEST DUP1 PUSH1 0x0 JUMPDEST DUP6 DUP2 LT ISZERO PUSH2 0xA3C JUMPI DUP5 DUP5 SUB DUP10 MSTORE DUP2 MLOAD PUSH2 0xA1D DUP6 DUP3 PUSH2 0x9B8 JUMP JUMPDEST SWAP5 POP PUSH2 0xA28 DUP4 PUSH2 0x9CC JUMP JUMPDEST SWAP3 POP PUSH1 0x20 DUP11 ADD SWAP10 POP POP PUSH1 0x1 DUP2 ADD SWAP1 POP PUSH2 0xA04 JUMP JUMPDEST POP DUP3 SWAP8 POP DUP8 SWAP6 POP POP POP POP POP POP SWAP3 SWAP2 POP POP JUMP JUMPDEST PUSH1 0x0 DUP2 MLOAD SWAP1 POP SWAP2 SWAP1 POP JUMP JUMPDEST PUSH1 0x0 DUP3 DUP3 MSTORE PUSH1 0x20 DUP3 ADD SWAP1 POP SWAP3 SWAP2 POP POP JUMP JUMPDEST PUSH1 0x0 DUP2 SWAP1 POP PUSH1 0x20 DUP3 ADD SWAP1 POP SWAP2 SWAP1 POP JUMP JUMPDEST PUSH1 0x0 DUP2 MLOAD SWAP1 POP SWAP2 SWAP1 POP JUMP JUMPDEST PUSH1 0x0 DUP3 DUP3 MSTORE PUSH1 0x20 DUP3 ADD SWAP1 POP SWAP3 SWAP2 POP POP JUMP JUMPDEST PUSH1 0x0 PUSH2 0xAA1 DUP3 PUSH2 0xA7A JUMP JUMPDEST PUSH2 0xAAB DUP2 DUP6 PUSH2 0xA85 JUMP JUMPDEST SWAP4 POP PUSH2 0xABB DUP2 DUP6 PUSH1 0x20 DUP7 ADD PUSH2 0x93B JUMP JUMPDEST PUSH2 0xAC4 DUP2 PUSH2 0x96E JUMP JUMPDEST DUP5 ADD SWAP2 POP POP SWAP3 SWAP2 POP POP JUMP JUMPDEST PUSH1 0x0 PUSH2 0xADB DUP4 DUP4 PUSH2 0xA96 JUMP JUMPDEST SWAP1 POP SWAP3 SWAP2 POP POP JUMP JUMPDEST PUSH1 0x0 PUSH1 0x20 DUP3 ADD SWAP1 POP SWAP2 SWAP1 POP JUMP JUMPDEST PUSH1 0x0 PUSH2 0xAFB DUP3 PUSH2 0xA4E JUMP JUMPDEST PUSH2 0xB05 DUP2 DUP6 PUSH2 0xA59 JUMP JUMPDEST SWAP4 POP DUP4 PUSH1 0x20 DUP3 MUL DUP6 ADD PUSH2 0xB17 DUP6 PUSH2 0xA6A JUMP JUMPDEST DUP1 PUSH1 0x0 JUMPDEST DUP6 DUP2 LT ISZERO PUSH2 0xB53 JUMPI DUP5 DUP5 SUB DUP10 MSTORE DUP2 MLOAD PUSH2 0xB34 DUP6 DUP3 PUSH2 0xACF JUMP JUMPDEST SWAP5 POP PUSH2 0xB3F DUP4 PUSH2 0xAE3 JUMP JUMPDEST SWAP3 POP PUSH1 0x20 DUP11 ADD SWAP10 POP POP PUSH1 0x1 DUP2 ADD SWAP1 POP PUSH2 0xB1B JUMP JUMPDEST POP DUP3 SWAP8 POP DUP8 SWAP6 POP POP POP POP POP POP SWAP3 SWAP2 POP POP JUMP JUMPDEST PUSH1 0x0 PUSH1 0x60 DUP3 ADD SWAP1 POP DUP2 DUP2 SUB PUSH1 0x0 DUP4 ADD MSTORE PUSH2 0xB7F DUP2 DUP7 PUSH2 0x9D9 JUMP JUMPDEST SWAP1 POP DUP2 DUP2 SUB PUSH1 0x20 DUP4 ADD MSTORE PUSH2 0xB93 DUP2 DUP6 PUSH2 0x9D9 JUMP JUMPDEST SWAP1 POP DUP2 DUP2 SUB PUSH1 0x40 DUP4 ADD MSTORE PUSH2 0xBA7 DUP2 DUP5 PUSH2 0xAF0 JUMP JUMPDEST SWAP1 POP SWAP5 SWAP4 POP POP POP POP JUMP JUMPDEST PUSH2 0xBBA DUP2 PUSH2 0x814 JUMP JUMPDEST DUP3 MSTORE POP POP JUMP JUMPDEST PUSH1 0x0 PUSH1 0x20 DUP3 ADD SWAP1 POP PUSH2 0xBD5 PUSH1 0x0 DUP4 ADD DUP5 PUSH2 0xBB1 JUMP JUMPDEST SWAP3 SWAP2 POP POP JUMP JUMPDEST PUSH1 0x0 DUP2 ISZERO ISZERO SWAP1 POP SWAP2 SWAP1 POP JUMP JUMPDEST PUSH2 0xBF0 DUP2 PUSH2 0xBDB JUMP JUMPDEST DUP2 EQ PUSH2 0xBFB JUMPI PUSH1 0x0 DUP1 REVERT JUMPDEST POP JUMP JUMPDEST PUSH1 0x0 DUP2 MLOAD SWAP1 POP PUSH2 0xC0D DUP2 PUSH2 0xBE7 JUMP JUMPDEST SWAP3 SWAP2 POP POP JUMP JUMPDEST PUSH1 0x0 PUSH1 0x20 DUP3 DUP5 SUB SLT ISZERO PUSH2 0xC29 JUMPI PUSH2 0xC28 PUSH2 0x80A JUMP JUMPDEST JUMPDEST PUSH1 0x0 PUSH2 0xC37 DUP5 DUP3 DUP6 ADD PUSH2 0xBFE JUMP JUMPDEST SWAP2 POP POP SWAP3 SWAP2 POP POP JUMP JUMPDEST PUSH1 0x0 DUP3 DUP3 MSTORE PUSH1 0x20 DUP3 ADD SWAP1 POP SWAP3 SWAP2 POP POP JUMP JUMPDEST PUSH32 0x526571756573746572206E6F7420726567697374657265642100000000000000 PUSH1 0x0 DUP3 ADD MSTORE POP JUMP JUMPDEST PUSH1 0x0 PUSH2 0xC87 PUSH1 0x19 DUP4 PUSH2 0xC40 JUMP JUMPDEST SWAP2 POP PUSH2 0xC92 DUP3 PUSH2 0xC51 JUMP JUMPDEST PUSH1 0x20 DUP3 ADD SWAP1 POP SWAP2 SWAP1 POP JUMP JUMPDEST PUSH1 0x0 PUSH1 0x20 DUP3 ADD SWAP1 POP DUP2 DUP2 SUB PUSH1 0x0 DUP4 ADD MSTORE PUSH2 0xCB6 DUP2 PUSH2 0xC7A JUMP JUMPDEST SWAP1 POP SWAP2 SWAP1 POP JUMP JUMPDEST PUSH32 0x4772616E746572206E6F74207265676973746572656421000000000000000000 PUSH1 0x0 DUP3 ADD MSTORE POP JUMP JUMPDEST PUSH1 0x0 PUSH2 0xCF3 PUSH1 0x17 DUP4 PUSH2 0xC40 JUMP JUMPDEST SWAP2 POP PUSH2 0xCFE DUP3 PUSH2 0xCBD JUMP JUMPDEST PUSH1 0x20 DUP3 ADD SWAP1 POP SWAP2 SWAP1 POP JUMP JUMPDEST PUSH1 0x0 PUSH1 0x20 DUP3 ADD SWAP1 POP DUP2 DUP2 SUB PUSH1 0x0 DUP4 ADD MSTORE PUSH2 0xD22 DUP2 PUSH2 0xCE6 JUMP JUMPDEST SWAP1 POP SWAP2 SWAP1 POP JUMP JUMPDEST PUSH32 0x4E6577207065726D697373696F6E20726571756573742066726F6D3A00000000 PUSH1 0x0 DUP3 ADD MSTORE POP JUMP JUMPDEST PUSH1 0x0 PUSH2 0xD5F PUSH1 0x1C DUP4 PUSH2 0xC40 JUMP JUMPDEST SWAP2 POP PUSH2 0xD6A DUP3 PUSH2 0xD29 JUMP JUMPDEST PUSH1 0x20 DUP3 ADD SWAP1 POP SWAP2 SWAP1 POP JUMP JUMPDEST PUSH1 0x0 PUSH1 0x40 DUP3 ADD SWAP1 POP PUSH2 0xD8A PUSH1 0x0 DUP4 ADD DUP5 PUSH2 0xBB1 JUMP JUMPDEST DUP2 DUP2 SUB PUSH1 0x20 DUP4 ADD MSTORE PUSH2 0xD9B DUP2 PUSH2 0xD52 JUMP JUMPDEST SWAP1 POP SWAP3 SWAP2 POP POP JUMP JUMPDEST PUSH1 0x0 PUSH2 0xDAE DUP3 PUSH2 0x91F JUMP JUMPDEST PUSH2 0xDB8 DUP2 DUP6 PUSH2 0xC40 JUMP JUMPDEST SWAP4 POP PUSH2 0xDC8 DUP2 DUP6 PUSH1 0x20 DUP7 ADD PUSH2 0x93B JUMP JUMPDEST PUSH2 0xDD1 DUP2 PUSH2 0x96E JUMP JUMPDEST DUP5 ADD SWAP2 POP POP SWAP3 SWAP2 POP POP JUMP JUMPDEST PUSH1 0x0 PUSH1 0x40 DUP3 ADD SWAP1 POP PUSH2 0xDF1 PUSH1 0x0 DUP4 ADD DUP6 PUSH2 0xBB1 JUMP JUMPDEST DUP2 DUP2 SUB PUSH1 0x20 DUP4 ADD MSTORE PUSH2 0xE03 DUP2 DUP5 PUSH2 0xDA3 JUMP JUMPDEST SWAP1 POP SWAP4 SWAP3 POP POP POP JUMP JUMPDEST PUSH1 0x0 DUP1 REVERT JUMPDEST PUSH32 0x4E487B7100000000000000000000000000000000000000000000000000000000 PUSH1 0x0 MSTORE PUSH1 0x41 PUSH1 0x4 MSTORE PUSH1 0x24 PUSH1 0x0 REVERT JUMPDEST PUSH2 0xE49 DUP3 PUSH2 0x96E JUMP JUMPDEST DUP2 ADD DUP2 DUP2 LT PUSH8 0xFFFFFFFFFFFFFFFF DUP3 GT OR ISZERO PUSH2 0xE68 JUMPI PUSH2 0xE67 PUSH2 0xE11 JUMP JUMPDEST JUMPDEST DUP1 PUSH1 0x40 MSTORE POP POP POP JUMP JUMPDEST PUSH1 0x0 PUSH2 0xE7B PUSH2 0x800 JUMP JUMPDEST SWAP1 POP PUSH2 0xE87 DUP3 DUP3 PUSH2 0xE40 JUMP JUMPDEST SWAP2 SWAP1 POP JUMP JUMPDEST PUSH1 0x0 PUSH8 0xFFFFFFFFFFFFFFFF DUP3 GT ISZERO PUSH2 0xEA7 JUMPI PUSH2 0xEA6 PUSH2 0xE11 JUMP JUMPDEST JUMPDEST PUSH1 0x20 DUP3 MUL SWAP1 POP PUSH1 0x20 DUP2 ADD SWAP1 POP SWAP2 SWAP1 POP JUMP JUMPDEST PUSH1 0x0 DUP1 REVERT JUMPDEST PUSH1 0x0 DUP1 REVERT JUMPDEST PUSH1 0x0 PUSH8 0xFFFFFFFFFFFFFFFF DUP3 GT ISZERO PUSH2 0xEDD JUMPI PUSH2 0xEDC PUSH2 0xE11 JUMP JUMPDEST JUMPDEST PUSH2 0xEE6 DUP3 PUSH2 0x96E JUMP JUMPDEST SWAP1 POP PUSH1 0x20 DUP2 ADD SWAP1 POP SWAP2 SWAP1 POP JUMP JUMPDEST PUSH1 0x0 PUSH2 0xF06 PUSH2 0xF01 DUP5 PUSH2 0xEC2 JUMP JUMPDEST PUSH2 0xE71 JUMP JUMPDEST SWAP1 POP DUP3 DUP2 MSTORE PUSH1 0x20 DUP2 ADD DUP5 DUP5 DUP5 ADD GT ISZERO PUSH2 0xF22 JUMPI PUSH2 0xF21 PUSH2 0xEBD JUMP JUMPDEST JUMPDEST PUSH2 0xF2D DUP5 DUP3 DUP6 PUSH2 0x93B JUMP JUMPDEST POP SWAP4 SWAP3 POP POP POP JUMP JUMPDEST PUSH1 0x0 DUP3 PUSH1 0x1F DUP4 ADD SLT PUSH2 0xF4A JUMPI PUSH2 0xF49 PUSH2 0xE0C JUMP JUMPDEST JUMPDEST DUP2 MLOAD PUSH2 0xF5A DUP5 DUP3 PUSH1 0x20 DUP7 ADD PUSH2 0xEF3 JUMP JUMPDEST SWAP2 POP POP SWAP3 SWAP2 POP POP JUMP JUMPDEST PUSH1 0x0 PUSH2 0xF76 PUSH2 0xF71 DUP5 PUSH2 0xE8C JUMP JUMPDEST PUSH2 0xE71 JUMP JUMPDEST SWAP1 POP DUP1 DUP4 DUP3 MSTORE PUSH1 0x20 DUP3 ADD SWAP1 POP PUSH1 0x20 DUP5 MUL DUP4 ADD DUP6 DUP2 GT ISZERO PUSH2 0xF99 JUMPI PUSH2 0xF98 PUSH2 0xEB8 JUMP JUMPDEST JUMPDEST DUP4 JUMPDEST DUP2 DUP2 LT ISZERO PUSH2 0xFE0 JUMPI DUP1 MLOAD PUSH8 0xFFFFFFFFFFFFFFFF DUP2 GT ISZERO PUSH2 0xFBE JUMPI PUSH2 0xFBD PUSH2 0xE0C JUMP JUMPDEST JUMPDEST DUP1 DUP7 ADD PUSH2 0xFCB DUP10 DUP3 PUSH2 0xF35 JUMP JUMPDEST DUP6 MSTORE PUSH1 0x20 DUP6 ADD SWAP5 POP POP POP PUSH1 0x20 DUP2 ADD SWAP1 POP PUSH2 0xF9B JUMP JUMPDEST POP POP POP SWAP4 SWAP3 POP POP POP JUMP JUMPDEST PUSH1 0x0 DUP3 PUSH1 0x1F DUP4 ADD SLT PUSH2 0xFFF JUMPI PUSH2 0xFFE PUSH2 0xE0C JUMP JUMPDEST JUMPDEST DUP2 MLOAD PUSH2 0x100F DUP5 DUP3 PUSH1 0x20 DUP7 ADD PUSH2 0xF63 JUMP JUMPDEST SWAP2 POP POP SWAP3 SWAP2 POP POP JUMP JUMPDEST PUSH1 0x0 PUSH8 0xFFFFFFFFFFFFFFFF DUP3 GT ISZERO PUSH2 0x1033 JUMPI PUSH2 0x1032 PUSH2 0xE11 JUMP JUMPDEST JUMPDEST PUSH1 0x20 DUP3 MUL SWAP1 POP PUSH1 0x20 DUP2 ADD SWAP1 POP SWAP2 SWAP1 POP JUMP JUMPDEST PUSH1 0x0 PUSH8 0xFFFFFFFFFFFFFFFF DUP3 GT ISZERO PUSH2 0x105F JUMPI PUSH2 0x105E PUSH2 0xE11 JUMP JUMPDEST JUMPDEST PUSH2 0x1068 DUP3 PUSH2 0x96E JUMP JUMPDEST SWAP1 POP PUSH1 0x20 DUP2 ADD SWAP1 POP SWAP2 SWAP1 POP JUMP JUMPDEST PUSH1 0x0 PUSH2 0x1088 PUSH2 0x1083 DUP5 PUSH2 0x1044 JUMP JUMPDEST PUSH2 0xE71 JUMP JUMPDEST SWAP1 POP DUP3 DUP2 MSTORE PUSH1 0x20 DUP2 ADD DUP5 DUP5 DUP5 ADD GT ISZERO PUSH2 0x10A4 JUMPI PUSH2 0x10A3 PUSH2 0xEBD JUMP JUMPDEST JUMPDEST PUSH2 0x10AF DUP5 DUP3 DUP6 PUSH2 0x93B JUMP JUMPDEST POP SWAP4 SWAP3 POP POP POP JUMP JUMPDEST PUSH1 0x0 DUP3 PUSH1 0x1F DUP4 ADD SLT PUSH2 0x10CC JUMPI PUSH2 0x10CB PUSH2 0xE0C JUMP JUMPDEST JUMPDEST DUP2 MLOAD PUSH2 0x10DC DUP5 DUP3 PUSH1 0x20 DUP7 ADD PUSH2 0x1075 JUMP JUMPDEST SWAP2 POP POP SWAP3 SWAP2 POP POP JUMP JUMPDEST PUSH1 0x0 PUSH2 0x10F8 PUSH2 0x10F3 DUP5 PUSH2 0x1018 JUMP JUMPDEST PUSH2 0xE71 JUMP JUMPDEST SWAP1 POP DUP1 DUP4 DUP3 MSTORE PUSH1 0x20 DUP3 ADD SWAP1 POP PUSH1 0x20 DUP5 MUL DUP4 ADD DUP6 DUP2 GT ISZERO PUSH2 0x111B JUMPI PUSH2 0x111A PUSH2 0xEB8 JUMP JUMPDEST JUMPDEST DUP4 JUMPDEST DUP2 DUP2 LT ISZERO PUSH2 0x1162 JUMPI DUP1 MLOAD PUSH8 0xFFFFFFFFFFFFFFFF DUP2 GT ISZERO PUSH2 0x1140 JUMPI PUSH2 0x113F PUSH2 0xE0C JUMP JUMPDEST JUMPDEST DUP1 DUP7 ADD PUSH2 0x114D DUP10 DUP3 PUSH2 0x10B7 JUMP JUMPDEST DUP6 MSTORE PUSH1 0x20 DUP6 ADD SWAP5 POP POP POP PUSH1 0x20 DUP2 ADD SWAP1 POP PUSH2 0x111D JUMP JUMPDEST POP POP POP SWAP4 SWAP3 POP POP POP JUMP JUMPDEST PUSH1 0x0 DUP3 PUSH1 0x1F DUP4 ADD SLT PUSH2 0x1181 JUMPI PUSH2 0x1180 PUSH2 0xE0C JUMP JUMPDEST JUMPDEST DUP2 MLOAD PUSH2 0x1191 DUP5 DUP3 PUSH1 0x20 DUP7 ADD PUSH2 0x10E5 JUMP JUMPDEST SWAP2 POP POP SWAP3 SWAP2 POP POP JUMP JUMPDEST PUSH1 0x0 DUP1 PUSH1 0x0 PUSH1 0x60 DUP5 DUP7 SUB SLT ISZERO PUSH2 0x11B3 JUMPI PUSH2 0x11B2 PUSH2 0x80A JUMP JUMPDEST JUMPDEST PUSH1 0x0 DUP5 ADD MLOAD PUSH8 0xFFFFFFFFFFFFFFFF DUP2 GT ISZERO PUSH2 0x11D1 JUMPI PUSH2 0x11D0 PUSH2 0x80F JUMP JUMPDEST JUMPDEST PUSH2 0x11DD DUP7 DUP3 DUP8 ADD PUSH2 0xFEA JUMP JUMPDEST SWAP4 POP POP PUSH1 0x20 DUP5 ADD MLOAD PUSH8 0xFFFFFFFFFFFFFFFF DUP2 GT ISZERO PUSH2 0x11FE JUMPI PUSH2 0x11FD PUSH2 0x80F JUMP JUMPDEST JUMPDEST PUSH2 0x120A DUP7 DUP3 DUP8 ADD PUSH2 0xFEA JUMP JUMPDEST SWAP3 POP POP PUSH1 0x40 DUP5 ADD MLOAD PUSH8 0xFFFFFFFFFFFFFFFF DUP2 GT ISZERO PUSH2 0x122B JUMPI PUSH2 0x122A PUSH2 0x80F JUMP JUMPDEST JUMPDEST PUSH2 0x1237 DUP7 DUP3 DUP8 ADD PUSH2 0x116C JUMP JUMPDEST SWAP2 POP POP SWAP3 POP SWAP3 POP SWAP3 JUMP JUMPDEST PUSH32 0x4E487B7100000000000000000000000000000000000000000000000000000000 PUSH1 0x0 MSTORE PUSH1 0x32 PUSH1 0x4 MSTORE PUSH1 0x24 PUSH1 0x0 REVERT JUMPDEST PUSH32 0x4E487B7100000000000000000000000000000000000000000000000000000000 PUSH1 0x0 MSTORE PUSH1 0x11 PUSH1 0x4 MSTORE PUSH1 0x24 PUSH1 0x0 REVERT JUMPDEST PUSH1 0x0 PUSH1 0xFF DUP3 AND SWAP1 POP SWAP2 SWAP1 POP JUMP JUMPDEST PUSH1 0x0 PUSH2 0x12B7 DUP3 PUSH2 0x129F JUMP JUMPDEST SWAP2 POP PUSH1 0xFF DUP3 EQ ISZERO PUSH2 0x12CB JUMPI PUSH2 0x12CA PUSH2 0x1270 JUMP JUMPDEST JUMPDEST PUSH1 0x1 DUP3 ADD SWAP1 POP SWAP2 SWAP1 POP JUMP INVALID LOG2 PUSH5 0x6970667358 0x22 SLT KECCAK256 0x1E EXTCODEHASH 0x4A 0xB1 SWAP8 PUSH3 0xE7552 KECCAK256 RETURNDATACOPY 0xAB PUSH10 0x5AF92FD09F52E39867EE 0xF CALLDATASIZE DUP10 SWAP16 STOP LOG0 0xD3 PUSH6 0x4564736F6C63 NUMBER STOP ADDMOD EXP STOP CALLER "
    },
    "gasEstimates": {
      "creation": {
        "codeDepositCost": "975200",
        "executionCost": "infinite",
        "totalCost": "infinite"
      },
      "external": {
        "approvePermission(bytes32)": "infinite",
        "metadata()": "infinite",
        "notificationManager()": "infinite",
        "registry()": "infinite",
        "requestPermission(bytes32,bytes32)": "infinite"
      },
      "internal": {
        "bytes32ToString(bytes32)": "infinite"
      }
    },
    "methodIdentifiers": {
      "approvePermission(bytes32)": "a6fb108f",
      "metadata()": "392f37e9",
      "notificationManager()": "1d755579",
      "registry()": "7b103999",
      "requestPermission(bytes32,bytes32)": "6938323a"
    }
  },
  "storageLayout": {
    "storage": [
      {
        "astId": 261,
        "contract": "permission.sol:Permission",
        "label": "registry",
        "offset": 0,
        "slot": "0",
        "type": "t_contract(Registry)575"
      },
      {
        "astId": 264,
        "contract": "permission.sol:Permission",
        "label": "notificationManager",
        "offset": 0,
        "slot": "1",
        "type": "t_contract(NotificationManager)58"
      },
      {
        "astId": 267,
        "contract": "permission.sol:Permission",
        "label": "metadata",
        "offset": 0,
        "slot": "2",
        "type": "t_contract(Metadata)253"
      }
    ],
    "types": {
      "t_contract(Metadata)253": {
        "encoding": "inplace",
        "label": "contract Metadata",
        "numberOfBytes": "20"
      },
      "t_contract(NotificationManager)58": {
        "encoding": "inplace",
        "label": "contract NotificationManager",
        "numberOfBytes": "20"
      },
      "t_contract(Registry)575": {
        "encoding": "inplace",
        "label": "contract Registry",
        "numberOfBytes": "20"
      }
    }
  },
  "userdoc": {
    "kind": "user",
    "methods": {},
    "version": 1
  }
}