{
  "abi": [
    {
      "inputs": [
        {
          "internalType": "bytes32",
          "name": "pub_key",
          "type": "bytes32"
        }
      ],
      "name": "checkUser",
      "outputs": [
        {
          "internalType": "bool",
          "name": "",
          "type": "bool"
        }
      ],
      "stateMutability": "view",
      "type": "function"
    },
    {
      "inputs": [
        {
          "internalType": "bytes32",
          "name": "pub_key",
          "type": "bytes32"
        }
      ],
      "name": "getUserRole",
      "outputs": [
        {
          "internalType": "enum Registry.Role",
          "name": "",
          "type": "uint8"
        }
      ],
      "stateMutability": "view",
      "type": "function"
    },
    {
      "inputs": [
        {
          "internalType": "bytes32",
          "name": "_key",
          "type": "bytes32"
        },
        {
          "internalType": "string",
          "name": "_role",
          "type": "string"
        }
      ],
      "name": "registerUser",
      "outputs": [],
      "stateMutability": "nonpayable",
      "type": "function"
    },
    {
      "inputs": [
        {
          "internalType": "bytes32",
          "name": "",
          "type": "bytes32"
        }
      ],
      "name": "users",
      "outputs": [
        {
          "internalType": "enum Registry.Role",
          "name": "role",
          "type": "uint8"
        },
        {
          "internalType": "bool",
          "name": "isRegistered",
          "type": "bool"
        }
      ],
      "stateMutability": "view",
      "type": "function"
    }
  ],
  "devdoc": {
    "kind": "dev",
    "methods": {},
    "version": 1
  },
  "evm": {
    "assembly": "    /* \"registry.sol\":60:1394  contract Registry {... */\n  mstore(0x40, 0x80)\n  callvalue\n  dup1\n  iszero\n  tag_1\n  jumpi\n  0x00\n  dup1\n  revert\ntag_1:\n  pop\n  dataSize(sub_0)\n  dup1\n  dataOffset(sub_0)\n  0x00\n  codecopy\n  0x00\n  return\nstop\n\nsub_0: assembly {\n        /* \"registry.sol\":60:1394  contract Registry {... */\n      mstore(0x40, 0x80)\n      callvalue\n      dup1\n      iszero\n      tag_1\n      jumpi\n      0x00\n      dup1\n      revert\n    tag_1:\n      pop\n      jumpi(tag_2, lt(calldatasize, 0x04))\n      shr(0xe0, calldataload(0x00))\n      dup1\n      0x0b2551c2\n      eq\n      tag_3\n      jumpi\n      dup1\n      0x4a54315c\n      eq\n      tag_4\n      jumpi\n      dup1\n      0xa95ceb64\n      eq\n      tag_5\n      jumpi\n      dup1\n      0xcea6ab98\n      eq\n      tag_6\n      jumpi\n    tag_2:\n      0x00\n      dup1\n      revert\n        /* \"registry.sol\":273:389  function checkUser(bytes32 pub_key) public view returns (bool) {... */\n    tag_3:\n      tag_7\n      0x04\n      dup1\n      calldatasize\n      sub\n      dup2\n      add\n      swap1\n      tag_8\n      swap2\n      swap1\n      tag_9\n      jump\t// in\n    tag_8:\n      tag_10\n      jump\t// in\n    tag_7:\n      mload(0x40)\n      tag_11\n      swap2\n      swap1\n      tag_12\n      jump\t// in\n    tag_11:\n      mload(0x40)\n      dup1\n      swap2\n      sub\n      swap1\n      return\n        /* \"registry.sol\":397:1203  function registerUser(bytes32 _key, string memory _role) public {... */\n    tag_4:\n      tag_13\n      0x04\n      dup1\n      calldatasize\n      sub\n      dup2\n      add\n      swap1\n      tag_14\n      swap2\n      swap1\n      tag_15\n      jump\t// in\n    tag_14:\n      tag_16\n      jump\t// in\n    tag_13:\n      stop\n        /* \"registry.sol\":1211:1391  function getUserRole(bytes32 pub_key) public view returns (Role) {... */\n    tag_5:\n      tag_17\n      0x04\n      dup1\n      calldatasize\n      sub\n      dup2\n      add\n      swap1\n      tag_18\n      swap2\n      swap1\n      tag_9\n      jump\t// in\n    tag_18:\n      tag_19\n      jump\t// in\n    tag_17:\n      mload(0x40)\n      tag_20\n      swap2\n      swap1\n      tag_21\n      jump\t// in\n    tag_20:\n      mload(0x40)\n      dup1\n      swap2\n      sub\n      swap1\n      return\n        /* \"registry.sol\":227:264  mapping(bytes32 => User) public users */\n    tag_6:\n      tag_22\n      0x04\n      dup1\n      calldatasize\n      sub\n      dup2\n      add\n      swap1\n      tag_23\n      swap2\n      swap1\n      tag_9\n      jump\t// in\n    tag_23:\n      tag_24\n      jump\t// in\n    tag_22:\n      mload(0x40)\n      tag_25\n      swap3\n      swap2\n      swap1\n      tag_26\n      jump\t// in\n    tag_25:\n      mload(0x40)\n      dup1\n      swap2\n      sub\n      swap1\n      return\n        /* \"registry.sol\":273:389  function checkUser(bytes32 pub_key) public view returns (bool) {... */\n    tag_10:\n        /* \"registry.sol\":330:334  bool */\n      0x00\n        /* \"registry.sol\":354:359  users */\n      dup1\n        /* \"registry.sol\":354:368  users[pub_key] */\n      0x00\n        /* \"registry.sol\":360:367  pub_key */\n      dup4\n        /* \"registry.sol\":354:368  users[pub_key] */\n      dup2\n      mstore\n      0x20\n      add\n      swap1\n      dup2\n      mstore\n      0x20\n      add\n      0x00\n      keccak256\n        /* \"registry.sol\":354:381  users[pub_key].isRegistered */\n      0x00\n      add\n      0x01\n      swap1\n      sload\n      swap1\n      0x0100\n      exp\n      swap1\n      div\n      0xff\n      and\n        /* \"registry.sol\":347:381  return users[pub_key].isRegistered */\n      swap1\n      pop\n        /* \"registry.sol\":273:389  function checkUser(bytes32 pub_key) public view returns (bool) {... */\n      swap2\n      swap1\n      pop\n      jump\t// out\n        /* \"registry.sol\":397:1203  function registerUser(bytes32 _key, string memory _role) public {... */\n    tag_16:\n        /* \"registry.sol\":481:496  checkUser(_key) */\n      tag_29\n        /* \"registry.sol\":491:495  _key */\n      dup3\n        /* \"registry.sol\":481:490  checkUser */\n      tag_10\n        /* \"registry.sol\":481:496  checkUser(_key) */\n      jump\t// in\n    tag_29:\n        /* \"registry.sol\":480:496  !checkUser(_key) */\n      iszero\n        /* \"registry.sol\":472:525  require(!checkUser(_key), \"User already registered!\") */\n      tag_30\n      jumpi\n      mload(0x40)\n      0x08c379a000000000000000000000000000000000000000000000000000000000\n      dup2\n      mstore\n      0x04\n      add\n      tag_31\n      swap1\n      tag_32\n      jump\t// in\n    tag_31:\n      mload(0x40)\n      dup1\n      swap2\n      sub\n      swap1\n      revert\n    tag_30:\n        /* \"registry.sol\":538:554  bytes32 roleHash */\n      0x00\n        /* \"registry.sol\":584:589  _role */\n      dup2\n        /* \"registry.sol\":567:590  abi.encodePacked(_role) */\n      add(0x20, mload(0x40))\n      tag_33\n      swap2\n      swap1\n      tag_34\n      jump\t// in\n    tag_33:\n      mload(0x40)\n      0x20\n      dup2\n      dup4\n      sub\n      sub\n      dup2\n      mstore\n      swap1\n      0x40\n      mstore\n        /* \"registry.sol\":557:591  keccak256(abi.encodePacked(_role)) */\n      dup1\n      mload\n      swap1\n      0x20\n      add\n      keccak256\n        /* \"registry.sol\":538:591  bytes32 roleHash = keccak256(abi.encodePacked(_role)) */\n      swap1\n      pop\n        /* \"registry.sol\":618:638  keccak256(\"Patient\") */\n      0x675bc9802ff0994bbcafe826bffd0f15ec0a3ec17fd0cfbe035a08cbededf8a3\n        /* \"registry.sol\":606:614  roleHash */\n      dup2\n        /* \"registry.sol\":606:638  roleHash == keccak256(\"Patient\") */\n      eq\n        /* \"registry.sol\":602:1196  if (roleHash == keccak256(\"Patient\")) {... */\n      iszero\n      tag_35\n      jumpi\n        /* \"registry.sol\":669:715  User({role: Role.Patient, isRegistered: true}) */\n      mload(0x40)\n      dup1\n      0x40\n      add\n      0x40\n      mstore\n      dup1\n        /* \"registry.sol\":681:693  Role.Patient */\n      0x00\n        /* \"registry.sol\":669:715  User({role: Role.Patient, isRegistered: true}) */\n      0x03\n      dup2\n      gt\n      iszero\n      tag_36\n      jumpi\n      tag_37\n      tag_38\n      jump\t// in\n    tag_37:\n    tag_36:\n      dup2\n      mstore\n      0x20\n      add\n        /* \"registry.sol\":709:713  true */\n      0x01\n        /* \"registry.sol\":669:715  User({role: Role.Patient, isRegistered: true}) */\n      iszero\n      iszero\n      dup2\n      mstore\n      pop\n        /* \"registry.sol\":655:660  users */\n      0x00\n        /* \"registry.sol\":655:666  users[_key] */\n      dup1\n        /* \"registry.sol\":661:665  _key */\n      dup6\n        /* \"registry.sol\":655:666  users[_key] */\n      dup2\n      mstore\n      0x20\n      add\n      swap1\n      dup2\n      mstore\n      0x20\n      add\n      0x00\n      keccak256\n        /* \"registry.sol\":655:715  users[_key] = User({role: Role.Patient, isRegistered: true}) */\n      0x00\n      dup3\n      add\n      mload\n      dup2\n      0x00\n      add\n      exp(0x0100, 0x00)\n      dup2\n      sload\n      dup2\n      0xff\n      mul\n      not\n      and\n      swap1\n      dup4\n      0x03\n      dup2\n      gt\n      iszero\n      tag_39\n      jumpi\n      tag_40\n      tag_38\n      jump\t// in\n    tag_40:\n    tag_39:\n      mul\n      or\n      swap1\n      sstore\n      pop\n      0x20\n      dup3\n      add\n      mload\n      dup2\n      0x00\n      add\n      exp(0x0100, 0x01)\n      dup2\n      sload\n      dup2\n      0xff\n      mul\n      not\n      and\n      swap1\n      dup4\n      iszero\n      iszero\n      mul\n      or\n      swap1\n      sstore\n      pop\n      swap1\n      pop\n      pop\n        /* \"registry.sol\":602:1196  if (roleHash == keccak256(\"Patient\")) {... */\n      jump(tag_41)\n    tag_35:\n        /* \"registry.sol\":749:774  keccak256(\"CareProvider\") */\n      0x65d6d8ec1bc409f65d476fe400dd3779c6e4acfa95e33ebdd3c4b2c97785af43\n        /* \"registry.sol\":737:745  roleHash */\n      dup2\n        /* \"registry.sol\":737:774  roleHash == keccak256(\"CareProvider\") */\n      eq\n        /* \"registry.sol\":733:1196  if (roleHash == keccak256(\"CareProvider\")) {... */\n      iszero\n      tag_42\n      jumpi\n        /* \"registry.sol\":805:856  User({role: Role.CareProvider, isRegistered: true}) */\n      mload(0x40)\n      dup1\n      0x40\n      add\n      0x40\n      mstore\n      dup1\n        /* \"registry.sol\":817:834  Role.CareProvider */\n      0x01\n        /* \"registry.sol\":805:856  User({role: Role.CareProvider, isRegistered: true}) */\n      0x03\n      dup2\n      gt\n      iszero\n      tag_43\n      jumpi\n      tag_44\n      tag_38\n      jump\t// in\n    tag_44:\n    tag_43:\n      dup2\n      mstore\n      0x20\n      add\n        /* \"registry.sol\":850:854  true */\n      0x01\n        /* \"registry.sol\":805:856  User({role: Role.CareProvider, isRegistered: true}) */\n      iszero\n      iszero\n      dup2\n      mstore\n      pop\n        /* \"registry.sol\":791:796  users */\n      0x00\n        /* \"registry.sol\":791:802  users[_key] */\n      dup1\n        /* \"registry.sol\":797:801  _key */\n      dup6\n        /* \"registry.sol\":791:802  users[_key] */\n      dup2\n      mstore\n      0x20\n      add\n      swap1\n      dup2\n      mstore\n      0x20\n      add\n      0x00\n      keccak256\n        /* \"registry.sol\":791:856  users[_key] = User({role: Role.CareProvider, isRegistered: true}) */\n      0x00\n      dup3\n      add\n      mload\n      dup2\n      0x00\n      add\n      exp(0x0100, 0x00)\n      dup2\n      sload\n      dup2\n      0xff\n      mul\n      not\n      and\n      swap1\n      dup4\n      0x03\n      dup2\n      gt\n      iszero\n      tag_45\n      jumpi\n      tag_46\n      tag_38\n      jump\t// in\n    tag_46:\n    tag_45:\n      mul\n      or\n      swap1\n      sstore\n      pop\n      0x20\n      dup3\n      add\n      mload\n      dup2\n      0x00\n      add\n      exp(0x0100, 0x01)\n      dup2\n      sload\n      dup2\n      0xff\n      mul\n      not\n      and\n      swap1\n      dup4\n      iszero\n      iszero\n      mul\n      or\n      swap1\n      sstore\n      pop\n      swap1\n      pop\n      pop\n        /* \"registry.sol\":733:1196  if (roleHash == keccak256(\"CareProvider\")) {... */\n      jump(tag_47)\n    tag_42:\n        /* \"registry.sol\":890:913  keccak256(\"Researcher\") */\n      0xb7574f44139a2269a58d8ea35f879ab6fce8bf7505ad0717e10d89bf739e7606\n        /* \"registry.sol\":878:886  roleHash */\n      dup2\n        /* \"registry.sol\":878:913  roleHash == keccak256(\"Researcher\") */\n      eq\n        /* \"registry.sol\":874:1196  if (roleHash == keccak256(\"Researcher\")) {... */\n      iszero\n      tag_48\n      jumpi\n        /* \"registry.sol\":944:993  User({role: Role.Researcher, isRegistered: true}) */\n      mload(0x40)\n      dup1\n      0x40\n      add\n      0x40\n      mstore\n      dup1\n        /* \"registry.sol\":956:971  Role.Researcher */\n      0x02\n        /* \"registry.sol\":944:993  User({role: Role.Researcher, isRegistered: true}) */\n      0x03\n      dup2\n      gt\n      iszero\n      tag_49\n      jumpi\n      tag_50\n      tag_38\n      jump\t// in\n    tag_50:\n    tag_49:\n      dup2\n      mstore\n      0x20\n      add\n        /* \"registry.sol\":987:991  true */\n      0x01\n        /* \"registry.sol\":944:993  User({role: Role.Researcher, isRegistered: true}) */\n      iszero\n      iszero\n      dup2\n      mstore\n      pop\n        /* \"registry.sol\":930:935  users */\n      0x00\n        /* \"registry.sol\":930:941  users[_key] */\n      dup1\n        /* \"registry.sol\":936:940  _key */\n      dup6\n        /* \"registry.sol\":930:941  users[_key] */\n      dup2\n      mstore\n      0x20\n      add\n      swap1\n      dup2\n      mstore\n      0x20\n      add\n      0x00\n      keccak256\n        /* \"registry.sol\":930:993  users[_key] = User({role: Role.Researcher, isRegistered: true}) */\n      0x00\n      dup3\n      add\n      mload\n      dup2\n      0x00\n      add\n      exp(0x0100, 0x00)\n      dup2\n      sload\n      dup2\n      0xff\n      mul\n      not\n      and\n      swap1\n      dup4\n      0x03\n      dup2\n      gt\n      iszero\n      tag_51\n      jumpi\n      tag_52\n      tag_38\n      jump\t// in\n    tag_52:\n    tag_51:\n      mul\n      or\n      swap1\n      sstore\n      pop\n      0x20\n      dup3\n      add\n      mload\n      dup2\n      0x00\n      add\n      exp(0x0100, 0x01)\n      dup2\n      sload\n      dup2\n      0xff\n      mul\n      not\n      and\n      swap1\n      dup4\n      iszero\n      iszero\n      mul\n      or\n      swap1\n      sstore\n      pop\n      swap1\n      pop\n      pop\n        /* \"registry.sol\":874:1196  if (roleHash == keccak256(\"Researcher\")) {... */\n      jump(tag_53)\n    tag_48:\n        /* \"registry.sol\":1027:1049  keccak256(\"Regulator\") */\n      0x60098439c256bcef427a4680fedcb96a8a1b70ca9eca0d69db5352a893ea0155\n        /* \"registry.sol\":1015:1023  roleHash */\n      dup2\n        /* \"registry.sol\":1015:1049  roleHash == keccak256(\"Regulator\") */\n      eq\n        /* \"registry.sol\":1011:1196  if (roleHash == keccak256(\"Regulator\")) {... */\n      iszero\n      tag_54\n      jumpi\n        /* \"registry.sol\":1080:1128  User({role: Role.Regulator, isRegistered: true}) */\n      mload(0x40)\n      dup1\n      0x40\n      add\n      0x40\n      mstore\n      dup1\n        /* \"registry.sol\":1092:1106  Role.Regulator */\n      0x03\n        /* \"registry.sol\":1080:1128  User({role: Role.Regulator, isRegistered: true}) */\n      dup1\n      dup2\n      gt\n      iszero\n      tag_55\n      jumpi\n      tag_56\n      tag_38\n      jump\t// in\n    tag_56:\n    tag_55:\n      dup2\n      mstore\n      0x20\n      add\n        /* \"registry.sol\":1122:1126  true */\n      0x01\n        /* \"registry.sol\":1080:1128  User({role: Role.Regulator, isRegistered: true}) */\n      iszero\n      iszero\n      dup2\n      mstore\n      pop\n        /* \"registry.sol\":1066:1071  users */\n      0x00\n        /* \"registry.sol\":1066:1077  users[_key] */\n      dup1\n        /* \"registry.sol\":1072:1076  _key */\n      dup6\n        /* \"registry.sol\":1066:1077  users[_key] */\n      dup2\n      mstore\n      0x20\n      add\n      swap1\n      dup2\n      mstore\n      0x20\n      add\n      0x00\n      keccak256\n        /* \"registry.sol\":1066:1128  users[_key] = User({role: Role.Regulator, isRegistered: true}) */\n      0x00\n      dup3\n      add\n      mload\n      dup2\n      0x00\n      add\n      exp(0x0100, 0x00)\n      dup2\n      sload\n      dup2\n      0xff\n      mul\n      not\n      and\n      swap1\n      dup4\n      0x03\n      dup2\n      gt\n      iszero\n      tag_57\n      jumpi\n      tag_58\n      tag_38\n      jump\t// in\n    tag_58:\n    tag_57:\n      mul\n      or\n      swap1\n      sstore\n      pop\n      0x20\n      dup3\n      add\n      mload\n      dup2\n      0x00\n      add\n      exp(0x0100, 0x01)\n      dup2\n      sload\n      dup2\n      0xff\n      mul\n      not\n      and\n      swap1\n      dup4\n      iszero\n      iszero\n      mul\n      or\n      swap1\n      sstore\n      pop\n      swap1\n      pop\n      pop\n        /* \"registry.sol\":1011:1196  if (roleHash == keccak256(\"Regulator\")) {... */\n      jump(tag_59)\n    tag_54:\n        /* \"registry.sol\":1161:1184  revert(\"Invalid role!\") */\n      mload(0x40)\n      0x08c379a000000000000000000000000000000000000000000000000000000000\n      dup2\n      mstore\n      0x04\n      add\n      tag_60\n      swap1\n      tag_61\n      jump\t// in\n    tag_60:\n      mload(0x40)\n      dup1\n      swap2\n      sub\n      swap1\n      revert\n        /* \"registry.sol\":1011:1196  if (roleHash == keccak256(\"Regulator\")) {... */\n    tag_59:\n        /* \"registry.sol\":874:1196  if (roleHash == keccak256(\"Researcher\")) {... */\n    tag_53:\n        /* \"registry.sol\":733:1196  if (roleHash == keccak256(\"CareProvider\")) {... */\n    tag_47:\n        /* \"registry.sol\":602:1196  if (roleHash == keccak256(\"Patient\")) {... */\n    tag_41:\n        /* \"registry.sol\":461:1203  {... */\n      pop\n        /* \"registry.sol\":397:1203  function registerUser(bytes32 _key, string memory _role) public {... */\n      pop\n      pop\n      jump\t// out\n        /* \"registry.sol\":1211:1391  function getUserRole(bytes32 pub_key) public view returns (Role) {... */\n    tag_19:\n        /* \"registry.sol\":1270:1274  Role */\n      0x00\n        /* \"registry.sol\":1295:1300  users */\n      dup1\n        /* \"registry.sol\":1295:1309  users[pub_key] */\n      0x00\n        /* \"registry.sol\":1301:1308  pub_key */\n      dup4\n        /* \"registry.sol\":1295:1309  users[pub_key] */\n      dup2\n      mstore\n      0x20\n      add\n      swap1\n      dup2\n      mstore\n      0x20\n      add\n      0x00\n      keccak256\n        /* \"registry.sol\":1295:1322  users[pub_key].isRegistered */\n      0x00\n      add\n      0x01\n      swap1\n      sload\n      swap1\n      0x0100\n      exp\n      swap1\n      div\n      0xff\n      and\n        /* \"registry.sol\":1287:1346  require(users[pub_key].isRegistered, \"User not registered\") */\n      tag_63\n      jumpi\n      mload(0x40)\n      0x08c379a000000000000000000000000000000000000000000000000000000000\n      dup2\n      mstore\n      0x04\n      add\n      tag_64\n      swap1\n      tag_65\n      jump\t// in\n    tag_64:\n      mload(0x40)\n      dup1\n      swap2\n      sub\n      swap1\n      revert\n    tag_63:\n        /* \"registry.sol\":1364:1369  users */\n      0x00\n        /* \"registry.sol\":1364:1378  users[pub_key] */\n      dup1\n        /* \"registry.sol\":1370:1377  pub_key */\n      dup4\n        /* \"registry.sol\":1364:1378  users[pub_key] */\n      dup2\n      mstore\n      0x20\n      add\n      swap1\n      dup2\n      mstore\n      0x20\n      add\n      0x00\n      keccak256\n        /* \"registry.sol\":1364:1383  users[pub_key].role */\n      0x00\n      add\n      0x00\n      swap1\n      sload\n      swap1\n      0x0100\n      exp\n      swap1\n      div\n      0xff\n      and\n        /* \"registry.sol\":1357:1383  return users[pub_key].role */\n      swap1\n      pop\n        /* \"registry.sol\":1211:1391  function getUserRole(bytes32 pub_key) public view returns (Role) {... */\n      swap2\n      swap1\n      pop\n      jump\t// out\n        /* \"registry.sol\":227:264  mapping(bytes32 => User) public users */\n    tag_24:\n      mstore(0x20, 0x00)\n      dup1\n      0x00\n      mstore\n      keccak256(0x00, 0x40)\n      0x00\n      swap2\n      pop\n      swap1\n      pop\n      dup1\n      0x00\n      add\n      0x00\n      swap1\n      sload\n      swap1\n      0x0100\n      exp\n      swap1\n      div\n      0xff\n      and\n      swap1\n      dup1\n      0x00\n      add\n      0x01\n      swap1\n      sload\n      swap1\n      0x0100\n      exp\n      swap1\n      div\n      0xff\n      and\n      swap1\n      pop\n      dup3\n      jump\t// out\n        /* \"#utility.yul\":7:82   */\n    tag_66:\n        /* \"#utility.yul\":40:46   */\n      0x00\n        /* \"#utility.yul\":73:75   */\n      0x40\n        /* \"#utility.yul\":67:76   */\n      mload\n        /* \"#utility.yul\":57:76   */\n      swap1\n      pop\n        /* \"#utility.yul\":7:82   */\n      swap1\n      jump\t// out\n        /* \"#utility.yul\":88:205   */\n    tag_67:\n        /* \"#utility.yul\":197:198   */\n      0x00\n        /* \"#utility.yul\":194:195   */\n      dup1\n        /* \"#utility.yul\":187:199   */\n      revert\n        /* \"#utility.yul\":211:328   */\n    tag_68:\n        /* \"#utility.yul\":320:321   */\n      0x00\n        /* \"#utility.yul\":317:318   */\n      dup1\n        /* \"#utility.yul\":310:322   */\n      revert\n        /* \"#utility.yul\":334:411   */\n    tag_69:\n        /* \"#utility.yul\":371:378   */\n      0x00\n        /* \"#utility.yul\":400:405   */\n      dup2\n        /* \"#utility.yul\":389:405   */\n      swap1\n      pop\n        /* \"#utility.yul\":334:411   */\n      swap2\n      swap1\n      pop\n      jump\t// out\n        /* \"#utility.yul\":417:539   */\n    tag_70:\n        /* \"#utility.yul\":490:514   */\n      tag_105\n        /* \"#utility.yul\":508:513   */\n      dup2\n        /* \"#utility.yul\":490:514   */\n      tag_69\n      jump\t// in\n    tag_105:\n        /* \"#utility.yul\":483:488   */\n      dup2\n        /* \"#utility.yul\":480:515   */\n      eq\n        /* \"#utility.yul\":470:533   */\n      tag_106\n      jumpi\n        /* \"#utility.yul\":529:530   */\n      0x00\n        /* \"#utility.yul\":526:527   */\n      dup1\n        /* \"#utility.yul\":519:531   */\n      revert\n        /* \"#utility.yul\":470:533   */\n    tag_106:\n        /* \"#utility.yul\":417:539   */\n      pop\n      jump\t// out\n        /* \"#utility.yul\":545:684   */\n    tag_71:\n        /* \"#utility.yul\":591:596   */\n      0x00\n        /* \"#utility.yul\":629:635   */\n      dup2\n        /* \"#utility.yul\":616:636   */\n      calldataload\n        /* \"#utility.yul\":607:636   */\n      swap1\n      pop\n        /* \"#utility.yul\":645:678   */\n      tag_108\n        /* \"#utility.yul\":672:677   */\n      dup2\n        /* \"#utility.yul\":645:678   */\n      tag_70\n      jump\t// in\n    tag_108:\n        /* \"#utility.yul\":545:684   */\n      swap3\n      swap2\n      pop\n      pop\n      jump\t// out\n        /* \"#utility.yul\":690:1019   */\n    tag_9:\n        /* \"#utility.yul\":749:755   */\n      0x00\n        /* \"#utility.yul\":798:800   */\n      0x20\n        /* \"#utility.yul\":786:795   */\n      dup3\n        /* \"#utility.yul\":777:784   */\n      dup5\n        /* \"#utility.yul\":773:796   */\n      sub\n        /* \"#utility.yul\":769:801   */\n      slt\n        /* \"#utility.yul\":766:885   */\n      iszero\n      tag_110\n      jumpi\n        /* \"#utility.yul\":804:883   */\n      tag_111\n      tag_67\n      jump\t// in\n    tag_111:\n        /* \"#utility.yul\":766:885   */\n    tag_110:\n        /* \"#utility.yul\":924:925   */\n      0x00\n        /* \"#utility.yul\":949:1002   */\n      tag_112\n        /* \"#utility.yul\":994:1001   */\n      dup5\n        /* \"#utility.yul\":985:991   */\n      dup3\n        /* \"#utility.yul\":974:983   */\n      dup6\n        /* \"#utility.yul\":970:992   */\n      add\n        /* \"#utility.yul\":949:1002   */\n      tag_71\n      jump\t// in\n    tag_112:\n        /* \"#utility.yul\":939:1002   */\n      swap2\n      pop\n        /* \"#utility.yul\":895:1012   */\n      pop\n        /* \"#utility.yul\":690:1019   */\n      swap3\n      swap2\n      pop\n      pop\n      jump\t// out\n        /* \"#utility.yul\":1025:1115   */\n    tag_72:\n        /* \"#utility.yul\":1059:1066   */\n      0x00\n        /* \"#utility.yul\":1102:1107   */\n      dup2\n        /* \"#utility.yul\":1095:1108   */\n      iszero\n        /* \"#utility.yul\":1088:1109   */\n      iszero\n        /* \"#utility.yul\":1077:1109   */\n      swap1\n      pop\n        /* \"#utility.yul\":1025:1115   */\n      swap2\n      swap1\n      pop\n      jump\t// out\n        /* \"#utility.yul\":1121:1230   */\n    tag_73:\n        /* \"#utility.yul\":1202:1223   */\n      tag_115\n        /* \"#utility.yul\":1217:1222   */\n      dup2\n        /* \"#utility.yul\":1202:1223   */\n      tag_72\n      jump\t// in\n    tag_115:\n        /* \"#utility.yul\":1197:1200   */\n      dup3\n        /* \"#utility.yul\":1190:1224   */\n      mstore\n        /* \"#utility.yul\":1121:1230   */\n      pop\n      pop\n      jump\t// out\n        /* \"#utility.yul\":1236:1446   */\n    tag_12:\n        /* \"#utility.yul\":1323:1327   */\n      0x00\n        /* \"#utility.yul\":1361:1363   */\n      0x20\n        /* \"#utility.yul\":1350:1359   */\n      dup3\n        /* \"#utility.yul\":1346:1364   */\n      add\n        /* \"#utility.yul\":1338:1364   */\n      swap1\n      pop\n        /* \"#utility.yul\":1374:1439   */\n      tag_117\n        /* \"#utility.yul\":1436:1437   */\n      0x00\n        /* \"#utility.yul\":1425:1434   */\n      dup4\n        /* \"#utility.yul\":1421:1438   */\n      add\n        /* \"#utility.yul\":1412:1418   */\n      dup5\n        /* \"#utility.yul\":1374:1439   */\n      tag_73\n      jump\t// in\n    tag_117:\n        /* \"#utility.yul\":1236:1446   */\n      swap3\n      swap2\n      pop\n      pop\n      jump\t// out\n        /* \"#utility.yul\":1452:1569   */\n    tag_74:\n        /* \"#utility.yul\":1561:1562   */\n      0x00\n        /* \"#utility.yul\":1558:1559   */\n      dup1\n        /* \"#utility.yul\":1551:1563   */\n      revert\n        /* \"#utility.yul\":1575:1692   */\n    tag_75:\n        /* \"#utility.yul\":1684:1685   */\n      0x00\n        /* \"#utility.yul\":1681:1682   */\n      dup1\n        /* \"#utility.yul\":1674:1686   */\n      revert\n        /* \"#utility.yul\":1698:1800   */\n    tag_76:\n        /* \"#utility.yul\":1739:1745   */\n      0x00\n        /* \"#utility.yul\":1790:1792   */\n      0x1f\n        /* \"#utility.yul\":1786:1793   */\n      not\n        /* \"#utility.yul\":1781:1783   */\n      0x1f\n        /* \"#utility.yul\":1774:1779   */\n      dup4\n        /* \"#utility.yul\":1770:1784   */\n      add\n        /* \"#utility.yul\":1766:1794   */\n      and\n        /* \"#utility.yul\":1756:1794   */\n      swap1\n      pop\n        /* \"#utility.yul\":1698:1800   */\n      swap2\n      swap1\n      pop\n      jump\t// out\n        /* \"#utility.yul\":1806:1986   */\n    tag_77:\n        /* \"#utility.yul\":1854:1931   */\n      0x4e487b7100000000000000000000000000000000000000000000000000000000\n        /* \"#utility.yul\":1851:1852   */\n      0x00\n        /* \"#utility.yul\":1844:1932   */\n      mstore\n        /* \"#utility.yul\":1951:1955   */\n      0x41\n        /* \"#utility.yul\":1948:1949   */\n      0x04\n        /* \"#utility.yul\":1941:1956   */\n      mstore\n        /* \"#utility.yul\":1975:1979   */\n      0x24\n        /* \"#utility.yul\":1972:1973   */\n      0x00\n        /* \"#utility.yul\":1965:1980   */\n      revert\n        /* \"#utility.yul\":1992:2273   */\n    tag_78:\n        /* \"#utility.yul\":2075:2102   */\n      tag_123\n        /* \"#utility.yul\":2097:2101   */\n      dup3\n        /* \"#utility.yul\":2075:2102   */\n      tag_76\n      jump\t// in\n    tag_123:\n        /* \"#utility.yul\":2067:2073   */\n      dup2\n        /* \"#utility.yul\":2063:2103   */\n      add\n        /* \"#utility.yul\":2205:2211   */\n      dup2\n        /* \"#utility.yul\":2193:2203   */\n      dup2\n        /* \"#utility.yul\":2190:2212   */\n      lt\n        /* \"#utility.yul\":2169:2187   */\n      0xffffffffffffffff\n        /* \"#utility.yul\":2157:2167   */\n      dup3\n        /* \"#utility.yul\":2154:2188   */\n      gt\n        /* \"#utility.yul\":2151:2213   */\n      or\n        /* \"#utility.yul\":2148:2236   */\n      iszero\n      tag_124\n      jumpi\n        /* \"#utility.yul\":2216:2234   */\n      tag_125\n      tag_77\n      jump\t// in\n    tag_125:\n        /* \"#utility.yul\":2148:2236   */\n    tag_124:\n        /* \"#utility.yul\":2256:2266   */\n      dup1\n        /* \"#utility.yul\":2252:2254   */\n      0x40\n        /* \"#utility.yul\":2245:2267   */\n      mstore\n        /* \"#utility.yul\":2035:2273   */\n      pop\n        /* \"#utility.yul\":1992:2273   */\n      pop\n      pop\n      jump\t// out\n        /* \"#utility.yul\":2279:2408   */\n    tag_79:\n        /* \"#utility.yul\":2313:2319   */\n      0x00\n        /* \"#utility.yul\":2340:2360   */\n      tag_127\n      tag_66\n      jump\t// in\n    tag_127:\n        /* \"#utility.yul\":2330:2360   */\n      swap1\n      pop\n        /* \"#utility.yul\":2369:2402   */\n      tag_128\n        /* \"#utility.yul\":2397:2401   */\n      dup3\n        /* \"#utility.yul\":2389:2395   */\n      dup3\n        /* \"#utility.yul\":2369:2402   */\n      tag_78\n      jump\t// in\n    tag_128:\n        /* \"#utility.yul\":2279:2408   */\n      swap2\n      swap1\n      pop\n      jump\t// out\n        /* \"#utility.yul\":2414:2722   */\n    tag_80:\n        /* \"#utility.yul\":2476:2480   */\n      0x00\n        /* \"#utility.yul\":2566:2584   */\n      0xffffffffffffffff\n        /* \"#utility.yul\":2558:2564   */\n      dup3\n        /* \"#utility.yul\":2555:2585   */\n      gt\n        /* \"#utility.yul\":2552:2608   */\n      iszero\n      tag_130\n      jumpi\n        /* \"#utility.yul\":2588:2606   */\n      tag_131\n      tag_77\n      jump\t// in\n    tag_131:\n        /* \"#utility.yul\":2552:2608   */\n    tag_130:\n        /* \"#utility.yul\":2626:2655   */\n      tag_132\n        /* \"#utility.yul\":2648:2654   */\n      dup3\n        /* \"#utility.yul\":2626:2655   */\n      tag_76\n      jump\t// in\n    tag_132:\n        /* \"#utility.yul\":2618:2655   */\n      swap1\n      pop\n        /* \"#utility.yul\":2710:2714   */\n      0x20\n        /* \"#utility.yul\":2704:2708   */\n      dup2\n        /* \"#utility.yul\":2700:2715   */\n      add\n        /* \"#utility.yul\":2692:2715   */\n      swap1\n      pop\n        /* \"#utility.yul\":2414:2722   */\n      swap2\n      swap1\n      pop\n      jump\t// out\n        /* \"#utility.yul\":2728:2882   */\n    tag_81:\n        /* \"#utility.yul\":2812:2818   */\n      dup3\n        /* \"#utility.yul\":2807:2810   */\n      dup2\n        /* \"#utility.yul\":2802:2805   */\n      dup4\n        /* \"#utility.yul\":2789:2819   */\n      calldatacopy\n        /* \"#utility.yul\":2874:2875   */\n      0x00\n        /* \"#utility.yul\":2865:2871   */\n      dup4\n        /* \"#utility.yul\":2860:2863   */\n      dup4\n        /* \"#utility.yul\":2856:2872   */\n      add\n        /* \"#utility.yul\":2849:2876   */\n      mstore\n        /* \"#utility.yul\":2728:2882   */\n      pop\n      pop\n      pop\n      jump\t// out\n        /* \"#utility.yul\":2888:3300   */\n    tag_82:\n        /* \"#utility.yul\":2966:2971   */\n      0x00\n        /* \"#utility.yul\":2991:3057   */\n      tag_135\n        /* \"#utility.yul\":3007:3056   */\n      tag_136\n        /* \"#utility.yul\":3049:3055   */\n      dup5\n        /* \"#utility.yul\":3007:3056   */\n      tag_80\n      jump\t// in\n    tag_136:\n        /* \"#utility.yul\":2991:3057   */\n      tag_79\n      jump\t// in\n    tag_135:\n        /* \"#utility.yul\":2982:3057   */\n      swap1\n      pop\n        /* \"#utility.yul\":3080:3086   */\n      dup3\n        /* \"#utility.yul\":3073:3078   */\n      dup2\n        /* \"#utility.yul\":3066:3087   */\n      mstore\n        /* \"#utility.yul\":3118:3122   */\n      0x20\n        /* \"#utility.yul\":3111:3116   */\n      dup2\n        /* \"#utility.yul\":3107:3123   */\n      add\n        /* \"#utility.yul\":3156:3159   */\n      dup5\n        /* \"#utility.yul\":3147:3153   */\n      dup5\n        /* \"#utility.yul\":3142:3145   */\n      dup5\n        /* \"#utility.yul\":3138:3154   */\n      add\n        /* \"#utility.yul\":3135:3160   */\n      gt\n        /* \"#utility.yul\":3132:3244   */\n      iszero\n      tag_137\n      jumpi\n        /* \"#utility.yul\":3163:3242   */\n      tag_138\n      tag_75\n      jump\t// in\n    tag_138:\n        /* \"#utility.yul\":3132:3244   */\n    tag_137:\n        /* \"#utility.yul\":3253:3294   */\n      tag_139\n        /* \"#utility.yul\":3287:3293   */\n      dup5\n        /* \"#utility.yul\":3282:3285   */\n      dup3\n        /* \"#utility.yul\":3277:3280   */\n      dup6\n        /* \"#utility.yul\":3253:3294   */\n      tag_81\n      jump\t// in\n    tag_139:\n        /* \"#utility.yul\":2972:3300   */\n      pop\n        /* \"#utility.yul\":2888:3300   */\n      swap4\n      swap3\n      pop\n      pop\n      pop\n      jump\t// out\n        /* \"#utility.yul\":3320:3660   */\n    tag_83:\n        /* \"#utility.yul\":3376:3381   */\n      0x00\n        /* \"#utility.yul\":3425:3428   */\n      dup3\n        /* \"#utility.yul\":3418:3422   */\n      0x1f\n        /* \"#utility.yul\":3410:3416   */\n      dup4\n        /* \"#utility.yul\":3406:3423   */\n      add\n        /* \"#utility.yul\":3402:3429   */\n      slt\n        /* \"#utility.yul\":3392:3514   */\n      tag_141\n      jumpi\n        /* \"#utility.yul\":3433:3512   */\n      tag_142\n      tag_74\n      jump\t// in\n    tag_142:\n        /* \"#utility.yul\":3392:3514   */\n    tag_141:\n        /* \"#utility.yul\":3550:3556   */\n      dup2\n        /* \"#utility.yul\":3537:3557   */\n      calldataload\n        /* \"#utility.yul\":3575:3654   */\n      tag_143\n        /* \"#utility.yul\":3650:3653   */\n      dup5\n        /* \"#utility.yul\":3642:3648   */\n      dup3\n        /* \"#utility.yul\":3635:3639   */\n      0x20\n        /* \"#utility.yul\":3627:3633   */\n      dup7\n        /* \"#utility.yul\":3623:3640   */\n      add\n        /* \"#utility.yul\":3575:3654   */\n      tag_82\n      jump\t// in\n    tag_143:\n        /* \"#utility.yul\":3566:3654   */\n      swap2\n      pop\n        /* \"#utility.yul\":3382:3660   */\n      pop\n        /* \"#utility.yul\":3320:3660   */\n      swap3\n      swap2\n      pop\n      pop\n      jump\t// out\n        /* \"#utility.yul\":3666:4320   */\n    tag_15:\n        /* \"#utility.yul\":3744:3750   */\n      0x00\n        /* \"#utility.yul\":3752:3758   */\n      dup1\n        /* \"#utility.yul\":3801:3803   */\n      0x40\n        /* \"#utility.yul\":3789:3798   */\n      dup4\n        /* \"#utility.yul\":3780:3787   */\n      dup6\n        /* \"#utility.yul\":3776:3799   */\n      sub\n        /* \"#utility.yul\":3772:3804   */\n      slt\n        /* \"#utility.yul\":3769:3888   */\n      iszero\n      tag_145\n      jumpi\n        /* \"#utility.yul\":3807:3886   */\n      tag_146\n      tag_67\n      jump\t// in\n    tag_146:\n        /* \"#utility.yul\":3769:3888   */\n    tag_145:\n        /* \"#utility.yul\":3927:3928   */\n      0x00\n        /* \"#utility.yul\":3952:4005   */\n      tag_147\n        /* \"#utility.yul\":3997:4004   */\n      dup6\n        /* \"#utility.yul\":3988:3994   */\n      dup3\n        /* \"#utility.yul\":3977:3986   */\n      dup7\n        /* \"#utility.yul\":3973:3995   */\n      add\n        /* \"#utility.yul\":3952:4005   */\n      tag_71\n      jump\t// in\n    tag_147:\n        /* \"#utility.yul\":3942:4005   */\n      swap3\n      pop\n        /* \"#utility.yul\":3898:4015   */\n      pop\n        /* \"#utility.yul\":4082:4084   */\n      0x20\n        /* \"#utility.yul\":4071:4080   */\n      dup4\n        /* \"#utility.yul\":4067:4085   */\n      add\n        /* \"#utility.yul\":4054:4086   */\n      calldataload\n        /* \"#utility.yul\":4113:4131   */\n      0xffffffffffffffff\n        /* \"#utility.yul\":4105:4111   */\n      dup2\n        /* \"#utility.yul\":4102:4132   */\n      gt\n        /* \"#utility.yul\":4099:4216   */\n      iszero\n      tag_148\n      jumpi\n        /* \"#utility.yul\":4135:4214   */\n      tag_149\n      tag_68\n      jump\t// in\n    tag_149:\n        /* \"#utility.yul\":4099:4216   */\n    tag_148:\n        /* \"#utility.yul\":4240:4303   */\n      tag_150\n        /* \"#utility.yul\":4295:4302   */\n      dup6\n        /* \"#utility.yul\":4286:4292   */\n      dup3\n        /* \"#utility.yul\":4275:4284   */\n      dup7\n        /* \"#utility.yul\":4271:4293   */\n      add\n        /* \"#utility.yul\":4240:4303   */\n      tag_83\n      jump\t// in\n    tag_150:\n        /* \"#utility.yul\":4230:4303   */\n      swap2\n      pop\n        /* \"#utility.yul\":4025:4313   */\n      pop\n        /* \"#utility.yul\":3666:4320   */\n      swap3\n      pop\n      swap3\n      swap1\n      pop\n      jump\t// out\n        /* \"#utility.yul\":4326:4506   */\n    tag_38:\n        /* \"#utility.yul\":4374:4451   */\n      0x4e487b7100000000000000000000000000000000000000000000000000000000\n        /* \"#utility.yul\":4371:4372   */\n      0x00\n        /* \"#utility.yul\":4364:4452   */\n      mstore\n        /* \"#utility.yul\":4471:4475   */\n      0x21\n        /* \"#utility.yul\":4468:4469   */\n      0x04\n        /* \"#utility.yul\":4461:4476   */\n      mstore\n        /* \"#utility.yul\":4495:4499   */\n      0x24\n        /* \"#utility.yul\":4492:4493   */\n      0x00\n        /* \"#utility.yul\":4485:4500   */\n      revert\n        /* \"#utility.yul\":4512:4625   */\n    tag_84:\n        /* \"#utility.yul\":4593:4594   */\n      0x04\n        /* \"#utility.yul\":4586:4591   */\n      dup2\n        /* \"#utility.yul\":4583:4595   */\n      lt\n        /* \"#utility.yul\":4573:4619   */\n      tag_153\n      jumpi\n        /* \"#utility.yul\":4599:4617   */\n      tag_154\n      tag_38\n      jump\t// in\n    tag_154:\n        /* \"#utility.yul\":4573:4619   */\n    tag_153:\n        /* \"#utility.yul\":4512:4625   */\n      pop\n      jump\t// out\n        /* \"#utility.yul\":4631:4758   */\n    tag_85:\n        /* \"#utility.yul\":4676:4683   */\n      0x00\n        /* \"#utility.yul\":4705:4710   */\n      dup2\n        /* \"#utility.yul\":4694:4710   */\n      swap1\n      pop\n        /* \"#utility.yul\":4711:4752   */\n      tag_156\n        /* \"#utility.yul\":4746:4751   */\n      dup3\n        /* \"#utility.yul\":4711:4752   */\n      tag_84\n      jump\t// in\n    tag_156:\n        /* \"#utility.yul\":4631:4758   */\n      swap2\n      swap1\n      pop\n      jump\t// out\n        /* \"#utility.yul\":4764:4891   */\n    tag_86:\n        /* \"#utility.yul\":4820:4829   */\n      0x00\n        /* \"#utility.yul\":4853:4885   */\n      tag_158\n        /* \"#utility.yul\":4879:4884   */\n      dup3\n        /* \"#utility.yul\":4853:4885   */\n      tag_85\n      jump\t// in\n    tag_158:\n        /* \"#utility.yul\":4840:4885   */\n      swap1\n      pop\n        /* \"#utility.yul\":4764:4891   */\n      swap2\n      swap1\n      pop\n      jump\t// out\n        /* \"#utility.yul\":4897:5040   */\n    tag_87:\n        /* \"#utility.yul\":4990:5033   */\n      tag_160\n        /* \"#utility.yul\":5027:5032   */\n      dup2\n        /* \"#utility.yul\":4990:5033   */\n      tag_86\n      jump\t// in\n    tag_160:\n        /* \"#utility.yul\":4985:4988   */\n      dup3\n        /* \"#utility.yul\":4978:5034   */\n      mstore\n        /* \"#utility.yul\":4897:5040   */\n      pop\n      pop\n      jump\t// out\n        /* \"#utility.yul\":5046:5280   */\n    tag_21:\n        /* \"#utility.yul\":5145:5149   */\n      0x00\n        /* \"#utility.yul\":5183:5185   */\n      0x20\n        /* \"#utility.yul\":5172:5181   */\n      dup3\n        /* \"#utility.yul\":5168:5186   */\n      add\n        /* \"#utility.yul\":5160:5186   */\n      swap1\n      pop\n        /* \"#utility.yul\":5196:5273   */\n      tag_162\n        /* \"#utility.yul\":5270:5271   */\n      0x00\n        /* \"#utility.yul\":5259:5268   */\n      dup4\n        /* \"#utility.yul\":5255:5272   */\n      add\n        /* \"#utility.yul\":5246:5252   */\n      dup5\n        /* \"#utility.yul\":5196:5273   */\n      tag_87\n      jump\t// in\n    tag_162:\n        /* \"#utility.yul\":5046:5280   */\n      swap3\n      swap2\n      pop\n      pop\n      jump\t// out\n        /* \"#utility.yul\":5286:5618   */\n    tag_26:\n        /* \"#utility.yul\":5407:5411   */\n      0x00\n        /* \"#utility.yul\":5445:5447   */\n      0x40\n        /* \"#utility.yul\":5434:5443   */\n      dup3\n        /* \"#utility.yul\":5430:5448   */\n      add\n        /* \"#utility.yul\":5422:5448   */\n      swap1\n      pop\n        /* \"#utility.yul\":5458:5535   */\n      tag_164\n        /* \"#utility.yul\":5532:5533   */\n      0x00\n        /* \"#utility.yul\":5521:5530   */\n      dup4\n        /* \"#utility.yul\":5517:5534   */\n      add\n        /* \"#utility.yul\":5508:5514   */\n      dup6\n        /* \"#utility.yul\":5458:5535   */\n      tag_87\n      jump\t// in\n    tag_164:\n        /* \"#utility.yul\":5545:5611   */\n      tag_165\n        /* \"#utility.yul\":5607:5609   */\n      0x20\n        /* \"#utility.yul\":5596:5605   */\n      dup4\n        /* \"#utility.yul\":5592:5610   */\n      add\n        /* \"#utility.yul\":5583:5589   */\n      dup5\n        /* \"#utility.yul\":5545:5611   */\n      tag_73\n      jump\t// in\n    tag_165:\n        /* \"#utility.yul\":5286:5618   */\n      swap4\n      swap3\n      pop\n      pop\n      pop\n      jump\t// out\n        /* \"#utility.yul\":5624:5793   */\n    tag_88:\n        /* \"#utility.yul\":5708:5719   */\n      0x00\n        /* \"#utility.yul\":5742:5748   */\n      dup3\n        /* \"#utility.yul\":5737:5740   */\n      dup3\n        /* \"#utility.yul\":5730:5749   */\n      mstore\n        /* \"#utility.yul\":5782:5786   */\n      0x20\n        /* \"#utility.yul\":5777:5780   */\n      dup3\n        /* \"#utility.yul\":5773:5787   */\n      add\n        /* \"#utility.yul\":5758:5787   */\n      swap1\n      pop\n        /* \"#utility.yul\":5624:5793   */\n      swap3\n      swap2\n      pop\n      pop\n      jump\t// out\n        /* \"#utility.yul\":5799:5973   */\n    tag_89:\n        /* \"#utility.yul\":5939:5965   */\n      0x5573657220616c72656164792072656769737465726564210000000000000000\n        /* \"#utility.yul\":5935:5936   */\n      0x00\n        /* \"#utility.yul\":5927:5933   */\n      dup3\n        /* \"#utility.yul\":5923:5937   */\n      add\n        /* \"#utility.yul\":5916:5966   */\n      mstore\n        /* \"#utility.yul\":5799:5973   */\n      pop\n      jump\t// out\n        /* \"#utility.yul\":5979:6345   */\n    tag_90:\n        /* \"#utility.yul\":6121:6124   */\n      0x00\n        /* \"#utility.yul\":6142:6209   */\n      tag_169\n        /* \"#utility.yul\":6206:6208   */\n      0x18\n        /* \"#utility.yul\":6201:6204   */\n      dup4\n        /* \"#utility.yul\":6142:6209   */\n      tag_88\n      jump\t// in\n    tag_169:\n        /* \"#utility.yul\":6135:6209   */\n      swap2\n      pop\n        /* \"#utility.yul\":6218:6311   */\n      tag_170\n        /* \"#utility.yul\":6307:6310   */\n      dup3\n        /* \"#utility.yul\":6218:6311   */\n      tag_89\n      jump\t// in\n    tag_170:\n        /* \"#utility.yul\":6336:6338   */\n      0x20\n        /* \"#utility.yul\":6331:6334   */\n      dup3\n        /* \"#utility.yul\":6327:6339   */\n      add\n        /* \"#utility.yul\":6320:6339   */\n      swap1\n      pop\n        /* \"#utility.yul\":5979:6345   */\n      swap2\n      swap1\n      pop\n      jump\t// out\n        /* \"#utility.yul\":6351:6770   */\n    tag_32:\n        /* \"#utility.yul\":6517:6521   */\n      0x00\n        /* \"#utility.yul\":6555:6557   */\n      0x20\n        /* \"#utility.yul\":6544:6553   */\n      dup3\n        /* \"#utility.yul\":6540:6558   */\n      add\n        /* \"#utility.yul\":6532:6558   */\n      swap1\n      pop\n        /* \"#utility.yul\":6604:6613   */\n      dup2\n        /* \"#utility.yul\":6598:6602   */\n      dup2\n        /* \"#utility.yul\":6594:6614   */\n      sub\n        /* \"#utility.yul\":6590:6591   */\n      0x00\n        /* \"#utility.yul\":6579:6588   */\n      dup4\n        /* \"#utility.yul\":6575:6592   */\n      add\n        /* \"#utility.yul\":6568:6615   */\n      mstore\n        /* \"#utility.yul\":6632:6763   */\n      tag_172\n        /* \"#utility.yul\":6758:6762   */\n      dup2\n        /* \"#utility.yul\":6632:6763   */\n      tag_90\n      jump\t// in\n    tag_172:\n        /* \"#utility.yul\":6624:6763   */\n      swap1\n      pop\n        /* \"#utility.yul\":6351:6770   */\n      swap2\n      swap1\n      pop\n      jump\t// out\n        /* \"#utility.yul\":6776:6875   */\n    tag_91:\n        /* \"#utility.yul\":6828:6834   */\n      0x00\n        /* \"#utility.yul\":6862:6867   */\n      dup2\n        /* \"#utility.yul\":6856:6868   */\n      mload\n        /* \"#utility.yul\":6846:6868   */\n      swap1\n      pop\n        /* \"#utility.yul\":6776:6875   */\n      swap2\n      swap1\n      pop\n      jump\t// out\n        /* \"#utility.yul\":6881:7029   */\n    tag_92:\n        /* \"#utility.yul\":6983:6994   */\n      0x00\n        /* \"#utility.yul\":7020:7023   */\n      dup2\n        /* \"#utility.yul\":7005:7023   */\n      swap1\n      pop\n        /* \"#utility.yul\":6881:7029   */\n      swap3\n      swap2\n      pop\n      pop\n      jump\t// out\n        /* \"#utility.yul\":7035:7342   */\n    tag_93:\n        /* \"#utility.yul\":7103:7104   */\n      0x00\n        /* \"#utility.yul\":7113:7226   */\n    tag_176:\n        /* \"#utility.yul\":7127:7133   */\n      dup4\n        /* \"#utility.yul\":7124:7125   */\n      dup2\n        /* \"#utility.yul\":7121:7134   */\n      lt\n        /* \"#utility.yul\":7113:7226   */\n      iszero\n      tag_178\n      jumpi\n        /* \"#utility.yul\":7212:7213   */\n      dup1\n        /* \"#utility.yul\":7207:7210   */\n      dup3\n        /* \"#utility.yul\":7203:7214   */\n      add\n        /* \"#utility.yul\":7197:7215   */\n      mload\n        /* \"#utility.yul\":7193:7194   */\n      dup2\n        /* \"#utility.yul\":7188:7191   */\n      dup5\n        /* \"#utility.yul\":7184:7195   */\n      add\n        /* \"#utility.yul\":7177:7216   */\n      mstore\n        /* \"#utility.yul\":7149:7151   */\n      0x20\n        /* \"#utility.yul\":7146:7147   */\n      dup2\n        /* \"#utility.yul\":7142:7152   */\n      add\n        /* \"#utility.yul\":7137:7152   */\n      swap1\n      pop\n        /* \"#utility.yul\":7113:7226   */\n      jump(tag_176)\n    tag_178:\n        /* \"#utility.yul\":7244:7250   */\n      dup4\n        /* \"#utility.yul\":7241:7242   */\n      dup2\n        /* \"#utility.yul\":7238:7251   */\n      gt\n        /* \"#utility.yul\":7235:7336   */\n      iszero\n      tag_179\n      jumpi\n        /* \"#utility.yul\":7324:7325   */\n      0x00\n        /* \"#utility.yul\":7315:7321   */\n      dup5\n        /* \"#utility.yul\":7310:7313   */\n      dup5\n        /* \"#utility.yul\":7306:7322   */\n      add\n        /* \"#utility.yul\":7299:7326   */\n      mstore\n        /* \"#utility.yul\":7235:7336   */\n    tag_179:\n        /* \"#utility.yul\":7084:7342   */\n      pop\n        /* \"#utility.yul\":7035:7342   */\n      pop\n      pop\n      pop\n      jump\t// out\n        /* \"#utility.yul\":7348:7725   */\n    tag_94:\n        /* \"#utility.yul\":7454:7457   */\n      0x00\n        /* \"#utility.yul\":7482:7521   */\n      tag_181\n        /* \"#utility.yul\":7515:7520   */\n      dup3\n        /* \"#utility.yul\":7482:7521   */\n      tag_91\n      jump\t// in\n    tag_181:\n        /* \"#utility.yul\":7537:7626   */\n      tag_182\n        /* \"#utility.yul\":7619:7625   */\n      dup2\n        /* \"#utility.yul\":7614:7617   */\n      dup6\n        /* \"#utility.yul\":7537:7626   */\n      tag_92\n      jump\t// in\n    tag_182:\n        /* \"#utility.yul\":7530:7626   */\n      swap4\n      pop\n        /* \"#utility.yul\":7635:7687   */\n      tag_183\n        /* \"#utility.yul\":7680:7686   */\n      dup2\n        /* \"#utility.yul\":7675:7678   */\n      dup6\n        /* \"#utility.yul\":7668:7672   */\n      0x20\n        /* \"#utility.yul\":7661:7666   */\n      dup7\n        /* \"#utility.yul\":7657:7673   */\n      add\n        /* \"#utility.yul\":7635:7687   */\n      tag_93\n      jump\t// in\n    tag_183:\n        /* \"#utility.yul\":7712:7718   */\n      dup1\n        /* \"#utility.yul\":7707:7710   */\n      dup5\n        /* \"#utility.yul\":7703:7719   */\n      add\n        /* \"#utility.yul\":7696:7719   */\n      swap2\n      pop\n        /* \"#utility.yul\":7458:7725   */\n      pop\n        /* \"#utility.yul\":7348:7725   */\n      swap3\n      swap2\n      pop\n      pop\n      jump\t// out\n        /* \"#utility.yul\":7731:8006   */\n    tag_34:\n        /* \"#utility.yul\":7863:7866   */\n      0x00\n        /* \"#utility.yul\":7885:7980   */\n      tag_185\n        /* \"#utility.yul\":7976:7979   */\n      dup3\n        /* \"#utility.yul\":7967:7973   */\n      dup5\n        /* \"#utility.yul\":7885:7980   */\n      tag_94\n      jump\t// in\n    tag_185:\n        /* \"#utility.yul\":7878:7980   */\n      swap2\n      pop\n        /* \"#utility.yul\":7997:8000   */\n      dup2\n        /* \"#utility.yul\":7990:8000   */\n      swap1\n      pop\n        /* \"#utility.yul\":7731:8006   */\n      swap3\n      swap2\n      pop\n      pop\n      jump\t// out\n        /* \"#utility.yul\":8012:8175   */\n    tag_95:\n        /* \"#utility.yul\":8152:8167   */\n      0x496e76616c696420726f6c652100000000000000000000000000000000000000\n        /* \"#utility.yul\":8148:8149   */\n      0x00\n        /* \"#utility.yul\":8140:8146   */\n      dup3\n        /* \"#utility.yul\":8136:8150   */\n      add\n        /* \"#utility.yul\":8129:8168   */\n      mstore\n        /* \"#utility.yul\":8012:8175   */\n      pop\n      jump\t// out\n        /* \"#utility.yul\":8181:8547   */\n    tag_96:\n        /* \"#utility.yul\":8323:8326   */\n      0x00\n        /* \"#utility.yul\":8344:8411   */\n      tag_188\n        /* \"#utility.yul\":8408:8410   */\n      0x0d\n        /* \"#utility.yul\":8403:8406   */\n      dup4\n        /* \"#utility.yul\":8344:8411   */\n      tag_88\n      jump\t// in\n    tag_188:\n        /* \"#utility.yul\":8337:8411   */\n      swap2\n      pop\n        /* \"#utility.yul\":8420:8513   */\n      tag_189\n        /* \"#utility.yul\":8509:8512   */\n      dup3\n        /* \"#utility.yul\":8420:8513   */\n      tag_95\n      jump\t// in\n    tag_189:\n        /* \"#utility.yul\":8538:8540   */\n      0x20\n        /* \"#utility.yul\":8533:8536   */\n      dup3\n        /* \"#utility.yul\":8529:8541   */\n      add\n        /* \"#utility.yul\":8522:8541   */\n      swap1\n      pop\n        /* \"#utility.yul\":8181:8547   */\n      swap2\n      swap1\n      pop\n      jump\t// out\n        /* \"#utility.yul\":8553:8972   */\n    tag_61:\n        /* \"#utility.yul\":8719:8723   */\n      0x00\n        /* \"#utility.yul\":8757:8759   */\n      0x20\n        /* \"#utility.yul\":8746:8755   */\n      dup3\n        /* \"#utility.yul\":8742:8760   */\n      add\n        /* \"#utility.yul\":8734:8760   */\n      swap1\n      pop\n        /* \"#utility.yul\":8806:8815   */\n      dup2\n        /* \"#utility.yul\":8800:8804   */\n      dup2\n        /* \"#utility.yul\":8796:8816   */\n      sub\n        /* \"#utility.yul\":8792:8793   */\n      0x00\n        /* \"#utility.yul\":8781:8790   */\n      dup4\n        /* \"#utility.yul\":8777:8794   */\n      add\n        /* \"#utility.yul\":8770:8817   */\n      mstore\n        /* \"#utility.yul\":8834:8965   */\n      tag_191\n        /* \"#utility.yul\":8960:8964   */\n      dup2\n        /* \"#utility.yul\":8834:8965   */\n      tag_96\n      jump\t// in\n    tag_191:\n        /* \"#utility.yul\":8826:8965   */\n      swap1\n      pop\n        /* \"#utility.yul\":8553:8972   */\n      swap2\n      swap1\n      pop\n      jump\t// out\n        /* \"#utility.yul\":8978:9147   */\n    tag_97:\n        /* \"#utility.yul\":9118:9139   */\n      0x55736572206e6f74207265676973746572656400000000000000000000000000\n        /* \"#utility.yul\":9114:9115   */\n      0x00\n        /* \"#utility.yul\":9106:9112   */\n      dup3\n        /* \"#utility.yul\":9102:9116   */\n      add\n        /* \"#utility.yul\":9095:9140   */\n      mstore\n        /* \"#utility.yul\":8978:9147   */\n      pop\n      jump\t// out\n        /* \"#utility.yul\":9153:9519   */\n    tag_98:\n        /* \"#utility.yul\":9295:9298   */\n      0x00\n        /* \"#utility.yul\":9316:9383   */\n      tag_194\n        /* \"#utility.yul\":9380:9382   */\n      0x13\n        /* \"#utility.yul\":9375:9378   */\n      dup4\n        /* \"#utility.yul\":9316:9383   */\n      tag_88\n      jump\t// in\n    tag_194:\n        /* \"#utility.yul\":9309:9383   */\n      swap2\n      pop\n        /* \"#utility.yul\":9392:9485   */\n      tag_195\n        /* \"#utility.yul\":9481:9484   */\n      dup3\n        /* \"#utility.yul\":9392:9485   */\n      tag_97\n      jump\t// in\n    tag_195:\n        /* \"#utility.yul\":9510:9512   */\n      0x20\n        /* \"#utility.yul\":9505:9508   */\n      dup3\n        /* \"#utility.yul\":9501:9513   */\n      add\n        /* \"#utility.yul\":9494:9513   */\n      swap1\n      pop\n        /* \"#utility.yul\":9153:9519   */\n      swap2\n      swap1\n      pop\n      jump\t// out\n        /* \"#utility.yul\":9525:9944   */\n    tag_65:\n        /* \"#utility.yul\":9691:9695   */\n      0x00\n        /* \"#utility.yul\":9729:9731   */\n      0x20\n        /* \"#utility.yul\":9718:9727   */\n      dup3\n        /* \"#utility.yul\":9714:9732   */\n      add\n        /* \"#utility.yul\":9706:9732   */\n      swap1\n      pop\n        /* \"#utility.yul\":9778:9787   */\n      dup2\n        /* \"#utility.yul\":9772:9776   */\n      dup2\n        /* \"#utility.yul\":9768:9788   */\n      sub\n        /* \"#utility.yul\":9764:9765   */\n      0x00\n        /* \"#utility.yul\":9753:9762   */\n      dup4\n        /* \"#utility.yul\":9749:9766   */\n      add\n        /* \"#utility.yul\":9742:9789   */\n      mstore\n        /* \"#utility.yul\":9806:9937   */\n      tag_197\n        /* \"#utility.yul\":9932:9936   */\n      dup2\n        /* \"#utility.yul\":9806:9937   */\n      tag_98\n      jump\t// in\n    tag_197:\n        /* \"#utility.yul\":9798:9937   */\n      swap1\n      pop\n        /* \"#utility.yul\":9525:9944   */\n      swap2\n      swap1\n      pop\n      jump\t// out\n\n    auxdata: 0xa264697066735822122002a6d527aab6cbedf67db765f981499faec74a752d1df8b30cc7f7e060bda72564736f6c634300080a0033\n}\n",
    "bytecode": {
      "linkReferences": {},
      "object": "608060405234801561001057600080fd5b50610ac6806100206000396000f3fe608060405234801561001057600080fd5b506004361061004c5760003560e01c80630b2551c2146100515780634a54315c14610081578063a95ceb641461009d578063cea6ab98146100cd575b600080fd5b61006b600480360381019061006691906105ea565b6100fe565b6040516100789190610632565b60405180910390f35b61009b60048036038101906100969190610793565b61012a565b005b6100b760048036038101906100b291906105ea565b6104d4565b6040516100c49190610866565b60405180910390f35b6100e760048036038101906100e291906105ea565b610562565b6040516100f5929190610881565b60405180910390f35b600080600083815260200190815260200160002060000160019054906101000a900460ff169050919050565b610133826100fe565b15610173576040517f08c379a000000000000000000000000000000000000000000000000000000000815260040161016a90610907565b60405180910390fd5b60008160405160200161018691906109a1565b6040516020818303038152906040528051906020012090507f675bc9802ff0994bbcafe826bffd0f15ec0a3ec17fd0cfbe035a08cbededf8a381141561025b576040518060400160405280600060038111156101e5576101e46107ef565b5b81526020016001151581525060008085815260200190815260200160002060008201518160000160006101000a81548160ff0219169083600381111561022e5761022d6107ef565b5b021790555060208201518160000160016101000a81548160ff0219169083151502179055509050506104cf565b7f65d6d8ec1bc409f65d476fe400dd3779c6e4acfa95e33ebdd3c4b2c97785af43811415610318576040518060400160405280600160038111156102a2576102a16107ef565b5b81526020016001151581525060008085815260200190815260200160002060008201518160000160006101000a81548160ff021916908360038111156102eb576102ea6107ef565b5b021790555060208201518160000160016101000a81548160ff0219169083151502179055509050506104ce565b7fb7574f44139a2269a58d8ea35f879ab6fce8bf7505ad0717e10d89bf739e76068114156103d55760405180604001604052806002600381111561035f5761035e6107ef565b5b81526020016001151581525060008085815260200190815260200160002060008201518160000160006101000a81548160ff021916908360038111156103a8576103a76107ef565b5b021790555060208201518160000160016101000a81548160ff0219169083151502179055509050506104cd565b7f60098439c256bcef427a4680fedcb96a8a1b70ca9eca0d69db5352a893ea015581141561049157604051806040016040528060038081111561041b5761041a6107ef565b5b81526020016001151581525060008085815260200190815260200160002060008201518160000160006101000a81548160ff02191690836003811115610464576104636107ef565b5b021790555060208201518160000160016101000a81548160ff0219169083151502179055509050506104cc565b6040517f08c379a00000000000000000000000000000000000000000000000000000000081526004016104c390610a04565b60405180910390fd5b5b5b5b505050565b600080600083815260200190815260200160002060000160019054906101000a900460ff16610538576040517f08c379a000000000000000000000000000000000000000000000000000000000815260040161052f90610a70565b60405180910390fd5b60008083815260200190815260200160002060000160009054906101000a900460ff169050919050565b60006020528060005260406000206000915090508060000160009054906101000a900460ff16908060000160019054906101000a900460ff16905082565b6000604051905090565b600080fd5b600080fd5b6000819050919050565b6105c7816105b4565b81146105d257600080fd5b50565b6000813590506105e4816105be565b92915050565b600060208284031215610600576105ff6105aa565b5b600061060e848285016105d5565b91505092915050565b60008115159050919050565b61062c81610617565b82525050565b60006020820190506106476000830184610623565b92915050565b600080fd5b600080fd5b6000601f19601f8301169050919050565b7f4e487b7100000000000000000000000000000000000000000000000000000000600052604160045260246000fd5b6106a082610657565b810181811067ffffffffffffffff821117156106bf576106be610668565b5b80604052505050565b60006106d26105a0565b90506106de8282610697565b919050565b600067ffffffffffffffff8211156106fe576106fd610668565b5b61070782610657565b9050602081019050919050565b82818337600083830152505050565b6000610736610731846106e3565b6106c8565b90508281526020810184848401111561075257610751610652565b5b61075d848285610714565b509392505050565b600082601f83011261077a5761077961064d565b5b813561078a848260208601610723565b91505092915050565b600080604083850312156107aa576107a96105aa565b5b60006107b8858286016105d5565b925050602083013567ffffffffffffffff8111156107d9576107d86105af565b5b6107e585828601610765565b9150509250929050565b7f4e487b7100000000000000000000000000000000000000000000000000000000600052602160045260246000fd5b6004811061082f5761082e6107ef565b5b50565b60008190506108408261081e565b919050565b600061085082610832565b9050919050565b61086081610845565b82525050565b600060208201905061087b6000830184610857565b92915050565b60006040820190506108966000830185610857565b6108a36020830184610623565b9392505050565b600082825260208201905092915050565b7f5573657220616c72656164792072656769737465726564210000000000000000600082015250565b60006108f16018836108aa565b91506108fc826108bb565b602082019050919050565b60006020820190508181036000830152610920816108e4565b9050919050565b600081519050919050565b600081905092915050565b60005b8381101561095b578082015181840152602081019050610940565b8381111561096a576000848401525b50505050565b600061097b82610927565b6109858185610932565b935061099581856020860161093d565b80840191505092915050565b60006109ad8284610970565b915081905092915050565b7f496e76616c696420726f6c652100000000000000000000000000000000000000600082015250565b60006109ee600d836108aa565b91506109f9826109b8565b602082019050919050565b60006020820190508181036000830152610a1d816109e1565b9050919050565b7f55736572206e6f74207265676973746572656400000000000000000000000000600082015250565b6000610a5a6013836108aa565b9150610a6582610a24565b602082019050919050565b60006020820190508181036000830152610a8981610a4d565b905091905056fea264697066735822122002a6d527aab6cbedf67db765f981499faec74a752d1df8b30cc7f7e060bda72564736f6c634300080a0033",
      "opcodes": "PUSH1 0x80 PUSH1 0x40 MSTORE CALLVALUE DUP1 ISZERO PUSH2 0x10 JUMPI PUSH1 0x0 DUP1 REVERT JUMPDEST POP PUSH2 0xAC6 DUP1 PUSH2 0x20 PUSH1 0x0 CODECOPY PUSH1 0x0 RETURN INVALID PUSH1 0x80 PUSH1 0x40 MSTORE CALLVALUE DUP1 ISZERO PUSH2 0x10 JUMPI PUSH1 0x0 DUP1 REVERT JUMPDEST POP PUSH1 0x4 CALLDATASIZE LT PUSH2 0x4C JUMPI PUSH1 0x0 CALLDATALOAD PUSH1 0xE0 SHR DUP1 PUSH4 0xB2551C2 EQ PUSH2 0x51 JUMPI DUP1 PUSH4 0x4A54315C EQ PUSH2 0x81 JUMPI DUP1 PUSH4 0xA95CEB64 EQ PUSH2 0x9D JUMPI DUP1 PUSH4 0xCEA6AB98 EQ PUSH2 0xCD JUMPI JUMPDEST PUSH1 0x0 DUP1 REVERT JUMPDEST PUSH2 0x6B PUSH1 0x4 DUP1 CALLDATASIZE SUB DUP2 ADD SWAP1 PUSH2 0x66 SWAP2 SWAP1 PUSH2 0x5EA JUMP JUMPDEST PUSH2 0xFE JUMP JUMPDEST PUSH1 0x40 MLOAD PUSH2 0x78 SWAP2 SWAP1 PUSH2 0x632 JUMP JUMPDEST PUSH1 0x40 MLOAD DUP1 SWAP2 SUB SWAP1 RETURN JUMPDEST PUSH2 0x9B PUSH1 0x4 DUP1 CALLDATASIZE SUB DUP2 ADD SWAP1 PUSH2 0x96 SWAP2 SWAP1 PUSH2 0x793 JUMP JUMPDEST PUSH2 0x12A JUMP JUMPDEST STOP JUMPDEST PUSH2 0xB7 PUSH1 0x4 DUP1 CALLDATASIZE SUB DUP2 ADD SWAP1 PUSH2 0xB2 SWAP2 SWAP1 PUSH2 0x5EA JUMP JUMPDEST PUSH2 0x4D4 JUMP JUMPDEST PUSH1 0x40 MLOAD PUSH2 0xC4 SWAP2 SWAP1 PUSH2 0x866 JUMP JUMPDEST PUSH1 0x40 MLOAD DUP1 SWAP2 SUB SWAP1 RETURN JUMPDEST PUSH2 0xE7 PUSH1 0x4 DUP1 CALLDATASIZE SUB DUP2 ADD SWAP1 PUSH2 0xE2 SWAP2 SWAP1 PUSH2 0x5EA JUMP JUMPDEST PUSH2 0x562 JUMP JUMPDEST PUSH1 0x40 MLOAD PUSH2 0xF5 SWAP3 SWAP2 SWAP1 PUSH2 0x881 JUMP JUMPDEST PUSH1 0x40 MLOAD DUP1 SWAP2 SUB SWAP1 RETURN JUMPDEST PUSH1 0x0 DUP1 PUSH1 0x0 DUP4 DUP2 MSTORE PUSH1 0x20 ADD SWAP1 DUP2 MSTORE PUSH1 0x20 ADD PUSH1 0x0 KECCAK256 PUSH1 0x0 ADD PUSH1 0x1 SWAP1 SLOAD SWAP1 PUSH2 0x100 EXP SWAP1 DIV PUSH1 0xFF AND SWAP1 POP SWAP2 SWAP1 POP JUMP JUMPDEST PUSH2 0x133 DUP3 PUSH2 0xFE JUMP JUMPDEST ISZERO PUSH2 0x173 JUMPI PUSH1 0x40 MLOAD PUSH32 0x8C379A000000000000000000000000000000000000000000000000000000000 DUP2 MSTORE PUSH1 0x4 ADD PUSH2 0x16A SWAP1 PUSH2 0x907 JUMP JUMPDEST PUSH1 0x40 MLOAD DUP1 SWAP2 SUB SWAP1 REVERT JUMPDEST PUSH1 0x0 DUP2 PUSH1 0x40 MLOAD PUSH1 0x20 ADD PUSH2 0x186 SWAP2 SWAP1 PUSH2 0x9A1 JUMP JUMPDEST PUSH1 0x40 MLOAD PUSH1 0x20 DUP2 DUP4 SUB SUB DUP2 MSTORE SWAP1 PUSH1 0x40 MSTORE DUP1 MLOAD SWAP1 PUSH1 0x20 ADD KECCAK256 SWAP1 POP PUSH32 0x675BC9802FF0994BBCAFE826BFFD0F15EC0A3EC17FD0CFBE035A08CBEDEDF8A3 DUP2 EQ ISZERO PUSH2 0x25B JUMPI PUSH1 0x40 MLOAD DUP1 PUSH1 0x40 ADD PUSH1 0x40 MSTORE DUP1 PUSH1 0x0 PUSH1 0x3 DUP2 GT ISZERO PUSH2 0x1E5 JUMPI PUSH2 0x1E4 PUSH2 0x7EF JUMP JUMPDEST JUMPDEST DUP2 MSTORE PUSH1 0x20 ADD PUSH1 0x1 ISZERO ISZERO DUP2 MSTORE POP PUSH1 0x0 DUP1 DUP6 DUP2 MSTORE PUSH1 0x20 ADD SWAP1 DUP2 MSTORE PUSH1 0x20 ADD PUSH1 0x0 KECCAK256 PUSH1 0x0 DUP3 ADD MLOAD DUP2 PUSH1 0x0 ADD PUSH1 0x0 PUSH2 0x100 EXP DUP2 SLOAD DUP2 PUSH1 0xFF MUL NOT AND SWAP1 DUP4 PUSH1 0x3 DUP2 GT ISZERO PUSH2 0x22E JUMPI PUSH2 0x22D PUSH2 0x7EF JUMP JUMPDEST JUMPDEST MUL OR SWAP1 SSTORE POP PUSH1 0x20 DUP3 ADD MLOAD DUP2 PUSH1 0x0 ADD PUSH1 0x1 PUSH2 0x100 EXP DUP2 SLOAD DUP2 PUSH1 0xFF MUL NOT AND SWAP1 DUP4 ISZERO ISZERO MUL OR SWAP1 SSTORE POP SWAP1 POP POP PUSH2 0x4CF JUMP JUMPDEST PUSH32 0x65D6D8EC1BC409F65D476FE400DD3779C6E4ACFA95E33EBDD3C4B2C97785AF43 DUP2 EQ ISZERO PUSH2 0x318 JUMPI PUSH1 0x40 MLOAD DUP1 PUSH1 0x40 ADD PUSH1 0x40 MSTORE DUP1 PUSH1 0x1 PUSH1 0x3 DUP2 GT ISZERO PUSH2 0x2A2 JUMPI PUSH2 0x2A1 PUSH2 0x7EF JUMP JUMPDEST JUMPDEST DUP2 MSTORE PUSH1 0x20 ADD PUSH1 0x1 ISZERO ISZERO DUP2 MSTORE POP PUSH1 0x0 DUP1 DUP6 DUP2 MSTORE PUSH1 0x20 ADD SWAP1 DUP2 MSTORE PUSH1 0x20 ADD PUSH1 0x0 KECCAK256 PUSH1 0x0 DUP3 ADD MLOAD DUP2 PUSH1 0x0 ADD PUSH1 0x0 PUSH2 0x100 EXP DUP2 SLOAD DUP2 PUSH1 0xFF MUL NOT AND SWAP1 DUP4 PUSH1 0x3 DUP2 GT ISZERO PUSH2 0x2EB JUMPI PUSH2 0x2EA PUSH2 0x7EF JUMP JUMPDEST JUMPDEST MUL OR SWAP1 SSTORE POP PUSH1 0x20 DUP3 ADD MLOAD DUP2 PUSH1 0x0 ADD PUSH1 0x1 PUSH2 0x100 EXP DUP2 SLOAD DUP2 PUSH1 0xFF MUL NOT AND SWAP1 DUP4 ISZERO ISZERO MUL OR SWAP1 SSTORE POP SWAP1 POP POP PUSH2 0x4CE JUMP JUMPDEST PUSH32 0xB7574F44139A2269A58D8EA35F879AB6FCE8BF7505AD0717E10D89BF739E7606 DUP2 EQ ISZERO PUSH2 0x3D5 JUMPI PUSH1 0x40 MLOAD DUP1 PUSH1 0x40 ADD PUSH1 0x40 MSTORE DUP1 PUSH1 0x2 PUSH1 0x3 DUP2 GT ISZERO PUSH2 0x35F JUMPI PUSH2 0x35E PUSH2 0x7EF JUMP JUMPDEST JUMPDEST DUP2 MSTORE PUSH1 0x20 ADD PUSH1 0x1 ISZERO ISZERO DUP2 MSTORE POP PUSH1 0x0 DUP1 DUP6 DUP2 MSTORE PUSH1 0x20 ADD SWAP1 DUP2 MSTORE PUSH1 0x20 ADD PUSH1 0x0 KECCAK256 PUSH1 0x0 DUP3 ADD MLOAD DUP2 PUSH1 0x0 ADD PUSH1 0x0 PUSH2 0x100 EXP DUP2 SLOAD DUP2 PUSH1 0xFF MUL NOT AND SWAP1 DUP4 PUSH1 0x3 DUP2 GT ISZERO PUSH2 0x3A8 JUMPI PUSH2 0x3A7 PUSH2 0x7EF JUMP JUMPDEST JUMPDEST MUL OR SWAP1 SSTORE POP PUSH1 0x20 DUP3 ADD MLOAD DUP2 PUSH1 0x0 ADD PUSH1 0x1 PUSH2 0x100 EXP DUP2 SLOAD DUP2 PUSH1 0xFF MUL NOT AND SWAP1 DUP4 ISZERO ISZERO MUL OR SWAP1 SSTORE POP SWAP1 POP POP PUSH2 0x4CD JUMP JUMPDEST PUSH32 0x60098439C256BCEF427A4680FEDCB96A8A1B70CA9ECA0D69DB5352A893EA0155 DUP2 EQ ISZERO PUSH2 0x491 JUMPI PUSH1 0x40 MLOAD DUP1 PUSH1 0x40 ADD PUSH1 0x40 MSTORE DUP1 PUSH1 0x3 DUP1 DUP2 GT ISZERO PUSH2 0x41B JUMPI PUSH2 0x41A PUSH2 0x7EF JUMP JUMPDEST JUMPDEST DUP2 MSTORE PUSH1 0x20 ADD PUSH1 0x1 ISZERO ISZERO DUP2 MSTORE POP PUSH1 0x0 DUP1 DUP6 DUP2 MSTORE PUSH1 0x20 ADD SWAP1 DUP2 MSTORE PUSH1 0x20 ADD PUSH1 0x0 KECCAK256 PUSH1 0x0 DUP3 ADD MLOAD DUP2 PUSH1 0x0 ADD PUSH1 0x0 PUSH2 0x100 EXP DUP2 SLOAD DUP2 PUSH1 0xFF MUL NOT AND SWAP1 DUP4 PUSH1 0x3 DUP2 GT ISZERO PUSH2 0x464 JUMPI PUSH2 0x463 PUSH2 0x7EF JUMP JUMPDEST JUMPDEST MUL OR SWAP1 SSTORE POP PUSH1 0x20 DUP3 ADD MLOAD DUP2 PUSH1 0x0 ADD PUSH1 0x1 PUSH2 0x100 EXP DUP2 SLOAD DUP2 PUSH1 0xFF MUL NOT AND SWAP1 DUP4 ISZERO ISZERO MUL OR SWAP1 SSTORE POP SWAP1 POP POP PUSH2 0x4CC JUMP JUMPDEST PUSH1 0x40 MLOAD PUSH32 0x8C379A000000000000000000000000000000000000000000000000000000000 DUP2 MSTORE PUSH1 0x4 ADD PUSH2 0x4C3 SWAP1 PUSH2 0xA04 JUMP JUMPDEST PUSH1 0x40 MLOAD DUP1 SWAP2 SUB SWAP1 REVERT JUMPDEST JUMPDEST JUMPDEST JUMPDEST POP POP POP JUMP JUMPDEST PUSH1 0x0 DUP1 PUSH1 0x0 DUP4 DUP2 MSTORE PUSH1 0x20 ADD SWAP1 DUP2 MSTORE PUSH1 0x20 ADD PUSH1 0x0 KECCAK256 PUSH1 0x0 ADD PUSH1 0x1 SWAP1 SLOAD SWAP1 PUSH2 0x100 EXP SWAP1 DIV PUSH1 0xFF AND PUSH2 0x538 JUMPI PUSH1 0x40 MLOAD PUSH32 0x8C379A000000000000000000000000000000000000000000000000000000000 DUP2 MSTORE PUSH1 0x4 ADD PUSH2 0x52F SWAP1 PUSH2 0xA70 JUMP JUMPDEST PUSH1 0x40 MLOAD DUP1 SWAP2 SUB SWAP1 REVERT JUMPDEST PUSH1 0x0 DUP1 DUP4 DUP2 MSTORE PUSH1 0x20 ADD SWAP1 DUP2 MSTORE PUSH1 0x20 ADD PUSH1 0x0 KECCAK256 PUSH1 0x0 ADD PUSH1 0x0 SWAP1 SLOAD SWAP1 PUSH2 0x100 EXP SWAP1 DIV PUSH1 0xFF AND SWAP1 POP SWAP2 SWAP1 POP JUMP JUMPDEST PUSH1 0x0 PUSH1 0x20 MSTORE DUP1 PUSH1 0x0 MSTORE PUSH1 0x40 PUSH1 0x0 KECCAK256 PUSH1 0x0 SWAP2 POP SWAP1 POP DUP1 PUSH1 0x0 ADD PUSH1 0x0 SWAP1 SLOAD SWAP1 PUSH2 0x100 EXP SWAP1 DIV PUSH1 0xFF AND SWAP1 DUP1 PUSH1 0x0 ADD PUSH1 0x1 SWAP1 SLOAD SWAP1 PUSH2 0x100 EXP SWAP1 DIV PUSH1 0xFF AND SWAP1 POP DUP3 JUMP JUMPDEST PUSH1 0x0 PUSH1 0x40 MLOAD SWAP1 POP SWAP1 JUMP JUMPDEST PUSH1 0x0 DUP1 REVERT JUMPDEST PUSH1 0x0 DUP1 REVERT JUMPDEST PUSH1 0x0 DUP2 SWAP1 POP SWAP2 SWAP1 POP JUMP JUMPDEST PUSH2 0x5C7 DUP2 PUSH2 0x5B4 JUMP JUMPDEST DUP2 EQ PUSH2 0x5D2 JUMPI PUSH1 0x0 DUP1 REVERT JUMPDEST POP JUMP JUMPDEST PUSH1 0x0 DUP2 CALLDATALOAD SWAP1 POP PUSH2 0x5E4 DUP2 PUSH2 0x5BE JUMP JUMPDEST SWAP3 SWAP2 POP POP JUMP JUMPDEST PUSH1 0x0 PUSH1 0x20 DUP3 DUP5 SUB SLT ISZERO PUSH2 0x600 JUMPI PUSH2 0x5FF PUSH2 0x5AA JUMP JUMPDEST JUMPDEST PUSH1 0x0 PUSH2 0x60E DUP5 DUP3 DUP6 ADD PUSH2 0x5D5 JUMP JUMPDEST SWAP2 POP POP SWAP3 SWAP2 POP POP JUMP JUMPDEST PUSH1 0x0 DUP2 ISZERO ISZERO SWAP1 POP SWAP2 SWAP1 POP JUMP JUMPDEST PUSH2 0x62C DUP2 PUSH2 0x617 JUMP JUMPDEST DUP3 MSTORE POP POP JUMP JUMPDEST PUSH1 0x0 PUSH1 0x20 DUP3 ADD SWAP1 POP PUSH2 0x647 PUSH1 0x0 DUP4 ADD DUP5 PUSH2 0x623 JUMP JUMPDEST SWAP3 SWAP2 POP POP JUMP JUMPDEST PUSH1 0x0 DUP1 REVERT JUMPDEST PUSH1 0x0 DUP1 REVERT JUMPDEST PUSH1 0x0 PUSH1 0x1F NOT PUSH1 0x1F DUP4 ADD AND SWAP1 POP SWAP2 SWAP1 POP JUMP JUMPDEST PUSH32 0x4E487B7100000000000000000000000000000000000000000000000000000000 PUSH1 0x0 MSTORE PUSH1 0x41 PUSH1 0x4 MSTORE PUSH1 0x24 PUSH1 0x0 REVERT JUMPDEST PUSH2 0x6A0 DUP3 PUSH2 0x657 JUMP JUMPDEST DUP2 ADD DUP2 DUP2 LT PUSH8 0xFFFFFFFFFFFFFFFF DUP3 GT OR ISZERO PUSH2 0x6BF JUMPI PUSH2 0x6BE PUSH2 0x668 JUMP JUMPDEST JUMPDEST DUP1 PUSH1 0x40 MSTORE POP POP POP JUMP JUMPDEST PUSH1 0x0 PUSH2 0x6D2 PUSH2 0x5A0 JUMP JUMPDEST SWAP1 POP PUSH2 0x6DE DUP3 DUP3 PUSH2 0x697 JUMP JUMPDEST SWAP2 SWAP1 POP JUMP JUMPDEST PUSH1 0x0 PUSH8 0xFFFFFFFFFFFFFFFF DUP3 GT ISZERO PUSH2 0x6FE JUMPI PUSH2 0x6FD PUSH2 0x668 JUMP JUMPDEST JUMPDEST PUSH2 0x707 DUP3 PUSH2 0x657 JUMP JUMPDEST SWAP1 POP PUSH1 0x20 DUP2 ADD SWAP1 POP SWAP2 SWAP1 POP JUMP JUMPDEST DUP3 DUP2 DUP4 CALLDATACOPY PUSH1 0x0 DUP4 DUP4 ADD MSTORE POP POP POP JUMP JUMPDEST PUSH1 0x0 PUSH2 0x736 PUSH2 0x731 DUP5 PUSH2 0x6E3 JUMP JUMPDEST PUSH2 0x6C8 JUMP JUMPDEST SWAP1 POP DUP3 DUP2 MSTORE PUSH1 0x20 DUP2 ADD DUP5 DUP5 DUP5 ADD GT ISZERO PUSH2 0x752 JUMPI PUSH2 0x751 PUSH2 0x652 JUMP JUMPDEST JUMPDEST PUSH2 0x75D DUP5 DUP3 DUP6 PUSH2 0x714 JUMP JUMPDEST POP SWAP4 SWAP3 POP POP POP JUMP JUMPDEST PUSH1 0x0 DUP3 PUSH1 0x1F DUP4 ADD SLT PUSH2 0x77A JUMPI PUSH2 0x779 PUSH2 0x64D JUMP JUMPDEST JUMPDEST DUP2 CALLDATALOAD PUSH2 0x78A DUP5 DUP3 PUSH1 0x20 DUP7 ADD PUSH2 0x723 JUMP JUMPDEST SWAP2 POP POP SWAP3 SWAP2 POP POP JUMP JUMPDEST PUSH1 0x0 DUP1 PUSH1 0x40 DUP4 DUP6 SUB SLT ISZERO PUSH2 0x7AA JUMPI PUSH2 0x7A9 PUSH2 0x5AA JUMP JUMPDEST JUMPDEST PUSH1 0x0 PUSH2 0x7B8 DUP6 DUP3 DUP7 ADD PUSH2 0x5D5 JUMP JUMPDEST SWAP3 POP POP PUSH1 0x20 DUP4 ADD CALLDATALOAD PUSH8 0xFFFFFFFFFFFFFFFF DUP2 GT ISZERO PUSH2 0x7D9 JUMPI PUSH2 0x7D8 PUSH2 0x5AF JUMP JUMPDEST JUMPDEST PUSH2 0x7E5 DUP6 DUP3 DUP7 ADD PUSH2 0x765 JUMP JUMPDEST SWAP2 POP POP SWAP3 POP SWAP3 SWAP1 POP JUMP JUMPDEST PUSH32 0x4E487B7100000000000000000000000000000000000000000000000000000000 PUSH1 0x0 MSTORE PUSH1 0x21 PUSH1 0x4 MSTORE PUSH1 0x24 PUSH1 0x0 REVERT JUMPDEST PUSH1 0x4 DUP2 LT PUSH2 0x82F JUMPI PUSH2 0x82E PUSH2 0x7EF JUMP JUMPDEST JUMPDEST POP JUMP JUMPDEST PUSH1 0x0 DUP2 SWAP1 POP PUSH2 0x840 DUP3 PUSH2 0x81E JUMP JUMPDEST SWAP2 SWAP1 POP JUMP JUMPDEST PUSH1 0x0 PUSH2 0x850 DUP3 PUSH2 0x832 JUMP JUMPDEST SWAP1 POP SWAP2 SWAP1 POP JUMP JUMPDEST PUSH2 0x860 DUP2 PUSH2 0x845 JUMP JUMPDEST DUP3 MSTORE POP POP JUMP JUMPDEST PUSH1 0x0 PUSH1 0x20 DUP3 ADD SWAP1 POP PUSH2 0x87B PUSH1 0x0 DUP4 ADD DUP5 PUSH2 0x857 JUMP JUMPDEST SWAP3 SWAP2 POP POP JUMP JUMPDEST PUSH1 0x0 PUSH1 0x40 DUP3 ADD SWAP1 POP PUSH2 0x896 PUSH1 0x0 DUP4 ADD DUP6 PUSH2 0x857 JUMP JUMPDEST PUSH2 0x8A3 PUSH1 0x20 DUP4 ADD DUP5 PUSH2 0x623 JUMP JUMPDEST SWAP4 SWAP3 POP POP POP JUMP JUMPDEST PUSH1 0x0 DUP3 DUP3 MSTORE PUSH1 0x20 DUP3 ADD SWAP1 POP SWAP3 SWAP2 POP POP JUMP JUMPDEST PUSH32 0x5573657220616C72656164792072656769737465726564210000000000000000 PUSH1 0x0 DUP3 ADD MSTORE POP JUMP JUMPDEST PUSH1 0x0 PUSH2 0x8F1 PUSH1 0x18 DUP4 PUSH2 0x8AA JUMP JUMPDEST SWAP2 POP PUSH2 0x8FC DUP3 PUSH2 0x8BB JUMP JUMPDEST PUSH1 0x20 DUP3 ADD SWAP1 POP SWAP2 SWAP1 POP JUMP JUMPDEST PUSH1 0x0 PUSH1 0x20 DUP3 ADD SWAP1 POP DUP2 DUP2 SUB PUSH1 0x0 DUP4 ADD MSTORE PUSH2 0x920 DUP2 PUSH2 0x8E4 JUMP JUMPDEST SWAP1 POP SWAP2 SWAP1 POP JUMP JUMPDEST PUSH1 0x0 DUP2 MLOAD SWAP1 POP SWAP2 SWAP1 POP JUMP JUMPDEST PUSH1 0x0 DUP2 SWAP1 POP SWAP3 SWAP2 POP POP JUMP JUMPDEST PUSH1 0x0 JUMPDEST DUP4 DUP2 LT ISZERO PUSH2 0x95B JUMPI DUP1 DUP3 ADD MLOAD DUP2 DUP5 ADD MSTORE PUSH1 0x20 DUP2 ADD SWAP1 POP PUSH2 0x940 JUMP JUMPDEST DUP4 DUP2 GT ISZERO PUSH2 0x96A JUMPI PUSH1 0x0 DUP5 DUP5 ADD MSTORE JUMPDEST POP POP POP POP JUMP JUMPDEST PUSH1 0x0 PUSH2 0x97B DUP3 PUSH2 0x927 JUMP JUMPDEST PUSH2 0x985 DUP2 DUP6 PUSH2 0x932 JUMP JUMPDEST SWAP4 POP PUSH2 0x995 DUP2 DUP6 PUSH1 0x20 DUP7 ADD PUSH2 0x93D JUMP JUMPDEST DUP1 DUP5 ADD SWAP2 POP POP SWAP3 SWAP2 POP POP JUMP JUMPDEST PUSH1 0x0 PUSH2 0x9AD DUP3 DUP5 PUSH2 0x970 JUMP JUMPDEST SWAP2 POP DUP2 SWAP1 POP SWAP3 SWAP2 POP POP JUMP JUMPDEST PUSH32 0x496E76616C696420726F6C652100000000000000000000000000000000000000 PUSH1 0x0 DUP3 ADD MSTORE POP JUMP JUMPDEST PUSH1 0x0 PUSH2 0x9EE PUSH1 0xD DUP4 PUSH2 0x8AA JUMP JUMPDEST SWAP2 POP PUSH2 0x9F9 DUP3 PUSH2 0x9B8 JUMP JUMPDEST PUSH1 0x20 DUP3 ADD SWAP1 POP SWAP2 SWAP1 POP JUMP JUMPDEST PUSH1 0x0 PUSH1 0x20 DUP3 ADD SWAP1 POP DUP2 DUP2 SUB PUSH1 0x0 DUP4 ADD MSTORE PUSH2 0xA1D DUP2 PUSH2 0x9E1 JUMP JUMPDEST SWAP1 POP SWAP2 SWAP1 POP JUMP JUMPDEST PUSH32 0x55736572206E6F74207265676973746572656400000000000000000000000000 PUSH1 0x0 DUP3 ADD MSTORE POP JUMP JUMPDEST PUSH1 0x0 PUSH2 0xA5A PUSH1 0x13 DUP4 PUSH2 0x8AA JUMP JUMPDEST SWAP2 POP PUSH2 0xA65 DUP3 PUSH2 0xA24 JUMP JUMPDEST PUSH1 0x20 DUP3 ADD SWAP1 POP SWAP2 SWAP1 POP JUMP JUMPDEST PUSH1 0x0 PUSH1 0x20 DUP3 ADD SWAP1 POP DUP2 DUP2 SUB PUSH1 0x0 DUP4 ADD MSTORE PUSH2 0xA89 DUP2 PUSH2 0xA4D JUMP JUMPDEST SWAP1 POP SWAP2 SWAP1 POP JUMP INVALID LOG2 PUSH5 0x6970667358 0x22 SLT KECCAK256 MUL 0xA6 0xD5 0x27 0xAA 0xB6 0xCB 0xED 0xF6 PUSH30 0xB765F981499FAEC74A752D1DF8B30CC7F7E060BDA72564736F6C63430008 EXP STOP CALLER "
    },
    "gasEstimates": {
      "creation": {
        "codeDepositCost": "551600",
        "executionCost": "587",
        "totalCost": "552187"
      },
      "external": {
        "checkUser(bytes32)": "2856",
        "getUserRole(bytes32)": "5226",
        "registerUser(bytes32,string)": "infinite",
        "users(bytes32)": "5258"
      }
    },
    "methodIdentifiers": {
      "checkUser(bytes32)": "0b2551c2",
      "getUserRole(bytes32)": "a95ceb64",
      "registerUser(bytes32,string)": "4a54315c",
      "users(bytes32)": "cea6ab98"
    }
  },
  "storageLayout": {
    "storage": [
      {
        "astId": 441,
        "contract": "registry.sol:Registry",
        "label": "users",
        "offset": 0,
        "slot": "0",
        "type": "t_mapping(t_bytes32,t_struct(User)436_storage)"
      }
    ],
    "types": {
      "t_bool": {
        "encoding": "inplace",
        "label": "bool",
        "numberOfBytes": "1"
      },
      "t_bytes32": {
        "encoding": "inplace",
        "label": "bytes32",
        "numberOfBytes": "32"
      },
      "t_enum(Role)430": {
        "encoding": "inplace",
        "label": "enum Registry.Role",
        "numberOfBytes": "1"
      },
      "t_mapping(t_bytes32,t_struct(User)436_storage)": {
        "encoding": "mapping",
        "key": "t_bytes32",
        "label": "mapping(bytes32 => struct Registry.User)",
        "numberOfBytes": "32",
        "value": "t_struct(User)436_storage"
      },
      "t_struct(User)436_storage": {
        "encoding": "inplace",
        "label": "struct Registry.User",
        "members": [
          {
            "astId": 433,
            "contract": "registry.sol:Registry",
            "label": "role",
            "offset": 0,
            "slot": "0",
            "type": "t_enum(Role)430"
          },
          {
            "astId": 435,
            "contract": "registry.sol:Registry",
            "label": "isRegistered",
            "offset": 1,
            "slot": "0",
            "type": "t_bool"
          }
        ],
        "numberOfBytes": "32"
      }
    }
  },
  "userdoc": {
    "kind": "user",
    "methods": {},
    "version": 1
  }
}